:060000000A128A11BC2F58
:1008B0000730831603139F008312031385148316D6
:1008C00003138501880108008312031385120512A2
:1008D00085110A128A11C6240A128A11831203137F
:1008E0008515080001308312031388008512051254
:1008F00085110A128A11C6240A128A11831203135F
:100900008515080002308312031388008512051232
:1009100085110A128A11C6240A128A11831203133E
:1009200085150800C0308312031388008512051254
:1009300085110A128A11C6240A128A11831203131E
:1009400085150800F20072088312031388008516CB
:10095000051285110A128A11C6240A128A118312FD
:100960000313851508007E088A007F0882000A129A
:100970008A11B3240A128A118000840A04087D06B1
:1009800003190034FF0A0319FE0AB72CF001F10124
:100990000130F0070318F10A0030F1077108803ABE
:1009A000FF0093307F02031DD72C88307002031C98
:1009B000DA2CDB2CC82C080083160313890188016C
:1009C0000F30860001308312031389000A128A1146
:1009D00065250A128A11413083160313E700ED30B2
:1009E000E600E60BF12CE70BF12CF62C0A128A112B
:1009F0001B270A128A11013083120313AC00003046
:100A0000AD00F62C0A128A1100280A128A117224EB
:100A10000A128A110A128A1182240A128A11AF302C
:100A2000F3000030F4000A128A1198250A128A1184
:100A30000A128A1192240A128A11A030F30000309F
:100A4000F4000A128A1198250A128A111A30FC0041
:100A50005E30FB006E30FA00FA0B2C2DFB0B2C2DB8
:100A6000FC0B2C2D00000800533465346E346834C0
:100A70006134203441347434753461346C346934F5
:100A80007A3461346434613400344F346B343A3432
:100A9000463420346F34753420344E346534673432
:100AA000613472343A3445340034533465346E342E
:100AB000683461342034633461346E3463346534B3
:100AC0006C3461346434613400340A128A1158245D
:100AD0000A128A1101308312031388000A128A1144
:100AE00064240A128A1138308312031388000A1210
:100AF0008A1164240A128A110E30831203138800AB
:100B00000A128A1164240A128A110630831203130E
:100B100088000A128A1164240A128A118030831212
:100B2000031388000A128A1164240A128A11080029
:100B3000F801F901B82D78087307F6007408F5007C
:100B40000318F50AF81FA52DF5037508F7007608B8
:100B500084008317771C831300080A128A11A224C9
:100B60000A128A110130F8070318F90A0030F90750
:100B700078087307F6007408F5000318F50AF81FE3
:100B8000C22DF5037508F700760884008317771CDB
:100B900083130008031DCD2DCE2D9B2D0800CC34D2
:100BA00000340134003401340034013400340134A1
:100BB00000340A3400340134003444346934673476
:100BC0006934743465343A34203400345234653432
:100BD00061347434693476346134723400345F348F
:100BE0005F345F345F340034303430343034303488
:100BF0000034353435343534353400343034303421
:100C0000303430340034313432343134323400341E
:100C10002034203420342034203420342034303424
:100C20002034303420343034203430340034203414
:100C30005A346F346E3461343A34203431342034D1
:100C40003234203433342034343400345334653473
:100C50006E346834613420345534733475346134FF
:100C6000723469346F340034533465346E3468340C
:100C70006134203443346F346134633461346F340D
:100C80000034533465346E34683461342034433472
:100C90006F346E34663469346734003444346934F4
:100CA00067346934743465342034613420347334E7
:100CB00065346E34683461340034443465347334DC
:100CC00061347434693476346134723420345A3483
:100CD0006F346E34613400342034203420344E3488
:100CE0006F34763461342034733465346E34683450
:100CF00061340034533465346E34683461342034E4
:100D00004434693473347034613472346F34003471
:100D1000533465346E3468346134203463346F3452
:100D2000723472346534743461340034533465344D
:100D30006E34683461342034653472347234613412
:100D400064346134003483120313DF00E001E101F5
:100D5000082F60085F07DC005C0884003030000664
:100D6000031DB32EB42ED02E60085907DC005C089A
:100D700084000008DD00DE015B085E06031DC22E54
:100D80005A085D06031DC52EC62ED02E3130DC005C
:100D900060085F07DD005D0884005C088000F62EB7
:100DA00060085F07DC005C08840031300006031D2A
:100DB000DA2EDB2EF62E60085907DC005C08840072
:100DC0000008DD00DE015B085E06031DE92E5A08FF
:100DD0005D06031DEC2EED2EF62E3030DC00600893
:100DE0005F07DD005D0884005C0880000D30831221
:100DF0000313DD00FB30DC00DC0BFC2EDD0BFC2ED6
:100E0000013083120313E0070318E10A0030E10701
:100E100060085F07DC005C08840083130008031D82
:100E2000122F132FA92EAC01AD010A128A1105252C
:100E30000A128A1108000A128A1105250A128A115B
:100E4000EF30831203138600B32F0730831203138E
:100E5000E4005830E3005930E200E20B2D2FE30BA1
:100E60002D2FE40B2D2F831203130618382F392F43
:100E7000532F0D3083120313E300FB30E200E20B2B
:100E80003F2FE30B3F2FAF3083120313E2006208C2
:100E9000D9003130DA000030DB00A0300A128A11AC
:100EA000A3260A128A11831203138618582F592F6A
:100EB000732F0D3083120313E300FB30E200E20BCB
:100EC0005F2FE30B5F2FAF3083120313E200620842
:100ED000D9003230DA000030DB00A0300A128A116B
:100EE000A3260A128A11831203130619782F792F69
:100EF000932F0D3083120313E300FB30E200E20B6B
:100F00007F2FE30B7F2FAF3083120313E2006208C1
:100F1000D9003330DA000030DB00A0300A128A1129
:100F2000A3260A128A11831203138619982F992F68
:100F3000B32F0D3083120313E300FB30E200E20B0A
:100F40009F2FE30B9F2FAF3083120313E200620841
:100F5000D9003430DA000030DB00A0300A128A11E8
:100F6000A3260A128A11831203132C082D04031DD1
:100F7000BA2FBB2F252F08008317E530FD00063060
:100F8000FE004E30FF00903084000A128A11B72410
:100F90000A128A114130FD000530FE003430FF0096
:100FA000103084000A128A11B7240A128A1183139E
:100FB000E630FD000630FE000830FF00A03084005F
:100FC0000A128A11B7240A128A115930FD0005301D
:100FD000FE00CF30FF00203084000A128A11B724AF
:100FE0000A128A11E501E601E701E801E901EA01D7
:100FF000EB01EC01ED01EE0183010A128A11DC2CF8
:00000001FF
