:060000000A128A11EA2F2A
:10087E000730831603139F00831203138514831608
:10088E0003138501880108004130F100EE30F000BD
:10089E00F00B4F2CF10B4F2C000083120313890128
:1008AE000800831203138512051285110A128A118C
:1008BE00CE240A128A118312031385150800013003
:1008CE008312031388008512051285110A128A11EC
:1008DE00CE240A128A118312031385150800C03024
:1008EE008312031388008512051285110A128A11CC
:1008FE00CE240A128A1183120313851508000230C2
:10090E008312031388008512051285110A128A11AB
:10091E00CE240A128A118312031385150800F200E1
:10092E0072088312031388008516051285110A12A8
:10093E008A11CE240A128A11831203138515080018
:10094E007E088A007F0882000A128A11A7240A12E2
:10095E008A118000840A04087D0603190034FF0AF8
:10096E000319FE0AAB2C4434693467346934743489
:10097E006534203461342034733465346E34683415
:10098E00613400345F345F345F345F340034F0011F
:10099E00F1010130F0070318F10A0030F107710878
:1009AE00803AFF0093307F02031DDF2C88307002E7
:1009BE00031CE22CE32CD02C0800F4007408F20087
:1009CE007208F300EE2C0130F2007208F307730880
:1009DE00840083130008031DF52CF62CEA2C7408F2
:1009EE007302F000F101F01BF10308000A128A11E4
:1009FE0076240A128A1120300A128A1196240A12BB
:100A0E008A1120300A128A1196240A128A11203075
:100A1E000A128A1196240A128A1120300A128A1199
:100A2E0096240A128A1120300A128A1196240A126A
:100A3E008A1120300A128A1196240A128A1108008D
:100A4E0083160313890188010F308600013083124B
:100A5E00031389000A128A1154250A128A110A12E6
:100A6E008A1166240A128A117B087C04031D402D0C
:100A7E00412D502D0A128A11C2250A128A110A120C
:100A8E008A1187250A128A110130FB000030FC0002
:100A9E003B2D3B2D0A128A1100280A128A113F247F
:100AAE000A128A1101308312031388000A128A1166
:100ABE0058240A128A1138308312031388000A123E
:100ACE008A1158240A128A110E30831203138800D9
:100ADE000A128A1158240A128A110630831203133D
:100AEE0088000A128A1158240A128A118030831241
:100AFE00031388000A128A1158240A128A11080058
:100B0E000A128A1176240A128A110A128A11FD24F7
:100B1E000A128A11F701F801A42D77082F3E8400DE
:100B2E00831300080A128A1196240A128A110130C0
:100B3E00F7070318F80A0030F8072F300A128A1147
:100B4E00E4240A128A117008FF3EF500710803189A
:100B5E00013EFF3EF60078087602031DB82D770899
:100B6E0075020318BB2DBC2D942D0A128A11FD247B
:100B7E000A128A1108000A128A1186240A128A1190
:100B8E0020300A128A1196240A128A11F701F801EE
:100B9E00E02D7708203E8400831300080A128A1184
:100BAE0096240A128A110130F7070318F80A00304A
:100BBE00F80720300A128A11E4240A128A117008EA
:100BCE00FF3EF50071080318013EFF3EF60078085F
:100BDE007602031DF42D770875020318F72DF82DF4
:100BEE00D02D20300A128A1196240A128A1108007A
:100BFE000130831203138900EF3086000618082E89
:100C0E00092E212E0630F5001330F400AD30F3001E
:100C1E00F30B0F2EF40B0F2EF50B0F2E162E0A12B2
:100C2E008A114B240A128A1130300A128A11962424
:100C3E000A128A11831203138618262E272E3F2E90
:100C4E000630F5001330F400AD30F300F30B2D2E0B
:100C5E00F40B2D2EF50B2D2E342E0A128A114B2449
:100C6E000A128A1131300A128A1196240A128A1136
:100C7E00831203130619442E452E5D2E0630F50001
:100C8E001330F400AD30F300F30B4B2EF40B4B2E60
:100C9E00F50B4B2E522E0A128A114B240A128A1170
:100CAE0032300A128A1196240A128A118312031301
:100CBE008619622E632E7B2E0630F5001330F4005B
:100CCE00AD30F300F30B692EF40B692EF50B692E84
:100CDE00702E0A128A114B240A128A1133300A120C
:100CEE008A1196240A128A11DF30831203138600AA
:100CFE000618822E832E9B2E0630F5001330F4003C
:100D0E00AD30F300F30B892EF40B892EF50B892EE3
:100D1E00902E0A128A114B240A128A1134300A12AA
:100D2E008A1196240A128A11831203138618A02E92
:100D3E00A12EB92E0630F5001330F400AD30F300BD
:100D4E00F30BA72EF40BA72EF50BA72EAE2E0A1221
:100D5E008A114B240A128A1135300A128A119624EE
:100D6E000A128A11831203130619BE2EBF2ED72E16
:100D7E000630F5001330F400AD30F300F30BC52E42
:100D8E00F40BC52EF50BC52ECC2E0A128A114B2450
:100D9E000A128A1136300A128A1196240A128A1100
:100DAE00831203138619DC2EDD2EF52E0630F50088
:100DBE001330F400AD30F300F30BE32EF40BE32EFF
:100DCE00F50BE32EEA2E0A128A114B240A128A110F
:100DDE0037300A128A1196240A128A11BF308312F2
:100DEE00031386000618FC2EFD2E152F0630F50077
:100DFE001330F400AD30F300F30B032FF40B032F7D
:100E0E00F50B032F0A2F0A128A114B240A128A118C
:100E1E0038300A128A1196240A128A118312031389
:100E2E0086181A2F1B2F332F0630F5001330F400BF
:100E3E00AD30F300F30B212FF40B212FF50B212FE7
:100E4E00282F0A128A114B240A128A1139300A12DB
:100E5E008A1196240A128A11831203130619382F47
:100E6E00392F512F0630F5001330F400AD30F3005A
:100E7E00F30B3F2FF40B3F2FF50B3F2F462F0A128C
:100E8E008A114B240A128A1141300A128A119624B1
:100E9E000A128A11831203138619562F572F6F2F9A
:100EAE000630F5001330F400AD30F300F30B5D2F78
:100EBE00F40B5D2FF50B5D2F642F0A128A114B2454
:100ECE000A128A1142300A128A1196240A128A11C3
:100EDE007F308312031386000618762F772F8F2FFD
:100EEE000630F5001330F400AD30F300F30B7D2F18
:100EFE00F40B7D2FF50B7D2F842F0A128A114B24B4
:100F0E000A128A1143300A128A1196240A128A1181
:100F1E00831203138618942F952FAD2F0630F500EC
:100F2E001330F400AD30F300F30B9B2FF40B9B2F1B
:100F3E00F50B9B2FA22F0A128A114B240A128A112B
:100F4E0044300A128A1196240A128A11831203134C
:100F5E000619B22FB32FCB2F0630F5001330F40045
:100F6E00AD30F300F30BB92FF40BB92FF50BB92FEE
:100F7E00C02F0A128A114B240A128A1145300A1206
:100F8E008A1196240A128A11831203138619D02FFE
:100F9E00D12FE92F0630F5001330F400AD30F300F9
:100FAE00F30BD72FF40BD72FF50BD72FDE2F0A12FB
:100FBE008A114B240A128A1146300A128A1196247B
:100FCE000A128A11080083133430FD000430FE002B
:100FDE00BA30FF00203084000A128A11AB240A12A4
:100FEE008A11F901FA01FB01FC0183010A128A112F
:020FFE00272D9D
:00000001FF
