:060000000A128A11FC2F18
:100AC6000730831603139F008312031385148316BE
:100AD60003138501880108004130F100EE30F00073
:100AE600F00B732DF10B732D000083120313890194
:100AF6000800831203138512051285110A128A1142
:100B0600AB250A128A1183120313851508000130DA
:100B16008312031388008512051285110A128A11A1
:100B2600AB250A128A118312031385150800F200F9
:100B360072088312031388008516051285110A129E
:100B46008A11AB250A128A11831203138515080030
:100B5600F001F1010130F0070318F10A0030F10746
:100B66007108803AFF0093307F02031DBC2D883048
:100B76007002031CBF2DC02DAD2D08008316031374
:100B8600890188010F308600013083120313890022
:100B96000A128A11DE250A128A110A128A118A2578
:100BA6000A128A110A128A1111260A128A11D52DE1
:100BB6000A128A1100280A128A1163250A128A115A
:100BC60001308312031388000A128A117C250A1247
:100BD6008A1138308312031388000A128A117C2581
:100BE6000A128A110E308312031388000A128A1120
:100BF6007C250A128A1106308312031388000A1212
:100C06008A117C250A128A11803083120313880008
:100C16000A128A117C250A128A11080001308312F1
:100C260003138900EF30860006181A2E1B2E332E6A
:100C36000630F5001330F400AD30F300F30B212E2F
:100C4600F40B212EF50B212E282E0A128A116F2560
:100C56000A128A1130300A128A119A250A128A114A
:100C6600831203138618382E392E512E0630F500BE
:100C76001330F400AD30F300F30B3F2EF40B3F2E90
:100C8600F50B3F2E462E0A128A116F250A128A117B
:100C960031300A128A119A250A128A118312031315
:100CA6000619562E572E6F2E0630F5001330F40017
:100CB600AD30F300F30B5D2EF40B5D2EF50B5D2EC0
:100CC600642E0A128A116F250A128A1132300A120C
:100CD6008A119A250A128A11831203138619742E11
:100CE600752E8D2E0630F5001330F400AD30F3006E
:100CF600F30B7B2EF40B7B2EF50B7B2E822E0A122A
:100D06008A116F250A128A1133300A128A119A251E
:100D16000A128A11DF308312031386000618942EF6
:100D2600952EAD2E0630F5001330F400AD30F300ED
:100D3600F30B9B2EF40B9B2EF50B9B2EA22E0A1269
:100D46008A116F250A128A1134300A128A119A25DD
:100D56000A128A11831203138618B22EB32ECB2ED3
:100D66000630F5001330F400AD30F300F30BB92E66
:100D7600F40BB92EF50BB92EC02E0A128A116F2567
:100D86000A128A1135300A128A119A250A128A1114
:100D9600831203130619D02ED12EE92E0630F50044
:100DA6001330F400AD30F300F30BD72EF40BD72E2F
:100DB600F50BD72EDE2E0A128A116F250A128A111A
:100DC60036300A128A119A250A128A1183120313DF
:100DD6008619EE2EEF2E072F0630F5001330F4009D
:100DE600AD30F300F30BF52EF40BF52EF50BF52EC7
:100DF600FC2E0A128A116F250A128A1137300A123E
:100E06008A119A250A128A11BF30831203138600AB
:100E160006180E2F0F2F272F0630F5001330F4007B
:100E2600AD30F300F30B152FF40B152FF50B152F23
:100E36001C2F0A128A116F250A128A1138300A12DB
:100E46008A119A250A128A118312031386182C2FE7
:100E56002D2F452F0630F5001330F400AD30F3008A
:100E6600F30B332FF40B332FF50B332F3A2F0A12D4
:100E76008A116F250A128A1139300A128A119A25A7
:100E86000A128A118312031306194A2F4B2F632F56
:100E96000630F5001330F400AD30F300F30B512F9C
:100EA600F40B512FF50B512F582F0A128A116F256B
:100EB6000A128A1141300A128A119A250A128A11D7
:100EC600831203138619682F692F812F0630F500C8
:100ED6001330F400AD30F300F30B6F2FF40B6F2FCC
:100EE600F50B6F2F762F0A128A116F250A128A11B7
:100EF60042300A128A119A250A128A117F30831209
:100F0600031386000618882F892FA12F0630F500B7
:100F16001330F400AD30F300F30B8F2FF40B8F2F4B
:100F2600F50B8F2F962F0A128A116F250A128A1136
:100F360043300A128A119A250A128A118312031360
:100F46008618A62FA72FBF2F0630F5001330F40002
:100F5600AD30F300F30BAD2FF40BAD2FF50BAD2F2A
:100F6600B42F0A128A116F250A128A1144300A1206
:100F76008A119A250A128A11831203130619C42F9D
:100F8600C52FDD2F0630F5001330F400AD30F30029
:100F9600F30BCB2FF40BCB2FF50BCB2FD22F0A1243
:100FA6008A116F250A128A1145300A128A119A256A
:100FB6000A128A11831203138619E22FE32FFB2FDD
:100FC6000630F5001330F400AD30F300F30BE92FD3
:100FD600F40BE92FF50BE92FF02F0A128A116F2572
:100FE6000A128A1146300A128A119A250A128A11A1
:0A0FF600080083010A128A11C12DC0
:00000001FF
