:060000000A128A11D32F41
:100AB800013400340730831603139F008312031395
:100AC8008514831603138501880108008312031314
:100AD8008512051285110A128A11CC250A128A116B
:100AE800831203138515080001308312031388004D
:100AF8008512051285110A128A11CC250A128A114B
:100B08008312031385150800C0308312031388006D
:100B18008512051285110A128A11CC250A128A112A
:100B2800831203138515080002308312031388000B
:100B38008512051285110A128A11CC250A128A110A
:100B48008312031385150800F20072088312031339
:100B580088008516051285110A128A11CC250A12F9
:100B68008A1183120313851508007E088A007F08FE
:100B780082000A128A11B9250A128A118000840A91
:100B880004087D0603190034FF0A0319FE0ABD2D67
:100B9800F001F1010130F0070318F10A0030F10704
:100BA8007108803AFF0093307F02031DDD2D8830E5
:100BB8007002031CE02DE12DCE2D0800F40074080E
:100BC800F2007208F300EC2D0130F2007208F3070E
:100BD8007308840083130008031DF32DF42DE82DFA
:100BE80074087302F000F101F01BF10308000134EE
:100BF80000344434693467346934743465342034D7
:100C080061342034733465346E34683461340034AC
:100C18005F345F345F345F3400343134323431341C
:100C280032340034313432343134323400340A123C
:100C38008A1188250A128A1120300A128A11A825D9
:100C48000A128A1120300A128A11A8250A128A115A
:100C580020300A128A11A8250A128A1120300A1295
:100C68008A11A8250A128A1120300A128A11A82589
:100C78000A128A1120300A128A11A8250A128A112A
:100C88000800F6004F2E0130F2007208F607013016
:100C9800F2007208F0077008840083130008F2005D
:100CA800760884000008F30072087302F4007408E0
:100CB800F5007508031D612E622E692E76088400E2
:100CC8000008031D682E692E472E7508F000F101F3
:100CD800F01BF10308000A128A115E250A128A1114
:100CE80001308312031388000A128A116A250A1236
:100CF8008A1138308312031388000A128A116A2570
:100D08000A128A110E308312031388000A128A11FC
:100D18006A250A128A1106308312031388000A1200
:100D28008A116A250A128A118030831203138800F7
:100D38000A128A116A250A128A1108000A128A11EF
:100D480088250A128A110A128A111B260A128A1188
:100D5800F701F801BF2E7708313E8400831300089D
:100D68000A128A11A8250A128A110130F7070318F6
:100D7800F80A0030F80731300A128A11E2250A12FF
:100D88008A117008FF3EF50071080318013EFF3E06
:100D9800F60078087602031DD32E7708750203182B
:100DA800D62ED72EAF2E0A128A111B260A128A11A6
:100DB80008000A128A1198250A128A1120300A128C
:100DC8008A11A8250A128A11F701F801FB2E770863
:100DD800223E8400831300080A128A11A8250A12E9
:100DE8008A110130F7070318F80A0030F807223093
:100DF8000A128A11E2250A128A117008FF3EF500CC
:100E080071080318013EFF3EF60078087602031DBC
:100E18000F2F770875020318122F132FEB2E20308F
:100E28000A128A11A8250A128A11080083160313C8
:100E3800890188010F30860001308312031389006D
:100E48000A128A116F260A128A110A128A11782543
:100E58000A128A1183120313200821040319352F5B
:100E6800362F442F0A128A11DD260A128A110A1215
:100E78008A11A2260A128A1183120313A001A10162
:100E88007A037B04031D492F4A2F2E2F0A128A1139
:100E980078250A128A1145300A128A11A8250A12E1
:100EA8008A110A128A115E270A128A112E2F0A1233
:100EB8008A110028CC2F3630F7007708F0003B3035
:100EC8000A128A1145260A128A1170087104031D34
:100ED8006E2F6F2FCC2FFA01FB0153300A128A11A3
:100EE800A8250A128A1165300A128A11A8250A1241
:100EF8008A116E300A128A11A8250A128A116830DE
:100F08000A128A11A8250A128A1161300A128A1156
:100F1800A8250A128A1120300A128A11A8250A1255
:100F28008A1163300A128A11A8250A128A116F30B1
:100F38000A128A11A8250A128A1172300A128A1115
:100F4800A8250A128A1172300A128A11A8250A12D3
:100F58008A1165300A128A11A8250A128A1174307A
:100F68000A128A11A8250A128A1161300A128A11F6
:100F7800A8250A128A114030F9006A30F800973023
:100F8800F700F70BC52FF80BC52FF90BC52FCC2F82
:100F98007A037B040319D12FD22F5F2F0800831304
:100FA8004030FD000530FE00FB30FF00203084009B
:100FB8000A128A11BD250A128A110A128A115C25A1
:100FC8000A128A11FA000A128A115D250A128A1178
:100FD800FB00C001C101C201C301C401C501C601B2
:100FE800C701C801C901CA01CB01CC01CD01FC016F
:080FF80083010A128A111A2F6D
:00000001FF
