:060000000A128A11BA2F5A
:100016000A168A110B240A128A11823083120313DC
:10002600BF00DD30BE00BE0B1628BF0B16280A1611
:100036008A1189220A128A11823083120313BF00A1
:10004600DD30BE00BE0B2528BF0B25280A168A11F7
:10005600B3240A128A110A168A1175240A128A1101
:100066005329C101C2010A3083120313D60000309E
:10007600D70042280A128A115C210A128A110A3014
:10008600831203135606570403194A284B283D28A2
:100096005708F1005608F0000A168A118D260A1232
:1000A6008A1183120313BE0041085A3E84003E089B
:1000B60083138000033041064204031D632864282D
:1000C600AF285A30BE003E08F0005F300A168A118B
:1000D60083230A128A11700871040319732874287D
:1000E600AF285A3083120313BE003E08F000E430F6
:1000F6000A168A1183230A128A11700871040319D9
:1001060085288628AF28013083120313D2000030D9
:10011600D300D001D1010A168A1189220A128A1146
:100126000A168A1199220A128A11E330F300013065
:10013600F4000A168A113E240A128A1133308312F9
:100146000313C000BB30BF00DF30BE00BE0BA928C2
:10015600BF0BA928C00BA9285A3083120313BE006F
:100166003E08F0005F300A168A1183230A128A11AC
:1001760070087104031DC028C128EF2883120313D9
:10018600D201D3010130D0000030D1000A30C100C5
:100196000030C2000A168A1189220A128A110A162A
:1001A6008A1199220A128A11BB30F3000130F40039
:1001B6000A168A113E240A128A1133308312031357
:1001C600C000BB30BF00DF30BE00BE0BE828BF0B4F
:1001D600E828C00BE8283E295A3083120313BE00D4
:1001E6003E08F000E4300A168A1183230A128A11A7
:1001F60070087104031D002901293E298312031387
:10020600D201D3010A30C1000030C2000130EE0035
:100216000030EF000A168A1189220A128A110A167C
:100226008A1199220A128A11BB30F3000130F400B8
:100236000A168A113E240A128A11333083120313D6
:10024600C000BB30BF00DF30BE00BE0B2829BF0B8D
:100256002829C00B2829AF3083120313BE003E089D
:10026600F0003130F1000030F200A0300A128A1599
:1002760092210A128A11013083120313C10703184F
:10028600C20A0030C2074208803AFF0080307F026F
:10029600031D4F2908304102031C522953293628D1
:1002A6008312031352085304031D5A295B29342869
:1002B60008000130831203138900EF308600061808
:1002C600652966299329063083120313BD0013306E
:1002D600BC00AD30BB00BB0B6E29BC0B6E29BD0B41
:1002E6006E293D3083120313B800CC30B700CC30F2
:1002F600B600CD30B5000A168A11FD260A128A11FB
:1003060030300A168A11A9220A128A11831203139F
:10031600520853040319902991299329D601D7012C
:10032600861896299729C629063083120313BD001D
:100336001330BC00AD30BB00BB0B9F29BC0B9F2903
:10034600BD0B9F293D3083120313B800CC30B70094
:10035600CC30B600CD30B5000A168A11FD260A1239
:100366008A1131300A168A11A9220A128A118312B9
:100376000313520853040319C129C229C62901309F
:10038600D6000030D7000619C929CA29F92906302E
:1003960083120313BD001330BC00AD30BB00BB0B92
:1003A600D229BC0BD229BD0BD2293D3083120313AF
:1003B600B800CC30B700CC30B600CD30B5000A1648
:1003C6008A11FD260A128A1132300A168A11A922CA
:1003D6000A128A1183120313520853040319F429CB
:1003E600F529F9290230D6000030D7008619FC29F4
:1003F600FD292C2A063083120313BD001330BC00DE
:10040600AD30BB00BB0B052ABC0B052ABD0B052A6C
:100416003D3083120313B800CC30B700CC30B600A1
:10042600CD30B5000A168A11FD260A128A1133301C
:100436000A168A11A9220A128A1183120313520874
:1004460053040319272A282A2C2A0330D600003001
:10045600D700DF3086000618312A322A612A063094
:1004660083120313BD001330BC00AD30BB00BB0BC1
:100476003A2ABC0B3A2ABD0B3A2A3D3083120313A3
:10048600B800CC30B700CC30B600CD30B5000A1677
:100496008A11FD260A128A1134300A168A11A922F7
:1004A6000A128A11831203135208530403195C2A91
:1004B6005D2A612A0430D6000030D7008618642AE7
:1004C600652A942A063083120313BD001330BC003C
:1004D600AD30BB00BB0B6D2ABC0B6D2ABD0B6D2A64
:1004E6003D3083120313B800CC30B700CC30B600D1
:1004F600CD30B5000A168A11FD260A128A1135304A
:100506000A168A11A9220A128A11831203135208A3
:10051600530403198F2A902A942A0530D6000030F6
:10052600D7000619972A982AC72A0630831203137A
:10053600BD001330BC00AD30BB00BB0BA02ABC0B0A
:10054600A02ABD0BA02A3D3083120313B800CC307D
:10055600B700CC30B600CD30B5000A168A11FD269C
:100566000A128A1136300A168A11A9220A128A112B
:1005760083120313520853040319C22AC32AC72A33
:100586000630D6000030D7008619CA2ACB2AFA2AA6
:10059600063083120313BD001330BC00AD30BB0020
:1005A600BB0BD32ABC0BD32ABD0BD32A3D308312F7
:1005B6000313B800CC30B700CC30B600CD30B50050
:1005C6000A168A11FD260A128A1137300A168A116E
:1005D600A9220A128A11831203135208530403191B
:1005E600F52AF62AFA2A0730D6000030D700BF309F
:1005F60086000618FF2A002B2F2B063083120313C2
:10060600BD001330BC00AD30BB00BB0B082BBC0BD0
:10061600082BBD0B082B3D3083120313B800CC30DA
:10062600B700CC30B600CD30B5000A168A11FD26CB
:100636000A128A1138300A168A11A9220A128A1158
:10064600831203135208530403192A2B2B2B2F2B27
:100656000830D6000030D7008618322B332B622B99
:10066600063083120313BD001330BC00AD30BB004F
:10067600BB0B3B2BBC0B3B2BBD0B3B2B3D308312EB
:100686000313B800CC30B700CC30B600CD30B5007F
:100696000A168A11FD260A128A1139300A168A119B
:1006A600A9220A128A11831203135208530403194A
:1006B6005D2B5E2B622B0930D6000030D700061961
:1006C600652B662B892B063083120313BD0013306E
:1006D600BC00AD30BB00BB0B6E2BBC0B6E2BBD0B39
:1006E6006E2B3D3083120313B800CC30B700CC30EC
:1006F600B600CD30B5000A168A11FD260A128A11F7
:1007060041300A168A11A9220A128A11831203138A
:1007160086198E2B8F2BB22B063083120313BD0046
:100726001330BC00AD30BB00BB0B972BBC0B972B1B
:10073600BD0B972B3D3083120313B800CC30B700A6
:10074600CC30B600CD30B5000A168A11FD260A1245
:100756008A1142300A168A11A9220A128A117F309A
:100766008312031386000618B92BBA2BDD2B06302D
:1007760083120313BD001330BC00AD30BB00BB0BAE
:10078600C22BBC0BC22BBD0BC22B3D3083120313F5
:10079600B800CC30B700CC30B600CD30B5000A1664
:1007A6008A11FD260A128A1143300A168A11A922D5
:1007B6000A128A11831203138618E22BE32B062CE6
:1007C600063083120313BD001330BC00AD30BB00EE
:1007D600BB0BEB2BBC0BEB2BBD0BEB2B3D3083127A
:1007E6000313B800CC30B700CC30B600CD30B5001E
:1007F6000A168A11FD260A128A1144300A168A112F
:10080600A9220A128A118312031306190B2C0C2C27
:100816002F2C063083120313BD001330BC00AD30FD
:10082600BB00BB0B142CBC0B142CBD0B142C3D3085
:1008360083120313B800CC30B700CC30B600CD30ED
:10084600B5000A168A11FD260A128A1145300A16C3
:100856008A11A9220A128A11831203138619342CCB
:10086600352C582C063083120313BD001330BC0000
:10087600AD30BB00BB0B3D2CBC0B3D2CBD0B3D2C4A
:100886003D3083120313B800CC30B700CC30B6002D
:10089600CD30B5000A168A11FD260A128A11463095
:1008A6000A168A11A9220A128A1108008312031352
:1008B60023088039F9007908A8002308F900790788
:1008C600FA007A08AE00A21F692C6A2C6B2C2E1433
:1008D6002E0803196F2C702C7F2C2E0A031D742CE6
:1008E600752C7D2C0030A3000030A2000030A10042
:1008F6000030A000A217872C0030A3000030A20011
:100906000030A1000030A00027088039F9007908DE
:10091600A8062708F9007907FA007A08AD00A61F8D
:10092600952C962C972C2D142D0803199B2C9C2C5A
:10093600AB2C2D0A031DA02CA12CA92C0030A7003E
:100946000030A6000030A5000030A400A617B32C86
:100956000030A7000030A6000030A5000030A4003B
:100966002D080319B72CB82CBD2C2E08031DBC2C42
:10097600BD2CC62C0030A3000030A2000030A10020
:100986000030A000B92F2008F9007908F0002608E9
:100996000A168A115C230A128A117108831203133C
:1009A600B4007008B3003308F900FA01FB01FC013A
:1009B6007C08AC007B08AB007A08AA007908A9007D
:1009C6003408F900FA01FB01FC017C08B2007B083F
:1009D600B1007A08B0007908AF002108F90079085B
:1009E600F00025080A168A115C230A128A1171087A
:1009F60083120313B4007008B3003308F900FA0138
:100A0600FB01FC017908A9077A0803110318013EC6
:100A160003190E2DAA077B0803110318013E0319BB
:100A2600152DAB077C0803110318013E03191C2D75
:100A3600AC073408F900FA01FB01FC017908AF079D
:100A46007A0803110318013E03192A2DB0077B0803
:100A560003110318013E0319312DB1077C08031158
:100A66000318013E0319382DB2072208F900790848
:100A7600F00024080A168A115C230A128A117108EA
:100A860083120313B4007008B3003308F900FA01A7
:100A9600FB01FC017908A9077A0803110318013E36
:100AA6000319562DAA077B0803110318013E0319E3
:100AB6005D2DAB077C0803110318013E0319642D55
:100AC600AC073408F900FA01FB01FC017908AF070D
:100AD6007A0803110318013E0319722DB0077B082B
:100AE60003110318013E0319792DB1077C08031180
:100AF6000318013E0319802DB2070830F9000310D0
:100B0600A90DAA0DAB0DAC0DF90B822D2108F9002C
:100B16007908F00024080A168A115C230A128A1141
:100B2600710883120313B4007008B3003308F90088
:100B36003408FA00FB01FC017908A9077A080311B9
:100B46000318013E0319A82DAA077B0803110318F1
:100B5600013E0319AF2DAB077C0803110318013EB4
:100B66000319B62DAC072008F9007908F00025080E
:100B76000A168A115C230A128A117108831203135A
:100B8600B4007008B3003308F9003408FA00FB011A
:100B9600FC017908A9077A0803110318013E031915
:100BA600D52DAA077B0803110318013E0319DC2D76
:100BB600AB077C0803110318013E0319E32DAC07AC
:100BC6000830F9000310A90DAA0DAB0DAC0DF90BF9
:100BD600E52D2008F9007908F00024080A168A1184
:100BE6005C230A128A11710883120313B400700879
:100BF600B3003308F9003408FA00FB01FC01790858
:100C0600A9077A0803110318013E03190B2EAA0738
:100C16007B0803110318013E0319122EAB077C084B
:100C260003110318013E0319192EAC072108F90018
:100C36007908F00026080A168A115C230A128A111E
:100C4600710883120313B4007008B3003308F90067
:100C56003408FA00FB01FC017908AF077A08031192
:100C66000318013E0319382EB0077B080311031839
:100C7600013E03193F2EB1077C0803110318013EFC
:100C86000319462EB2072208F9007908F000250854
:100C96000A168A115C230A128A1171088312031339
:100CA600B4007008B3003308F9003408FA00FB01F9
:100CB600FC017908AF077A0803110318013E0319EE
:100CC600652EB0077B0803110318013E03196C2E2D
:100CD600B1077C0803110318013E0319732EB207EE
:100CE6002208F9007908F00026080A168A115C2302
:100CF6000A128A11710883120313B4007008B30034
:100D06003308F9003408FA00FB01FC01083003102F
:100D1600F90DFA0DFB0DFC0DFF3E031D8A2E790819
:100D2600AF077A0803110318013E03199B2EB0077B
:100D36007B0803110318013E0319A22EB1077C0894
:100D460003110318013E0319A92EB2072908F90059
:100D56002A08FA002B08FB002C08FC0018300310A8
:100D6600FC0CFB0CFA0CF90CFF3E031DB22E7908A5
:100D7600AF077A0803110318013E0319C32EB00703
:100D86007B0803110318013E0319CA2EB1077C081C
:100D960003110318013E0319D12EB2070830F900DA
:100DA6000310A90DAA0DAB0DAC0DF90BD32E2E0811
:100DB6002D07F900FA01FA0D7908823EB3007A0888
:100DC6000318013EFF3EB400052F0130F900031061
:100DD600AF0DB00DB10DB20DF90BEA2EAC1FF42E0E
:100DE600F52EF62E2F140130F9000310A90DAA0DC9
:100DF600AB0DAC0DF90BF82EFF30B3070318B40A90
:100E0600FF30B407B11F082F092FE82EAD01AC1F24
:100E16000D2F0E2F2A2FFF302905F900FF302A0546
:100E2600FA00FF302B05FB007F302C05FC007C0808
:100E36007B047A0479040319212F222F252FAD0173
:100E4600AD0A2A2F2F1C282F292F2A2F222F2D08B3
:100E560003192E2F2F2F602F0130AF0700300318F4
:100E66000130B007003003180130B1070030031815
:100E76000130B207321C402F412F602F2F08F90096
:100E86003008FA003108FB003208FC000130FD0092
:100E96007C0DFC0CFB0CFA0CF90CFD0B4B2F7C08A3
:100EA600B2007B08B1007A08B0007908AF000130C3
:100EB600B3070318B40A0030B4073408803AFF00B9
:100EC60080307F02031D692FFF303302031C6C2F15
:100ED6006D2F782F7F3083120313B2008030B1005C
:100EE6000030B0000030AF00AD2F8312031334087A
:100EF600803AFF0080307F02031D832F01303302CA
:100F06000318862F872F932F003083120313B20006
:100F16000030B1000030B0000030AF00A801AD2FA6
:100F2600831203133308F9007908AE00FF30AF05CA
:100F3600FF30B0057F30B1050030B2052E1CA42F5E
:100F4600A52FA62FB1172E08F9000310790CFA0069
:100F56007A08B2002808F9007908B2043208A3001A
:100F66003108A2003008A1002F08A000080083174E
:100F7600F030FD001630FE002D30FF00903084006A
:100F86000A168A11BE220A128A115E30FD00083046
:100F9600FE000930FF00103084000A168A11BE22B6
:100FA6000A128A118313E930FD001530FE003B302A
:100FB600FF00A03084000A168A11BE220A128A1186
:100FC6006430FD001230FE00E330FF004E30840036
:100FD6000A168A11BE220A128A11E401E501E60107
:100FE600E701E801E901EA01EB01EC01ED01EE019F
:0A0FF600EF0183010A128A15502A48
:10101200533465346E34683461342034413474346A
:10102200753461346C3469347A34613464346134D3
:1010320000344F346B343A34463420346F347534D0
:1010420020344E3465346734613472343A34453472
:101052000034533465346E3468346134203463347C
:1010620061346E34633465346C34613464346134B5
:101072000034443469346734693474346534203458
:1010820061342034733465346E346834613400342E
:101092002034203420344E346F347634613420349A
:1010A200733465346E346834613400340A168A113C
:1010B200AD230A128A15EF3083120313860007301C
:1010C20083120313A2005830A1005930A000A00BD4
:1010D2006828A10B6828A20B68288312031306183C
:1010E200732874288E280D3083120313A100FB305D
:1010F200A000A00B7A28A10B7A28AF308312031329
:10110200A0002008F0003130F1000030F200A030E1
:101112000A128A1592210A128A158312031386185B
:1011220093289428AE280D3083120313A100FB30BC
:10113200A000A00B9A28A10B9A28AF3083120313A8
:10114200A0002008F0003230F1000030F200A030A0
:101152000A128A1592210A128A158312031306199A
:10116200B328B428CE280D3083120313A100FB301C
:10117200A000A00BBA28A10BBA28AF308312031328
:10118200A0002008F0003330F1000030F200A0305F
:101192000A128A1592210A128A15831203138619DA
:1011A200D328D42860280D3083120313A100FB300A
:1011B200A000A00BDA28A10BDA28AF3083120313A8
:1011C200A0002008F0003430F1000030F200A0301E
:1011D2000A128A1592210A128A1560280800003024
:1011E2007005F80000307105F90080307205FA00D0
:1011F2007F307305FB007B087A0479047804031DB1
:10120200032904290C290030F3000030F2000030D9
:10121200F1000030F00000307405F8000030750570
:10122200F90080307605FA007F307705FB007B08F5
:101232007A0479047804031D1F2920292829003003
:10124200F7000030F6000030F5000030F400F31F24
:101252002B292C2950290030F8000030F9000030E9
:10126200FA008030FB007008F8027108031C710F4D
:101272003B293C29F9027208031C720F41294229B9
:10128200FA027308031C730F47294829FB027B08E3
:10129200F3007A08F2007908F1007808F000F71FED
:1012A2005329542978290030F8000030F900003021
:1012B200FA008030FB007408F8027508031C750FF1
:1012C20063296429F9027608031C760F69296A29C1
:1012D200FA027708031C770F6F297029FB027B083B
:1012E200F7007A08F6007908F5007808F4008030F3
:1012F200F3068030F70677087302031D8A29760801
:101302007202031D8A2975087102031D8A29740855
:10131200700203188D298E29902903109129031434
:101322000800FA00831203136E086F0403199A2946
:101332009B29E529F601F701D92976087A07F300F6
:101342007308840031300006031DA829A929D32976
:1013520076087007F300730884000008F400F501B2
:1013620072087506031DB72971087406031DBA2990
:10137200BB29D3293030F30076087A07F4007408C9
:101382008400730880000D30F400FB30F300F30B8F
:10139200C829F40BC829CD290130F1070318F20A34
:1013A2000030F2070130F6070318F70A0030F7079A
:1013B20076087A07F3007308840083130008031D7C
:1013C200E329E4299E294F2AF801F901442A7808E1
:1013D2007A07F3007308840030300006031DF229F7
:1013E200F3290F2A78087007F300730884000008B5
:1013F200F400F50172087506031D012A71087406CE
:10140200031D042A052A0F2A3130F30078087A07CF
:10141200F4007408840073088000352A78087A077B
:10142200F3007308840031300006031D192A1A2ABA
:10143200352A78087007F300730884000008F40066
:10144200F50172087506031D282A71087406031D2A
:101452002B2A2C2A352A3030F30078087A07F40038
:1014620074088400730880000D30F400FB30F30030
:10147200F30B392AF40B392A3E2A0130F8070318F4
:10148200F90A0030F90778087A07F3007308840034
:1014920083130008031D4E2A4F2AE82908008316E9
:1014A2000313890188010F30860001308312031370
:1014B20089000A168A115E220A128A15652A0A1200
:1014C2008A110B200A128A1583120313520853043D
:1014D200031D6C2A6D2A602AC02A0A168A110B245F
:1014E2000A128A150A168A1189220A128A150A16FE
:1014F2008A1199220A128A15BE30F3000030F400D4
:101502000A168A113E240A128A15333083120313F3
:10151200CD00BB30CC00DF30CB00CB0B8E2ACC0B06
:101522008E2ACD0B8E2A0A168A11AD230A128A152B
:101532007F308312031386000618A02AA12AC02A2C
:10154200033083120313CD008A30CC005530CB0018
:10155200CB0BA92ACC0BA92ACD0BA92A83120313E0
:10156200EE01EF013D30B800CC30B700CC30B60010
:10157200CD30B5000A168A11FD260A128A15831289
:1015820003136E086F04031DC72AC82A6E2A1E2B76
:1015920002300A168A11DC230A128A157108831294
:1015A2000313E7007008E6006708BC006608BB008A
:1015B2000A128A152A230A128A1502308312031389
:1015C200CD004530CC00A930CB00CB0BE62ACC0BAA
:1015D200E62ACD0BE62A831203136808690403196D
:1015E200F32AF42A1E2B052B6908C8006808C700D5
:1015F2000A168A1184250A128A151E2B0A128A15C6
:1016020057200A128A151E2B6908003A03190A2B61
:101612001E2B6808013A0319F52A033A0319F52A21
:10162200013A0319F52A073A0319FF2A013A031965
:101632001E2B033A03191E2B1E2B83120313500871
:101642005104031D252B262BC92A652A0A128A1149
:101652000028BF3083120313860000303C02CD30D5
:1016620003193B020318362B372B8D2B0A168A11CE
:101672000B240A128A150A168A1189220A128A155D
:101682000A168A1199220A128A153E300A168A11FE
:10169200A9220A128A15D630F3000130F4000A1684
:1016A2008A113E240A128A150A168A1179220A120E
:1016B2008A15AD30F3000130F4000A168A113E2477
:1016C2000A128A15831203130619682B692B672DD8
:1016D200033083120313BF008A30BE005530BD00B1
:1016E200BD0B712BBE0B712BBF0B712B3D308312C7
:1016F2000313B800CC30B700CC30B600CD30B50003
:101702000A168A11FD260A128A1501308312031362
:10171200E8000030E900672D01303C0299300319DE
:101722003B020318952B962BEC2B0A168A110B24DD
:101732000A128A150A168A1189220A128A150A16AB
:101742008A1199220A128A15D630F3000130F40068
:101752000A168A113E240A128A150A168A11792259
:101762000A128A153E300A168A11A9220A128A150D
:10177200AD30F3000130F4000A168A113E240A1239
:101782008A15831203130619C72BC82B672D033042
:1017920083120313BF008A30BE005530BD00BD0B5B
:1017A200D02BBE0BD02BBF0BD02B3D30831203139B
:1017B200B800CC30B700CC30B600CD30B5000A1638
:1017C2008A11FD260A128A15023083120313E800D9
:1017D2000030E900672D02303C02653003193B02FC
:1017E2000318F42BF52B4B2C0A168A110B240A1220
:1017F2008A150A168A1189220A128A150A168A116C
:1018020099220A128A153E300A168A11A9220A1250
:101812008A15C930F3000130F4000A168A113E24F9
:101822000A128A150A168A1179220A128A159F301B
:10183200F3000130F4000A168A113E240A128A15B6
:10184200831203130619262C272C672D03308312CB
:101852000313BF008A30BE005530BD00BD0B2F2CD4
:10186200BE0B2F2CBF0B2F2C3D3083120313B8005D
:10187200CC30B700CC30B600CD30B5000A168A1194
:10188200FD260A128A15033083120313E800003082
:10189200E900672D03303C02313003193B02031883
:1018A200532C542CAA2C0A168A110B240A128A15BC
:1018B2000A168A1189220A128A150A168A1199228F
:1018C2000A128A15C930F3000130F4000A168A118F
:1018D2003E240A128A150A168A1179220A128A15D8
:1018E2003E300A168A11A9220A128A159F30F30085
:1018F2000130F4000A168A113E240A128A15831254
:1019020003130619852C862C672D033083120313CB
:10191200BF008A30BE005530BD00BD0B8E2CBE0B01
:101922008E2CBF0B8E2C3D3083120313B800CC30AB
:10193200B700CC30B600CD30B5000A168A11FD26AC
:101942000A128A15043083120313E8000030E900FA
:10195200672D03303C02FD3003193B020318B22C01
:10196200B32C092D0A168A110B240A128A150A169B
:101972008A1189220A128A150A168A1199220A12D2
:101982008A153E300A168A11A9220A128A15903047
:10199200F3000130F4000A168A113E240A128A1555
:1019A2000A168A1179220A128A15D130F300003000
:1019B200F4000A168A113E240A128A1583120313AE
:1019C2000619E42CE52C672D033083120313BF00A4
:1019D2008A30BE005530BD00BD0BED2CBE0BED2C88
:1019E200BF0BED2C3D3083120313B800CC30B7008F
:1019F200CC30B600CD30B5000A168A11FD260A1287
:101A02008A15053083120313E8000030E900672DC0
:101A120004303C02C93003193B020318112D122D68
:101A2200672D0A168A110B240A128A150A168A11C0
:101A320089220A128A150A168A1199220A128A150D
:101A42009030F3000130F4000A168A113E240A1283
:101A52008A150A168A1179220A128A153E300A1646
:101A62008A11A9220A128A15D130F3000030F4003B
:101A72000A168A113E240A128A15831203130619C2
:101A8200432D442D672D033083120313BF008A3088
:101A9200BE005530BD00BD0B4C2DBE0B4C2DBF0BF7
:101AA2004C2D3D3083120313B800CC30B700CC303C
:101AB200B600CD30B5000A168A11FD260A128A1523
:101AC200063083120313E8000030E90008007308AF
:101AD200803983120313A0002008F8007308A000C5
:101AE2002007A1002108FA00F21F782D792D7A2D06
:101AF2007A147A0803197E2D7F2D8F2D7A0A031D01
:101B0200832D842D8C2D0030F3000030F200003044
:101B1200F1000030F000F217F301972D0030F300CE
:101B22000030F2000030F1000030F0007708803918
:101B3200A0002008F900790878060319A12DA22D2A
:101B4200A32D78177708A0002007A1002108F9002B
:101B5200F61FAC2DAD2DAE2D791479080319B22DD7
:101B6200B32DC32D790A031DB72DB82DC02D00301A
:101B7200F7000030F6000030F5000030F400F617F0
:101B8200F701CB2D0030F7000030F6000030F500F1
:101B92000030F4007A0879020318D02DD12D152EC9
:101BA200781FD42DD52DD92D8030A0002008F8061D
:101BB2007A08A0002008FB007908A0002008FA009B
:101BC2007B08A0002008F9007008A0002008FB0094
:101BD2007408A0002008F0007B08A0002008F40090
:101BE2007108A0002008FB007508A0002008F10081
:101BF2007B08A0002008F5007208A0002008FB0066
:101C02007608A0002008F2007B08A0002008F60059
:101C12007308A0002008FB007708A0002008F3004A
:101C22007B08A0002008F700FB017908A000A101B1
:101C32002108A3007A082002A200031CA3032308A0
:101C4200803AFF0080307F02031D292E1A302202C3
:101C5200031C2C2E2D2E6E2E730872047104700438
:101C6200031D342E362E0130372E0030831203131B
:101C7200A0002008FB000030F3000030F20000302A
:101C8200F1000030F0007908A0002008FA00742E5C
:101C92007B1C4C2E4D2E582E7B0883120313A00062
:101CA2000310200C0138A1002108FB005A2E03105A
:101CB200FB0C701C5D2E5E2E5F2EFB170130831213
:101CC2000313A000730DF30CF20CF10CF00CA00B3B
:101CD200632E0130A0002008FA0779087A02031C5B
:101CE200732E742E492E781B772E782EC72E7A08E3
:101CF200031D7C2E7D2E862E0030F3000030F20074
:101D02000030F1000030F000FF2F7408F007750872
:101D120003110318013E03198F2EF10776080311F0
:101D22000318013E0319962EF207770803110318D0
:101D3200013E03199D2EF307731CA02EA12E7F2FA7
:101D42007B1CA42EA52EB02E7B0883120313A000A9
:101D52000310200C0138A1002108FB00B22E031051
:101D6200FB0C701CB52EB62EB72EFB17013083125A
:101D72000313A000730DF30CF20CF10CF00CA00B8A
:101D8200BB2E0130A0002008FA077F2F7308803A8B
:101D9200FF007708803A7F02031DD92E760872026F
:101DA200031DD92E75087102031DD92E7408700205
:101DB2000318DC2EDD2E372FFF3083120313A00011
:101DC200FF30A100FF30A200FF30A3007408A4007E
:101DD2007508A5007608A6007708A7007008A40277
:101DE2007108031C710FF62EF72EA5027208031C50
:101DF200720FFC2EFD2EA6027308031C730F022F16
:101E0200032FA7022408A00725080318250F0A2F6D
:101E12000B2FA10726080318260F102F112FA20738
:101E220027080318270AA3072308F3002208F20051
:101E32002108F1002008F0008030A0002008F806F8
:101E4200FB09FB0A7B08031D272F282F452F013092
:101E5200F007003003180130F10700300318013099
:101E6200F207003003180130F307452F7408F0021F
:101E72007508031C750FF1027608031C760FF20237
:101E82007708031C770FF30273087204710470045D
:101E9200031D4C2F4D2F7B2F7B08031D512F522FDB
:101EA2007B2F0030F3000030F2000030F1000030F0
:101EB200F000FF2F013083120313A0000310F00D76
:101EC200F10DF20DF30DA00B5F2FFB1F692F6A2F8F
:101ED2006B2F70147B1C6E2F6F2F722F0314FB0D50
:101EE200742F0310FB0D7A080319782F792F7B2F9B
:101EF2000130FA02F21F7E2F7F2F5B2FF901FB1FA9
:101F0200832F842F922F7B087F390319892F8A2FE1
:101F12008D2FF901F90A922F701C902F912F922F79
:101F22008A2F79080319962F972FCD2F0130F007AA
:101F3200003003180130F107003003180130F207B6
:101F4200003003180130F307731CA82FA92FCD2FDF
:101F5200700883120313A0007108A1007208A20086
:101F62007308A3000130A400230DA30CA20CA10C42
:101F7200A00CA40BB52F2308F3002208F2002108BD
:101F8200F1002008F0007A0A0319C82FC92FCD2FBB
:101F92000130A0002008FA077A0A0319D12FD22FA4
:101FA200D72F7A08031DD62FD72FE52F0030F30045
:101FB2000030F2000030F1000030F0007A08031D1A
:101FC200E32FE42FE52FF8017A1CE82FE92FEB2FFE
:101FD200F217F12F7F3083120313A0002008F205BD
:101FE2007A0883120313A0000310200CA100210819
:0E1FF200F300F81FFD2FFE2FFF2FF31708003E
:1024A4000730831603139F008312031385148316C6
:1024B4000313850188010800FF3083160313850088
:1024C4008130831203139F008030831603139F000F
:1024D4000800831203138512051285110A168A1146
:1024E400CD220A168A118312031385150800C03001
:1024F4008312031388008512051285110A168A11A6
:10250400CD220A168A11831203138515080001309F
:102514008312031388008512051285110A168A1185
:10252400CD220A168A11831203138515080002307E
:102534008312031388008512051285110A168A1165
:10254400CD220A168A118312031385150800F2009E
:1025540072088312031388008516051285110A1662
:102564008A11CD220A168A118312031385150800D5
:102574007E088A007F0882000A168A11BA220A1687
:102584008A118000840A04087D0603190034FF0AB6
:102594000319FE0ABE2AF001F1010130F007031805
:1025A400F10A0030F1077108803AFF0093307F028E
:1025B400031DDE2A88307002031CE12AE22ACF2A96
:1025C4000800CC34003401340034013400340134C4
:1025D40000340A34003401340034303430343034BC
:1025E400303400343134323431343234003470080D
:1025F400F2007108F300042B0130F2070318F30A08
:102604000030F307720884008317731C83130008D7
:10261400031D0D2B0E2BFE2A70087202F0007108A8
:10262400031C710A7302F10008000A168A11792248
:102634000A168A11F301F40120300A168A11A9221C
:102644000A168A110130F3070318F40A0030F4075C
:102654007408803AFF0080307F02031D332B06305C
:102664007302031C362B372B1E2B08008030831279
:102674000313AB062F08F3002E08F2002D08F10017
:102684002C08F0002B08F7002A08F6002908F500AA
:102694002808F4000A128A1568250A168A11730894
:1026A40083120313AB007208AA007108A900700812
:1026B400A8000800F800F401F5017008F200F30125
:1026C4007208F6007308F700781C692B6A2B702BCC
:1026D4007608F4070318F50A7708F50701300310A4
:1026E400F60DF70DFF3E031D712B0310F80C78084F
:1026F400031D7D2B7E2B662B7508F1007408F000FA
:102704000800F6008D2B0130F2007208F607013044
:10271400F2007208F0077008840083130008F200C6
:10272400760884000008F30072087302F400740849
:10273400F5007508031D9F2BA02BA72B760884009A
:102744000008031DA62BA72B852B7508F000F101AB
:10275400F01BF10308000A168A1189220A168A114D
:102764000A168A1199220A168A11AF30F300003032
:10277400F4000A168A113E240A168A110A168A11CE
:1027840079220A168A11A030F3000030F4000A16E8
:102794008A113E240A168A114D30FC001930FB00C0
:1027A4004F30FA00FA0BD42BFB0BD42BFC0BD42B9D
:1027B400DB2B0800F600C530F20072088312031305
:1027C4009F057608F20002300310F20DFF3E031D50
:1027D400E62B0310720DF30073089F040D30F30011
:1027E400FB30F200F20BF42BF30BF42BF92B8312D6
:1027F40003131F151F19FF2B002CFC2B1E08F500BB
:10280400831603131E08F4007508F1007408F00021
:1028140008000A168A1152220A168A1101308312FC
:10282400031388000A168A116B220A168A1138309B
:102834008312031388000A168A116B220A168A115E
:102844000E308312031388000A168A116B220A16AB
:102854008A1106308312031388000A168A116B2228
:102864000A168A1180308312031388000A168A110B
:102874006B220A168A110800F801F9015E2C780807
:102884007307F6007408F5000318F50AF81F4B2CBB
:10289400F5037508F700760884008317771C831303
:1028A40000080A168A11A9220A168A110130F807AB
:1028B4000318F90A0030F90778087307F60074085A
:1028C400F5000318F50AF81F682CF5037508F700DE
:1028D400760884008317771C83130008031D732C68
:1028E400742C412C08000A168A1179220A168A11BE
:1028F4000A168A1117230A168A11F701F801922C75
:102904007708DA3E8400831300080A168A11A92284
:102914000A168A110130F7070318F80A0030F8077D
:10292400DA30F0000030F1000A168A11F9220A1692
:102934008A117008FF3EF50071080318013EFF3E3E
:10294400F60078087602031DA92C7708750203188F
:10295400AC2CAD2C822C0A168A1117230A168A1164
:1029640008000A168A1199220A168A1120300A16BA
:102974008A11A9220A168A11F601F701D12C7608C8
:10298400413E8400831700080A168A11A9220A16F8
:102994008A110130F6070318F70A0030F7074130AF
:1029A400F0000130F1000A168A11F9220A168A1180
:1029B4007008FF3EF40071080318013EFF3EF50065
:1029C40077087502031DE82C760874020318EB2CB3
:1029D400EC2CC12C20300A168A11A9220A168A115D
:1029E400080083120313C60046080A168A11D1256B
:1029F4000A168A110A168A1189220A168A11831262
:102A040003136C086D040319082D092D232D1030B0
:102A1400F3000130F4000A168A113E240A168A11C2
:102A24000A168A1179220A168A1183120313460898
:102A3400F3000030F4000A168A113E240A168A11A3
:102A44002C2D3130F3000130F4000A168A113E2493
:102A54000A168A11333083120313C500BB30C40035
:102A6400DF30C300C30B342DC40B342DC50B342D00
:102A740008002034203420342034203420342034FE
:102A8400313420343134203431342034313400347E
:102A940020345A346F346E3461343A34203431344F
:102AA4002034323420343334203434340034533436
:102AB40061346934203452346134743461346F3491
:102AC40000344434693467346934743465343A34D2
:102AD40020340034523465346134743469347634C7
:102AE4006134723400345F345F345F345F340034F3
:102AF40030343034303430340034353435343534D3
:102B0400353400340A168A110B240A168A110A165F
:102B14008A1189220A168A110D3083120313CA00FE
:102B2400FB30C900C90B942DCA0B942D5030F3000F
:102B34000130F4000A168A113E240A168A110A1674
:102B44008A1175240A168A11831203134703480451
:102B5400031DAD2DAE2DB52DDF300A168A11F324D9
:102B64000A168A11D02D023047064804031DBB2DD6
:102B7400BC2DC32D5F300A168A11F3240A168A115C
:102B8400D02D033047064804031DC92DCA2DD02D6E
:102B9400E4300A168A11F3240A168A1108008312F3
:102BA4000313C000C101C2010A3083120313D6000B
:102BB4000030D700E22D0A128A115C210A168A110C
:102BC4000A3083120313560657040319EA2DEB2D1A
:102BD400DD2D0D3083120313BF00FB30BE00BE0B8E
:102BE400F12DBF0BF12D831203135708F100560882
:102BF400F0000A168A118D260A168A11831203130D
:102C0400BE0041084007BF003F0884003E0883130C
:102C140080000130C1070318C20A0030C20742080D
:102C2400803AFF0080307F02031D1A2E04304102D7
:102C3400031C1D2E1E2ED62D8312031340080A16C4
:102C44008A1179270A168A117B0883120313ED006F
:102C54007A08EC0008004434653473346134743405
:102C6400693476346134723420345A346F346E34B7
:102C740061340034533465346E3468346134203440
:102C84004434693473347034613472346F340034CE
:102C9400533465346E3468346134203455347334B9
:102CA40075346134723469346F34003453346534A8
:102CB4006E3468346134203463346F347234723463
:102CC4006534743461340034533465346E34683498
:102CD4006134203443346F346134633461346F3489
:102CE4000034533465346E346834613420344334EE
:102CF4006F346E3466346934673400345334653465
:102D04006E3468346134203465347234723461341E
:102D1400643461340034D42E313083120313EA0056
:102D24000030EB00F92E323083120313EA00003036
:102D3400EB00F92E333083120313EA000030EB006A
:102D4400F92E343083120313EA000030EB00F92E1D
:102D5400353083120313EA000030EB00F92E3630CD
:102D640083120313EA000030EB00F92E373083128C
:102D74000313EA000030EB00F92E383083120313FA
:102D8400EA000030EB00F92E393083120313EA0015
:102D94000030EB00F92E303083120313EA000030C8
:102DA400EB00F92E7108003A0319D92EF92E700898
:102DB400003A0319CD2E013A03198E2E033A031952
:102DC400952E013A03199C2E073A0319A32E013AB2
:102DD4000319AA2E033A0319B12E013A0319B82E86
:102DE4000F3A0319BF2E013A0319C62EF92E831286
:102DF40003136A080800443083120313A3007A30D3
:102E0400A2000030A1000030A0003808A700370855
:102E1400A6003608A5003508A4000A128A11592410
:102E24000A168A11831203132308B8002208B70074
:102E34002108B6002008B500413083120313BA00FC
:102E4400ED30B900B90B242FBA0B242F292F592F99
:102E5400831203138901073083120313BA007C30F1
:102E6400B900B90B332FBA0B332F00003F30831254
:102E74000313AB008030AA000030A9000030A80082
:102E84003808AF003708AE003608AD003508AC008E
:102E94000A168A1138230A168A11831203132B087F
:102EA400B8002A08B7002908B6002808B500003081
:102EB400F3000030F2000030F1000030F000831223
:102EC40003133808F7003708F6003608F50035080C
:102ED400F4000A128A15F0200A168A11031C732FB3
:102EE400742F2A2F0F3083120313890008008312D2
:102EF4000313A3000330A4000030A5000A168A11AE
:102F040089220A168A110A168A1199220A168A1126
:102F14002130F3000130F4000A168A113E240A1607
:102F24008A110A168A1179220A168A118312031346
:102F34002308F3000030F4000A168A113E240A160E
:102F44008A1120300A168A11A9220A168A11C83059
:102F5400F3000030F4000A168A113E240A168A117E
:102F64007F30831203138600E22F0630831203138B
:102F7400A2001330A100AD30A000A00BBF2FA10B05
:102F8400BF2FA20BBF2F831203130619CA2FCB2FF7
:102F9400D42FA401A50145300A168A11A9220A16C4
:102FA4008A11E22F8619D72FD82FE22F0130A400DF
:102FB4000030A50046300A168A11A9220A168A1181
:102FC400033083120313240625040319EA2FEB2F7D
:102FD400B72F333083120313A200BB30A100DF30BC
:102FE400A000A00BF32FA10BF32FA20BF32F83123E
:0C2FF40003132508FB002408FA00080065
:00000001FF
