:060000000A128A11BE2F56
:10001400F800F401F5017008F200F3017208F6002B
:100024007308F700781C172818281E287608F40788
:100034000318F50A7708F50701300310F60DF70DDC
:10004400FF3E031D1F280310F80C7808031D2B28FE
:100054002C2814287508F1007408F0000800831295
:100064000313A3000330A4000030A5000A128A156C
:1000740010210A128A110A128A1520210A128A11E1
:100084002130F3000130F4000A128A154C220A12BE
:100094008A110A128A1500210A128A118312031383
:1000A4002308F3000030F4000A128A154C220A12C5
:1000B4008A1120300A128A1530210A128A11CD3091
:1000C400F3000030F4000A128A154C220A128A1135
:1000D4007F308312031386009A2806308312031399
:1000E400A2001330A100AD30A000A00B7728A10B13
:1000F4007728A20B772883120313061982288328F2
:100104008C28A401A50145300A128A1530210A124F
:100114008A119A2886198F2890289A280130A400D9
:100124000030A50046300A128A1530210A128A11BD
:10013400033083120313240625040319A228A328D9
:100144006F28333083120313A200BB30A100DF30C9
:10015400A000A00BAB28A10BAB28A20BAB288312E9
:1001640003132508FB002408FA000800003070057A
:10017400F80000307105F90080307205FA007F3014
:100184007305FB007B087A0479047804031DCB28EB
:10019400CC28D4280030F3000030F2000030F10005
:1001A4000030F00000307405F80000307505F900E7
:1001B40080307605FA007F307705FB007B087A04EF
:1001C40079047804031DE728E828F0280030F700B4
:1001D4000030F6000030F5000030F400F31FF3287F
:1001E400F42818290030F8000030F9000030FA0033
:1001F4008030FB007008F8027108031C710F03299A
:100204000429F9027208031C720F09290A29FA0247
:100214007308031C730F0F291029FB027B08F300DA
:100224007A08F2007908F1007808F000F71F1B291A
:100234001C2940290030F8000030F9000030FA0091
:100244008030FB007408F8027508031C750F2B2915
:100254002C29F9027608031C760F31293229FA0277
:100264007708031C770F37293829FB027B08F7002E
:100274007A08F6007908F5007808F4008030F3066F
:100284008030F70677087302031D5229760872023C
:10029400031D522975087102031D52297408700246
:1002A40003185529562958290310592903140800FD
:1002B4000130831203138900EF3086000618632986
:1002C40064299329063083120313BD001330BC0044
:1002D400AD30BB00BB0B6C29BC0B6C29BD0B6C296E
:1002E4003D3083120313B800CC30B700CC30B600D5
:1002F400CD30B5000A128A15EC240A128A11303066
:100304000A128A1530210A128A11831203134F0824
:10031400500403198E298F299129D301D401D301C3
:10032400D401861896299729CA2906308312031303
:10033400BD001330BC00AD30BB00BB0B9F29BC0B10
:100344009F29BD0B9F293D3083120313B800CC3085
:10035400B700CC30B600CD30B5000A128A15EC24B3
:100364000A128A1131300A128A1530210A128A11AE
:10037400831203134F0850040319C129C229C62943
:100384000130D3000030D4000130D3000030D40059
:100394000619CD29CE29FD29063083120313BD0089
:1003A4001330BC00AD30BB00BB0BD629BC0BD62927
:1003B400BD0BD6293D3083120313B800CC30B700EF
:1003C400CC30B600CD30B5000A128A15EC240A12DE
:1003D4008A1132300A128A1530210A128A118312C4
:1003E40003134F0850040319F829F929FD29023091
:1003F400D3000030D4008619002A012A302A06309E
:1004040083120313BD001330BC00AD30BB00BB0B23
:10041400092ABC0B092ABD0B092A3D308312031398
:10042400B800CC30B700CC30B600CD30B5000A12DD
:100434008A15EC240A128A1133300A128A153021E3
:100444000A128A11831203134F08500403192B2A2A
:100454002C2A302A0330D3000030D400DF30860049
:100464000618352A362A652A063083120313BD007E
:100474001330BC00AD30BB00BB0B3E2ABC0B3E2A84
:10048400BD0B3E2A3D3083120313B800CC30B700B5
:10049400CC30B600CD30B5000A128A15EC240A120D
:1004A4008A1134300A128A1530210A128A118312F1
:1004B40003134F0850040319602A612A652A043083
:1004C400D3000030D4008618682A692A982A063096
:1004D40083120313BD001330BC00AD30BB00BB0B53
:1004E400712ABC0B712ABD0B712A3D308312031390
:1004F400B800CC30B700CC30B600CD30B5000A120D
:100504008A15EC240A128A1135300A128A15302110
:100514000A128A11831203134F0850040319932AF1
:10052400942A982A0530D3000030D40006199B2A57
:100534009C2ACB2A063083120313BD001330BC005F
:10054400AD30BB00BB0BA42ABC0BA42ABD0BA42A50
:100554003D3083120313B800CC30B700CC30B60062
:10056400CD30B5000A128A15EC240A128A113630ED
:100574000A128A1530210A128A11831203134F08B2
:1005840050040319C62AC72ACB2A0630D3000030E8
:10059400D4008619CE2ACF2AFE2A063083120313EA
:1005A400BD001330BC00AD30BB00BB0BD72ABC0B65
:1005B400D72ABD0BD72A3D3083120313B800CC30A1
:1005C400B700CC30B600CD30B5000A128A15EC2441
:1005D4000A128A1137300A128A1530210A128A1136
:1005E400831203134F0850040319F92AFA2AFE2A26
:1005F4000730D3000030D400BF3086000618032B28
:10060400042B332B063083120313BD001330BC00BC
:10061400AD30BB00BB0B0C2BBC0B0C2BBD0B0C2B44
:100624003D3083120313B800CC30B700CC30B60091
:10063400CD30B5000A128A15EC240A128A1138301A
:100644000A128A1530210A128A11831203134F08E1
:10065400500403192E2B2F2B332B0830D3000030DA
:10066400D4008618362B372B662B063083120313DF
:10067400BD001330BC00AD30BB00BB0B3F2BBC0B2B
:100684003F2BBD0B3F2B3D3083120313B800CC30FE
:10069400B700CC30B600CD30B5000A128A15EC2470
:1006A4000A128A1139300A128A1530210A128A1163
:1006B400831203134F0850040319612B622B662B1A
:1006C4000930D3000030D4000619692B6A2B8D2B16
:1006D400063083120313BD001330BC00AD30BB00E1
:1006E400BB0B722BBC0B722BBD0B722B3D308312D8
:1006F4000313B800CC30B700CC30B600CD30B50011
:100704000A128A15EC240A128A1141300A128A1537
:1007140030210A128A11831203138619922B932B08
:10072400B62B063083120313BD001330BC00AD306A
:10073400BB00BB0B9B2BBC0B9B2BBD0B9B2B3D30E6
:1007440083120313B800CC30B700CC30B600CD30E0
:10075400B5000A128A15EC240A128A1142300A12D0
:100764008A1530210A128A117F30831203138600FE
:100774000618BD2BBE2BE12B063083120313BD00DC
:100784001330BC00AD30BB00BB0BC62BBC0BC62B5F
:10079400BD0BC62B3D3083120313B800CC30B70019
:1007A400CC30B600CD30B5000A128A15EC240A12FA
:1007B4008A1143300A128A1530210A128A118312CF
:1007C40003138618E62BE72B0A2C06308312031337
:1007D400BD001330BC00AD30BB00BB0BEF2BBC0B1A
:1007E400EF2BBD0BEF2B3D3083120313B800CC303D
:1007F400B700CC30B600CD30B5000A128A15EC240F
:100804000A128A1144300A128A1530210A128A11F6
:100814008312031306190F2C102C332C0630831269
:100824000313BD001330BC00AD30BB00BB0B182C50
:10083400BC0B182CBD0B182C3D3083120313B800CD
:10084400CC30B700CC30B600CD30B5000A128A15D2
:10085400EC240A128A1145300A128A1530210A1230
:100864008A11831203138619382C392C5C2C063018
:1008740083120313BD001330BC00AD30BB00BB0BAF
:10088400412CBC0B412CBD0B412C3D308312031376
:10089400B800CC30B700CC30B600CD30B5000A1269
:1008A4008A15EC240A128A1146300A128A1530215C
:1008B4000A128A1108008312031323088039F900ED
:1008C4007908A8002308F9007907FA007A08AE002D
:1008D400A21F6D2C6E2C6F2C2E142E080319732C52
:1008E400742C832C2E0A031D782C792C812C003037
:1008F400A3000030A2000030A1000030A000A21725
:100904008B2C0030A3000030A2000030A100003086
:10091400A00027088039F9007908A8062708F900FB
:100924007907FA007A08AD00A61F992C9A2C9B2C03
:100934002D142D0803199F2CA02CAF2C2D0A031D58
:10094400A42CA52CAD2C0030A7000030A60000304C
:10095400A5000030A400A617B72C0030A700003073
:10096400A6000030A5000030A4002D080319BB2CFC
:10097400BC2CC12C2E08031DC02CC12CCA2C003049
:10098400A3000030A2000030A1000030A000BD2F61
:100994002008F9007908F00026080A128A110A20B2
:1009A4000A128A11710883120313B4007008B30089
:1009B4003308F900FA01FB01FC017C08AC007B0858
:1009C400AB007A08AA007908A9003408F900FA01F2
:1009D400FB01FC017C08B2007B08B1007A08B0007E
:1009E4007908AF002108F9007908F00025080A12F7
:1009F4008A110A200A128A11710883120313B4009F
:100A04007008B3003308F900FA01FB01FC0179080E
:100A1400A9077A0803110318013E0319122DAA0726
:100A24007B0803110318013E0319192DAB077C0839
:100A340003110318013E0319202DAC073408F900F3
:100A4400FA01FB01FC017908AF077A0803110318C6
:100A5400013E03192E2DB0077B0803110318013E34
:100A64000319352DB1077C0803110318013E03193E
:100A74003C2DB2072208F9007908F00024080A1274
:100A84008A110A200A128A11710883120313B4000E
:100A94007008B3003308F900FA01FB01FC0179087E
:100AA400A9077A0803110318013E03195A2DAA074E
:100AB4007B0803110318013E0319612DAB077C0861
:100AC40003110318013E0319682DAC073408F9001B
:100AD400FA01FB01FC017908AF077A080311031836
:100AE400013E0319762DB0077B0803110318013E5C
:100AF40003197D2DB1077C0803110318013E031966
:100B0400842DB2070830F9000310A90DAA0DAB0D0E
:100B1400AC0DF90B862D2108F9007908F0002408A2
:100B24000A128A110A200A128A1171088312031305
:100B3400B4007008B3003308F9003408FA00FB016C
:100B4400FC017908A9077A0803110318013E031967
:100B5400AC2DAA077B0803110318013E0319B32D1A
:100B6400AB077C0803110318013E0319BA2DAC0727
:100B74002008F9007908F00025080A128A110A20D1
:100B84000A128A11710883120313B4007008B300A7
:100B94003308F9003408FA00FB01FC017908A907BD
:100BA4007A0803110318013E0319D92DAA077B08FB
:100BB40003110318013E0319E02DAB077C08031150
:100BC4000318013E0319E72DAC070830F9000310A0
:100BD400A90DAA0DAB0DAC0DF90BE92D2008F900F8
:100BE4007908F00024080A128A110A200A128A11CC
:100BF400710883120313B4007008B3003308F900BA
:100C04003408FA00FB01FC017908A9077A080311EA
:100C14000318013E03190F2EAA077B0803110318BA
:100C2400013E0319162EAB077C0803110318013E7D
:100C340003191D2EAC072108F9007908F0002608D5
:100C44000A128A110A200A128A11710883120313E4
:100C5400B4007008B3003308F9003408FA00FB014B
:100C6400FC017908AF077A0803110318013E031940
:100C74003C2EB0077B0803110318013E0319432ED1
:100C8400B1077C0803110318013E03194A2EB20769
:100C94002208F9007908F00025080A128A110A20AE
:100CA4000A128A11710883120313B4007008B30086
:100CB4003308F9003408FA00FB01FC017908AF0796
:100CC4007A0803110318013E0319692EB0077B0843
:100CD40003110318013E0319702EB1077C08031198
:100CE4000318013E0319772EB2072208F900790888
:100CF400F00026080A128A110A200A128A117108C1
:100D040083120313B4007008B3003308F9003408E5
:100D1400FA00FB01FC0108300310F90DFA0DFB0D7C
:100D2400FC0DFF3E031D8E2E7908AF077A080311D0
:100D34000318013E03199F2EB0077B080311031803
:100D4400013E0319A62EB1077C0803110318013EC6
:100D54000319AD2EB2072908F9002A08FA002B0856
:100D6400FB002C08FC0018300310FC0CFB0CFA0CE4
:100D7400F90CFF3E031DB62E7908AF077A0803115C
:100D84000318013E0319C72EB0077B08031103188B
:100D9400013E0319CE2EB1077C0803110318013E4E
:100DA4000319D52EB2070830F9000310A90DAA0DB6
:100DB400AB0DAC0DF90BD72E2E082D07F900FA0157
:100DC400FA0D7908823EB3007A080318013EFF3E0B
:100DD400B400092F0130F9000310AF0DB00DB10DAF
:100DE400B20DF90BEE2EAC1FF82EF92EFA2E2F149D
:100DF4000130F9000310A90DAA0DAB0DAC0DF90BD0
:100E0400FC2EFF30B3070318B40AFF30B407B11F38
:100E14000C2F0D2FEC2EAD01AC1F112F122F2E2FE6
:100E2400FF302905F900FF302A05FA00FF302B05B1
:100E3400FB007F302C05FC007C087B047A047904D9
:100E44000319252F262F292FAD01AD0A2E2F2F1C74
:100E54002C2F2D2F2E2F262F2D080319322F332F11
:100E6400642F0130AF07003003180130B0070030A1
:100E740003180130B107003003180130B207321CE7
:100E8400442F452F642F2F08F9003008FA00310849
:100E9400FB003208FC000130FD007C0DFC0CFB0C57
:100EA400FA0CF90CFD0B4F2F7C08B2007B08B10043
:100EB4007A08B0007908AF000130B3070318B40A08
:100EC4000030B4073408803AFF0080307F02031DED
:100ED4006D2FFF303302031C702F712F7C2F7F3056
:100EE40083120313B2008030B1000030B000003030
:100EF400AF00B12F831203133408803AFF0080300F
:100F04007F02031D872F0130330203188A2F8B2F92
:100F1400972F003083120313B2000030B100003069
:100F2400B0000030AF00A801B12F831203133308BF
:100F3400F9007908AE00FF30AF05FF30B0057F300F
:100F4400B1050030B2052E1CA82FA92FAA2FB11766
:100F54002E08F9000310790CFA007A08B200280868
:100F6400F9007908B2043208A3003108A20030085D
:100F7400A1002F08A00008008317E530FD000B3006
:100F8400FE00CB30FF00903084000A128A15452100
:100F94000A128A114130FD000930FE00E830FF00DA
:100FA400103084000A128A1545210A128A1183130B
:100FB400E430FD000B30FE003F30FF00A030840021
:100FC4000A128A1545210A128A116430FD0009307B
:100FD400FE006A30FF00493084000A128A15452158
:100FE4000A128A11E401E501E601E701E801E901D9
:0C0FF400EA01EB0183010A128A15832A2E
:1011CC000730831603139F008312031385148316B1
:1011DC00031385018801080083120313851205127D
:1011EC0085110A128A1554210A128A1583120313C7
:1011FC0085150800C0308312031388008512051270
:10120C0085110A128A1554210A128A1583120313A6
:10121C00851508000130831203138800851205120E
:10122C0085110A128A1554210A128A158312031386
:10123C0085150800023083120313880085120512ED
:10124C0085110A128A1554210A128A158312031366
:10125C0085150800F20072088312031388008516A6
:10126C00051285110A128A1554210A128A15831245
:10127C000313851508007E088A007F0882000A1275
:10128C008A1541210A128A158000840A04087D06F9
:10129C0003190034FF0A0319FE0A4529F001F10174
:1012AC000130F0070318F10A0030F1077108803A99
:1012BC00FF0093307F02031D652988307002031CE8
:1012CC006829692956290800CC34003401340034CB
:1012DC000134003401340034013400340A34003455
:1012EC005F345F345F345F34003430343034303446
:1012FC003034003431343234313432340034700808
:10130C00F2007108F30090290130F2070318F30A78
:10131C000030F307720884008317731C83130008D2
:10132C00031D99299A298A2970087202F000710804
:10133C00031C710A7302F10008000A128A150021BD
:10134C000A128A15F301F40120300A128A15302191
:10135C000A128A150130F3070318F40A0030F40757
:10136C007408803AFF0080307F02031DBF290630CD
:10137C007302031CC229C329AA29080080308312D6
:10138C000313AB062F08F3002E08F2002D08F10012
:10139C002C08F0002B08F7002A08F6002908F500A5
:1013AC002808F4000A128A1568250A128A1573088F
:1013BC0083120313AB007208AA007108A90070080D
:1013CC00A8000800533465346E346834613420341A
:1013DC0041347434753461346C3469347A34613426
:1013EC006434613400344F346B343A344634203432
:1013FC006F34753420344E34653467346134723450
:10140C003A3445340034533465346E3468346134C2
:10141C002034633461346E34633465346C34613439
:10142C006434613400340A128A15E6200A128A15D3
:10143C0001308312031388000A128A15F2200A1253
:10144C008A1538308312031388000A128A15F22089
:10145C000A128A150E308312031388000A128A1599
:10146C00F2200A128A1506308312031388000A121E
:10147C008A15F2200A128A15803083120313880011
:10148C000A128A15F2200A128A150800F801F901CD
:10149C006C2A78087307F6007408F5000318F50A2F
:1014AC00F81F592AF5037508F7007608840083178E
:1014BC00771C831300080A128A1530210A128A1528
:1014CC000130F8070318F90A0030F9077808730798
:1014DC00F6007408F5000318F50AF81F762AF503D0
:1014EC007508F700760884008317771C83130008AF
:1014FC00031D812A822A4F2A0800831603138901AF
:10150C0088010F30860001308312031389000130EB
:10151C00CD000030CE000130EC000030ED00B42ADC
:10152C006C086D0403199B2A9C2AB42AA72A6D08FF
:10153C00C8006C08C7000A128A15FE220A128A1506
:10154C00B42A6D08003A0319AC2AB42A6C08013A83
:10155C0003199D2A033A03199D2AB42A83120313F3
:10156C004D084E04031DBB2ABC2A962A8D2A0A124A
:10157C008A1100280A128A1500210A128A150A12E9
:10158C008A15A3210A128A15F701F801DD2A7708BA
:10159C00553E8400831300080A128A1530210A1262
:1015AC008A150130F7070318F80A0030F807553090
:1015BC00F0000030F1000A128A1585210A128A15F2
:1015CC007008FF3EF50071080318013EFF3EF6005F
:1015DC0078087602031DF42A770875020318F72A97
:1015EC00F82ACD2A0A128A15A3210A128A15080094
:1015FC000A128A1519220A128A150A128A15102142
:10160C000A128A15AE30F3000130F4000A128A1562
:10161C004C220A128A150A128A15C0220A128A153D
:10162C008312031347034804031D1D2B1E2B2B2B66
:10163C0031300A128A1530210A128A15DF300A124B
:10164C008A1583230A128A153E2B0230470648045A
:10165C00031D312B322B3E2B32300A128A153021CE
:10166C000A128A155F300A128A1583230A128A1508
:10167C00080035343534353435340034533465345E
:10168C006E346834613420345534733475346134B9
:10169C00723469346F340034533465346E346834C6
:1016AC006134203443346F346134633461346F34C7
:1016BC000034533465346E3468346134203443342C
:1016CC006F346E34663469346734003444346934AE
:1016DC0067346934743465343A3420340034523409
:1016EC006534613474346934763461347234003462
:1016FC003034303430343034003483120313C600A9
:10170C0046080A128A1520240A128A150A128A150A
:10171C0010210A128A15831203136A086B04031929
:10172C00982B992BB32B1030F3000130F4000A12D4
:10173C008A154C220A128A150A128A1500210A12DD
:10174C008A15831203134608F3000030F4000A12C2
:10175C008A154C220A128A15BC2B3130F300013049
:10176C00F4000A128A154C220A128A15333083129D
:10177C000313C500BB30C400DF30C300C30BC42B44
:10178C00C40BC42BC50BC42B080044346934673418
:10179C0069347434653420346134203473346534E2
:1017AC006E346834613400344434653473346134D9
:1017BC007434693476346134723420345A346F346E
:1017CC006E34613400342034203420344E346F3481
:1017DC00763461342034733465346E346834613457
:1017EC000034533465346E346834613420344434FA
:1017FC00693473347034613472346F34003453345C
:10180C0065346E3468346134203463346F3472342C
:10181C0072346534743461340034533465346E344A
:10182C006834613420346534723472346134643415
:10183C006134003483120313C000C101C2010A30A9
:10184C0083120313D3000030D400312C0A128A11F6
:10185C005A210A128A150A308312031353065404B0
:10186C000319392C3A2C2C2C0D3083120313BF0086
:10187C00FB30BE00BE0B402CBF0B402C831203135D
:10188C005408F1005308F0000A128A157C240A123D
:10189C008A1583120313BE0041084007BF003F089E
:1018AC0084003E08831380000130C1070318C20A6C
:1018BC000030C2074208803AFF0080307F02031DCF
:1018CC00692C04304102031C6C2C6D2C252C8312CA
:1018DC00031340080A128A1131200A128A157B0858
:1018EC0083120313EB007A08EA000800C32C313092
:1018FC0083120313E8000030E900E82C3230831225
:10190C000313E8000030E900E82C33308312031392
:10191C00E8000030E900E82C343083120313E800AF
:10192C000030E900E82C353083120313E800003056
:10193C00E900E82C363083120313E8000030E9008C
:10194C00E82C373083120313E8000030E900E82C50
:10195C00383083120313E8000030E900E82C3930EA
:10196C0083120313E8000030E900E82C30308312B6
:10197C000313E8000030E900E82C7108003A031961
:10198C00C82CE82C7008003A0319BC2C013A031936
:10199C007D2C033A0319842C013A03198B2C073A3A
:1019AC000319922C013A0319992C033A0319A02C10
:1019BC00013A0319A72C0F3A0319AE2C013A03195B
:1019CC00B52CE82C831203136808080044308312EA
:1019DC000313A3007A30A2000030A1000030A00055
:1019EC003808A7003708A6003608A5003508A4005B
:1019FC000A128A115D240A128A1583120313230812
:101A0C00B8002208B7002108B6002008B500413004
:101A1C0083120313BA00ED30B900B90B132DBA0BB6
:101A2C00132D182D482D83120313890107308312AF
:101A3C000313BA007C30B900B90B222DBA0B222D3E
:101A4C0000003F3083120313AB008030AA0000303B
:101A5C00A9000030A8003808AF003708AE003608DF
:101A6C00AD003508AC000A128A15C4210A128A1579
:101A7C00831203132B08B8002A08B7002908B600F4
:101A8C002808B5000030F3000030F2000030F100FF
:101A9C000030F000831203133808F7003708F60003
:101AAC003608F5003508F4000A128A11B8200A121B
:101ABC008A15031C622D632D192D0F30831203130D
:101ACC00890008007308803983120313A0002008D2
:101ADC00F8007308A0002007A1002108FA00F21FEB
:101AEC00782D792D7A2D7A147A0803197E2D7F2D75
:101AFC008F2D7A0A031D832D842D8C2D0030F3003D
:101B0C000030F2000030F1000030F000F217F30169
:101B1C00972D0030F3000030F2000030F10000305F
:101B2C00F00077088039A0002008F90079087806C1
:101B3C000319A12DA22DA32D78177708A00020073B
:101B4C00A1002108F900F61FAC2DAD2DAE2D791496
:101B5C0079080319B22DB32DC32D790A031DB72DA6
:101B6C00B82DC02D0030F7000030F6000030F50025
:101B7C000030F400F617F701CB2D0030F7000030E1
:101B8C00F6000030F5000030F4007A0879020318F2
:101B9C00D02DD12D152E781FD42DD52DD92D8030AB
:101BAC00A0002008F8067A08A0002008FB0079089D
:101BBC00A0002008FA007B08A0002008F90070089B
:101BCC00A0002008FB007408A0002008F0007B088F
:101BDC00A0002008F4007108A0002008FB00750884
:101BEC00A0002008F1007B08A0002008F500720876
:101BFC00A0002008FB007608A0002008F2007B085B
:101C0C00A0002008F6007308A0002008FB0077084D
:101C1C00A0002008F3007B08A0002008F700FB01BF
:101C2C007908A000A1012108A3007A082002A200D3
:101C3C00031CA3032308803AFF0080307F02031D9E
:101C4C00292E1A302202031C2C2E2D2E6E2E7308D8
:101C5C00720471047004031D342E362E0130372E9D
:101C6C00003083120313A0002008FB000030F300A7
:101C7C000030F2000030F1000030F0007908A000D4
:101C8C002008FA00742E7B1C4C2E4D2E582E7B08EF
:101C9C0083120313A0000310200C0138A1002108AB
:101CAC00FB005A2E0310FB0C701C5D2E5E2E5F2E5B
:101CBC00FB17013083120313A000730DF30CF20C0D
:101CCC00F10CF00CA00B632E0130A0002008FA07D9
:101CDC0079087A02031C732E742E492E781B772EEA
:101CEC00782EC72E7A08031D7C2E7D2E862E003072
:101CFC00F3000030F2000030F1000030F000FF2F54
:101D0C007408F007750803110318013E03198F2E90
:101D1C00F107760803110318013E0319962EF207FA
:101D2C00770803110318013E03199D2EF307731C4A
:101D3C00A02EA12E7F2F7B1CA42EA52EB02E7B08AF
:101D4C0083120313A0000310200C0138A1002108FA
:101D5C00FB00B22E0310FB0C701CB52EB62EB72E4A
:101D6C00FB17013083120313A000730DF30CF20C5C
:101D7C00F10CF00CA00BBB2E0130A0002008FA07D0
:101D8C007F2F7308803AFF007708803A7F02031D8B
:101D9C00D92E76087202031DD92E75087102031D07
:101DAC00D92E740870020318DC2EDD2E372FFF306D
:101DBC0083120313A000FF30A100FF30A200FF30FC
:101DCC00A3007408A4007508A5007608A60077087F
:101DDC00A7007008A4027108031C710FF62EF72ED1
:101DEC00A5027208031C720FFC2EFD2EA6027308AE
:101DFC00031C730F022F032FA7022408A00725082A
:101E0C000318250F0A2F0B2FA10726080318260FDE
:101E1C00102F112FA20727080318270AA30723083E
:101E2C00F3002208F2002108F1002008F0008030B5
:101E3C00A0002008F806FB09FB0A7B08031D272FCE
:101E4C00282F452F0130F007003003180130F1071F
:101E5C00003003180130F207003003180130F3078B
:101E6C00452F7408F0027508031C750FF1027608F3
:101E7C00031C760FF2027708031C770FF30273082A
:101E8C00720471047004031D4C2F4D2F7B2F7B08A3
:101E9C00031D512F522F7B2F0030F3000030F20026
:101EAC000030F1000030F000FF2F013083120313DB
:101EBC00A0000310F00DF10DF20DF30DA00B5F2F30
:101ECC00FB1F692F6A2F6B2F70147B1C6E2F6F2FCB
:101EDC00722F0314FB0D742F0310FB0D7A080319DA
:101EEC00782F792F7B2F0130FA02F21F7E2F7F2F54
:101EFC005B2FF901FB1F832F842F922F7B087F39D7
:101F0C000319892F8A2F8D2FF901F90A922F701C32
:101F1C00902F912F922F8A2F79080319962F972F94
:101F2C00CD2F0130F007003003180130F1070030DD
:101F3C0003180130F207003003180130F307731C4B
:101F4C00A82FA92FCD2F700883120313A00071089E
:101F5C00A1007208A2007308A3000130A400230D95
:101F6C00A30CA20CA10CA00CA40BB52F2308F300FE
:101F7C002208F2002108F1002008F0007A0A031967
:101F8C00C82FC92FCD2F0130A0002008FA077A0ADC
:101F9C000319D12FD22FD72F7A08031DD62FD72F65
:101FAC00E52F0030F3000030F2000030F10000307B
:101FBC00F0007A08031DE32FE42FE52FF8017A1CBB
:101FCC00E82FE92FEB2FF217F12F7F308312031339
:101FDC00A0002008F2057A0883120313A000031056
:101FEC00200CA1002108F300F81FFD2FFE2FFF2F5E
:041FFC00F3170800CF
:00000001FF
