:060000000A128A11BC2F58
:10001000F800F401F5017008F200F3017208F6002F
:100020007308F700781C152816281C287608F40792
:100030000318F50A7708F50701300310F60DF70DE0
:10004000FF3E031D1D280310F80C7808031D292806
:100050002A2812287508F1007408F000080083129D
:100060000313A3000330A4000030A5000A128A1570
:1000700003210A128A110A128A1513210A128A11FF
:100080001030F3000130F4000A128A1509220A1216
:100090008A110A128A15F3200A128A118312031395
:1000A0002308F3000030F4000A128A1509220A120C
:1000B0008A1120300A128A1523210A128A11D83097
:1000C000F3000030F4000A128A1509220A128A117C
:1000D0007F3083120313860098280630831203139F
:1000E000A2001330A100AD30A000A00B7528A10B19
:1000F0007528A20B752883120313061980288128FE
:100100008A28A401A50145300A128A1523210A1262
:100110008A11982886198D288E2898280130A400E5
:100120000030A50046300A128A1523210A128A11CE
:10013000033083120313240625040319A028A128E1
:100140006D28333083120313A200BB30A100DF30CF
:10015000A000A00BA928A10BA928A20BA9288312F3
:1001600003132508FB002408FA000800003070057E
:10017000F80000307105F90080307205FA007F3018
:100180007305FB007B087A0479047804031DC928F1
:10019000CA28D2280030F3000030F2000030F1000D
:1001A0000030F00000307405F80000307505F900EB
:1001B00080307605FA007F307705FB007B087A04F3
:1001C00079047804031DE528E628EE280030F700BE
:1001D0000030F6000030F5000030F400F31FF12885
:1001E000F22816290030F8000030F9000030FA003B
:1001F0008030FB007008F8027108031C710F0129A0
:100200000229F9027208031C720F07290829FA0251
:100210007308031C730F0D290E29FB027B08F300E2
:100220007A08F2007908F1007808F000F71F192920
:100230001A293E290030F8000030F9000030FA0099
:100240008030FB007408F8027508031C750F29291B
:100250002A29F9027608031C760F2F293029FA0281
:100260007708031C770F35293629FB027B08F70036
:100270007A08F6007908F5007808F4008030F30673
:100280008030F70677087302031D50297608720242
:10029000031D502975087102031D5029740870024E
:1002A0000318532954295629031057290314080009
:1002B0000130831203138900EF308600061861298C
:1002C00062299129063083120313BD001330BC004C
:1002D000AD30BB00BB0B6A29BC0B6A29BD0B6A2978
:1002E0003D3083120313B800CC30B700CC30B600D9
:1002F000CD30B5000A128A15EC240A128A1130306A
:100300000A128A1523210A128A11831203134D0837
:100310004E0403198C298D298F29D101D201D101D5
:10032000D201861894299529C8290630831203130F
:10033000BD001330BC00AD30BB00BB0B9D29BC0B16
:100340009D29BD0B9D293D3083120313B800CC308D
:10035000B700CC30B600CD30B5000A128A15EC24B7
:100360000A128A1131300A128A1523210A128A11BF
:10037000831203134D084E040319BF29C029C42951
:100380000130D1000030D2000130D1000030D20065
:100390000619CB29CC29FB29063083120313BD0093
:1003A0001330BC00AD30BB00BB0BD429BC0BD4292F
:1003B000BD0BD4293D3083120313B800CC30B700F5
:1003C000CC30B600CD30B5000A128A15EC240A12E2
:1003D0008A1132300A128A1523210A128A118312D5
:1003E00003134D084E040319F629F729FB2902309F
:1003F000D1000030D2008619FE29FF292E2A0630AE
:1004000083120313BD001330BC00AD30BB00BB0B27
:10041000072ABC0B072ABD0B072A3D3083120313A2
:10042000B800CC30B700CC30B600CD30B5000A12E1
:100430008A15EC240A128A1133300A128A152321F4
:100440000A128A11831203134D084E040319292A34
:100450002A2A2E2A0330D1000030D200DF30860055
:100460000618332A342A632A063083120313BD0088
:100470001330BC00AD30BB00BB0B3C2ABC0B3C2A8C
:10048000BD0B3C2A3D3083120313B800CC30B700BB
:10049000CC30B600CD30B5000A128A15EC240A1211
:1004A0008A1134300A128A1523210A128A11831202
:1004B00003134D084E0403195E2A5F2A632A043091
:1004C000D1000030D2008618662A672A962A0630A4
:1004D00083120313BD001330BC00AD30BB00BB0B57
:1004E0006F2ABC0B6F2ABD0B6F2A3D30831203139A
:1004F000B800CC30B700CC30B600CD30B5000A1211
:100500008A15EC240A128A1135300A128A15232121
:100510000A128A11831203134D084E040319912AFB
:10052000922A962A0530D1000030D2000619992A65
:100530009A2AC92A063083120313BD001330BC0067
:10054000AD30BB00BB0BA22ABC0BA22ABD0BA22A5A
:100550003D3083120313B800CC30B700CC30B60066
:10056000CD30B5000A128A15EC240A128A113630F1
:100570000A128A1523210A128A11831203134D08C5
:100580004E040319C42AC52AC92A0630D1000030F6
:10059000D2008619CC2ACD2AFC2A063083120313F6
:1005A000BD001330BC00AD30BB00BB0BD52ABC0B6B
:1005B000D52ABD0BD52A3D3083120313B800CC30A9
:1005C000B700CC30B600CD30B5000A128A15EC2445
:1005D0000A128A1137300A128A1523210A128A1147
:1005E000831203134D084E040319F72AF82AFC2A34
:1005F0000730D1000030D200BF3086000618012B32
:10060000022B312B063083120313BD001330BC00C4
:10061000AD30BB00BB0B0A2BBC0B0A2BBD0B0A2B4E
:100620003D3083120313B800CC30B700CC30B60095
:10063000CD30B5000A128A15EC240A128A1138301E
:100640000A128A1523210A128A11831203134D08F4
:100650004E0403192C2B2D2B312B0830D1000030E8
:10066000D2008618342B352B642B063083120313EB
:10067000BD001330BC00AD30BB00BB0B3D2BBC0B31
:100680003D2BBD0B3D2B3D3083120313B800CC3006
:10069000B700CC30B600CD30B5000A128A15EC2474
:1006A0000A128A1139300A128A1523210A128A1174
:1006B000831203134D084E0403195F2B602B642B28
:1006C0000930D1000030D2000619672B682B8B2B24
:1006D000063083120313BD001330BC00AD30BB00E5
:1006E000BB0B702BBC0B702BBD0B702B3D308312E2
:1006F0000313B800CC30B700CC30B600CD30B50015
:100700000A128A15EC240A128A1141300A128A153B
:1007100023210A128A11831203138619902B912B1D
:10072000B42B063083120313BD001330BC00AD3070
:10073000BB00BB0B992BBC0B992BBD0B992B3D30F0
:1007400083120313B800CC30B700CC30B600CD30E4
:10075000B5000A128A15EC240A128A1142300A12D4
:100760008A1523210A128A117F308312031386000F
:100770000618BB2BBC2BDF2B063083120313BD00E6
:100780001330BC00AD30BB00BB0BC42BBC0BC42B67
:10079000BD0BC42B3D3083120313B800CC30B7001F
:1007A000CC30B600CD30B5000A128A15EC240A12FE
:1007B0008A1143300A128A1523210A128A118312E0
:1007C00003138618E42BE52B082C06308312031341
:1007D000BD001330BC00AD30BB00BB0BED2BBC0B20
:1007E000ED2BBD0BED2B3D3083120313B800CC3045
:1007F000B700CC30B600CD30B5000A128A15EC2413
:100800000A128A1144300A128A1523210A128A1107
:100810008312031306190D2C0E2C312C0630831273
:100820000313BD001330BC00AD30BB00BB0B162C56
:10083000BC0B162CBD0B162C3D3083120313B800D5
:10084000CC30B700CC30B600CD30B5000A128A15D6
:10085000EC240A128A1145300A128A1523210A1241
:100860008A11831203138619362C372C5A2C063022
:1008700083120313BD001330BC00AD30BB00BB0BB3
:100880003F2CBC0B3F2CBD0B3F2C3D308312031380
:10089000B800CC30B700CC30B600CD30B5000A126D
:1008A0008A15EC240A128A1146300A128A1523216D
:1008B0000A128A1108008312031323088039F900F1
:1008C0007908A8002308F9007907FA007A08AE0031
:1008D000A21F6B2C6C2C6D2C2E142E080319712C5E
:1008E000722C812C2E0A031D762C772C7F2C003045
:1008F000A3000030A2000030A1000030A000A21729
:10090000892C0030A3000030A2000030A10000308C
:10091000A00027088039F9007908A8062708F900FF
:100920007907FA007A08AD00A61F972C982C992C0D
:100930002D142D0803199D2C9E2CAD2C2D0A031D62
:10094000A22CA32CAB2C0030A7000030A600003056
:10095000A5000030A400A617B52C0030A700003079
:10096000A6000030A5000030A4002D080319B92C02
:10097000BA2CBF2C2E08031DBE2CBF2CC82C003057
:10098000A3000030A2000030A1000030A000BB2F67
:100990002008F9007908F00026080A128A110820B8
:1009A0000A128A11710883120313B4007008B3008D
:1009B0003308F900FA01FB01FC017C08AC007B085C
:1009C000AB007A08AA007908A9003408F900FA01F6
:1009D000FB01FC017C08B2007B08B1007A08B00082
:1009E0007908AF002108F9007908F00025080A12FB
:1009F0008A1108200A128A11710883120313B400A5
:100A00007008B3003308F900FA01FB01FC01790812
:100A1000A9077A0803110318013E0319102DAA072C
:100A20007B0803110318013E0319172DAB077C083F
:100A300003110318013E03191E2DAC073408F900F9
:100A4000FA01FB01FC017908AF077A0803110318CA
:100A5000013E03192C2DB0077B0803110318013E3A
:100A60000319332DB1077C0803110318013E031944
:100A70003A2DB2072208F9007908F00024080A127A
:100A80008A1108200A128A11710883120313B40014
:100A90007008B3003308F900FA01FB01FC01790882
:100AA000A9077A0803110318013E0319582DAA0754
:100AB0007B0803110318013E03195F2DAB077C0867
:100AC00003110318013E0319662DAC073408F90021
:100AD000FA01FB01FC017908AF077A08031103183A
:100AE000013E0319742DB0077B0803110318013E62
:100AF00003197B2DB1077C0803110318013E03196C
:100B0000822DB2070830F9000310A90DAA0DAB0D14
:100B1000AC0DF90B842D2108F9007908F0002408A8
:100B20000A128A1108200A128A117108831203130B
:100B3000B4007008B3003308F9003408FA00FB0170
:100B4000FC017908A9077A0803110318013E03196B
:100B5000AA2DAA077B0803110318013E0319B12D22
:100B6000AB077C0803110318013E0319B82DAC072D
:100B70002008F9007908F00025080A128A110820D7
:100B80000A128A11710883120313B4007008B300AB
:100B90003308F9003408FA00FB01FC017908A907C1
:100BA0007A0803110318013E0319D72DAA077B0801
:100BB00003110318013E0319DE2DAB077C08031156
:100BC0000318013E0319E52DAC070830F9000310A6
:100BD000A90DAA0DAB0DAC0DF90BE72D2008F900FE
:100BE0007908F00024080A128A1108200A128A11D2
:100BF000710883120313B4007008B3003308F900BE
:100C00003408FA00FB01FC017908A9077A080311EE
:100C10000318013E03190D2EAA077B0803110318C0
:100C2000013E0319142EAB077C0803110318013E83
:100C300003191B2EAC072108F9007908F0002608DB
:100C40000A128A1108200A128A11710883120313EA
:100C5000B4007008B3003308F9003408FA00FB014F
:100C6000FC017908AF077A0803110318013E031944
:100C70003A2EB0077B0803110318013E0319412ED9
:100C8000B1077C0803110318013E0319482EB2076F
:100C90002208F9007908F00025080A128A110820B4
:100CA0000A128A11710883120313B4007008B3008A
:100CB0003308F9003408FA00FB01FC017908AF079A
:100CC0007A0803110318013E0319672EB0077B0849
:100CD00003110318013E03196E2EB1077C0803119E
:100CE0000318013E0319752EB2072208F90079088E
:100CF000F00026080A128A1108200A128A117108C7
:100D000083120313B4007008B3003308F9003408E9
:100D1000FA00FB01FC0108300310F90DFA0DFB0D80
:100D2000FC0DFF3E031D8C2E7908AF077A080311D6
:100D30000318013E03199D2EB0077B080311031809
:100D4000013E0319A42EB1077C0803110318013ECC
:100D50000319AB2EB2072908F9002A08FA002B085C
:100D6000FB002C08FC0018300310FC0CFB0CFA0CE8
:100D7000F90CFF3E031DB42E7908AF077A08031162
:100D80000318013E0319C52EB0077B080311031891
:100D9000013E0319CC2EB1077C0803110318013E54
:100DA0000319D32EB2070830F9000310A90DAA0DBC
:100DB000AB0DAC0DF90BD52E2E082D07F900FA015D
:100DC000FA0D7908823EB3007A080318013EFF3E0F
:100DD000B400072F0130F9000310AF0DB00DB10DB5
:100DE000B20DF90BEC2EAC1FF62EF72EF82E2F14A9
:100DF0000130F9000310A90DAA0DAB0DAC0DF90BD4
:100E0000FA2EFF30B3070318B40AFF30B407B11F3E
:100E10000A2F0B2FEA2EAD01AC1F0F2F102F2C2FF6
:100E2000FF302905F900FF302A05FA00FF302B05B5
:100E3000FB007F302C05FC007C087B047A047904DD
:100E40000319232F242F272FAD01AD0A2C2F2F1C80
:100E50002A2F2B2F2C2F242F2D080319302F312F21
:100E6000622F0130AF07003003180130B0070030A7
:100E700003180130B107003003180130B207321CEB
:100E8000422F432F622F2F08F9003008FA00310853
:100E9000FB003208FC000130FD007C0DFC0CFB0C5B
:100EA000FA0CF90CFD0B4D2F7C08B2007B08B10049
:100EB0007A08B0007908AF000130B3070318B40A0C
:100EC0000030B4073408803AFF0080307F02031DF1
:100ED0006B2FFF303302031C6E2F6F2F7A2F7F3062
:100EE00083120313B2008030B1000030B000003034
:100EF000AF00AF2F831203133408803AFF00803015
:100F00007F02031D852F013033020318882F892F9C
:100F1000952F003083120313B2000030B10000306F
:100F2000B0000030AF00A801AF2F831203133308C5
:100F3000F9007908AE00FF30AF05FF30B0057F3013
:100F4000B1050030B2052E1CA62FA72FA82FB11770
:100F50002E08F9000310790CFA007A08B20028086C
:100F6000F9007908B2043208A3003108A200300861
:100F7000A1002F08A00008008317E330FD000B300C
:100F8000FE006530FF00903084000A128A15382177
:100F90000A128A116B30FD000B30FE00B830FF00E2
:100FA000103084000A128A1538210A128A1183131C
:100FB000EF30FD000A30FE00C630FF00A030840094
:100FC0000A128A1538210A128A116230FD0009308E
:100FD000FE007630FF00473084000A128A1538215F
:100FE0000A128A11E201E301E401E501E601E701E9
:100FF000E801E901EA01EB0183010A128A15152BC8
:101198000730831603139F008312031385148316E5
:1011A8000313850188010800FF30831603138500A7
:1011B8008130831203139F008030831603139F002E
:1011C8000800831203138512051285110A128A1565
:1011D80047210A128A158312031385150800C030A7
:1011E8008312031388008512051285110A128A15C5
:1011F80047210A128A158312031385150800013046
:101208008312031388008512051285110A128A15A4
:1012180047210A128A158312031385150800023024
:101228008312031388008512051285110A128A1584
:1012380047210A128A158312031385150800F20044
:1012480072088312031388008516051285110A1285
:101258008A1547210A128A15831203138515080077
:101268007E088A007F0882000A128A1534210A1231
:101278008A158000840A04087D0603190034FF0AD1
:101288000319FE0A3829F001F1010130F0070318AB
:10129800F10A0030F1077108803AFF0093307F02AD
:1012A800031D582988307002031C5B295C294929D1
:1012B8000800F4007408F2007208F300672901308E
:1012C800F2007208F3077308840083130008031DF3
:1012D8006E296F29632974087302F000F101F01B6D
:1012E800F1030800CC3400340134003401340034F4
:1012F80001340034013400340A34003430343034DA
:101308003034303400343034303430343034003415
:10131800313432343134323400340A128A15F3202D
:101328000A128A15F301F40120300A128A152321C2
:101338000A128A150130F3070318F40A0030F4077B
:101348007408803AFF0080307F02031DAD29063003
:101358007302031CB029B129982908008030831230
:101368000313AB062F08F3002E08F2002D08F10036
:101378002C08F0002B08F7002A08F6002908F500C9
:101388002808F4000A128A1568250A128A157308B3
:1013980083120313AB007208AA007108A900700831
:1013A800A80008000A128A15CC200A128A150130F2
:1013B8008312031388000A128A15E5200A128A1577
:1013C80038308312031388000A128A15E5200A129E
:1013D8008A150E308312031388000A128A15E52035
:1013E8000A128A1506308312031388000A128A1516
:1013F800E5200A128A1580308312031388000A1226
:101408008A15E5200A128A150800F801F901292A27
:1014180078087307F6007408F5000318F50AF81F32
:10142800162AF5037508F700760884008317771CD9
:10143800831300080A128A1523210A128A1501301B
:10144800F8070318F90A0030F90778087307F60057
:101458007408F5000318F50AF81F332AF503750810
:10146800F700760884008317771C83130008031D90
:101478003E2A3F2A0C2A08000A128A15F3200A126B
:101488008A150A128A1591210A128A15F701F8019C
:101498005D2A7708EA3E8400831300080A128A1539
:1014A80023210A128A150130F7070318F80A0030B9
:1014B800F807EA300A128A155D210A128A1570089F
:1014C800FF3EF50071080318013EFF3EF60078085C
:1014D8007602031D712A770875020318742A752A83
:1014E8004D2A0A128A1591210A128A1508008312B8
:1014F8000313C001C1010A3083120313D100003065
:10150800D2008B2A0A128A1158210A128A150A3027
:1015180083120313510652040319932A942A862A24
:101528000D3083120313BF00FB30BE00BE0B9A2A96
:10153800BF0B9A2A831203135208F1005108F000D6
:101548000A128A157C240A128A1583120313BE0014
:101558004008533E84003E08831380000130C007D2
:101568000318C10A0030C1074108803AFF008030E3
:101578007F02031DC12A04304002031CC42AC52A65
:101588007F2A080035343534353435340034443452
:1015980069346734693474346534203461342034F0
:1015A800733465346E3468346134003453346534CC
:1015B8006E3468346134203443346F346E346634A6
:1015C800693467340034533465346E3468346134B4
:1015D80020346534723472346134643461340034D4
:1015E8003E34523465346134743469347634613449
:1015F800723400344434693467346934743465347B
:101608003A342034003452346534613474346934E3
:1016180076346134723400345F345F345F345F345D
:10162800003483160313890188010F3086000130C6
:101638008312031389000A128A15D8200A128A1500
:10164800013083120313CB000030CC00592B01303A
:10165800E6000030E700660867040319342B352BD1
:10166800592B402B6708C3006608C2000A128A1566
:1016780013240A128A15592B6708003A0319452BB7
:10168800592B6608013A0319362B033A0319362BEE
:10169800013A0319592B073A0319592B013A03192F
:1016A800592B033A0319592B592B831203134B084F
:1016B8004C04031D602B612B2B2B242B0A128A113F
:1016C8000028533465346E3468346134203444342B
:1016D800693473347034613472346F3400343E3496
:1016E800533465346E3468346134203443346F3491
:1016F8006134633461346F340034533465346E3488
:101708006834613420345534733475346134723438
:1017180069346F3400343E34533465346E3468347D
:101728006134203443346F346E346634693467343A
:101738000034533465346E3468346134203463348F
:101748006F34723472346534743461340034533411
:1017580065346E3468346134203443346F34613412
:10176800633461346F3400344F346B343A34463464
:1017780020346F34753420344E3465346734613422
:1017880072343A34453400343E3444346534733466
:1017980061347434693476346134723420345A34A0
:1017A8006F346E34613400344434653473346134D6
:1017B8007434693476346134723420345A346F3472
:1017C8006E34613400343E34533465346E346834D6
:1017D800613420344434693473347034613472347D
:1017E8006F3400343E34533465346E3468346134B5
:1017F80020345534733475346134723469346F3439
:1018080000342034203420344E346F34763461343C
:101818002034733465346E346834613400340A1209
:101828008A15D6210A128A150A128A1503210A1264
:101838008A155D30F3000130F4000A128A15092276
:101848000A128A150A128A1540220A128A15831268
:10185800031342034304031D322C332C7B2C0A123E
:101868008A157B220A128A1553300A128A112F20F0
:101878000A128A157B0883120313EB007A08EA0020
:101888006A086B040319492C4A2C702C0A128A1511
:1018980003210A128A15013083120313CB0000308A
:1018A800CC004F300A128A1523210A128A154B30B0
:1018B8000A128A1523210A128A1533308312031358
:1018C800C600BB30C500DF30C400C40B692CC50B93
:1018D800692CC60B692C7B2C6A086B04031D752CBC
:1018E800762C7B2C0A128A157B220A128A1508008C
:1018F800C32C313083120313E8000030E900E82CD0
:10190800323083120313E8000030E900E82C33304A
:1019180083120313E8000030E900E82C3430831206
:101928000313E8000030E900E82C35308312031374
:10193800E8000030E900E82C363083120313E80091
:101948000030E900E82C373083120313E800003038
:10195800E900E82C383083120313E8000030E9006E
:10196800E82C393083120313E8000030E900E82C32
:10197800303083120313E8000030E900E82C7108C6
:10198800003A0319C82CE82C7008003A0319BC2C3B
:10199800013A03197D2C033A0319842C013A0319DF
:1019A8008B2C073A0319922C013A0319992C033A04
:1019B8000319A02C013A0319A72C0F3A0319AE2CCE
:1019C800013A0319B52CE82C8312031368080800A0
:1019D800443083120313A3007A30A2000030A10020
:1019E8000030A0003808A7003708A6003608A50070
:1019F8003508A4000A128A115B240A128A15831278
:101A080003132308B8002208B7002108B6002008ED
:101A1800B500413083120313BA00ED30B900B90B99
:101A2800132DBA0B132D182D482D8312031389017A
:101A3800073083120313BA007C30B900B90B222D8A
:101A4800BA0B222D00003F3083120313AB00803005
:101A5800AA000030A9000030A8003808AF003708F5
:101A6800AE003608AD003508AC000A128A15B2215E
:101A78000A128A15831203132B08B8002A08B70024
:101A88002908B6002808B5000030F3000030F2003D
:101A98000030F1000030F000831203133808F7001B
:101AA8003708F6003608F5003508F4000A128A11DE
:101AB800B6200A128A15031C622D632D192D0F30CA
:101AC80083120313890008007308803983120313F3
:101AD800A0002008F8007308A0002007A100210832
:101AE800FA00F21F782D792D7A2D7A147A080319C5
:101AF8007E2D7F2D8F2D7A0A031D832D842D8C2D0D
:101B08000030F3000030F2000030F1000030F00047
:101B1800F217F301972D0030F3000030F200003087
:101B2800F1000030F00077088039A0002008F900A3
:101B3800790878060319A12DA22DA32D7817770807
:101B4800A0002007A1002108F900F61FAC2DAD2D3B
:101B5800AE2D791479080319B22DB32DC32D790A46
:101B6800031DB72DB82DC02D0030F7000030F6004A
:101B78000030F5000030F400F617F701CB2D0030E7
:101B8800F7000030F6000030F5000030F4007A0865
:101B980079020318D02DD12D152E781FD42DD52DCF
:101BA800D92D8030A0002008F8067A08A000200867
:101BB800FB007908A0002008FA007B08A000200894
:101BC800F9007008A0002008FB007408A000200895
:101BD800F0007B08A0002008F4007108A00020088D
:101BE800FB007508A0002008F1007B08A000200871
:101BF800F5007208A0002008FB007608A000200865
:101C0800F2007B08A0002008F6007308A000200856
:101C1800FB007708A0002008F3007B08A00020083C
:101C2800F700FB017908A000A1012108A3007A08A8
:101C38002002A200031CA3032308803AFF0080307F
:101C48007F02031D292E1A302202031C2C2E2D2E52
:101C58006E2E7308720471047004031D342E362E20
:101C68000130372E003083120313A0002008FB0038
:101C78000030F3000030F2000030F1000030F000D6
:101C88007908A0002008FA00742E7B1C4C2E4D2EDB
:101C9800582E7B0883120313A0000310200C013870
:101CA800A1002108FB005A2E0310FB0C701C5D2EAE
:101CB8005E2E5F2EFB17013083120313A000730DF5
:101CC800F30CF20CF10CF00CA00B632E0130A00009
:101CD8002008FA0779087A02031C732E742E492EFD
:101CE800781B772E782EC72E7A08031D7C2E7D2E22
:101CF800862E0030F3000030F2000030F100003092
:101D0800F000FF2F7408F007750803110318013E4F
:101D180003198F2EF107760803110318013E0319E2
:101D2800962EF207770803110318013E03199D2E1A
:101D3800F307731CA02EA12E7F2F7B1CA42EA52E8B
:101D4800B02E7B0883120313A0000310200C013867
:101D5800A1002108FB00B22E0310FB0C701CB52E4D
:101D6800B62EB72EFB17013083120313A000730D94
:101D7800F30CF20CF10CF00CA00BBB2E0130A00000
:101D88002008FA077F2F7308803AFF007708803A07
:101D98007F02031DD92E76087202031DD92E7508FD
:101DA8007102031DD92E740870020318DC2EDD2E73
:101DB800372FFF3083120313A000FF30A100FF303C
:101DC800A200FF30A3007408A4007508A5007608D7
:101DD800A6007708A7007008A4027108031C710FF9
:101DE800F62EF72EA5027208031C720FFC2EFD2E8C
:101DF800A6027308031C730F022F032FA7022408DF
:101E0800A00725080318250F0A2F0B2FA10726085E
:101E18000318260F102F112FA20727080318270AC7
:101E2800A3072308F3002208F2002108F100200884
:101E3800F0008030A0002008F806FB09FB0A7B08A8
:101E4800031D272F282F452F0130F00700300318D6
:101E58000130F107003003180130F2070030031891
:101E68000130F307452F7408F0027508031C750F3D
:101E7800F1027608031C760FF2027708031C770F2D
:101E8800F3027308720471047004031D4C2F4D2F64
:101E98007B2F7B08031D512F522F7B2F0030F3001F
:101EA8000030F2000030F1000030F000FF2F013068
:101EB80083120313A0000310F00DF10DF20DF30DC2
:101EC800A00B5F2FFB1F692F6A2F6B2F70147B1CD1
:101ED8006E2F6F2F722F0314FB0D742F0310FB0D41
:101EE8007A080319782F792F7B2F0130FA02F21F15
:101EF8007E2F7F2F5B2FF901FB1F832F842F922FBB
:101F08007B087F390319892F8A2F8D2FF901F90A48
:101F1800922F701C902F912F922F8A2F79080319D6
:101F2800962F972FCD2F0130F0070030031801307E
:101F3800F107003003180130F207003003180130B0
:101F4800F307731CA82FA92FCD2F70088312031332
:101F5800A0007108A1007208A2007308A300013054
:101F6800A400230DA30CA20CA10CA00CA40BB52F4C
:101F78002308F3002208F2002108F1002008F000ED
:101F88007A0A0319C82FC92FCD2F0130A0002008C5
:101F9800FA077A0A0319D12FD22FD72F7A08031DEF
:101FA800D62FD72FE52F0030F3000030F200003095
:101FB800F1000030F0007A08031DE32FE42FE52F2D
:101FC800F8017A1CE82FE92FEB2FF217F12F7F3059
:101FD80083120313A0002008F2057A088312031362
:101FE800A0000310200CA1002108F300F81FFD2F0A
:081FF800FE2FFF2FF317080074
:00000001FF
