:060000000A128A11D32F41
:100A2600013400340730831603139F008312031327
:100A360085148316031385018801080083120313A6
:100A46008512051285110A128A1183250A128A1146
:100A560083120313851508000130831203138800DF
:100A66008512051285110A128A1183250A128A1126
:100A76008312031385150800C03083120313880000
:100A86008512051285110A128A1183250A128A1106
:100A9600831203138515080002308312031388009E
:100AA6008512051285110A128A1183250A128A11E6
:100AB6008312031385150800F200720883120313CC
:100AC60088008516051285110A128A1183250A12D5
:100AD6008A1183120313851508007E088A007F0891
:100AE60082000A128A1170250A128A118000840A6D
:100AF60004087D0603190034FF0A0319FE0A742D43
:100B0600F001F1010130F0070318F10A0030F10796
:100B16007108803AFF0093307F02031D942D8830C0
:100B26007002031C972D982D852D0800F40074087B
:100B3600F2007208F300A32D0130F2007208F307E9
:100B46007308840083130008031DAA2DAB2D9F2D67
:100B560074087302F000F101F01BF1030800013480
:100B66000034443469346734693474346534203469
:100B760061342034733465346E346834613400343F
:100B86005F345F345F345F340034313432343134AF
:100B960038340034313432343134323400340A12C9
:100BA6008A113F250A128A1120300A128A115F25FE
:100BB6000A128A1120300A128A115F250A128A1136
:100BC60020300A128A115F250A128A1120300A1271
:100BD6008A115F250A128A1120300A128A115F25AE
:100BE6000A128A1120300A128A115F250A128A1106
:100BF6000800F600062E0130F2007208F6070130F2
:100C0600F2007208F0077008840083130008F200EF
:100C1600760884000008F30072087302F400740872
:100C2600F5007508031D182E192E202E760884004F
:100C36000008031D1F2E202EFE2D7508F000F10161
:100C4600F01BF10308000A128A1115250A128A11EF
:100C560001308312031388000A128A1121250A1211
:100C66008A1138308312031388000A128A1121254B
:100C76000A128A110E308312031388000A128A118F
:100C860021250A128A1106308312031388000A12DC
:100C96008A1121250A128A118030831203138800D3
:100CA6000A128A1121250A128A1108000A128A11CB
:100CB6003F250A128A110A128A11D2250A128A11AE
:100CC600F701F801762E7708313E84008313000879
:100CD6000A128A115F250A128A110130F7070318D2
:100CE600F80A0030F80731300A128A1199250A12DB
:100CF6008A117008FF3EF50071080318013EFF3E99
:100D0600F60078087602031D8A2E77087502031806
:100D16008D2E8E2E662E0A128A11D2250A128A115D
:100D260008000A128A114F250A128A1120300A1267
:100D36008A115F250A128A11F701F801B22E770887
:100D4600223E8400831300080A128A115F250A12C4
:100D56008A110130F7070318F80A0030F807223025
:100D66000A128A1199250A128A117008FF3EF500A7
:100D760071080318013EFF3EF60078087602031D4F
:100D8600C62E770875020318C92ECA2EA22E203049
:100D96000A128A115F250A128A11080083160313A4
:100DA600890188010F308600013083120313890000
:100DB6000A128A1126260A128A110A128A112F2568
:100DC6000A128A1183120313200821040319EC2E38
:100DD600ED2EFB2E0A128A1194260A128A110A1285
:100DE6008A1159260A128A1183120313A001A1013E
:100DF6007A037B04031D002F012FE52E0A128A11A8
:100E06002F250A128A1145300A128A115F250A1205
:100E16008A110A128A1115270A128A11E52E0A1258
:100E26008A110028CC2F3630F7007708F0003B30C7
:100E36000A128A11FC250A128A1170087104031D10
:100E4600252F262F842FFA01FB0153300A128A110F
:100E56005F250A128A1165300A128A115F250A1265
:100E66008A116E300A128A115F250A128A116830B9
:100E76000A128A115F250A128A1161300A128A1132
:100E86005F250A128A1120300A128A115F250A127A
:100E96008A1163300A128A115F250A128A116F308D
:100EA6000A128A115F250A128A1172300A128A11F1
:100EB6005F250A128A1172300A128A115F250A12F8
:100EC6008A1165300A128A115F250A128A11743056
:100ED6000A128A115F250A128A1161300A128A11D2
:100EE6005F250A128A114030F9006A30F8009730FF
:100EF600F700F70B7C2FF80B7C2FF90B7C2F832F39
:100F0600CC2F53300A128A115F250A128A116530D6
:100F16000A128A115F250A128A116E300A128A1184
:100F26005F250A128A1168300A128A115F250A1291
:100F36008A1161300A128A115F250A128A1120303D
:100F46000A128A115F250A128A1165300A128A115D
:100F56005F250A128A1172300A128A115F250A1257
:100F66008A1172300A128A115F250A128A116130BB
:100F76000A128A115F250A128A1164300A128A112E
:100F86005F250A128A1161300A128A115F250A1238
:100F96008A117A037B040319D12FD22F162F08004A
:100FA60083134030FD000530FE00B230FF002030D4
:100FB60084000A128A1174250A128A110A128A11E9
:100FC60013250A128A11FA000A128A1114250A1226
:100FD6008A11FB00C001C101C201C301C401C501E0
:100FE600C601C701C801C901CA01CB01CC01CD01A7
:0A0FF600FC0183010A128A11D12EBA
:00000001FF
