:060000000A128A11C02F54
:100008000A168A11F0270A128A1120300A128A1554
:100018000D200A128A11F701F80122287708A03E5C
:100028008400831300080A128A150D200A128A1107
:100038000130F7070318F80A0030F807A0300A1251
:100048008A1547200A128A117008FF3EF5007108C8
:100058000318013EFF3EF60078087602031D362895
:1000680077087502031839283A28122820300A120E
:100078008A150D200A128A11080000307B02CD3043
:1000880003197A02031849284A2871280A128A157E
:1000980076210A128A110A168A11E0270A128A1191
:1000A8000A168A11F0270A128A11C930F3000130A2
:1000B800F4000A128A15A9210A128A110A168A114D
:1000C800D0270A128A11BB30F3000130F4000A125B
:1000D8008A15A9210A128A11612901307B029930F7
:1000E80003197A02031879287A28A1280A128A158E
:1000F80076210A128A110A168A11E0270A128A1131
:100108000A168A11F0270A128A11BC30F30000304F
:10011800F4000A128A15A9210A128A110A168A11EC
:10012800D0270A128A119030F3000130F4000A1225
:100138008A15A9210A128A11612902307B026530C9
:1001480003197A020318A928AA28D1280A128A159D
:1001580076210A128A110A168A11E0270A128A11D0
:100168000A168A11F0270A128A11AD30F3000130FD
:10017800F4000A128A15A9210A128A110A168A118C
:10018800D0270A128A119F30F3000130F4000A12B6
:100198008A15A9210A128A11612903307B0231309C
:1001A80003197A020318D928DA2801290A128A15AC
:1001B80076210A128A110A168A11E0270A128A1170
:1001C8000A168A11F0270A128A11AF30F30000309C
:1001D800F4000A128A15A9210A128A110A168A112C
:1001E800D0270A128A112F30F3000130F4000A12C6
:1001F8008A15A9210A128A11612903307B02FD3070
:1002080003197A02031809290A2931290A128A15B9
:1002180076210A128A110A168A11E0270A128A110F
:100228000A168A11F0270A128A111030F3000130D9
:10023800F4000A128A15A9210A128A110A168A11CB
:10024800D0270A128A11E030F3000030F4000A12B5
:100258008A15A9210A128A11612904307B02C93042
:1002680003197A02031839293A2961290A128A15C9
:1002780076210A128A110A168A11E0270A128A11AF
:100288000A168A11F0270A128A112030F300013069
:10029800F4000A128A15A9210A128A110A168A116B
:1002A800D0270A128A11D630F3000030F4000A125F
:1002B8008A15A9210A128A116129080001308312BE
:1002C80003138900EF30860006186B296C299929D9
:1002D800063083120313BD001330BC00AD30BB00E1
:1002E800BB0B7429BC0B7429BD0B74293D308312D8
:1002F8000313B800CC30B700CC30B600CD30B50011
:100308000A128A15B9220A128A1130300A128A157D
:100318000D200A128A118312031352035304031D7A
:10032800962997299929D601D70186189C299D29AC
:10033800CC29063083120313BD001330BC00AD3046
:10034800BB00BB0BA529BC0BA529BD0BA5293D30BE
:1003580083120313B800CC30B700CC30B600CD30D0
:10036800B5000A128A15B9220A128A1131300A1206
:100378008A150D200A128A1183120313520353049B
:10038800031DC729C829CC290130D6000030D70061
:100398000619CF29D029FF29063083120313BD007F
:1003A8001330BC00AD30BB00BB0BD829BC0BD8291F
:1003B800BD0BD8293D3083120313B800CC30B700E9
:1003C800CC30B600CD30B5000A128A15B9220A120F
:1003D8008A1132300A128A150D200A128A118312E4
:1003E800031352035304031DFA29FB29FF29023082
:1003F800D6000030D7008619022A032A322A06308E
:1004080083120313BD001330BC00AD30BB00BB0B1F
:100418000B2ABC0B0B2ABD0B0B2A3D30831203138E
:10042800B800CC30B700CC30B600CD30B5000A12D9
:100438008A15B9220A128A1133300A128A150D2038
:100448000A128A118312031352035304031D2D2A1F
:100458002E2A322A0330D6000030D700DF3086003B
:100468000618372A382A672A063083120313BD0074
:100478001330BC00AD30BB00BB0B402ABC0B402A7C
:10048800BD0B402A3D3083120313B800CC30B700AF
:10049800CC30B600CD30B5000A128A15B9220A123E
:1004A8008A1134300A128A150D200A128A11831211
:1004B800031352035304031D622A632A672A043074
:1004C800D6000030D70086186A2A6B2A9A2A063086
:1004D80083120313BD001330BC00AD30BB00BB0B4F
:1004E800732ABC0B732ABD0B732A3D308312031386
:1004F800B800CC30B700CC30B600CD30B5000A1209
:100508008A15B9220A128A1135300A128A150D2065
:100518000A128A118312031352035304031D952AE6
:10052800962A9A2A0530D6000030D70006199D2A47
:100538009E2ACD2A063083120313BD001330BC0057
:10054800AD30BB00BB0BA62ABC0BA62ABD0BA62A46
:100558003D3083120313B800CC30B700CC30B6005E
:10056800CD30B5000A128A15B9220A128A1136301E
:100578000A128A150D200A128A11831203135203D4
:100588005304031DC82AC92ACD2A0630D6000030D4
:10059800D7008619D02AD12A002B063083120313DC
:1005A800BD001330BC00AD30BB00BB0BD92ABC0B5F
:1005B800D92ABD0BD92A3D3083120313B800CC3099
:1005C800B700CC30B600CD30B5000A128A15B92272
:1005D8000A128A1137300A128A150D200A128A1156
:1005E8008312031352035304031DFB2AFC2A002B16
:1005F8000730D6000030D700BF3086000618052B1C
:10060800062B352B063083120313BD001330BC00B4
:10061800AD30BB00BB0B0E2BBC0B0E2BBD0B0E2B3A
:100628003D3083120313B800CC30B700CC30B6008D
:10063800CD30B5000A128A15B9220A128A1138304B
:100648000A128A150D200A128A1183120313520303
:100658005304031D302B312B352B0830D6000030C6
:10066800D7008618382B392B682B063083120313D2
:10067800BD001330BC00AD30BB00BB0B412BBC0B25
:10068800412BBD0B412B3D3083120313B800CC30F6
:10069800B700CC30B600CD30B5000A128A15B922A1
:1006A8000A128A1139300A128A150D200A128A1183
:1006B8008312031352035304031D632B642B682B0B
:1006C8000930D6000030D70006196B2B6C2B8F2B06
:1006D800063083120313BD001330BC00AD30BB00DD
:1006E800BB0B742BBC0B742BBD0B742B3D308312CE
:1006F8000313B800CC30B700CC30B600CD30B5000D
:100708000A128A15B9220A128A1141300A128A1568
:100718000D200A128A11831203138619942B952B24
:10072800B82B063083120313BD001330BC00AD3064
:10073800BB00BB0B9D2BBC0B9D2BBD0B9D2B3D30DC
:1007480083120313B800CC30B700CC30B600CD30DC
:10075800B5000A128A15B9220A128A1142300A1201
:100768008A150D200A128A117F308312031386001E
:100778000618BF2BC02BE32B063083120313BD00D2
:100788001330BC00AD30BB00BB0BC82BBC0BC82B57
:10079800BD0BC82B3D3083120313B800CC30B70013
:1007A800CC30B600CD30B5000A128A15B9220A122B
:1007B8008A1143300A128A150D200A128A118312EF
:1007C80003138618E82BE92B0C2C0630831203132D
:1007D800BD001330BC00AD30BB00BB0BF12BBC0B14
:1007E800F12BBD0BF12B3D3083120313B800CC3035
:1007F800B700CC30B600CD30B5000A128A15B92240
:100808000A128A1144300A128A150D200A128A1116
:10081800831203130619112C122C352C063083125F
:100828000313BD001330BC00AD30BB00BB0B1A2C4A
:10083800BC0B1A2CBD0B1A2C3D3083120313B800C5
:10084800CC30B700CC30B600CD30B5000A128A15CE
:10085800B9220A128A1145300A128A150D200A1285
:100868008A118312031386193A2C3B2C5E2C06300E
:1008780083120313BD001330BC00AD30BB00BB0BAB
:10088800432CBC0B432CBD0B432C3D30831203136C
:10089800B800CC30B700CC30B600CD30B5000A1265
:1008A8008A15B9220A128A1146300A128A150D20B1
:1008B8000A128A1108008312031323088039F900E9
:1008C8007908A8002308F9007907FA007A08AE0029
:1008D800A21F6F2C702C712C2E142E080319752C46
:1008E800762C852C2E0A031D7A2C7B2C832C003029
:1008F800A3000030A2000030A1000030A000A21721
:100908008D2C0030A3000030A2000030A100003080
:10091800A00027088039F9007908A8062708F900F7
:100928007907FA007A08AD00A61F9B2C9C2C9D2CF9
:100938002D142D080319A12CA22CB12C2D0A031D4E
:10094800A62CA72CAF2C0030A7000030A600003042
:10095800A5000030A400A617B92C0030A70000306D
:10096800A6000030A5000030A4002D080319BD2CF6
:10097800BE2CC32C2E08031DC22CC32CCC2C00303B
:10098800A3000030A2000030A1000030A000BF2F5B
:100998002008F9007908F00026080A128A15C820EC
:1009A8000A128A11710883120313B4007008B30085
:1009B8003308F900FA01FB01FC017C08AC007B0854
:1009C800AB007A08AA007908A9003408F900FA01EE
:1009D800FB01FC017C08B2007B08B1007A08B0007A
:1009E8007908AF002108F9007908F00025080A12F3
:1009F8008A15C8200A128A11710883120313B400D9
:100A08007008B3003308F900FA01FB01FC0179080A
:100A1800A9077A0803110318013E0319142DAA0720
:100A28007B0803110318013E03191B2DAB077C0833
:100A380003110318013E0319222DAC073408F900ED
:100A4800FA01FB01FC017908AF077A0803110318C2
:100A5800013E0319302DB0077B0803110318013E2E
:100A68000319372DB1077C0803110318013E031938
:100A78003E2DB2072208F9007908F00024080A126E
:100A88008A15C8200A128A11710883120313B40048
:100A98007008B3003308F900FA01FB01FC0179087A
:100AA800A9077A0803110318013E03195C2DAA0748
:100AB8007B0803110318013E0319632DAB077C085B
:100AC80003110318013E03196A2DAC073408F90015
:100AD800FA01FB01FC017908AF077A080311031832
:100AE800013E0319782DB0077B0803110318013E56
:100AF80003197F2DB1077C0803110318013E031960
:100B0800862DB2070830F9000310A90DAA0DAB0D08
:100B1800AC0DF90B882D2108F9007908F00024089C
:100B28000A128A15C8200A128A117108831203133F
:100B3800B4007008B3003308F9003408FA00FB0168
:100B4800FC017908A9077A0803110318013E031963
:100B5800AE2DAA077B0803110318013E0319B52D12
:100B6800AB077C0803110318013E0319BC2DAC0721
:100B78002008F9007908F00025080A128A15C8200B
:100B88000A128A11710883120313B4007008B300A3
:100B98003308F9003408FA00FB01FC017908A907B9
:100BA8007A0803110318013E0319DB2DAA077B08F5
:100BB80003110318013E0319E22DAB077C0803114A
:100BC8000318013E0319E92DAC070830F90003109A
:100BD800A90DAA0DAB0DAC0DF90BEB2D2008F900F2
:100BE8007908F00024080A128A15C8200A128A1106
:100BF800710883120313B4007008B3003308F900B6
:100C08003408FA00FB01FC017908A9077A080311E6
:100C18000318013E0319112EAA077B0803110318B4
:100C2800013E0319182EAB077C0803110318013E77
:100C380003191F2EAC072108F9007908F0002608CF
:100C48000A128A15C8200A128A117108831203131E
:100C5800B4007008B3003308F9003408FA00FB0147
:100C6800FC017908AF077A0803110318013E03193C
:100C78003E2EB0077B0803110318013E0319452EC9
:100C8800B1077C0803110318013E03194C2EB20763
:100C98002208F9007908F00025080A128A15C820E8
:100CA8000A128A11710883120313B4007008B30082
:100CB8003308F9003408FA00FB01FC017908AF0792
:100CC8007A0803110318013E03196B2EB0077B083D
:100CD80003110318013E0319722EB1077C08031192
:100CE8000318013E0319792EB2072208F900790882
:100CF800F00026080A128A15C8200A128A117108FB
:100D080083120313B4007008B3003308F9003408E1
:100D1800FA00FB01FC0108300310F90DFA0DFB0D78
:100D2800FC0DFF3E031D902E7908AF077A080311CA
:100D38000318013E0319A12EB0077B0803110318FD
:100D4800013E0319A82EB1077C0803110318013EC0
:100D58000319AF2EB2072908F9002A08FA002B0850
:100D6800FB002C08FC0018300310FC0CFB0CFA0CE0
:100D7800F90CFF3E031DB82E7908AF077A08031156
:100D88000318013E0319C92EB0077B080311031885
:100D9800013E0319D02EB1077C0803110318013E48
:100DA8000319D72EB2070830F9000310A90DAA0DB0
:100DB800AB0DAC0DF90BD92E2E082D07F900FA0151
:100DC800FA0D7908823EB3007A080318013EFF3E07
:100DD800B4000B2F0130F9000310AF0DB00DB10DA9
:100DE800B20DF90BF02EAC1FFA2EFB2EFC2E2F1491
:100DF8000130F9000310A90DAA0DAB0DAC0DF90BCC
:100E0800FE2EFF30B3070318B40AFF30B407B11F32
:100E18000E2F0F2FEE2EAD01AC1F132F142F302FD6
:100E2800FF302905F900FF302A05FA00FF302B05AD
:100E3800FB007F302C05FC007C087B047A047904D5
:100E48000319272F282F2B2FAD01AD0A302F2F1C68
:100E58002E2F2F2F302F282F2D080319342F352F01
:100E6800662F0130AF07003003180130B00700309B
:100E780003180130B107003003180130B207321CE3
:100E8800462F472F662F2F08F9003008FA0031083F
:100E9800FB003208FC000130FD007C0DFC0CFB0C53
:100EA800FA0CF90CFD0B512F7C08B2007B08B1003D
:100EB8007A08B0007908AF000130B3070318B40A04
:100EC8000030B4073408803AFF0080307F02031DE9
:100ED8006F2FFF303302031C722F732F7E2F7F304A
:100EE80083120313B2008030B1000030B00000302C
:100EF800AF00B32F831203133408803AFF00803009
:100F08007F02031D892F0130330203188C2F8D2F88
:100F1800992F003083120313B2000030B100003063
:100F2800B0000030AF00A801B32F831203133308B9
:100F3800F9007908AE00FF30AF05FF30B0057F300B
:100F4800B1050030B2052E1CAA2FAB2FAC2FB1175C
:100F58002E08F9000310790CFA007A08B200280864
:100F6800F9007908B2043208A3003108A200300859
:100F7800A1002F08A00008008317E530FD000A3003
:100F8800FE006430FF00903084000A128A15222087
:100F98000A128A113E30FD000930FE001930FF00A8
:100FA800103084000A128A1522200A128A1183132B
:100FB800E930FD000A30FE001B30FF00A03084003D
:100FC8000A128A1522200A128A116930FD00083097
:100FD800FE008130FF00463084000A128A15222064
:100FE8000A128A11E901EA01EB01EC01ED01EE01B7
:100FF80083010A128A15352BFF30831603138500E7
:101008008130831203139F008030831603139F00DF
:101018000800F2007208831203138800851605126F
:1010280085110A128A1531200A128A1583120313B0
:10103800851508007E088A007F0882000A128A1532
:101048001E200A128A158000840A04087D060319E6
:101058000034FF0A0319FE0A2228F001F1010130C9
:10106800F0070318F10A0030F1077108803AFF0011
:1010780093307F02031D422888307002031C4528E4
:10108800462833280800F4007408F2007208F300B8
:1010980051280130F2007208F307730884008313A3
:1010A8000008031D582859284D2874087302F000B9
:1010B800F101F01BF10308000A168A11D0270A1261
:1010C8008A15F301F40120300A128A150D200A123C
:1010D8008A150130F3070318F40A0030F40774087E
:1010E800803AFF0080307F02031D7C28063073029F
:1010F800031C7F28802867280800303430343034B7
:101108003034003435343534353435340034013432
:10111800003401340034013400340A340034CC344F
:1011280000345F345F345F345F340034303430343B
:1011380030343034003431343234313432340034E1
:10114800803083120313AB062F08F3002E08F20039
:101158002D08F1002C08F0002B08F7002A08F600EB
:101168002908F5002808F4000A128A1568250A12C9
:101178008A15730883120313AB007208AA0071085A
:10118800A9007008A8000800F800F401F50170082B
:10119800F200F3017208F6007308F700781CD528EE
:1011A800D628DC287608F4070318F50A7708F50727
:1011B80001300310F60DF70DFF3E031DDD28031067
:1011C800F80C7808031DE928EA28D2287508F100E8
:1011D8007408F0000800F600F9280130F2007208DF
:1011E800F6070130F2007208F007700884008313D4
:1011F8000008F200760884000008F3007208730201
:10120800F4007408F5007508031D0B290C2913292F
:10121800760884000008031D12291329F12875088F
:10122800F000F101F01BF10308003E34443465344A
:1012380073346134743469347634613472342034EC
:101248005A346F346E346134003444346534733442
:1012580061347434693476346134723420345A34E5
:101268006F346E34613400343E34533465346E3434
:1012780068346134203444346934733470346134EC
:1012880072346F340034F600C530F20072088312ED
:1012980003139F057608F20002300310F20DFF3E9B
:1012A800031D51290310720DF30073089F040D30BC
:1012B800F300FB30F200F20B5F29F30B5F2964297E
:1012C800831203131F151F196A296B2967291E0822
:1012D800F500831603131E08F4007508F10074085E
:1012E800F00008000A168A11B6270A128A1501307A
:1012F8008312031388000A168A11C2270A128A1554
:1013080038308312031388000A168A11C2270A127A
:101318008A150E308312031388000A168A11C22711
:101328000A128A1506308312031388000A168A11D6
:10133800C2270A128A1580308312031388000A16FE
:101348008A11C2270A128A150800F801F901C92969
:1013580078087307F6007408F5000318F50AF81FF3
:10136800B629F5037508F700760884008317771CFB
:10137800831300080A128A150D200A128A150130F3
:10138800F8070318F90A0030F90778087307F60018
:101398007408F5000318F50AF81FD329F503750832
:1013A800F700760884008317771C83130008031D51
:1013B800DE29DF29AC2908000A168A11D0270A126B
:1013C8008A150A128A1560200A128A15F701F8018F
:1013D800FD2977085A3E8400831300080A128A15EB
:1013E8000D200A128A150130F7070318F80A003091
:1013F800F8075A300A128A1547200A128A15700807
:10140800FF3EF50071080318013EFF3EF60078081C
:101418007602031D112A770875020318142A152A63
:10142800ED290A128A1560200A128A150800443428
:101438006934673469347434653420346134203451
:10144800733465346E34683461340034533465342D
:101458006E3468346134203443346F346134633417
:1014680061346F340034533465346E346834613415
:10147800203443346F346E3466346934673400344E
:10148800533465346E3468346134203465347234CE
:10149800723461346434613400343E345234653417
:1014A80061347434693476346134723400345234BB
:1014B8006534613474346934763461347234003498
:1014C8003E34533465346E346834613420345534D2
:1014D800733475346134723469346F34003453347E
:1014E80065346E3468346134203444346934733478
:1014F8007034613472346F3400343E34533465349C
:101508006E3468346134203443346F346134633466
:1015180061346F340034533465346E346834613464
:1015280020345534733475346134723469346F340B
:1015380000343E34533465346E34683461342034B6
:1015480043346F346E34663469346734003453344A
:1015580065346E3468346134203463346F347234E3
:1015680072346534743461340034443083120313A4
:10157800A3007A30A2000030A1000030A000380893
:10158800A7003708A6003608A5003508A4000A12E7
:101598008A115F240A128A15831203132308B800DC
:1015A8002208B7002108B6002008B5004130831290
:1015B8000313BA00ED30B900B90BE02ABA0BE02AE0
:1015C800E52A152B831203138901073083120313AD
:1015D800BA007C30B900B90BEF2ABA0BEF2A000029
:1015E8003F3083120313AB008030AA000030A900FB
:1015F8000030A8003808AF003708AE003608AD0044
:101608003508AC000A128A15A4200A128A1583121A
:1016180003132B08B8002A08B7002908B6002808C1
:10162800B5000030F3000030F2000030F100003067
:10163800F000831203133808F7003708F60036085D
:10164800F5003508F4000A128A15B1230A128A1522
:10165800031C2F2B302BE62A0F308312031389002B
:10166800080083160313890188010F3086000130B2
:101678008312031389000A128A1500200A128A1598
:101688005D2B0A128A1576210A128A150A168A1102
:10169800E0270A128A150A128A1104200A128A15EA
:1016A8000A128A15E0210A128A1583120313D4013B
:1016B800D5018312031354085504031D642B652BAD
:1016C800452B033083120313C5008A30C4005530FC
:1016D800C300C30B6D2BC40B6D2BC50B6D2B792B66
:1016E8000A128A1553240A128A1583120313520800
:1016F8005304031D802B812B742BA52B02300A1257
:101708008A1547210A128A15710883120313EE00FD
:101718007008ED006E08FB006D08FA000A128A11C5
:1017280041200A128A15033083120313C5008A3038
:10173800C4005530C300C30B9F2BC40B9F2BC50B94
:101748009F2B8312031350085104031DAC2BAD2BA0
:10175800822B5D2B0A128A11002800307005F800D0
:1017680000307105F90080307205FA007F3073058A
:10177800FB007B087A0479047804031DC42BC52B6D
:10178800CD2B0030F3000030F2000030F1000030C3
:10179800F00000307405F80000307505F90080305D
:1017A8007605FA007F307705FB007B087A04790418
:1017B8007804031DE02BE12BE92B0030F700003003
:1017C800F6000030F5000030F400F31FEC2BED2B91
:1017D800112C0030F8000030F9000030FA00803099
:1017E800FB007008F8027108031C710FFC2BFD2B1D
:1017F800F9027208031C720F022C032CFA027308F8
:10180800031C730F082C092CFB027B08F3007A08D1
:10181800F2007908F1007808F000F71F142C152C55
:10182800392C0030F8000030F9000030FA00803020
:10183800FB007408F8027508031C750F242C252C6E
:10184800F9027608031C760F2A2C2B2CFA0277084B
:10185800031C770F302C312CFB027B08F7007A0829
:10186800F6007908F5007808F4008030F306803037
:10187800F70677087302031D4B2C76087202031DC6
:101888004B2C75087102031D4B2C74087002031849
:101898004E2C4F2C512C0310522C031408005F2D92
:1018A800C101C2010A3083120313D6000030D700E9
:1018B800622C0A128A1162210A128A150A308312CE
:1018C80003135606570403196A2C6B2C5D2C9E2CA7
:1018D8003130E9000030EA00C32C3230E900003032
:1018E800EA00C32C3330E9000030EA00C32C34305E
:1018F800E9000030EA00C32C3530E9000030EA0086
:10190800C32C3630E9000030EA00C32C3730E90038
:101918000030EA00C32C3830E9000030EA00C32C5C
:101928003930E9000030EA00C32C3030E9000030DB
:10193800EA00C32C5708003A0319A32CC32C5608F5
:10194800003A0319992C013A03196C2C033A03192C
:10195800712C013A0319762C073A03197B2C013AAA
:101968000319802C033A0319852C013A03198A2C90
:101978000F3A03198F2C013A0319942CC32C6908C8
:10198800BE0041085F3E84003E0883138000033098
:1019980041064204031DD12CD22C0B2D5F30BE0012
:1019A8003E08F00064300A128A15EF200A128A15E0
:1019B800700871040319E12CE22C0B2D01308312FD
:1019C8000313D2000030D300D001D1010A168A11C6
:1019D800E0270A128A150A168A11F0270A128A15B0
:1019E800C930F3000030F4000A128A15A9210A123E
:1019F8008A15333083120313C000BB30BF00DF30B9
:101A0800BE00BE0B052DBF0B052DC00B052D5F308D
:101A180083120313BE003E08F00064300A128A15D0
:101A2800EF200A128A1570087104031D1C2D1D2D44
:101A38004A2D83120313D201D3010130D0000030A4
:101A4800D1000A30C1000030C2000A168A11E0270E
:101A58000A128A150A168A11F0270A128A15D7302F
:101A6800F3000130F4000A128A15A9210A128A1516
:101A7800333083120313C000BB30BF00DF30BE0019
:101A8800BE0B442DBF0B442DC00B442D01308312D7
:101A98000313C1070318C20A0030C2074208803A7C
:101AA800FF0080307F02031D5B2D08304102031CBC
:101AB8005E2D5F2D562C8312031352085304031D09
:101AC800662D672D542C0800730880398312031380
:101AD800A0002008F8007308A0002007A100210832
:101AE800FA00F21F782D792D7A2D7A147A080319C5
:101AF8007E2D7F2D8F2D7A0A031D832D842D8C2D0D
:101B08000030F3000030F2000030F1000030F00047
:101B1800F217F301972D0030F3000030F200003087
:101B2800F1000030F00077088039A0002008F900A3
:101B3800790878060319A12DA22DA32D7817770807
:101B4800A0002007A1002108F900F61FAC2DAD2D3B
:101B5800AE2D791479080319B22DB32DC32D790A46
:101B6800031DB72DB82DC02D0030F7000030F6004A
:101B78000030F5000030F400F617F701CB2D0030E7
:101B8800F7000030F6000030F5000030F4007A0865
:101B980079020318D02DD12D152E781FD42DD52DCF
:101BA800D92D8030A0002008F8067A08A000200867
:101BB800FB007908A0002008FA007B08A000200894
:101BC800F9007008A0002008FB007408A000200895
:101BD800F0007B08A0002008F4007108A00020088D
:101BE800FB007508A0002008F1007B08A000200871
:101BF800F5007208A0002008FB007608A000200865
:101C0800F2007B08A0002008F6007308A000200856
:101C1800FB007708A0002008F3007B08A00020083C
:101C2800F700FB017908A000A1012108A3007A08A8
:101C38002002A200031CA3032308803AFF0080307F
:101C48007F02031D292E1A302202031C2C2E2D2E52
:101C58006E2E7308720471047004031D342E362E20
:101C68000130372E003083120313A0002008FB0038
:101C78000030F3000030F2000030F1000030F000D6
:101C88007908A0002008FA00742E7B1C4C2E4D2EDB
:101C9800582E7B0883120313A0000310200C013870
:101CA800A1002108FB005A2E0310FB0C701C5D2EAE
:101CB8005E2E5F2EFB17013083120313A000730DF5
:101CC800F30CF20CF10CF00CA00B632E0130A00009
:101CD8002008FA0779087A02031C732E742E492EFD
:101CE800781B772E782EC72E7A08031D7C2E7D2E22
:101CF800862E0030F3000030F2000030F100003092
:101D0800F000FF2F7408F007750803110318013E4F
:101D180003198F2EF107760803110318013E0319E2
:101D2800962EF207770803110318013E03199D2E1A
:101D3800F307731CA02EA12E7F2F7B1CA42EA52E8B
:101D4800B02E7B0883120313A0000310200C013867
:101D5800A1002108FB00B22E0310FB0C701CB52E4D
:101D6800B62EB72EFB17013083120313A000730D94
:101D7800F30CF20CF10CF00CA00BBB2E0130A00000
:101D88002008FA077F2F7308803AFF007708803A07
:101D98007F02031DD92E76087202031DD92E7508FD
:101DA8007102031DD92E740870020318DC2EDD2E73
:101DB800372FFF3083120313A000FF30A100FF303C
:101DC800A200FF30A3007408A4007508A5007608D7
:101DD800A6007708A7007008A4027108031C710FF9
:101DE800F62EF72EA5027208031C720FFC2EFD2E8C
:101DF800A6027308031C730F022F032FA7022408DF
:101E0800A00725080318250F0A2F0B2FA10726085E
:101E18000318260F102F112FA20727080318270AC7
:101E2800A3072308F3002208F2002108F100200884
:101E3800F0008030A0002008F806FB09FB0A7B08A8
:101E4800031D272F282F452F0130F00700300318D6
:101E58000130F107003003180130F2070030031891
:101E68000130F307452F7408F0027508031C750F3D
:101E7800F1027608031C760FF2027708031C770F2D
:101E8800F3027308720471047004031D4C2F4D2F64
:101E98007B2F7B08031D512F522F7B2F0030F3001F
:101EA8000030F2000030F1000030F000FF2F013068
:101EB80083120313A0000310F00DF10DF20DF30DC2
:101EC800A00B5F2FFB1F692F6A2F6B2F70147B1CD1
:101ED8006E2F6F2F722F0314FB0D742F0310FB0D41
:101EE8007A080319782F792F7B2F0130FA02F21F15
:101EF8007E2F7F2F5B2FF901FB1F832F842F922FBB
:101F08007B087F390319892F8A2F8D2FF901F90A48
:101F1800922F701C902F912F922F8A2F79080319D6
:101F2800962F972FCD2F0130F0070030031801307E
:101F3800F107003003180130F207003003180130B0
:101F4800F307731CA82FA92FCD2F70088312031332
:101F5800A0007108A1007208A2007308A300013054
:101F6800A400230DA30CA20CA10CA00CA40BB52F4C
:101F78002308F3002208F2002108F1002008F000ED
:101F88007A0A0319C82FC92FCD2F0130A0002008C5
:101F9800FA077A0A0319D12FD22FD72F7A08031DEF
:101FA800D62FD72FE52F0030F3000030F200003095
:101FB800F1000030F0007A08031DE32FE42FE52F2D
:101FC800F8017A1CE82FE92FEB2FF217F12F7F3059
:101FD80083120313A0002008F2057A088312031362
:101FE800A0000310200CA1002108F300F81FFD2F0A
:081FF800FE2FFF2FF317080074
:102F6C000730831603139F008312031385148316F3
:102F7C0003138501880108008312031385120512BF
:102F8C0085110A128A1531200A168A11831203132D
:102F9C0085150800C03083120313880085120512B2
:102FAC0085110A128A1531200A168A11831203130D
:102FBC008515080001308312031388008512051251
:102FCC0085110A128A1531200A168A1183120313ED
:102FDC008515080002308312031388008512051230
:102FEC0085110A128A1531200A168A1183120313CD
:042FFC00851508002F
:00000001FF
