:060000000A128A11C02F54
:100008007E088A007F0882000A128A1104200A12D8
:100018008A118000840A04087D0603190034FF0A47
:100028000319FE0A082883160313890188010F3073
:10003800860001308312031389000A128A15C4222C
:100048000A128A110A128A1597210A128A113A2865
:100058000A128A1569230A128A110A128A152E238E
:100068000A128A1183120313AC01AD018312031320
:100078002C082D04031D412842282C2848280A1240
:100088008A116F200A128A11831203132A082B047B
:10009800031D4F28502843280A128A1597210A124F
:1000A8008A110A128A1587210A128A114F300A12F8
:1000B8008A15A7210A128A116B300A128A15A721FC
:1000C8000A128A110A128A1162210A128A113A281E
:1000D8000A128A1100285929E701E8010A30831217
:1000E8000313AE000030AF007E280A128A11622185
:1000F8000A128A110A30831203132E062F040319D9
:10010800862887287928BA283130ED000030EE009B
:10011800DF283230ED000030EE00DF283330ED000C
:100128000030EE00DF283430ED000030EE00DF282C
:100138003530ED000030EE00DF283630ED000030BD
:10014800EE00DF283730ED000030EE00DF283830D1
:10015800ED000030EE00DF283930ED000030EE0011
:10016800DF283030ED000030EE00DF282F08003A9D
:100178000319BF28DF282E08003A0319B528013AC9
:1001880003198828033A03198D28013A031992287C
:10019800073A03199728013A03199C28033A0319C7
:1001A800A128013A0319A6280F3A0319AB28013AE6
:1001B8000319B028DF286D08E60067083E3E840072
:1001C800660883138000033067066804031DED2862
:1001D800EE2817293E30E6006608F00043300A1280
:1001E8008A159A220A128A11700871040319FD28C7
:1001F800FE281729013083120313AA000030AB0030
:100208000A128A1597210A128A110A128A15872159
:100218000A128A11D730F3000030F4000A128A1546
:10022800F7220A128A113E3083120313E600660889
:10023800F00043300A128A159A220A128A117008AD
:100248007104031D28292929442983120313AA01AB
:10025800AB010A30E7000030E8000A128A1597213E
:100268000A128A110A128A1587210A128A11AF30D6
:10027800F3000030F4000A128A15F7220A128A11D4
:10028800013083120313E7070318E80A0030E80770
:100298006808803AFF0080307F02031D5529083026
:1002A8006702031C582959297228831203132A0844
:1002B8002B04031D6029612970280800013083126E
:1002C80003138900EF30860006186B296C299929D9
:1002D800063083120313E5001330E400AD30E30069
:1002E800E30B7429E40B7429E50B74293D30831260
:1002F8000313E000CC30DF00CC30DE00CD30DD0071
:100308000A128A154A240A128A1130300A128A15EA
:10031800A7210A128A11831203132A032B04031D2F
:10032800962997299929AE01AF0186189C299D29FC
:10033800CC29063083120313E5001330E400AD30F6
:10034800E300E30BA529E40BA529E50BA5293D301E
:1003580083120313E000CC30DF00CC30DE00CD3058
:10036800DD000A128A154A240A128A1131300A124B
:100378008A15A7210A128A11831203132A032B0450
:10038800031DC729C829CC290130AE000030AF00B1
:100398000619CF29D029FF29063083120313E50057
:1003A8001330E400AD30E300E30BD829E40BD8297F
:1003B800E50BD8293D3083120313E000CC30DF0071
:1003C800CC30DE00CD30DD000A128A154A240A122C
:1003D8008A1132300A128A15A7210A128A11831249
:1003E80003132A032B04031DFA29FB29FF290230D2
:1003F800AE000030AF008619022A032A322A0630DE
:1004080083120313E5001330E400AD30E300E30B7F
:100418000B2AE40B0B2AE50B0B2A3D30831203133E
:10042800E000CC30DF00CC30DE00CD30DD000A1239
:100438008A154A240A128A1133300A128A15A7210A
:100448000A128A11831203132A032B04031D2D2A6F
:100458002E2A322A0330AE000030AF00DF3086008B
:100468000618372A382A672A063083120313E5004C
:100478001330E400AD30E300E30B402AE40B402ADC
:10048800E50B402A3D3083120313E000CC30DF0037
:10049800CC30DE00CD30DD000A128A154A240A125B
:1004A8008A1134300A128A15A7210A128A11831276
:1004B80003132A032B04031D622A632A672A0430C4
:1004C800AE000030AF0086186A2A6B2A9A2A0630D6
:1004D80083120313E5001330E400AD30E300E30BAF
:1004E800732AE40B732AE50B732A3D308312031336
:1004F800E000CC30DF00CC30DE00CD30DD000A1269
:100508008A154A240A128A1135300A128A15A72137
:100518000A128A11831203132A032B04031D952A36
:10052800962A9A2A0530AE000030AF0006199D2A97
:100538009E2ACD2A063083120313E5001330E40007
:10054800AD30E300E30BA62AE40BA62AE50BA62AA6
:100558003D3083120313E000CC30DF00CC30DE00E6
:10056800CD30DD000A128A154A240A128A11363063
:100578000A128A15A7210A128A11831203132A0361
:100588002B04031DC82AC92ACD2A0630AE00003024
:10059800AF008619D02AD12A002B06308312031304
:1005A800E5001330E400AD30E300E30BD92AE40B97
:1005B800D92AE50BD92A3D3083120313E000CC3049
:1005C800DF00CC30DE00CD30DD000A128A154A2467
:1005D8000A128A1137300A128A15A7210A128A11BB
:1005E800831203132A032B04031DFB2AFC2A002B66
:1005F8000730AE000030AF00BF3086000618052B6C
:10060800062B352B063083120313E5001330E40064
:10061800AD30E300E30B0E2BE40B0E2BE50B0E2B9A
:100628003D3083120313E000CC30DF00CC30DE0015
:10063800CD30DD000A128A154A240A128A11383090
:100648000A128A15A7210A128A11831203132A0390
:100658002B04031D302B312B352B0830AE00003016
:10066800AF008618382B392B682B063083120313FA
:10067800E5001330E400AD30E300E30B412BE40B5D
:10068800412BE50B412B3D3083120313E000CC30A6
:10069800DF00CC30DE00CD30DD000A128A154A2496
:1006A8000A128A1139300A128A15A7210A128A11E8
:1006B800831203132A032B04031D632B642B682B5B
:1006C8000930AE000030AF0006196B2B6C2B8F2B56
:1006D800063083120313E5001330E400AD30E30065
:1006E800E30B742BE40B742BE50B742B3D30831256
:1006F8000313E000CC30DF00CC30DE00CD30DD006D
:100708000A128A154A240A128A1141300A128A15D5
:10071800A7210A128A11831203138619942B952B89
:10072800B82B063083120313E5001330E400AD3014
:10073800E300E30B9D2BE40B9D2BE50B9D2B3D303C
:1007480083120313E000CC30DF00CC30DE00CD3064
:10075800DD000A128A154A240A128A1142300A1246
:100768008A15A7210A128A117F3083120313860083
:100778000618BF2BC02BE32B063083120313E500AA
:100788001330E400AD30E300E30BC82BE40BC82BB7
:10079800E50BC82B3D3083120313E000CC30DF009B
:1007A800CC30DE00CD30DD000A128A154A240A1248
:1007B8008A1143300A128A15A7210A128A11831254
:1007C80003138618E82BE92B0C2C0630831203132D
:1007D800E5001330E400AD30E300E30BF12BE40B4C
:1007E800F12BE50BF12B3D3083120313E000CC30E5
:1007F800DF00CC30DE00CD30DD000A128A154A2435
:100808000A128A1144300A128A15A7210A128A117B
:10081800831203130619112C122C352C063083125F
:100828000313E5001330E400AD30E300E30B1A2CAA
:10083800E40B1A2CE50B1A2C3D3083120313E0004D
:10084800CC30DF00CC30DE00CD30DD000A128A1556
:100858004A240A128A1145300A128A15A7210A1257
:100868008A118312031386193A2C3B2C5E2C06300E
:1008780083120313E5001330E400AD30E300E30B0B
:10088800432CE40B432CE50B432C3D30831203131C
:10089800E000CC30DF00CC30DE00CD30DD000A12C5
:1008A8008A154A240A128A1146300A128A15A72183
:1008B8000A128A110800831203134B088039F900C1
:1008C8007908D0004B08F9007907FA007A08D600B1
:1008D800CA1F6F2C702C712C561456080319752CCE
:1008E800762C852C560A031D7A2C7B2C832C003001
:1008F800CB000030CA000030C9000030C800CA1759
:100908008D2C0030CB000030CA000030C900003008
:10091800C8004F088039F9007908D0064F08F90057
:100928007907FA007A08D500CE1F9B2C9C2C9D2CA9
:10093800551455080319A12CA22CB12C550A031DD6
:10094800A62CA72CAF2C0030CF000030CE000030F2
:10095800CD000030CC00CE17B92C0030CF000030CD
:10096800CE000030CD000030CC0055080319BD2C56
:10097800BE2CC32C5608031DC22CC32CCC2C003013
:10098800CB000030CA000030C9000030C800BF2FBB
:100998004808F9007908F0004E080A128A154B2217
:1009A8000A128A11710883120313DC007008DB0035
:1009B8005B08F900FA01FB01FC017C08D4007B0804
:1009C800D3007A08D2007908D1005C08F900FA014E
:1009D800FB01FC017C08DA007B08D9007A08D80002
:1009E8007908D7004908F9007908F0004D080A127B
:1009F8008A154B220A128A11710883120313DC002C
:100A08007008DB005B08F900FA01FB01FC017908BA
:100A1800D1077A0803110318013E0319142DD207D0
:100A28007B0803110318013E03191B2DD3077C080B
:100A380003110318013E0319222DD4075C08F9009D
:100A4800FA01FB01FC017908D7077A08031103189A
:100A5800013E0319302DD8077B0803110318013E06
:100A68000319372DD9077C0803110318013E031910
:100A78003E2DDA074A08F9007908F0004C080A12F6
:100A88008A154B220A128A11710883120313DC009B
:100A98007008DB005B08F900FA01FB01FC0179082A
:100AA800D1077A0803110318013E03195C2DD207F8
:100AB8007B0803110318013E0319632DD3077C0833
:100AC80003110318013E03196A2DD4075C08F900C5
:100AD800FA01FB01FC017908D7077A08031103180A
:100AE800013E0319782DD8077B0803110318013E2E
:100AF80003197F2DD9077C0803110318013E031938
:100B0800862DDA070830F9000310D10DD20DD30D68
:100B1800D40DF90B882D4908F9007908F0004C0824
:100B28000A128A154B220A128A11710883120313BA
:100B3800DC007008DB005B08F9005C08FA00FB01C8
:100B4800FC017908D1077A0803110318013E03193B
:100B5800AE2DD2077B0803110318013E0319B52DEA
:100B6800D3077C0803110318013E0319BC2DD407D1
:100B78004808F9007908F0004D080A128A154B2236
:100B88000A128A11710883120313DC007008DB0053
:100B98005B08F9005C08FA00FB01FC017908D10741
:100BA8007A0803110318013E0319DB2DD2077B08CD
:100BB80003110318013E0319E22DD3077C08031122
:100BC8000318013E0319E92DD4070830F900031072
:100BD800D10DD20DD30DD40DF90BEB2D4808F9002A
:100BE8007908F0004C080A128A154B220A128A1159
:100BF800710883120313DC007008DB005B08F9003E
:100C08005C08FA00FB01FC017908D1077A08031196
:100C18000318013E0319112ED2077B08031103188C
:100C2800013E0319182ED3077C0803110318013E4F
:100C380003191F2ED4074908F9007908F0004E0857
:100C48000A128A154B220A128A1171088312031399
:100C5800DC007008DB005B08F9005C08FA00FB01A7
:100C6800FC017908D7077A0803110318013E031914
:100C78003E2ED8077B0803110318013E0319452EA1
:100C8800D9077C0803110318013E03194C2EDA0713
:100C98004A08F9007908F0004D080A128A154B2213
:100CA8000A128A11710883120313DC007008DB0032
:100CB8005B08F9005C08FA00FB01FC017908D7071A
:100CC8007A0803110318013E03196B2ED8077B0815
:100CD80003110318013E0319722ED9077C0803116A
:100CE8000318013E0319792EDA074A08F900790832
:100CF800F0004E080A128A154B220A128A1171084E
:100D080083120313DC007008DB005B08F9005C0841
:100D1800FA00FB01FC0108300310F90DFA0DFB0D78
:100D2800FC0DFF3E031D902E7908D7077A080311A2
:100D38000318013E0319A12ED8077B0803110318D5
:100D4800013E0319A82ED9077C0803110318013E98
:100D58000319AF2EDA075108F9005208FA005308B0
:100D6800FB005408FC0018300310FC0CFB0CFA0CB8
:100D7800F90CFF3E031DB82E7908D7077A0803112E
:100D88000318013E0319C92ED8077B08031103185D
:100D9800013E0319D02ED9077C0803110318013E20
:100DA8000319D72EDA070830F9000310D10DD20D38
:100DB800D30DD40DF90BD92E56085507F900FA01B1
:100DC800FA0D7908823EDB007A080318013EFF3EDF
:100DD800DC000B2F0130F9000310D70DD80DD90D09
:100DE800DA0DF90BF02ED41FFA2EFB2EFC2E571419
:100DF8000130F9000310D10DD20DD30DD40DF90B2C
:100E0800FE2EFF30DB070318DC0AFF30DC07D91F92
:100E18000E2F0F2FEE2ED501D41F132F142F302F86
:100E2800FF305105F900FF305205FA00FF30530535
:100E3800FB007F305405FC007C087B047A047904AD
:100E48000319272F282F2B2FD501D50A302F571CF0
:100E58002E2F2F2F302F282F55080319342F352FD9
:100E6800662F0130D707003003180130D80700304B
:100E780003180130D907003003180130DA075A1C6B
:100E8800462F472F662F5708F9005808FA005908C7
:100E9800FB005A08FC000130FD007C0DFC0CFB0C2B
:100EA800FA0CF90CFD0B512F7C08DA007B08D900ED
:100EB8007A08D8007908D7000130DB070318DC0A64
:100EC8000030DC075C08803AFF0080307F02031D99
:100ED8006F2FFF305B02031C722F732F7E2F7F3022
:100EE80083120313DA008030D9000030D8000030B4
:100EF800D700B32F831203135C08803AFF008030B9
:100F08007F02031D892F01305B0203188C2F8D2F60
:100F1800992F003083120313DA000030D900003013
:100F2800D8000030D700D001B32F831203135B0819
:100F3800F9007908D600FF30D705FF30D8057F3093
:100F4800D9050030DA05561CAA2FAB2FAC2FD917BC
:100F58005608F9000310790CFA007A08DA005008EC
:100F6800F9007908DA045A08CB005908CA00580869
:100F7800C9005708C80008008317E630FD000B3089
:100F8800FE00F430FF00903084000A128A11082015
:100F98000A128A112F30FD000930FE00E730FF00E9
:100FA800103084000A128A1108200A128A11831349
:100FB800EE30FD000B30FE00A630FF00A0308400AC
:100FC8000A128A1108200A128A114830FD000A30D4
:100FD800FE007230FF00203084000A128A110820B7
:100FE8000A128A11E901EA01EB01EC01ED01EE01B7
:080FF80083010A128A11172877
:1012BA000730831603139F008312031385148316C2
:1012CA00031385018801080083120313851205128E
:1012DA0085110A128A15B8210A128A158312031374
:1012EA0085150800C0308312031388008512051281
:1012FA0085110A128A15B8210A128A158312031354
:10130A00851508000230831203138800851205121E
:10131A0085110A128A15B8210A128A158312031333
:10132A0085150800013083120313880085120512FF
:10133A0085110A128A15B8210A128A158312031313
:10134A0085150800F20072088312031388008516B7
:10135A00051285110A128A15B8210A128A158312F2
:10136A00031385150800F001F1010130F007031895
:10137A00F10A0030F1077108803AFF0093307F02CA
:10138A00031DC92988307002031CCC29CD29BA292A
:10139A000800F4007408F2007208F300D82901303A
:1013AA00F2007208F3077308840083130008031D10
:1013BA00DF29E029D42974087302F000F101F01B37
:1013CA00F10308003E3444346534733461347434B0
:1013DA00693476346134723420345A346F346E345A
:1013EA006134003444346534733461347434693498
:1013FA0076346134723420345A346F346E34613442
:10140A0000340A128A1577210A128A15F301F401A7
:10141A0020300A128A15A7210A128A150130F30709
:10142A000318F40A0030F4077408803AFF00803089
:10143A007F02031D222A06307302031C252A262A4C
:10144A000D2A0800803083120313D3065708F300CD
:10145A005608F2005508F1005408F0005308F70046
:10146A005208F6005108F5005008F4000A128A15CD
:10147A0068250A128A15730883120313D3007208A7
:10148A00D2007108D1007008D0000800F800F401F9
:10149A00F5017008F200F3017208F6007308F7000C
:1014AA00781C582A592A5F2A7608F4070318F50A7D
:1014BA007708F50701300310F60DF70DFF3E031DFF
:1014CA00602A0310F80C7808031D6C2A6D2A552A25
:1014DA007508F1007408F0000800303430343034F4
:1014EA00303400343534353435343534003401344D
:1014FA000034013400340A3400345234653461341F
:10150A007434693476346134723400345F345F344D
:10151A005F345F34003430343034303430340034A3
:10152A0031343234313432340034F600A42A0130F2
:10153A00F2007208F6070130F2007208F00770082C
:10154A00840083130008F200760884000008F30080
:10155A0072087302F4007408F5007508031DB62AB0
:10156A00B72ABE2A760884000008031DBD2ABE2AAF
:10157A009C2A7508F000F101F01BF10308000A1219
:10158A008A155D210A128A15013083120313880015
:10159A000A128A1569210A128A153830831203132E
:1015AA0088000A128A1569210A128A150E308312D6
:1015BA00031388000A128A1569210A128A1506304D
:1015CA008312031388000A128A1569210A128A15DE
:1015DA0080308312031388000A128A1569210A12BD
:1015EA008A150800F801F901172B78087307F60025
:1015FA007408F5000318F50AF81F042BF50375089B
:10160A00F700760884008317771C831300080A12F0
:10161A008A15A7210A128A150130F8070318F90A50
:10162A000030F90778087307F6007408F500031804
:10163A00F50AF81F212BF5037508F70076088400D0
:10164A008317771C83130008031D2C2B2D2BFA2AD2
:10165A0008000A128A1577210A128A150A128A15AF
:10166A0006220A128A15F701F8014B2B7708393E30
:10167A008400831300080A128A15A7210A128A1500
:10168A000130F7070318F80A0030F80739300A1250
:10169A008A15CE210A128A157008FF3EF5007108D4
:1016AA000318013EFF3EF60078087602031D5F2B01
:1016BA00770875020318622B632B3B2B0A128A15D3
:1016CA0006220A128A1508000A128A1587210A12A6
:1016DA008A1520300A128A15A7210A128A15F701DB
:1016EA00F801872B7708A03E8400831300080A12AA
:1016FA008A15A7210A128A150130F7070318F80A72
:10170A000030F807A0300A128A15CE210A128A156B
:10171A007008FF3EF50071080318013EFF3EF6000F
:10172A0078087602031D9B2B7708750203189E2BF7
:10173A009F2B772B20300A128A15A7210A128A15A5
:10174A0008004434693467346934743465342034A5
:10175A0061342034733465346E346834613400344F
:10176A00533465346E3468346134203463346F34EE
:10177A0072347234653474346134003453346534E9
:10178A006E3468346134203443346F3461346334E2
:10179A0061346F340034533465346E3468346134E0
:1017AA00203443346F346E34663469346734003419
:1017BA00533465346E346834613420346534723499
:1017CA00723461346434613400343E3452346534E2
:1017DA0061347434693476346134723400343E349A
:1017EA00533465346E346834613420344434693493
:1017FA0073347034613472346F3400343E34533489
:10180A0065346E3468346134203455347334753435
:10181A006134723469346F340034533465346E344D
:10182A006834613420344434693473347034613434
:10183A0072346F3400343E34533465346E34683451
:10184A006134203443346F346134633461346F3427
:10185A000034533465346E3468346134203455347A
:10186A00733475346134723469346F3400343E34FD
:10187A00533465346E3468346134203443346F34FD
:10188A006E34663469346734003444308312031387
:10189A00CB007A30CA000030C9000030C8006008A6
:1018AA00CF005F08CE005E08CD005D08CC000A12AA
:1018BA008A115F240A128A15831203134B08E00067
:1018CA004A08DF004908DE004808DD00413083127B
:1018DA000313E200ED30E100E10B712CE20B712CF5
:1018EA00762CA62C83120313890107308312031363
:1018FA00E2007C30E100E10B802CE20B802C00003E
:10190A003F3083120313D3008030D2000030D1005D
:10191A000030D0006008D7005F08D6005E08D50006
:10192A005D08D4000A128A1527220A128A15831220
:10193A0003135308E0005208DF005108DE00500884
:10194A00DD000030F3000030F2000030F10000301A
:10195A00F000831203136008F7005F08F6005E08C0
:10196A00F5005D08F4000A128A15C6240A128A15BF
:10197A00031CC02CC12C772C0F308312031389004F
:10198A00080000307005F80000307105F900803059
:10199A007205FA007F307305FB007B087A0479042C
:1019AA007804031DD92CDA2CE22C0030F300003025
:1019BA00F2000030F1000030F00000307405F80049
:1019CA0000307505F90080307605FA007F3077051A
:1019DA00FB007B087A0479047804031DF52CF62CA5
:1019EA00FE2C0030F7000030F6000030F500003021
:1019FA00F400F31F012D022D262D0030F8000030CF
:101A0A00F9000030FA008030FB007008F802710813
:101A1A00031C710F112D122DF9027208031C720F8B
:101A2A00172D182DFA027308031C730F1D2D1E2D76
:101A3A00FB027B08F3007A08F2007908F1007808C3
:101A4A00F000F71F292D2A2D4E2D0030F800003006
:101A5A00F9000030FA008030FB007408F8027508BB
:101A6A00031C750F392D3A2DF9027608031C760FDF
:101A7A003F2D402DFA027708031C770F452D462D7E
:101A8A00FB027B08F7007A08F6007908F500780867
:101A9A00F4008030F3068030F70677087302031DDE
:101AAA00602D76087202031D602D75087102031DF0
:101ABA00602D740870020318632D642D662D0310BF
:101ACA00672D031408007308803983120313C800B2
:101ADA004808F8007308C8004807C9004908FA000E
:101AEA00F21F782D792D7A2D7A147A0803197E2D12
:101AFA007F2D8F2D7A0A031D832D842D8C2D003086
:101B0A00F3000030F2000030F1000030F000F2176C
:101B1A00F301972D0030F3000030F2000030F1009D
:101B2A000030F00077088039C8004808F9007908C1
:101B3A0078060319A12DA22DA32D78177708C800BE
:101B4A004807C9004908F900F61FAC2DAD2DAE2D86
:101B5A00791479080319B22DB32DC32D790A031DFF
:101B6A00B72DB82DC02D0030F7000030F600003038
:101B7A00F5000030F400F617F701CB2D0030F7001E
:101B8A000030F6000030F5000030F4007A087902DF
:101B9A000318D02DD12D152E781FD42DD52DD92D42
:101BAA008030C8004808F8067A08C8004808FB00D0
:101BBA007908C8004808FA007B08C8004808F900F4
:101BCA007008C8004808FB007408C8004808F000FC
:101BDA007B08C8004808F4007108C8004808FB00E0
:101BEA007508C8004808F1007B08C8004808F500D5
:101BFA007208C8004808FB007608C8004808F200C6
:101C0A007B08C8004808F6007308C8004808FB00AB
:101C1A007708C8004808F3007B08C8004808F7009E
:101C2A00FB017908C800C9014908CB007A084802B3
:101C3A00CA00031CCB034B08803AFF0080307F02A6
:101C4A00031D292E1A304A02031C2C2E2D2E6E2E0D
:101C5A007308720471047004031D342E362E013089
:101C6A00372E003083120313C8004808FB000030E7
:101C7A00F3000030F2000030F1000030F000790883
:101C8A00C8004808FA00742E7B1C4C2E4D2E582E84
:101C9A007B0883120313C8000310480C0138C900DB
:101CAA004908FB005A2E0310FB0C701C5D2E5E2E99
:101CBA005F2EFB17013083120313C800730DF30C58
:101CCA00F20CF10CF00CC80B632E0130C800480866
:101CDA00FA0779087A02031C732E742E492E781B90
:101CEA00772E782EC72E7A08031D7C2E7D2E862EFF
:101CFA000030F3000030F2000030F1000030F00054
:101D0A00FF2F7408F007750803110318013E031921
:101D1A008F2EF107760803110318013E0319962E38
:101D2A00F207770803110318013E03199D2EF307E2
:101D3A00731CA02EA12E7F2F7B1CA42EA52EB02EA5
:101D4A007B0883120313C8000310480C0138C9002A
:101D5A004908FB00B22E0310FB0C701CB52EB62EE0
:101D6A00B72EFB17013083120313C800730DF30C4F
:101D7A00F20CF10CF00CC80BBB2E0130C80048085D
:101D8A00FA077F2F7308803AFF007708803A7F02AC
:101D9A00031DD92E76087202031DD92E7508710209
:101DAA00031DD92E740870020318DC2EDD2E372F7E
:101DBA00FF3083120313C800FF30C900FF30CA0086
:101DCA00FF30CB007408CC007508CD007608CE0031
:101DDA007708CF007008CC027108031C710FF62E29
:101DEA00F72ECD027208031C720FFC2EFD2ECE02B6
:101DFA007308031C730F022F032FCF024C08C80766
:101E0A004D0803184D0F0A2F0B2FC9074E08031848
:101E1A004E0F102F112FCA074F0803184F0ACB076E
:101E2A004B08F3004A08F2004908F1004808F0009C
:101E3A008030C8004808F806FB09FB0A7B08031D26
:101E4A00272F282F452F0130F007003003180130C3
:101E5A00F107003003180130F2070030031801308F
:101E6A00F307452F7408F0027508031C750FF10279
:101E7A007608031C760FF2027708031C770FF30229
:101E8A007308720471047004031D4C2F4D2F7B2FAD
:101E9A007B08031D512F522F7B2F0030F300003097
:101EAA00F2000030F1000030F000FF2F0130831201
:101EBA000313C8000310F00DF10DF20DF30DC80B5A
:101ECA005F2FFB1F692F6A2F6B2F70147B1C6E2FDD
:101EDA006F2F722F0314FB0D742F0310FB0D7A085A
:101EEA000319782F792F7B2F0130FA02F21F7E2FE8
:101EFA007F2F5B2FF901FB1F832F842F922F7B08E3
:101F0A007F390319892F8A2F8D2FF901F90A922F08
:101F1A00701C902F912F922F8A2F79080319962FD0
:101F2A00972FCD2F0130F007003003180130F10749
:101F3A00003003180130F207003003180130F307AC
:101F4A00731CA82FA92FCD2F700883120313C80062
:101F5A007108C9007208CA007308CB000130CC00AE
:101F6A004B0DCB0CCA0CC90CC80CCC0BB52F4B08AB
:101F7A00F3004A08F2004908F1004808F0007A0A1A
:101F8A000319C82FC92FCD2F0130C8004808FA07F6
:101F9A007A0A0319D12FD22FD72F7A08031DD62FE9
:101FAA00D72FE52F0030F3000030F2000030F100A7
:101FBA000030F0007A08031DE32FE42FE52FF80123
:101FCA007A1CE82FE92FEB2FF217F12F7F308312BB
:101FDA000313C8004808F2057A0883120313C800DD
:101FEA000310480CC9004908F300F81FFD2FFE2F03
:061FFA00FF2FF3170800A1
:00000001FF
