:060000000A128A11BE2F56
:100008007008F2007108F3000F280130F207031896
:10001800F30A0030F307720884008317731C8313F4
:100028000008031D18281928092870087202F00012
:100038007108031C710A7302F10008008316031388
:10004800890188010F30860001308312031389006B
:100058000A168A11A9210A128A1137280A128A1542
:10006800D9210A128A118312031367086804031D31
:100078003E283F28322892280A168A11EB220A12B3
:100088008A110A168A11D4210A128A110A168A11AB
:10009800E4210A128A11E430F3000130F4000A1650
:1000A8008A111E230A128A11333083120313D200D5
:1000B800BB30D100DF30D000D00B6028D10B6028D6
:1000C800D20B60280A168A114F220A128A117F3031
:1000D80083120313860006187228732892280330A7
:1000E80083120313D2008A30D1005530D000D00BD0
:1000F8007B28D10B7B28D20B7B2883120313E101C9
:10010800E2013D30B800CC30B700CC30B600CD307D
:10011800B5000A168A113C260A128A1183120313A3
:1001280061086204031D99289A284028F42802309F
:100138000A168A11BC220A128A1171088312031343
:10014800D6007008D5005608BC005508BB000A1236
:100158008A152A230A128A11023083120313D20045
:100168004530D100A930D000D00BB828D10BB82821
:10017800D20BB82883120313570858040319C5284B
:10018800C628F428D7285808CD005708CC000A16E6
:100198008A1164240A128A11F0280A128A15FE208C
:1001A8000A128A11F0285808003A0319DC28F028A6
:1001B8005708013A0319C728033A0319C728013A0F
:1001C8000319C728073A0319D128013A0319F02857
:1001D800033A0319F028F02883120313D701D80132
:1001E80065086604031DF928FA289B2837280A128F
:1001F8008A1100280130831203138900EF3086002A
:100208000618072908293D29063083120313BD0063
:100218001330BC00AD30BB00BB0B1029BC0B102940
:10022800BD0B10293D3083120313B800CC30B70042
:10023800CC30B600CD30B5000A168A113C260A1219
:100248008A1130300A168A11F4210A128A1183128F
:100258000313670868040319322933293529EB0188
:10026800EC0159085A0403193A293B293D29EB01A5
:10027800EC018618402941297A2906308312031394
:10028800BD001330BC00AD30BB00BB0B4929BC0B13
:100298004929BD0B49293D3083120313B800CC30DE
:1002A800B700CC30B600CD30B5000A168A113C260E
:1002B8000A128A1131300A168A11F4210A128A1197
:1002C800831203136708680403196B296C297029C2
:1002D8000130EB000030EC0059085A040319752965
:1002E80076297A290130EB000030EC0006197D29C7
:1002F8007E29B729063083120313BD001330BC00D2
:10030800AD30BB00BB0B8629BC0B8629BD0B8629EB
:100318003D3083120313B800CC30B700CC30B600A0
:10032800CD30B5000A168A113C260A128A113230DD
:100338000A168A11F4210A128A1183120313670814
:1003480068040319A829A929AD290230EB00003057
:10035800EC0059085A040319B229B329B729023005
:10036800EB000030EC008619BA29BB29F4290630C5
:1003780083120313BD001330BC00AD30BB00BB0BB0
:10038800C329BC0BC329BD0BC3293D3083120313FA
:10039800B800CC30B700CC30B600CD30B5000A1666
:1003A8008A113C260A128A1133300A168A11F4215E
:1003B8000A128A1183120313670868040319E529CE
:1003C800E629EA290330EB000030EC0059085A040A
:1003D8000319EF29F029F4290330EB000030EC0071
:1003E800DF3086000618F929FA29332A06308312E5
:1003F8000313BD001330BC00AD30BB00BB0B022A99
:10040800BC0B022ABD0B022A3D3083120313B8002D
:10041800CC30B700CC30B600CD30B5000A168A1102
:100428003C260A128A1134300A168A11F4210A125B
:100438008A1183120313670868040319242A252ADA
:10044800292A0430EB000030EC0059085A0403193B
:100458002E2A2F2A332A0430EB000030EC008618AD
:10046800362A372A702A063083120313BD00133048
:10047800BC00AD30BB00BB0B3F2ABC0B3F2ABD0BF9
:100488003F2A3D3083120313B800CC30B700CC307C
:10049800B600CD30B5000A168A113C260A128A1118
:1004A80035300A168A11F4210A128A1183120313AD
:1004B800670868040319612A622A662A0530EB0076
:1004C8000030EC0059085A0403196B2A6C2A702A68
:1004D8000530EB000030EC000619732A742AAD2AA7
:1004E800063083120313BD001330BC00AD30BB00CF
:1004F800BB0B7C2ABC0B7C2ABD0B7C2A3D308312AB
:100508000313B800CC30B700CC30B600CD30B500FE
:100518000A168A113C260A128A1136300A168A11DE
:10052800F4210A128A118312031367086804031955
:100538009E2A9F2AA32A0630EB000030EC005908B7
:100548005A040319A82AA92AAD2A0630EB0000305C
:10055800EC008619B02AB12AEA2A0630831203135E
:10056800BD001330BC00AD30BB00BB0BB92ABC0BBF
:10057800B92ABD0BB92A3D3083120313B800CC3019
:10058800B700CC30B600CD30B5000A168A113C262B
:100598000A128A1137300A168A11F4210A128A11AE
:1005A80083120313670868040319DB2ADC2AE02A8C
:1005B8000730EB000030EC0059085A040319E52A0B
:1005C800E62AEA2A0730EB000030EC00BF3086004C
:1005D8000618EF2AF02A292B063083120313BD00D0
:1005E8001330BC00AD30BB00BB0BF82ABC0BF82A9B
:1005F800BD0BF82A3D3083120313B800CC30B70086
:10060800CC30B600CD30B5000A168A113C260A1245
:100618008A1138300A168A11F4210A128A118312B3
:1006280003136708680403191A2B1B2B1F2B0830A8
:10063800EB000030EC0059085A040319242B252B31
:10064800292B0830EB000030EC0086182C2B2D2BC2
:10065800662B063083120313BD001330BC00AD3087
:10066800BB00BB0B352BBC0B352BBD0B352B3D30E5
:1006780083120313B800CC30B700CC30B600CD30AD
:10068800B5000A168A113C260A128A1139300A1650
:100698008A11F4210A128A11831203136708680465
:1006A8000319572B582B5C2B0930EB000030EC005A
:1006B80059085A040319612B622B662B0930EB0089
:1006C8000030EC000619692B6A2B8D2B063083123B
:1006D8000313BD001330BC00AD30BB00BB0B722B45
:1006E800BC0B722BBD0B722B3D3083120313B80069
:1006F800CC30B700CC30B600CD30B5000A168A1120
:100708003C260A128A1141300A168A11F4210A126B
:100718008A11831203138619922B932BB62B06305A
:1007280083120313BD001330BC00AD30BB00BB0BFC
:100738009B2BBC0B9B2BBD0B9B2B3D3083120313B8
:10074800B800CC30B700CC30B600CD30B5000A16B2
:100758008A113C260A128A1142300A168A11F4219B
:100768000A128A117F308312031386000618BD2BE4
:10077800BE2BE12B063083120313BD001330BC00DF
:10078800AD30BB00BB0BC62BBC0BC62BBD0BC62BA1
:100798003D3083120313B800CC30B700CC30B6001C
:1007A800CD30B5000A168A113C260A128A11433048
:1007B8000A168A11F4210A128A1183120313861861
:1007C800E62BE72B0A2C063083120313BD001330E7
:1007D800BC00AD30BB00BB0BEF2BBC0BEF2BBD0B34
:1007E800EF2B3D3083120313B800CC30B700CC3068
:1007F800B600CD30B5000A168A113C260A128A11B5
:1008080044300A168A11F4210A128A11831203133A
:1008180006190F2C102C332C063083120313BD003D
:100828001330BC00AD30BB00BB0B182CBC0B182C14
:10083800BD0B182C3D3083120313B800CC30B70021
:10084800CC30B600CD30B5000A168A113C260A1203
:100858008A1145300A168A11F4210A128A11831264
:1008680003138619382C392C5C2C06308312031399
:10087800BD001330BC00AD30BB00BB0B412CBC0B22
:10088800412CBD0B412C3D3083120313B800CC30F2
:10089800B700CC30B600CD30B5000A168A113C2618
:1008A8000A128A1146300A168A11F4210A128A118C
:1008B80008008312031323088039F9007908A80077
:1008C8002308F9007907FA007A08AE00A21F6D2CF8
:1008D8006E2C6F2C2E142E080319732C742C832C59
:1008E8002E0A031D782C792C812C0030A3000030AF
:1008F800A2000030A1000030A000A2178B2C00300D
:10090800A3000030A2000030A1000030A00027089A
:100918008039F9007908A8062708F9007907FA004C
:100928007A08AD00A61F992C9A2C9B2C2D142D0803
:1009380003199F2CA02CAF2C2D0A031DA42CA52C29
:10094800AD2C0030A7000030A6000030A500003014
:10095800A400A617B72C0030A7000030A60000306E
:10096800A5000030A4002D080319BB2CBC2CC12CF9
:100978002E08031DC02CC12CCA2C0030A300003047
:10098800A2000030A1000030A000BD2F2008F9000F
:100998007908F00026080A168A1195220A128A1187
:1009A800710883120313B4007008B3003308F90008
:1009B800FA01FB01FC017C08AC007B08AB007A085B
:1009C800AA007908A9003408F900FA01FB01FC0122
:1009D8007C08B2007B08B1007A08B0007908AF0043
:1009E8002108F9007908F00025080A168A119522CD
:1009F8000A128A11710883120313B4007008B30035
:100A08003308F900FA01FB01FC017908A9077A0803
:100A180003110318013E0319122DAA077B080311BD
:100A28000318013E0319192DAB077C08031103189D
:100A3800013E0319202DAC073408F900FA01FB0127
:100A4800FC017908AF077A0803110318013E03195E
:100A58002E2DB0077B0803110318013E0319352D0D
:100A6800B1077C0803110318013E03193C2DB20796
:100A78002208F9007908F00024080A168A1195223C
:100A88000A128A11710883120313B4007008B300A4
:100A98003308F900FA01FB01FC017908A9077A0873
:100AA80003110318013E03195A2DAA077B080311E5
:100AB8000318013E0319612DAB077C0803110318C5
:100AC800013E0319682DAC073408F900FA01FB014F
:100AD800FC017908AF077A0803110318013E0319CE
:100AE800762DB0077B0803110318013E03197D2DED
:100AF800B1077C0803110318013E0319842DB207BE
:100B08000830F9000310A90DAA0DAB0DAC0DF90BB7
:100B1800862D2108F9007908F00024080A168A11A0
:100B280095220A128A11710883120313B4007008FF
:100B3800B3003308F9003408FA00FB01FC01790816
:100B4800A9077A0803110318013E0319AC2DAA0757
:100B58007B0803110318013E0319B32DAB077C086A
:100B680003110318013E0319BA2DAC072008F90038
:100B78007908F00025080A168A1195220A128A11A6
:100B8800710883120313B4007008B3003308F90026
:100B98003408FA00FB01FC017908A9077A08031157
:100BA8000318013E0319D92DAA077B08031103185E
:100BB800013E0319E02DAB077C0803110318013E21
:100BC8000319E72DAC070830F9000310A90DAA0D89
:100BD800AB0DAC0DF90BE92D2008F9007908F000F0
:100BE80024080A168A1195220A128A11710883129A
:100BF8000313B4007008B3003308F9003408FA008E
:100C0800FB01FC017908A9077A0803110318013EC2
:100C180003190F2EAA077B0803110318013E0319B5
:100C2800162EAB077C0803110318013E03191D2E6D
:100C3800AC072108F9007908F00026080A168A117D
:100C480095220A128A11710883120313B4007008DE
:100C5800B3003308F9003408FA00FB01FC017908F5
:100C6800AF077A0803110318013E03193C2EB00799
:100C78007B0803110318013E0319432EB1077C08B2
:100C880003110318013E03194A2EB2072208F9007E
:100C98007908F00025080A168A1195220A128A1185
:100CA800710883120313B4007008B3003308F90005
:100CB8003408FA00FB01FC017908AF077A08031130
:100CC8000318013E0319692EB0077B0803110318A6
:100CD800013E0319702EB1077C0803110318013E69
:100CE8000319772EB2072208F9007908F0002608C0
:100CF8000A168A1195220A128A117108831203139F
:100D0800B4007008B3003308F9003408FA00FB0196
:100D1800FC0108300310F90DFA0DFB0DFC0DFF3E28
:100D2800031D8E2E7908AF077A0803110318013EB8
:100D380003199F2EB0077B0803110318013E0319FE
:100D4800A62EB1077C0803110318013E0319AD2E26
:100D5800B2072908F9002A08FA002B08FB002C081A
:100D6800FC0018300310FC0CFB0CFA0CF90CFF3ECD
:100D7800031DB62E7908AF077A0803110318013E40
:100D88000319C72EB0077B0803110318013E031986
:100D9800CE2EB1077C0803110318013E0319D52E86
:100DA800B2070830F9000310A90DAA0DAB0DAC0D60
:100DB800F90BD72E2E082D07F900FA01FA0D79083C
:100DC800823EB3007A080318013EFF3EB400092FA3
:100DD8000130F9000310AF0DB00DB10DB20DF90BD4
:100DE800EE2EAC1FF82EF92EFA2E2F140130F90032
:100DF8000310A90DAA0DAB0DAC0DF90BFC2EFF309D
:100E0800B3070318B40AFF30B407B11F0C2F0D2F16
:100E1800EC2EAD01AC1F112F122F2E2FFF302905FC
:100E2800F900FF302A05FA00FF302B05FB007F3060
:100E38002C05FC007C087B047A0479040319252F0F
:100E4800262F292FAD01AD0A2E2F2F1C2C2F2D2F29
:100E58002E2F262F2D080319322F332F642F013000
:100E6800AF07003003180130B00700300318013015
:100E7800B107003003180130B207321C442F452F48
:100E8800642F2F08F9003008FA003108FB003208F7
:100E9800FC000130FD007C0DFC0CFB0CFA0CF90C7D
:100EA800FD0B4F2F7C08B2007B08B1007A08B00018
:100EB8007908AF000130B3070318B40A0030B4074B
:100EC8003408803AFF0080307F02031D6D2FFF3009
:100ED8003302031C702F712F7C2F7F308312031372
:100EE800B2008030B1000030B0000030AF00B12F48
:100EF800831203133408803AFF0080307F02031DF9
:100F0800872F0130330203188A2F8B2F972F003039
:100F180083120313B2000030B1000030B00000307B
:100F2800AF00A801B12F831203133308F900790821
:100F3800AE00FF30AF05FF30B0057F30B10500309F
:100F4800B2052E1CA82FA92FAA2FB1172E08F90019
:100F58000310790CFA007A08B2002808F900790819
:100F6800B2043208A3003108A2003008A1002F08FB
:100F7800A00008008317EE30FD001530FE006E302B
:100F8800FF00903084000A168A1109220A128A1179
:100F98006B30FD001430FE00B730FF0010308400C5
:100FA8000A168A1109220A128A118313E930FD00F0
:100FB8001430FE001B30FF00A03084000A168A118E
:100FC80009220A128A116D30FD001130FE0093309B
:100FD800FF00633084000A168A1109220A128A1156
:100FE8005330840063300A168A118B210A128A1141
:080FF80083010A128A1122286C
:10100600F6000D280130F2007208F6070130F200F2
:101016007208F0077008840083130008F20076084F
:1010260084000008F30072087302F4007408F500E7
:101036007508031D1F282028272876088400000825
:10104600031D2628272805287508F000F101F01B46
:10105600F103080083120313A70061086204031951
:10106600352836288328A301A401772823082707D3
:10107600A0002008840031300006031D43284428C0
:101086006F2823087A07A000200884000008A10022
:10109600A2017C082206031D52287B082106031D97
:1010A600552856286F283030A00023082707A100AE
:1010B60021088400200880000D3083120313A1004C
:1010C600FB30A000A00B6528A10B65280130FB07AB
:1010D6000318FC0A0030FC07013083120313A30730
:1010E6000318A40A0030A40723082707A000200835
:1010F600840083130008031D812882283928F628D6
:1011060061086204031D88288928F628A501A6011E
:10111600EB2825082707A0002008840030300006A9
:10112600031D96289728B32825087A07A0002008CB
:1011360084000008A100A2017C082206031DA52840
:101146007B082106031DA828A928B3283130A00052
:1011560025082707A1002108840020088000D92837
:1011660025082707A0002008840031300006031D4B
:10117600BD28BE28D92825087A07A00020088400A3
:101186000008A100A2017C082206031DCC287B08CA
:101196002106031DCF28D028D9283030A0002508E5
:1011A6002707A10021088400200880000D30831243
:1011B6000313A100FB30A000A00BDF28A10BDF2842
:1011C600013083120313A5070318A60A0030A607E9
:1011D60025082707A0002008840083130008031DA4
:1011E600F528F6288C28DF01E0010A168A114F221D
:1011F6000A128A1508000A168A114F220A128A153F
:10120600033083120313AA008A30A9005530A800C0
:10121600A80B0B29A90B0B29AA0B0B29013083124A
:101226000313DF000030E000D029EF3086000618F7
:101236001D291E294629063083120313AA001330DE
:10124600A900AD30A800A80B2629A90B2629AA0BB0
:1012560026290D3083120313A900FB30A800A80B22
:101266003229A90B3229AF3083120313A8002808AC
:10127600FA003130FB000030FC00A0300A128A155B
:101286002D200A128A158312031386184B294C291E
:101296007429063083120313AA001330A900AD3057
:1012A600A800A80B5429A90B5429AA0B54290D30C0
:1012B60083120313A900FB30A800A80B6029A90B11
:1012C6006029AF3083120313A8002808FA003230D1
:1012D600FB000030FC00A0300A128A152D200A12ED
:1012E6008A1583120313061979297A29A229063049
:1012F60083120313AA001330A900AD30A800A80B6F
:101306008229A90B8229AA0B82290D308312031385
:10131600A900FB30A800A80B8E29A90B8E29AF3097
:1013260083120313A8002808FA003330FB000030AC
:10133600FC00A0300A128A152D200A128A15831283
:1013460003138619A729A829D02906308312031367
:10135600AA001330A900AD30A800A80BB029A90B2C
:10136600B029AA0BB0290D3083120313A900FB3054
:10137600A800A80BBC29A90BBC29AF308312031304
:10138600A8002808FA003430FB000030FC00A0302A
:101396000A128A152D200A128A15831203135F0872
:1013A6006004031DD729D829182908000A168A11AE
:1013B600EB220A128A15823083120313BF00DD3036
:1013C600BE00BE0BE429BF0BE4290A168A11D421FC
:1013D6000A128A15823083120313BF00DD30BE0065
:1013E600BE0BF329BF0BF3290A168A1193230A129F
:1013F6008A150A168A1155230A128A15212BC1014C
:10140600C2010A3083120313EB000030EC00102AED
:101416000A128A11FE200A128A150A308312031351
:101426006B066C040319182A192A0B2A6C08F1009A
:101436006B08F0000A168A11CC250A128A15831247
:101446000313BE004108DF3E84003E08831380007C
:10145600033041064204031D312A322A7D2ADF3039
:10146600BE003E08F000E4300A128A1503200A1274
:101476008A15700871040319412A422A7D2ADF3031
:1014860083120313BE003E08F000DA300A128A15F2
:1014960003200A128A15700871040319532A542A64
:1014A6007D2A013083120313E7000030E800E501CE
:1014B600E6010A168A11D4210A128A150A168A1119
:1014C600E4210A128A155E30F3000130F4000A1690
:1014D6008A111E230A128A15333083120313C000A1
:1014E600BB30BF00DF30BE00BE0B772ABF0B772AAA
:1014F600C00B772ADF3083120313BE003E08F000CC
:10150600E4300A128A1503200A128A15700871043B
:10151600031D8E2A8F2ABD2A83120313E701E801D1
:101526000130E5000030E6000A30C1000030C2009C
:101536000A168A11D4210A128A150A168A11E4217A
:101546000A128A15BC30F3000130F4000A168A111B
:101556001E230A128A15333083120313C000BB30D0
:10156600BF00DF30BE00BE0BB62ABF0BB62AC00BCB
:10157600B62A0C2BDF3083120313BE003E08F000A0
:10158600DA300A128A1503200A128A1570087104C5
:10159600031DCE2ACF2A0C2B83120313E701E80181
:1015A6000A30C1000030C2000130E1000030E20024
:1015B6000A168A11D4210A128A150A168A11E421FA
:1015C6000A128A15BC30F3000130F4000A168A119B
:1015D6001E230A128A15333083120313C000BB3050
:1015E600BF00DF30BE00BE0BF62ABF0BF62AC00BCB
:1015F600F62AAF3083120313BE003E08FA003130DC
:10160600FB000030FC00A0300A128A152D200A12B9
:101616008A15013083120313C1070318C20A00306A
:10162600C2074208803AFF0080307F02031D1D2B4F
:1016360008304102031C202B212B042A831203139A
:1016460067086804031D282B292B022A0800BF30CF
:1016560083120313860000303C02AB3003193B02B1
:101666000318362B372B8D2B0A168A11EB220A12FA
:101676008A150A168A11D4210A128A150A168A119F
:10168600E4210A128A153E300A168A11F4210A123A
:101696008A15D730F3000130F4000A168A111E238A
:1016A6000A128A150A168A11C4210A128A15AE3040
:1016B600F3000130F4000A168A111E230A128A1555
:1016C600831203130619682B692B672D03308312C7
:1016D6000313BF008A30BE005530BD00BD0B712B11
:1016E600BE0B712BBF0B712B3D3083120313B80059
:1016F600CC30B700CC30B600CD30B5000A168A1112
:101706003C260A128A15013083120313D7000030D3
:10171600D800672D01303C02553003193B020318EF
:10172600952B962BEC2B0A168A11EB220A128A1598
:101736000A168A11D4210A128A150A168A11E42178
:101746000A128A15D730F3000130F4000A168A11FE
:101756001E230A128A150A168A11C4210A128A152C
:101766003E300A168A11F4210A128A15AE30F300A9
:101776000130F4000A168A111E230A128A158312F2
:1017860003130619C72BC82B672D033083120313C7
:10179600BF008A30BE005530BD00BD0BD02BBE0B3E
:1017A600D02BBF0BD02B3D3083120313B800CC30A7
:1017B600B700CC30B600CD30B5000A168A113C26EB
:1017C6000A128A15023083120313D7000030D8009C
:1017D600672D01303C02FF3003193B020318F42B3E
:1017E600F52B4B2C0A168A11EB220A128A150A16B9
:1017F6008A11D4210A128A150A168A11E4210A12BC
:101806008A153E300A168A11F4210A128A15CA3040
:10181600F3000130F4000A168A111E230A128A15F3
:101826000A168A11C4210A128A159F30F300013064
:10183600F4000A168A111E230A128A15831203134C
:101846000619262C272C672D033083120313BF009D
:101856008A30BE005530BD00BD0B2F2CBE0B2F2C81
:10186600BF0B2F2C3D3083120313B800CC30B700CA
:10187600CC30B600CD30B5000A168A113C260A12C5
:101886008A15033083120313D7000030D800672D62
:1018960002303C02A93003193B020318532C542C86
:1018A600AA2C0A168A11EB220A128A150A168A111E
:1018B600D4210A128A150A168A11E4210A128A15F7
:1018C600CA30F3000130F4000A168A111E230A12E8
:1018D6008A150A168A11C4210A128A153E300A167A
:1018E6008A11F4210A128A159F30F3000130F400A0
:1018F6000A168A111E230A128A1583120313061961
:10190600852C862C672D033083120313BF008A3083
:10191600BE005530BD00BD0B8E2CBE0B8E2CBF0BF2
:101926008E2C3D3083120313B800CC30B700CC3078
:10193600B600CD30B5000A168A113C260A128A1561
:10194600043083120313D7000030D800672D03300C
:101956003C02533003193B020318B22CB32C092D59
:101966000A168A11EB220A128A150A168A11D4213E
:101976000A128A150A168A11E4210A128A153E30BD
:101986000A168A11F4210A128A159030F3000130E2
:10199600F4000A168A111E230A128A150A168A11DB
:1019A600C4210A128A15C730F3000030F4000A1663
:1019B6008A111E230A128A15831203130619E42CB0
:1019C600E52C672D033083120313BF008A30BE0057
:1019D6005530BD00BD0BED2CBE0BED2CBF0BED2C19
:1019E6003D3083120313B800CC30B700CC30B600BC
:1019F600CD30B5000A168A113C260A128A15053022
:101A060083120313D7000030D800672D03303C0241
:101A1600FD3003193B020318112D122D672D0A16EE
:101A26008A11EB220A128A150A168A11D4210A1281
:101A36008A150A168A11E4210A128A159030F300D3
:101A46000130F4000A168A111E230A128A150A1694
:101A56008A11C4210A128A153E300A168A11F42107
:101A66000A128A15C730F3000030F4000A168A11EC
:101A76001E230A128A15831203130619432D442DB9
:101A8600672D033083120313BF008A30BE00553022
:101A9600BD00BD0B4C2DBE0B4C2DBF0B4C2D3D3050
:101AA60083120313B800CC30B700CC30B600CD306B
:101AB600B5000A168A113C260A128A1506308312C8
:101AC6000313D7000030D80008007308803983124A
:101AD6000313A0002008F8007308A0002007A10047
:101AE6002108FA00F21F782D792D7A2D7A147A08BA
:101AF60003197E2D7F2D8F2D7A0A031D832D842DAC
:101B06008C2D0030F3000030F2000030F100003080
:101B1600F000F217F301972D0030F3000030F200C9
:101B26000030F1000030F00077088039A00020086E
:101B3600F900790878060319A12DA22DA32D78178F
:101B46007708A0002007A1002108F900F61FAC2D98
:101B5600AD2DAE2D791479080319B22DB32DC32DF1
:101B6600790A031DB72DB82DC02D0030F7000030BF
:101B7600F6000030F5000030F400F617F701CB2D23
:101B86000030F7000030F6000030F5000030F400B9
:101B96007A0879020318D02DD12D152E781FD42D51
:101BA600D52DD92D8030A0002008F8067A08A0008F
:101BB6002008FB007908A0002008FA007B08A00096
:101BC6002008F9007008A0002008FB007408A00097
:101BD6002008F0007B08A0002008F4007108A0008F
:101BE6002008FB007508A0002008F1007B08A00073
:101BF6002008F5007208A0002008FB007608A00067
:101C06002008F2007B08A0002008F6007308A00058
:101C16002008FB007708A0002008F3007B08A0003E
:101C26002008F700FB017908A000A1012108A30004
:101C36007A082002A200031CA3032308803AFF00AF
:101C460080307F02031D292E1A302202031C2C2EFF
:101C56002D2E6E2E7308720471047004031D342E2B
:101C6600362E0130372E003083120313A0002008D1
:101C7600FB000030F3000030F2000030F1000030CD
:101C8600F0007908A0002008FA00742E7B1C4C2E68
:101C96004D2E582E7B0883120313A0000310200C30
:101CA6000138A1002108FB005A2E0310FB0C701C02
:101CB6005D2E5E2E5F2EFB17013083120313A000EC
:101CC600730DF30CF20CF10CF00CA00B632E01302B
:101CD600A0002008FA0779087A02031C732E742ED6
:101CE600492E781B772E782EC72E7A08031D7C2E58
:101CF6007D2E862E0030F3000030F2000030F10019
:101D06000030F000FF2F7408F00775080311031860
:101D1600013E03198F2EF107760803110318013EC1
:101D26000319962EF207770803110318013E0319CB
:101D36009D2EF307731CA02EA12E7F2F7B1CA42E95
:101D4600A52EB02E7B0883120313A0000310200CCF
:101D56000138A1002108FB00B22E0310FB0C701CF9
:101D6600B52EB62EB72EFB17013083120313A00033
:101D7600730DF30CF20CF10CF00CA00BBB2E013022
:101D8600A0002008FA077F2F7308803AFF00770823
:101D9600803A7F02031DD92E76087202031DD92EC2
:101DA60075087102031DD92E740870020318DC2E03
:101DB600DD2E372FFF3083120313A000FF30A10062
:101DC600FF30A200FF30A3007408A4007508A50028
:101DD6007608A6007708A7007008A4027108031CFD
:101DE600710FF62EF72EA5027208031C720FFC2E39
:101DF600FD2EA6027308031C730F022F032FA702E2
:101E06002408A00725080318250F0A2F0B2FA10762
:101E160026080318260F102F112FA20727080318CC
:101E2600270AA3072308F3002208F2002108F1007D
:101E36002008F0008030A0002008F806FB09FB0A05
:101E46007B08031D272F282F452F0130F007003070
:101E560003180130F107003003180130F207003093
:101E660003180130F307452F7408F0027508031CA8
:101E7600750FF1027608031C760FF2027708031C31
:101E8600770FF3027308720471047004031D4C2F5C
:101E96004D2F7B2F7B08031D512F522F7B2F003098
:101EA600F3000030F2000030F1000030F000FF2FA8
:101EB600013083120313A0000310F00DF10DF20D93
:101EC600F30DA00B5F2FFB1F692F6A2F6B2F70146A
:101ED6007B1C6E2F6F2F722F0314FB0D742F0310B4
:101EE600FB0D7A080319782F792F7B2F0130FA0220
:101EF600F21F7E2F7F2F5B2FF901FB1F832F842F6D
:101F0600922F7B087F390319892F8A2F8D2FF9018C
:101F1600F90A922F701C902F912F922F8A2F7908F1
:101F26000319962F972FCD2F0130F0070030031895
:101F36000130F107003003180130F20700300318B2
:101F46000130F307731CA82FA92FCD2F7008831219
:101F56000313A0007108A1007208A2007308A30071
:101F66000130A400230DA30CA20CA10CA00CA40B01
:101F7600B52F2308F3002208F2002108F1002008FB
:101F8600F0007A0A0319C82FC92FCD2F0130A000FF
:101F96002008FA077A0A0319D12FD22FD72F7A08E9
:101FA600031DD62FD72FE52F0030F3000030F200A7
:101FB6000030F1000030F0007A08031DE32FE42F13
:101FC600E52FF8017A1CE82FE92FEB2FF217F12FF6
:101FD6007F3083120313A0002008F2057A088312CB
:101FE6000313A0000310200CA1002108F300F81F22
:0A1FF600FD2FFE2FFF2FF317080048
:1023160064008001840A04060319003404068C292B
:10232600AA3400340134003401340034013400345A
:102336000A3400340730831603139F0083120313F5
:10234600851483160313850188010800FF30831660
:10235600031385008130831203139F008030831698
:1023660003139F00080083120313851205128511BB
:102376000A168A1118220A168A1183120313851562
:102386000800C030831203138800851205128511D8
:102396000A168A1118220A168A1183120313851542
:1023A6000800013083120313880085120512851177
:1023B6000A168A1118220A168A1183120313851522
:1023C6000800023083120313880085120512851156
:1023D6000A168A1118220A168A1183120313851502
:1023E6000800F2007208831203138800851605128E
:1023F60085110A168A1118220A168A1183120313E6
:10240600851508007E088A007F0882000A168A1150
:1024160005220A168A118000840A04087D0603191B
:102426000034FF0A0319FE0A092AF001F1010130FE
:10243600F0070318F10A0030F1077108803AFF002F
:1024460093307F02031D292A88307002031C2C2A30
:102456002D2A1A2A08000A168A11C4210A168A1178
:10246600F301F40120300A168A11F4210A168A11A2
:102476000130F3070318F40A0030F4077408803AB1
:10248600FF0080307F02031D4A2A06307302031CB8
:102496004D2A4E2A352A08000A168A11D4210A1610
:1024A6008A110A168A11E4210A168A11AF30F3003E
:1024B6000030F4000A168A111E230A168A110A161B
:1024C6008A11C4210A168A11A030F3000030F400E4
:1024D6000A168A111E230A168A11080080308312F2
:1024E6000313AB062F08F3002E08F2002D08F100A7
:1024F6002C08F0002B08F7002A08F6002908F5003A
:102506002808F4000A128A1568250A168A11730823
:1025160083120313AB007208AA007108A9007008A1
:10252600A8000800F800F401F5017008F200F301B4
:102536007208F6007308F700781CA22AA32AA92AB3
:102546007608F4070318F50A7708F5070130031033
:10255600F60DF70DFF3E031DAA2A0310F80C7808A6
:10256600031DB62AB72A9F2A7508F1007408F000E1
:102576000800F600C530F2007208831203139F05A7
:102586007608F20002300310F20DFF3E031DC62A44
:102596000310720DF30073089F040D30F300FB3037
:1025A600F200F20BD42AF30BD42AD92A831203138E
:1025B6001F151F19DF2AE02ADC2A1E08F5008316DC
:1025C60003131E08F4007508F1007408F0000800F3
:1025D6000A168A119D210A168A11013083120313E5
:1025E60088000A168A11B6210A168A113830831213
:1025F600031388000A168A11B6210A168A110E30AC
:102606008312031388000A168A11B6210A168A1144
:1026160006308312031388000A168A11B6210A1699
:102626008A1180308312031388000A168A11B62194
:102636000A168A110800F801F9013E2B780873077B
:10264600F6007408F5000318F50AF81F2B2BF5039E
:102656007508F700760884008317771C8313000833
:102666000A168A11F4210A168A110130F80703188E
:10267600F90A0030F90778087307F6007408F500C0
:102686000318F50AF81F482BF5037508F7007608B6
:1026960084008317771C83130008031D532B542BC8
:1026A600212B08000A168A11C4210A168A110A1655
:1026B6008A112E220A168A11F701F801722B770861
:1026C600D03E8400831300080A168A11F4210A16E4
:1026D6008A110130F7070318F80A0030F807D030DE
:1026E600F0000030F1000A128A1104200A168A113D
:1026F6007008FF3EF50071080318013EFF3EF60024
:1027060078087602031D892B7708750203188C2B2F
:102716008D2B622B0A168A112E220A168A110800A0
:102726000A168A11E4210A168A1120300A168A111D
:10273600F4210A168A11F601F701B12B7608413EFB
:102746008400831700080A168A11F4210A168A11D2
:102756000130F6070318F70A0030F7074130F0009A
:102766000130F1000A128A1104200A168A11700833
:10277600FF3EF40071080318013EFF3EF50077089E
:102786007502031DC82B760874020318CB2BCC2BBD
:10279600A12B20300A168A11F4210A168A11080084
:1027A60083120313CB004B080A168A1112250A1648
:1027B6008A110A168A11D4210A168A118312031362
:1027C6005D085E040319E82BE92B032C1030F30097
:1027D6000130F4000A168A111E230A168A110A16F7
:1027E6008A11C4210A168A11831203134B08F300B7
:1027F6000030F4000A168A111E230A168A110C2CC0
:102806003130F3000130F4000A168A111E230A162D
:102816008A11333083120313CA00BB30C900DF307C
:10282600C800C80B142CC90B142CCA0B142C080096
:1028360020342034203420342034203420343134E1
:1028460020343134203431342034313400342034CF
:102856005A346F346E3461343A342034313420348F
:10286600323420343334203434340034443469343C
:1028760067346934743465343A342034003452345D
:1028860065346134743469347634613472340034B6
:102896005F345F345F345F34003430343034303486
:1028A600303400343534353435343534003430344E
:1028B600303430343034003431343234313432341C
:1028C60000340A168A11EB220A168A110A168A1190
:1028D600D4210A168A110D3083120313CF00FB3060
:1028E600CE00CE0B742CCF0B742C01308312031345
:1028F600D9000030DA005030F3000130F4000A1637
:102906008A111E230A168A110A168A1155230A16D7
:102916008A11831203134C034D04031D932C942C2C
:102926009B2CD5300A168A11D3230A168A11B62C87
:1029360002304C064D04031DA12CA22CA92CE43018
:102946000A168A11D3230A168A11B62C03304C06AE
:102956004D04031DAF2CB02CB62CDA300A168A11A2
:10296600D3230A168A110800533465346E3468344A
:102976006134203441347434753461346C346934D0
:102986007A3461346434613400344F346B343A340D
:10299600463420346F34753420344E34653467340D
:1029A600613472343A3445340034533465346E3409
:1029B600683461342034633461346E34633465348E
:1029C6006C346134643461340034443469346734BB
:1029D6006934743465342034613420347334653496
:1029E6006E346834613400342034203420344E345C
:1029F6006F34763461342034733465346E3468341D
:102A060061340034533465346E34683461342034B0
:102A16006534723472346134643461340034831240
:102A26000313C500C601C7010A3083120313EB0066
:102A36000030EC00232D0A128A11FE200A168A1194
:102A46000A30831203136B066C0403192B2D2C2DED
:102A56001E2D0D3083120313C400FB30C300C30BBD
:102A6600322DC40B322D831203136C08F1006B0850
:102A7600F0000A168A11CC250A168A11831203134E
:102A8600C30046084507C40044088400430883136E
:102A960080000130C6070318C70A0030C707470879
:102AA600803AFF0080307F02031D5B2D0430460212
:102AB600031C5E2D5F2D172D8312031345080A167E
:102AC6008A115A270A168A11831203133C08DE005C
:102AD6003B08DD00080044346534733461347434D3
:102AE600693476346134723420345A346F346E3437
:102AF6006134003443346F346E3466346934673479
:102B060020344434693473347034613472346F342D
:102B16000034533465346E346834613420345534AB
:102B2600733475346134723469346F340034533419
:102B360065346E3468346134203463346F347234EF
:102B460072346534743461340034533465346E340D
:102B560068346134203443346F346134633461340F
:102B66006F340034533465346E3468346134203441
:102B760043346F346E346634693467340034533406
:102B860061346934203452346134743461346F34BE
:102B96000034132E313083120313DB000030DC00C7
:102BA600382E323083120313DB000030DC00382E5F
:102BB600333083120313DB000030DC00382E343050
:102BC60083120313DB000030DC00382E353083120D
:102BD6000313DB000030DC00382E3630831203137B
:102BE600DB000030DC00382E373083120313DB00A5
:102BF6000030DC00382E383083120313DB0000303F
:102C0600DC00382E393083120313DB000030DC0081
:102C1600382E303083120313DB000030DC00382EF0
:102C26007108003A0319182E382E7008003A031955
:102C36000C2E013A0319CD2D033A0319D42D013A6E
:102C46000319DB2D073A0319E22D013A0319E92D81
:102C5600033A0319F02D013A0319F72D0F3A031918
:102C6600FE2D013A0319052E382E831203135B0835
:102C76000800443083120313A3007A30A200003008
:102C8600A1000030A0003808A7003708A6003608C3
:102C9600A5003508A4000A128A115D240A168A11B5
:102CA600831203132308B8002208B7002108B600D0
:102CB6002008B500413083120313BA00ED30B90085
:102CC600B90B632EBA0B632E682E982E831203134C
:102CD6008901073083120313BA007C30B900B90B9F
:102CE600722EBA0B722E00003F3083120313AB0014
:102CF6008030AA000030A9000030A8003808AF00D4
:102D06003708AE003608AD003508AC000A168A1141
:102D160071220A168A11831203132B08B8002A0897
:102D2600B7002908B6002808B5000030F3000030C7
:102D3600F2000030F1000030F0008312031338086F
:102D4600F7003708F6003608F5003508F4000A16CD
:102D56008A11B8260A168A11031CB22EB32E692EC2
:102D66000F30831203138900080000307005F80045
:102D760000307105F90080307205FA007F30730566
:102D8600FB007B087A0479047804031DCB2ECC2E35
:102D9600D42E0030F3000030F2000030F100003095
:102DA600F00000307405F80000307505F900803039
:102DB6007605FA007F307705FB007B087A047904F4
:102DC6007804031DE72EE82EF02E0030F7000030C1
:102DD600F6000030F5000030F400F31FF32EF42E59
:102DE600182F0030F8000030F9000030FA0080306B
:102DF600FB007008F8027108031C710F032F042FE3
:102E0600F9027208031C720F092F0A2FFA027308BF
:102E1600031C730F0F2F102FFB027B08F3007A0899
:102E2600F2007908F1007808F000F71F1B2F1C2F1D
:102E3600402F0030F8000030F9000030FA008030F2
:102E4600FB007408F8027508031C750F2B2F2C2F36
:102E5600F9027608031C760F312F322FFA02770813
:102E6600031C770F372F382FFB027B08F7007A08F1
:102E7600F6007908F5007808F4008030F306803013
:102E8600F70677087302031D522F76087202031D98
:102E9600522F75087102031D522F74087002031811
:102EA600552F562F582F0310592F0314080083123D
:102EB6000313C0000330C1000030C2000A168A1195
:102EC600D4210A168A110A168A11E4210A168A11D1
:102ED6002130F3000130F4000A168A111E230A1667
:102EE6008A110A168A11C4210A168A11831203133B
:102EF6004008F3000030F4000A168A111E230A1651
:102F06008A1120300A168A11F4210A168A11BE3057
:102F1600F3000030F4000A168A111E230A168A11DD
:102F26007F30831203138600E22F063083120313C9
:102F3600BF001330BE00AD30BD00BD0BA02FBE0BD1
:102F4600A02FBF0BA02F831203130619AB2FAC2F94
:102F5600C32F3D30B800CC30B700CC30B600CD30F2
:102F6600B5000A168A113C260A168A118312031323
:102F7600C101C20145300A168A11F4210A168A11C6
:102F8600831203138619C82FC92FE22F3D30B800CC
:102F9600CC30B700CC30B600CD30B5000A168A1159
:102FA6003C260A168A11013083120313C100003031
:102FB600C20046300A168A11F4210A168A11033015
:102FC60083120313410642040319EA2FEB2F982FAD
:102FD600333083120313BF00BB30BE00DF30BD00A9
:102FE600BD0BF32FBE0BF32FBF0BF32F831203136F
:0A2FF6004208BC004108BB000800BF
:00000001FF
