:100000000A128A11E62F0730831603139F0083120A
:1000100003138514831603138501880108000A124F
:100020008A1513240A128A110A128A150B250A123C
:100030008A11F701F8012C287708533E84008313B6
:1000400000080A128A1533240A128A110130F707B0
:100050000318F80A0030F80753300A128A1585246D
:100060000A128A117008FF3EF50071080318013E5C
:10007000FF3EF60078087602031D402877087502D7
:100080000318432844281C280A128A150B250A1233
:100090008A1108000A128A1523240A128A112030B4
:1000A0000A128A1533240A128A11F701F801682806
:1000B0007708443E8400831300080A128A1533240B
:1000C0000A128A110130F7070318F80A0030F807FE
:1000D00044300A128A1585240A128A117008FF3EDC
:1000E000F50071080318013EFF3EF600780876021D
:1000F000031D7C287708750203187F28802858285C
:1001000020300A128A1533240A128A110800831635
:100110000313890188010F30860001308312031315
:1001200089000A128A1535250A128A110A128A15BF
:1001300003240A128A118312031342084304031989
:10014000A228A328BD280A128A114A200A128A115D
:100150000A128A110F200A128A1183120313C20194
:10016000C301BD280A128A159E240A128A1183121D
:1001700003133C08C1003B08C00040084104031DB4
:10018000C228C328B2280A128A11EA210A128A1147
:100190009B280A128A110028443083120313A300FB
:1001A0007A30A2000030A1000030A0003808A7007B
:1001B0003708A6003608A5003508A4000A128A11DF
:1001C00085240A128A11831203132308B800220817
:1001D000B7002108B6002008B50041308312031390
:1001E000BA00ED30B900B90BF328BA0BF328F828A0
:1001F0002829831203138901073083120313BA00DD
:100200007C30B900B90B0229BA0B022900003F303B
:1002100083120313AB008030AA000030A900003025
:10022000A8003808AF003708AE003608AD00350822
:10023000AC000A128A15C0240A128A118312031311
:100240002B08B8002A08B7002908B6002808B5000E
:100250000030F3000030F2000030F1000030F00018
:10026000831203133808F7003708F6003608F50044
:100270003508F4000A128A1148210A128A11031C57
:1002800042294329F9280F308312031389000800FB
:1002900000307005F80000307105F90080307205FB
:1002A000FA007F307305FB007B087A047904780438
:1002B000031D5B295C2964290030F3000030F20043
:1002C0000030F1000030F00000307405F80000301C
:1002D0007505F90080307605FA007F307705FB0060
:1002E0007B087A0479047804031D7729782980290A
:1002F0000030F7000030F6000030F5000030F40068
:10030000F31F83298429A8290030F8000030F90060
:100310000030FA008030FB007008F8027108031CFE
:10032000710F93299429F9027208031C720F9929FD
:100330009A29FA027308031C730F9F29A029FB0254
:100340007B08F3007A08F2007908F1007808F000E1
:10035000F71FAB29AC29D0290030F8000030F90094
:100360000030FA008030FB007408F8027508031CA6
:10037000750FBB29BC29F9027608031C760FC12929
:10038000C229FA027708031C770FC729C829FB0284
:100390007B08F7007A08F6007908F5007808F40081
:1003A0008030F3068030F70677087302031DE229D8
:1003B00076087202031DE22975087102031DE22905
:1003C000740870020318E529E629E8290310E929D1
:1003D000031408000130831203138900EF308600F4
:1003E0000618F329F429172A063083120313BD00D7
:1003F0001330BC00AD30BB00BB0BFC29BC0BFC298F
:10040000BD0BFC293D3083120313B800CC30B7007C
:10041000CC30B600CD30B5000A128A11CC200A12B9
:100420008A1130300A128A1533240A128A11831273
:10043000031386181C2A1D2A402A06308312031330
:10044000BD001330BC00AD30BB00BB0B252ABC0B7C
:10045000252ABD0B252A3D3083120313B800CC306A
:10046000B700CC30B600CD30B5000A128A11CC20CE
:100470000A128A1131300A128A1533240A128A119B
:10048000831203130619452A462A692A0630831265
:100490000313BD001330BC00AD30BB00BB0B4E2AB4
:1004A000BC0B4E2ABD0B4E2A3D3083120313B800FD
:1004B000CC30B700CC30B600CD30B5000A128A116E
:1004C000CC200A128A1132300A128A1533240A12F9
:1004D0008A118312031386196E2A6F2A922A063014
:1004E00083120313BD001330BC00AD30BB00BB0B47
:1004F000772ABC0B772ABD0B772A3D308312031372
:10050000B800CC30B700CC30B600CD30B5000A1200
:100510008A11CC200A128A1133300A128A15332428
:100520000A128A11DF308312031386000618992AF3
:100530009A2ABD2A063083120313BD001330BC0073
:10054000AD30BB00BB0BA22ABC0BA22ABD0BA22A5A
:100550003D3083120313B800CC30B700CC30B60066
:10056000CD30B5000A128A11CC200A128A1134301B
:100570000A128A1533240A128A1183120313861869
:10058000C22AC32AE62A063083120313BD001330A1
:10059000BC00AD30BB00BB0BCB2ABC0BCB2ABD0BC8
:1005A000CB2A3D3083120313B800CC30B700CC30D7
:1005B000B600CD30B5000A128A11CC200A128A1179
:1005C00035300A128A1533240A128A118312031352
:1005D0000619EB2AEC2A0F2B063083120313BD00F9
:1005E0001330BC00AD30BB00BB0BF42ABC0BF42AAB
:1005F000BD0BF42A3D3083120313B800CC30B70092
:10060000CC30B600CD30B5000A128A11CC200A12C7
:100610008A1136300A128A1533240A128A1183127B
:1006200003138619142B152B382B06308312031352
:10063000BD001330BC00AD30BB00BB0B1D2BBC0B91
:100640001D2BBD0B1D2B3D3083120313B800CC3086
:10065000B700CC30B600CD30B5000A128A11CC20DC
:100660000A128A1137300A128A1533240A128A11A3
:10067000BF3083120313860006183F2B402B632BD9
:10068000063083120313BD001330BC00AD30BB0035
:10069000BB0B482BBC0B482BBD0B482B3D308312AA
:1006A0000313B800CC30B700CC30B600CD30B50065
:1006B0000A128A11CC200A128A1138300A128A15BD
:1006C00033240A128A11831203138618682B692BAC
:1006D0008C2B063083120313BD001330BC00AD30E9
:1006E000BB00BB0B712BBC0B712BBD0B712B3D30B9
:1006F00083120313B800CC30B700CC30B600CD3035
:10070000B5000A128A11CC200A128A1139300A1255
:100710008A1533240A128A11831203130619912BA6
:10072000922BB52B063083120313BD001330BC008F
:10073000AD30BB00BB0B9A2BBC0B9A2BBD0B9A2B7D
:100740003D3083120313B800CC30B700CC30B60074
:10075000CD30B5000A128A11CC200A128A1141301C
:100760000A128A1533240A128A1183120313861976
:10077000BA2BBB2BDE2B063083120313BD001330C4
:10078000BC00AD30BB00BB0BC32BBC0BC32BBD0BE4
:10079000C32B3D3083120313B800CC30B700CC30EC
:1007A000B600CD30B5000A128A11CC200A128A1187
:1007B00042300A128A1533240A128A117F308312BA
:1007C000031386000618E52BE62B092C063083124E
:1007D0000313BD001330BC00AD30BB00BB0BEE2BD0
:1007E000BC0BEE2BBD0BEE2B3D3083120313B80078
:1007F000CC30B700CC30B600CD30B5000A128A112B
:10080000CC200A128A1143300A128A1533240A12A4
:100810008A118312031386180E2C0F2C322C0630EB
:1008200083120313BD001330BC00AD30BB00BB0B03
:10083000172CBC0B172CBD0B172C3D308312031348
:10084000B800CC30B700CC30B600CD30B5000A12BD
:100850008A11CC200A128A1144300A128A153324D4
:100860000A128A11831203130619372C382C5B2CB9
:10087000063083120313BD001330BC00AD30BB0043
:10088000BB0B402CBC0B402CBD0B402C3D308312CD
:100890000313B800CC30B700CC30B600CD30B50073
:1008A0000A128A11CC200A128A1145300A128A15BE
:1008B00033240A128A11831203138619602C612CC7
:1008C000842C063083120313BD001330BC00AD30FE
:1008D000BB00BB0B692CBC0B692CBD0B692C3D30DC
:1008E00083120313B800CC30B700CC30B600CD3043
:1008F000B5000A128A11CC200A128A1146300A1257
:100900008A1533240A128A1108008312031323085C
:100910008039F9007908A8002308F9007907FA005E
:100920007A08AE00A21F952C962C972C2E142E0818
:1009300003199B2C9C2CAB2C2E0A031DA02CA12C44
:10094000A92C0030A3000030A2000030A10000302C
:10095000A000A217B32C0030A3000030A20000308A
:10096000A1000030A00027088039F9007908A80606
:100970002708F9007907FA007A08AD00A61FC12CF4
:10098000C22CC32C2D142D080319C72CC82CD72C0E
:100990002D0A031DCC2CCD2CD52C0030A700003007
:1009A000A6000030A5000030A400A617DF2C003000
:1009B000A7000030A6000030A5000030A4002D08DC
:1009C0000319E32CE42CE92C2E08031DE82CE92C58
:1009D000F22C0030A3000030A2000030A100003053
:1009E000A000E52F2008F9007908F00026080A1277
:1009F0008A15E4240A128A11710883120313B400C1
:100A00007008B3003308F900FA01FB01FC017C080F
:100A1000AC007B08AB007A08AA007908A90034086A
:100A2000F900FA01FB01FC017C08B2007B08B1006F
:100A30007A08B0007908AF002108F9007908F000C1
:100A400025080A128A15E4240A128A1171088312F1
:100A50000313B4007008B3003308F900FA01FB0176
:100A6000FC017908A9077A0803110318013E03194C
:100A70003A2DAA077B0803110318013E0319412DE3
:100A8000AB077C0803110318013E0319482DAC077E
:100A90003408F900FA01FB01FC017908AF077A0874
:100AA00003110318013E0319562DB0077B080311EB
:100AB0000318013E03195D2DB1077C0803110318CB
:100AC000013E0319642DB2072208F9007908F000ED
:100AD00024080A128A15E4240A128A117108831262
:100AE0000313B4007008B3003308F900FA01FB01E6
:100AF000FC017908A9077A0803110318013E0319BC
:100B0000822DAA077B0803110318013E0319892DC2
:100B1000AB077C0803110318013E0319902DAC07A5
:100B20003408F900FA01FB01FC017908AF077A08E3
:100B300003110318013E03199E2DB0077B08031112
:100B40000318013E0319A52DB1077C0803110318F2
:100B5000013E0319AC2DB2070830F9000310A90DAE
:100B6000AA0DAB0DAC0DF90BAE2D2108F9007908DB
:100B7000F00024080A128A15E4240A128A11710866
:100B800083120313B4007008B3003308F90034086B
:100B9000FA00FB01FC017908A9077A080311031880
:100BA000013E0319D42DAA077B0803110318013E47
:100BB0000319DB2DAB077C0803110318013E031951
:100BC000E22DAC072008F9007908F00025080A1288
:100BD0008A15E4240A128A11710883120313B400DF
:100BE0007008B3003308F9003408FA00FB01FC0177
:100BF0007908A9077A0803110318013E0319012E89
:100C0000AA077B0803110318013E0319082EAB073E
:100C10007C0803110318013E03190F2EAC0708309E
:100C2000F9000310A90DAA0DAB0DAC0DF90B112E97
:100C30002008F9007908F00024080A128A15E42433
:100C40000A128A11710883120313B4007008B300EA
:100C50003308F9003408FA00FB01FC017908A90700
:100C60007A0803110318013E0319372EAA077B08DF
:100C700003110318013E03193E2EAB077C08031134
:100C80000318013E0319452EAC072108F900790825
:100C9000F00026080A128A15E4240A128A11710843
:100CA00083120313B4007008B3003308F90034084A
:100CB000FA00FB01FC017908AF077A080311031859
:100CC000013E0319642EB0077B0803110318013E8F
:100CD00003196B2EB1077C0803110318013E031999
:100CE000722EB2072208F9007908F00025080A12CE
:100CF0008A15E4240A128A11710883120313B400BE
:100D00007008B3003308F9003408FA00FB01FC0155
:100D10007908AF077A0803110318013E0319912ED1
:100D2000B0077B0803110318013E0319982EB10781
:100D30007C0803110318013E03199F2EB2072208F5
:100D4000F9007908F00026080A128A15E4240A122C
:100D50008A11710883120313B4007008B3003308BA
:100D6000F9003408FA00FB01FC0108300310F90D0A
:100D7000FA0DFB0DFC0DFF3E031DB62E7908AF07E3
:100D80007A0803110318013E0319C72EB0077B0828
:100D900003110318013E0319CE2EB1077C0803117D
:100DA0000318013E0319D52EB2072908F9002A08B5
:100DB000FA002B08FB002C08FC0018300310FC0C78
:100DC000FB0CFA0CF90CFF3E031DDE2E7908AF0771
:100DD0007A0803110318013E0319EF2EB0077B08B0
:100DE00003110318013E0319F62EB1077C08031105
:100DF0000318013E0319FD2EB2070830F900031055
:100E0000A90DAA0DAB0DAC0DF90BFF2E2E082D0769
:100E1000F900FA01FA0D7908823EB3007A08031846
:100E2000013EFF3EB400312F0130F9000310AF0D39
:100E3000B00DB10DB20DF90B162FAC1F202F212FC5
:100E4000222F2F140130F9000310A90DAA0DAB0DAC
:100E5000AC0DF90B242FFF30B3070318B40AFF3091
:100E6000B407B11F342F352F142FAD01AC1F392F0C
:100E70003A2F562FFF302905F900FF302A05FA00D6
:100E8000FF302B05FB007F302C05FC007C087B0429
:100E90007A04790403194D2F4E2F512FAD01AD0A5D
:100EA000562F2F1C542F552F562F4E2F2D08031918
:100EB0005A2F5B2F8C2F0130AF0700300318013001
:100EC000B007003003180130B107003003180130BB
:100ED000B207321C6C2F6D2F8C2F2F08F9003008B1
:100EE000FA003108FB003208FC000130FD007C0DE7
:100EF000FC0CFB0CFA0CF90CFD0B772F7C08B200F4
:100F00007B08B1007A08B0007908AF000130B30760
:100F10000318B40A0030B4073408803AFF00803068
:100F20007F02031D952FFF303302031C982F992F4A
:100F3000A42F7F3083120313B2008030B100003041
:100F4000B0000030AF00D92F831203133408803A69
:100F5000FF0080307F02031DAF2F013033020318E2
:100F6000B22FB32FBF2F003083120313B200003013
:100F7000B1000030B0000030AF00A801D92F8312BB
:100F800003133308F9007908AE00FF30AF05FF30D6
:100F9000B0057F30B1050030B2052E1CD02FD12F07
:100FA000D22FB1172E08F9000310790CFA007A0835
:100FB000B2002808F9007908B2043208A300310809
:100FC000A2003008A1002F08A000080083135830A9
:100FD000FD000C30FE006D30FF00403084000A122E
:100FE0008A1548240A128A115830840069300A127E
:100FF0008A15ED230A128A1183010A128A118728A1
:1017DA0064008001840A0406031900340406EE2B0F
:1017EA00831203138512051285110A128A155724CA
:1017FA000A128A1583120313851508000130831211
:10180A00031388008512051285110A128A155724B6
:10181A000A128A158312031385150800C030831231
:10182A00031388008512051285110A128A15572496
:10183A000A128A15831203138515080002308312CF
:10184A00031388008512051285110A128A15572476
:10185A000A128A158312031385150800F20072080A
:10186A008312031388008516051285110A128A1538
:10187A0057240A128A1583120313851508007E0855
:10188A008A007F0882000A128A1544240A128A15DD
:10189A008000840A04087D0603190034FF0A03192C
:1018AA00FE0A482CF001F1010130F0070318F10A91
:1018BA000030F1077108803AFF0093307F02031D60
:1018CA00682C88307002031C6B2C6C2C592C080075
:1018DA0001340034013400344434693467346934DF
:1018EA0074346534203461342034733465346E348E
:1018FA006834613400345F345F345F345F340034F9
:10190A00F4007408F2007208F3008F2C0130F20020
:10191A007208F3077308840083130008031D962CCA
:10192A00972C8B2C74087302F000F101F01BF10361
:10193A000800033083120313BF008A30BE005530FB
:10194A00BD00BD0BA62CBE0BA62CBF0BA62C3F3090
:10195A0083120313B8008030B7000030B60000309D
:10196A00B5000A128A11CC200A128A1583120313AF
:10197A00BB01BC010800803083120313AB062F0899
:10198A00F3002E08F2002D08F1002C08F0002B08B5
:10199A00F7002A08F6002908F5002808F4000A12B8
:1019AA008A1568250A128A15730883120313AB0075
:1019BA007208AA007108A9007008A8000800F800B7
:1019CA00F401F5017008F200F3017208F6007308D9
:1019DA00F700781CF12CF22CF82C7608F40703187F
:1019EA00F50A7708F50701300310F60DF70DFF3EEB
:1019FA00031DF92C0310F80C7808031D052D062D7C
:101A0A00EE2C7508F1007408F00008000A128A1515
:101A1A0013240A128A1520300A128A1533240A124C
:101A2A008A1520300A128A1533240A128A152030A0
:101A3A000A128A1533240A128A1520300A128A15C4
:101A4A0033240A128A1520300A128A1533240A12FC
:101A5A008A1520300A128A1533240A128A150800B8
:101A6A000A128A1103200A128A15013083120313FB
:101A7A0088000A128A15F5230A128A153830831249
:101A8A00031388000A128A15F5230A128A150E30E2
:101A9A008312031388000A128A15F5230A128A157B
:101AAA0006308312031388000A128A15F5230A12D4
:101ABA008A1580308312031388000A128A15F523C7
:101ACA000A128A1508007308803983120313A000CA
:101ADA002008F8007308A0002007A1002108FA00D6
:101AEA00F21F782D792D7A2D7A147A0803197E2D12
:101AFA007F2D8F2D7A0A031D832D842D8C2D003086
:101B0A00F3000030F2000030F1000030F000F2176C
:101B1A00F301972D0030F3000030F2000030F1009D
:101B2A000030F00077088039A0002008F900790811
:101B3A0078060319A12DA22DA32D78177708A000E6
:101B4A002007A1002108F900F61FAC2DAD2DAE2DFE
:101B5A00791479080319B22DB32DC32D790A031DFF
:101B6A00B72DB82DC02D0030F7000030F600003038
:101B7A00F5000030F400F617F701CB2D0030F7001E
:101B8A000030F6000030F5000030F4007A087902DF
:101B9A000318D02DD12D152E781FD42DD52DD92D42
:101BAA008030A0002008F8067A08A0002008FB0070
:101BBA007908A0002008FA007B08A0002008F90094
:101BCA007008A0002008FB007408A0002008F0009C
:101BDA007B08A0002008F4007108A0002008FB0080
:101BEA007508A0002008F1007B08A0002008F50075
:101BFA007208A0002008FB007608A0002008F20066
:101C0A007B08A0002008F6007308A0002008FB004B
:101C1A007708A0002008F3007B08A0002008F7003E
:101C2A00FB017908A000A1012108A3007A0820027B
:101C3A00A200031CA3032308803AFF0080307F021E
:101C4A00031D292E1A302202031C2C2E2D2E6E2E35
:101C5A007308720471047004031D342E362E013089
:101C6A00372E003083120313A0002008FB00003037
:101C7A00F3000030F2000030F1000030F000790883
:101C8A00A0002008FA00742E7B1C4C2E4D2E582ED4
:101C9A007B0883120313A0000310200C0138A10053
:101CAA002108FB005A2E0310FB0C701C5D2E5E2EC1
:101CBA005F2EFB17013083120313A000730DF30C80
:101CCA00F20CF10CF00CA00B632E0130A0002008DE
:101CDA00FA0779087A02031C732E742E492E781B90
:101CEA00772E782EC72E7A08031D7C2E7D2E862EFF
:101CFA000030F3000030F2000030F1000030F00054
:101D0A00FF2F7408F007750803110318013E031921
:101D1A008F2EF107760803110318013E0319962E38
:101D2A00F207770803110318013E03199D2EF307E2
:101D3A00731CA02EA12E7F2F7B1CA42EA52EB02EA5
:101D4A007B0883120313A0000310200C0138A100A2
:101D5A002108FB00B22E0310FB0C701CB52EB62E08
:101D6A00B72EFB17013083120313A000730DF30C77
:101D7A00F20CF10CF00CA00BBB2E0130A0002008D5
:101D8A00FA077F2F7308803AFF007708803A7F02AC
:101D9A00031DD92E76087202031DD92E7508710209
:101DAA00031DD92E740870020318DC2EDD2E372F7E
:101DBA00FF3083120313A000FF30A100FF30A200FE
:101DCA00FF30A3007408A4007508A5007608A600D1
:101DDA007708A7007008A4027108031C710FF62E79
:101DEA00F72EA5027208031C720FFC2EFD2EA60206
:101DFA007308031C730F022F032FA7022408A007DE
:101E0A0025080318250F0A2F0B2FA10726080318E8
:101E1A00260F102F112FA20727080318270AA30736
:101E2A002308F3002208F2002108F1002008F0003C
:101E3A008030A0002008F806FB09FB0A7B08031D76
:101E4A00272F282F452F0130F007003003180130C3
:101E5A00F107003003180130F2070030031801308F
:101E6A00F307452F7408F0027508031C750FF10279
:101E7A007608031C760FF2027708031C770FF30229
:101E8A007308720471047004031D4C2F4D2F7B2FAD
:101E9A007B08031D512F522F7B2F0030F300003097
:101EAA00F2000030F1000030F000FF2F0130831201
:101EBA000313A0000310F00DF10DF20DF30DA00BAA
:101ECA005F2FFB1F692F6A2F6B2F70147B1C6E2FDD
:101EDA006F2F722F0314FB0D742F0310FB0D7A085A
:101EEA000319782F792F7B2F0130FA02F21F7E2FE8
:101EFA007F2F5B2FF901FB1F832F842F922F7B08E3
:101F0A007F390319892F8A2F8D2FF901F90A922F08
:101F1A00701C902F912F922F8A2F79080319962FD0
:101F2A00972FCD2F0130F007003003180130F10749
:101F3A00003003180130F207003003180130F307AC
:101F4A00731CA82FA92FCD2F700883120313A0008A
:101F5A007108A1007208A2007308A3000130A4004E
:101F6A00230DA30CA20CA10CA00CA40BB52F2308C3
:101F7A00F3002208F2002108F1002008F0007A0A92
:101F8A000319C82FC92FCD2F0130A0002008FA0746
:101F9A007A0A0319D12FD22FD72F7A08031DD62FE9
:101FAA00D72FE52F0030F3000030F2000030F100A7
:101FBA000030F0007A08031DE32FE42FE52FF80123
:101FCA007A1CE82FE92FEB2FF217F12F7F308312BB
:101FDA000313A0002008F2057A0883120313A00055
:101FEA000310200CA1002108F300F81FFD2FFE2F7B
:061FFA00FF2FF3170800A1
:00000001FF
