:060000000A128A11BE2F56
:10001200F801F901292878087307F6007408F50039
:100022000318F50AF81F1628F5037508F700760875
:1000320084008317771C831300080A168A1101278C
:100042000A128A110130F8070318F90A0030F90779
:1000520078087307F6007408F5000318F50AF81F0C
:100062003328F5037508F700760884008317771C98
:1000720083130008031D3E283F280C280800FA00BD
:10008200831203135B085C04031948284928932848
:10009200F601F701872876087A07F30073088400CF
:1000A20031300006031D562857288128760870072C
:1000B200F300730884000008F400F5017208750665
:1000C200031D652871087406031D682869288128A4
:1000D2003030F30076087A07F4007408840073085D
:1000E20080000D30F400FB30F300F30B7628F40BA4
:1000F20076287B280130F1070318F20A0030F20754
:100102000130F6070318F70A0030F70776087A0776
:10011200F3007308840083130008031D91289228BA
:100122004C28FD28F801F901F22878087A07F30033
:100132007308840030300006031DA028A128BD28C2
:1001420078087007F300730884000008F400F501D2
:1001520072087506031DAF2871087406031DB228C4
:10016200B328BD283130F30078087A07F400740808
:10017200840073088000E32878087A07F300730884
:10018200840031300006031DC728C828E3287808F8
:100192007007F300730884000008F400F501720888
:1001A2007506031DD62871087406031DD928DA289E
:1001B200E3283030F30078087A07F40074088400EA
:1001C200730880000D30F400FB30F300F30BE728D6
:1001D200F40BE728EC280130F8070318F90A00307D
:1001E200F90778087A07F30073088400831300087C
:1001F200031DFC28FD2896280800013083120313F2
:100202008900EF3086000618072908293D290630A3
:1002120083120313BD001330BC00AD30BB00BB0B17
:100222001029BC0B1029BD0B10293D30831203137A
:10023200B800CC30B700CC30B600CD30B5000A12D1
:100242008A151E230A128A1130300A168A110127D2
:100252000A128A11831203136108620403193229F4
:1002620033293529E501E6015308540403193A29D3
:100272003B293D29E501E6018618402941297A29D1
:10028200063083120313BD001330BC00AD30BB0037
:10029200BB0B4929BC0B4929BD0B49293D308312AF
:1002A2000313B800CC30B700CC30B600CD30B50067
:1002B2000A128A151E230A128A1131300A168A116D
:1002C20001270A128A1183120313610862040319B7
:1002D2006B296C2970290130E5000030E6005308D3
:1002E20054040319752976297A290130E500003072
:1002F200E60006197D297E29B729063083120313E9
:10030200BD001330BC00AD30BB00BB0B8629BC0B5B
:100312008629BD0B86293D3083120313B800CC30E9
:10032200B700CC30B600CD30B5000A128A151E23B4
:100332000A128A1132300A168A1101270A128A1108
:1003420083120313610862040319A829A929AD299C
:100352000230E5000030E600530854040319B229C4
:10036200B329B7290230E5000030E6008619BA2920
:10037200BB29F429063083120313BD001330BC00DD
:10038200AD30BB00BB0BC329BC0BC329BD0BC329BA
:100392003D3083120313B800CC30B700CC30B60026
:1003A200CD30B5000A128A151E230A128A11333083
:1003B2000A168A1101270A128A118312031361088D
:1003C20062040319E529E629EA290330E500003031
:1003D200E600530854040319EF29F029F4290330E5
:1003E200E5000030E600DF3086000618F929FA2918
:1003F200332A063083120313BD001330BC00AD3024
:10040200BB00BB0B022ABC0B022ABD0B022A3D30E9
:1004120083120313B800CC30B700CC30B600CD3015
:10042200B5000A128A151E230A128A1134300A16DE
:100432008A1101270A128A118312031361086204C6
:100442000319242A252A292A0430E5000030E6006F
:100452005308540403192E2A2F2A332A0430E500A4
:100462000030E6008618362A372A702A06308312B0
:100472000313BD001330BC00AD30BB00BB0B3F2AE1
:10048200BC0B3F2ABD0B3F2A3D3083120313B80039
:10049200CC30B700CC30B600CD30B5000A128A1588
:1004A2001E230A128A1135300A168A1101270A12EE
:1004B2008A1183120313610862040319612A622AF2
:1004C200662A0530E5000030E6005308540403199B
:1004D2006B2A6C2A702A0530E5000030E600061906
:1004E200732A742AAD2A063083120313BD00133017
:1004F200BC00AD30BB00BB0B7C2ABC0B7C2ABD0B05
:100502007C2A3D3083120313B800CC30B700CC30C4
:10051200B600CD30B5000A128A151E230A128A11BE
:1005220036300A168A1101270A128A11831203131E
:100532006108620403199E2A9F2AA32A0630E50055
:100542000030E600530854040319A82AA92AAD2A48
:100552000630E5000030E6008619B02AB12AEA2A00
:10056200063083120313BD001330BC00AD30BB0054
:10057200BB0BB92ABC0BB92ABD0BB92A3D30831279
:100582000313B800CC30B700CC30B600CD30B50084
:100592000A128A151E230A128A1137300A168A1184
:1005A20001270A128A1183120313610862040319D4
:1005B200DB2ADC2AE02A0730E5000030E600530897
:1005C20054040319E52AE62AEA2A0730E500003036
:1005D200E600BF3086000618EF2AF02A292B0630E3
:1005E20083120313BD001330BC00AD30BB00BB0B44
:1005F200F82ABC0BF82ABD0BF82A3D3083120313EC
:10060200B800CC30B700CC30B600CD30B5000A12FD
:100612008A151E230A128A1138300A168A110127F6
:100622000A128A11831203136108620403191A2B36
:100632001B2B1F2B0830E5000030E6005308540442
:100642000319242B252B292B0830E5000030E60066
:1006520086182C2B2D2B662B063083120313BD001C
:100662001330BC00AD30BB00BB0B352BBC0B352BA4
:10067200BD0B352B3D3083120313B800CC30B700CD
:10068200CC30B600CD30B5000A128A151E230A12EC
:100692008A1139300A168A1101270A128A11831225
:1006A2000313610862040319572B582B5C2B093082
:1006B200E5000030E600530854040319612B622B55
:1006C200662B0930E5000030E6000619692B6A2B1B
:1006D2008D2B063083120313BD001330BC00AD30E6
:1006E200BB00BB0B722BBC0B722BBD0B722B3D30B4
:1006F20083120313B800CC30B700CC30B600CD3033
:10070200B5000A128A151E230A128A1141300A16EE
:100712008A1101270A128A11831203138619922B56
:10072200932BB62B063083120313BD001330BC008B
:10073200AD30BB00BB0B9B2BBC0B9B2BBD0B9B2B78
:100742003D3083120313B800CC30B700CC30B60072
:10075200CD30B5000A128A151E230A128A114230C0
:100762000A168A1101270A128A117F308312031393
:1007720086000618BD2BBE2BE12B06308312031315
:10078200BD001330BC00AD30BB00BB0BC62BBC0B95
:10079200C62BBD0BC62B3D3083120313B800CC30E1
:1007A200B700CC30B600CD30B5000A128A151E2330
:1007B2000A128A1143300A168A1101270A128A1173
:1007C200831203138618E62BE72B0A2C06308312BA
:1007D2000313BD001330BC00AD30BB00BB0BEF2BCD
:1007E200BC0BEF2BBD0BEF2B3D3083120313B80074
:1007F200CC30B700CC30B600CD30B5000A128A1525
:100802001E230A128A1144300A168A1101270A127B
:100812008A118312031306190F2C102C332C063065
:1008220083120313BD001330BC00AD30BB00BB0B01
:10083200182CBC0B182CBD0B182C3D308312031343
:10084200B800CC30B700CC30B600CD30B5000A12BB
:100852008A151E230A128A1145300A168A110127A7
:100862000A128A11831203138619382C392C5C2C34
:10087200063083120313BD001330BC00AD30BB0041
:10088200BB0B412CBC0B412CBD0B412C3D308312C8
:100892000313B800CC30B700CC30B600CD30B50071
:1008A2000A128A151E230A128A1146300A168A1162
:1008B20001270A128A1108008312031323088039C0
:1008C200F9007908A8002308F9007907FA007A08E4
:1008D200AE00A21F6D2C6E2C6F2C2E142E08031945
:1008E200732C742C832C2E0A031D782C792C812CCA
:1008F2000030A3000030A2000030A1000030A000B0
:10090200A2178B2C0030A3000030A2000030A100FF
:100912000030A00027088039F9007908A8062708C6
:10092200F9007907FA007A08AD00A61F992C9A2CD3
:100932009B2C2D142D0803199F2CA02CAF2C2D0AB3
:10094200031DA42CA52CAD2C0030A7000030A6005E
:100952000030A5000030A400A617B72C0030A70075
:100962000030A6000030A5000030A4002D080319B5
:10097200BB2CBC2CC12C2E08031DC02CC12CCA2C94
:100982000030A3000030A2000030A1000030A0001F
:10099200BD2F2008F9007908F00026080A128A15EE
:1009A20004200A128A11710883120313B40070081A
:1009B200B3003308F900FA01FB01FC017C08AC002A
:1009C2007B08AB007A08AA007908A9003408F9006C
:1009D200FA01FB01FC017C08B2007B08B1007A0835
:1009E200B0007908AF002108F9007908F000250865
:1009F2000A128A1504200A128A117108831203133B
:100A0200B4007008B3003308F900FA01FB01FC01DD
:100A12007908A9077A0803110318013E0319122D58
:100A2200AA077B0803110318013E0319192DAB070E
:100A32007C0803110318013E0319202DAC0734086A
:100A4200F900FA01FB01FC017908AF077A080311EA
:100A52000318013E03192E2DB0077B08031103185A
:100A6200013E0319352DB1077C0803110318013E1D
:100A720003193C2DB2072208F9007908F000240876
:100A82000A128A1504200A128A11710883120313AA
:100A9200B4007008B3003308F900FA01FB01FC014D
:100AA2007908A9077A0803110318013E03195A2D80
:100AB200AA077B0803110318013E0319612DAB0736
:100AC2007C0803110318013E0319682DAC07340892
:100AD200F900FA01FB01FC017908AF077A0803115A
:100AE2000318013E0319762DB0077B080311031882
:100AF200013E03197D2DB1077C0803110318013E45
:100B02000319842DB2070830F9000310A90DAA0DAC
:100B1200AB0DAC0DF90B862D2108F9007908F00018
:100B220024080A128A1504200A128A1171088312F3
:100B32000313B4007008B3003308F9003408FA0054
:100B4200FB01FC017908A9077A0803110318013E89
:100B52000319AC2DAA077B0803110318013E0319E0
:100B6200B32DAB077C0803110318013E0319BA2DFC
:100B7200AC072008F9007908F00025080A128A1546
:100B820004200A128A11710883120313B400700838
:100B9200B3003308F9003408FA00FB01FC017908BC
:100BA200A9077A0803110318013E0319D92DAA07D0
:100BB2007B0803110318013E0319E02DAB077C08E3
:100BC20003110318013E0319E72DAC070830F900A1
:100BD2000310A90DAA0DAB0DAC0DF90BE92D2008E0
:100BE200F9007908F00024080A128A1504200A1272
:100BF2008A11710883120313B4007008B30033081A
:100C0200F9003408FA00FB01FC017908A9077A0807
:100C120003110318013E03190F2EAA077B080311C3
:100C22000318013E0319162EAB077C0803110318A3
:100C3200013E03191D2EAC072108F9007908F000C6
:100C420026080A128A1504200A128A1171088312D0
:100C52000313B4007008B3003308F9003408FA0033
:100C6200FB01FC017908AF077A0803110318013E62
:100C720003193C2EB0077B0803110318013E031928
:100C8200432EB1077C0803110318013E03194A2EB3
:100C9200B2072208F9007908F00025080A128A151D
:100CA20004200A128A11710883120313B400700817
:100CB200B3003308F9003408FA00FB01FC0179089B
:100CC200AF077A0803110318013E0319692EB00712
:100CD2007B0803110318013E0319702EB1077C082B
:100CE20003110318013E0319772EB2072208F900F7
:100CF2007908F00026080A128A1504200A128A11BD
:100D0200710883120313B4007008B3003308F900AA
:100D12003408FA00FB01FC0108300310F90DFA0D4A
:100D2200FB0DFC0DFF3E031D8E2E7908AF077A08DE
:100D320003110318013E03199F2EB0077B0803110C
:100D42000318013E0319A62EB1077C0803110318EC
:100D5200013E0319AD2EB2072908F9002A08FA004C
:100D62002B08FB002C08FC0018300310FC0CFB0CB9
:100D7200FA0CF90CFF3E031DB62E7908AF077A086C
:100D820003110318013E0319C72EB0077B08031194
:100D92000318013E0319CE2EB1077C080311031874
:100DA200013E0319D52EB2070830F9000310A90D30
:100DB200AA0DAB0DAC0DF90BD72E2E082D07F9009D
:100DC200FA01FA0D7908823EB3007A080318013E4F
:100DD200FF3EB400092F0130F9000310AF0DB00D32
:100DE200B10DB20DF90BEE2EAC1FF82EF92EFA2E24
:100DF2002F140130F9000310A90DAA0DAB0DAC0D93
:100E0200F90BFC2EFF30B3070318B40AFF30B40706
:100E1200B11F0C2F0D2FEC2EAD01AC1F112F122F75
:100E22002E2FFF302905F900FF302A05FA00FF3086
:100E32002B05FB007F302C05FC007C087B047A0428
:100E420079040319252F262F292FAD01AD0A2E2F44
:100E52002F1C2C2F2D2F2E2F262F2D080319322F2A
:100E6200332F642F0130AF07003003180130B00771
:100E7200003003180130B107003003180130B20707
:100E8200321C442F452F642F2F08F9003008FA0036
:100E92003108FB003208FC000130FD007C0DFC0C27
:100EA200FB0CFA0CF90CFD0B4F2F7C08B2007B08EF
:100EB200B1007A08B0007908AF000130B307031817
:100EC200B40A0030B4073408803AFF0080307F0251
:100ED200031D6D2FFF303302031C702F712F7C2FE7
:100EE2007F3083120313B2008030B1000030B000B3
:100EF2000030AF00B12F831203133408803AFF0091
:100F020080307F02031D872F0130330203188A2F9E
:100F12008B2F972F003083120313B2000030B100E1
:100F22000030B0000030AF00A801B12F83120313CC
:100F32003308F9007908AE00FF30AF05FF30B00585
:100F42007F30B1050030B2052E1CA82FA92FAA2F81
:100F5200B1172E08F9000310790CFA007A08B200D2
:100F62002808F9007908B2043208A3003108A20067
:100F72003008A1002F08A00008008317F030FD0000
:100F82000A30FE004E30FF00903084000A168A11AB
:100F920016270A128A115E30FD000830FE00B130B9
:100FA200FF00103084000A168A1116270A128A11CD
:100FB2008313EE30FD000830FE00FF30FF00A0304A
:100FC20084000A168A1116270A128A116C30FD0053
:100FD2001630FE00C230FF005D3084000A168A110E
:100FE20016270A128A114D3084005D300A168A11C2
:0E0FF20093260A128A1183010A128A159E297B
:10100800F800F401F5017008F200F3017208F60027
:101018007308F700781C1128122818287608F40796
:101028000318F50A7708F50701300310F60DF70DD8
:10103800FF3E031D19280310F80C7808031D252806
:1010480026280E287508F1007408F00008000A1612
:101058008A11D1260A128A150A168A1159270A12E4
:101068008A15F701F80148287708DA3E84008313C7
:1010780000080A168A1101270A128A150130F70793
:101088000318F80A0030F807DA30F0000030F100F1
:101098000A168A113B270A128A157008FF3EF500C6
:1010A80071080318013EFF3EF60078087602031D1A
:1010B8005F287708750203186228632838280A16FB
:1010C8008A1159270A128A15080083120313C600C9
:1010D80046080A128A15F2210A128A150A168A1176
:1010E800E1260A128A1583120313570858040319B4
:1010F8007E287F2899281030F3000130F4000A1266
:101108008A1109200A128A150A168A11D1260A128A
:101118008A15831203134608F3000030F4000A12FC
:101128008A1109200A128A15A2283130F3000130E9
:10113800F4000A128A1109200A128A153330831220
:101148000313C500BB30C400DF30C300C30BAA289B
:10115800C40BAA28C50BAA280800533465346E347A
:1011680068346134203441347434753461346C34F7
:1011780069347A3461346434613400344F346B3404
:101188003A34463420346F34753420344E34653460
:101198006734613472343A34453400345334653436
:1011A8006E34683461342034633461346E346334AB
:1011B80065346C34613464346134003444346934E3
:1011C80067346934743465342034613420347334BA
:1011D80065346E346834613400342034203420346B
:1011E8004E346F34763461342034733465346E345D
:1011F80068346134003453346134693420345234EF
:101208006134743461346F34003420342034203431
:101218002034203420342034313420343134203404
:10122800313420343134003420345A346F346E343D
:1012380061343A3420343134203432342034333475
:1012480020343434003444346934673469347434B1
:1012580065343A342034003452346534613474349B
:10126800693476346134723400345F345F345F3407
:101278005F34003430343034303430340034353472
:101288003534353435340034313432343134323451
:1012980000340A168A11CD270A128A150A168A11ED
:1012A800E1260A128A150D3083120313CA00FB3097
:1012B800C900C90B5D29CA0B5D295030F300013004
:1012C800F4000A128A1109200A128A150A128A15CC
:1012D8002B200A128A15013083120313D300003021
:1012E800D40047034804031D7A297B298229DF306B
:1012F8000A128A1569200A128A159D2902304706A2
:101308004804031D882989299029E9300A128A1579
:1013180069200A128A159D29033047064804031DCF
:10132800962997299D29E4300A128A1569200A12FC
:101338008A15080083160313890188010F30860077
:1013480001308312031389000A168A11A7260A128C
:101358008A15013083120313CB000030CC00E52935
:101368005208C8005108C7000A128A154D210A12EE
:101378008A15DD290A128A15C3240A128A15DD295D
:101388005208003A0319C929DD295108013A0319FD
:10139800B429033A0319B429013A0319B429073ABD
:1013A8000319BE29013A0319DD29033A0319DD2976
:1013B800DD29013083120313CB070318CC0A003050
:1013C800CC0700304C02073003194B02031CED29EF
:1013D800EE29C429AD290A128A11002883120313A1
:1013E800C000C101C2010A3083120313E5000030B6
:1013F800E600032A0A128A11FE200A128A150A3008
:10140800831203136506660403190B2A0C2AFE29A6
:101418000D3083120313BF00FB30BE00BE0B122A2F
:10142800BF0B122A831203136608F1006508F00047
:101438000A128A15AE220A128A1583120313BE00F5
:1014480041084007BF003F0884003E08831380001E
:101458000130C1070318C20A0030C2074208803AA7
:10146800FF0080307F02031D3B2A04304102031C29
:101478003E2A3F2AF7298312031340080A128A15C5
:101488009A230A128A157B0883120313D8007A0854
:10149800D7000800443465347334613474346934D3
:1014A80076346134723420345A346F346E34613493
:1014B8000034533465346E34683461342034443431
:1014C800693473347034613472346F340034533493
:1014D80065346E346834613420345534733475346B
:1014E8006134723469346F340034533465346E3483
:1014F80068346134203463346F3472347234653440
:10150800743461340034533465346E34683461346F
:10151800203443346F346134633461346F340034BD
:10152800533465346E3468346134203443346F3452
:101538006E346634693467340034533465346E3439
:1015480068346134203465347234723461346434FC
:1015580061340034F52A313083120313D50000308A
:10156800D6001A2B323083120313D5000030D60070
:101578001A2B333083120313D5000030D6001A2BF0
:10158800343083120313D5000030D6001A2B3530BF
:1015980083120313D5000030D6001A2B363083127D
:1015A8000313D5000030D6001A2B373083120313EB
:1015B800D5000030D6001A2B383083120313D5001B
:1015C8000030D6001A2B393083120313D5000030AF
:1015D800D6001A2B303083120313D5000030D60002
:1015E8001A2B7108003A0319FA2A1A2B7008003AC4
:1015F8000319EE2A013A0319AF2A033A0319B62A46
:10160800013A0319BD2A073A0319C42A013A0319F2
:10161800CB2A033A0319D22A013A0319D92A0F3AD5
:101628000319E02A013A0319E72A1A2B8312031334
:1016380055080800443083120313A3007A30A2002F
:101648000030A1000030A0003808A7003708A60025
:101658003608A5003508A4000A128A115D240A126A
:101668008A15831203132308B8002208B70021083B
:10167800B6002008B500413083120313BA00ED30DC
:10168800B900B90B452BBA0B452B4A2B7A2B831281
:1016980003138901073083120313BA007C30B900A1
:1016A800B90B542BBA0B542B00003F308312031391
:1016B800AB008030AA000030A9000030A80038082C
:1016C800AF003708AE003608AD003508AC000A1682
:1016D8008A117A270A128A15831203132B08B80075
:1016E8002A08B7002908B6002808B5000030F3001A
:1016F8000030F2000030F1000030F00083120313D4
:101708003808F7003708F6003608F5003508F40001
:101718000A128A1521240A128A15031C942B952B68
:101728004B2B0F3083120313890008008312031315
:10173800A3000330A4000030A5000A168A11E12690
:101748000A128A150A168A11F1260A128A152130F8
:10175800F3000130F4000A128A1109200A128A15CE
:101768000A168A11D1260A128A158312031323082E
:10177800F3000030F4000A128A1109200A128A15AF
:1017880020300A168A1101270A128A15C830F30078
:101798000030F4000A128A1109200A128A157F30D3
:1017A800831203138600032C063083120313A2004E
:1017B8001330A100AD30A000A00BE02BA10BE02B53
:1017C800A20BE02B831203130619EB2BEC2BF52B42
:1017D800A401A50145300A168A1101270A128A15A3
:1017E800032C8619F82BF92B032C0130A4000030A8
:1017F800A50046300A168A1101270A128A150330F5
:10180800831203132406250403190B2C0C2CD82B44
:10181800333083120313A200BB30A100DF30A000D5
:10182800A00B142CA10B142CA20B142C8312031341
:101838002508FB002408FA00080000307005F800AD
:1018480000307105F90080307205FA007F307305A9
:10185800FB007B087A0479047804031D342C352CAA
:101868003D2C0030F3000030F2000030F100003071
:10187800F00000307405F80000307505F90080307C
:101888007605FA007F307705FB007B087A04790437
:101898007804031D502C512C592C0030F7000030CF
:1018A800F6000030F5000030F400F31F5C2C5D2CCE
:1018B800812C0030F8000030F9000030FA00803048
:1018C800FB007008F8027108031C710F6C2C6D2C5A
:1018D800F9027208031C720F722C732CFA02730837
:1018E800031C730F782C792CFB027B08F3007A0811
:1018F800F2007908F1007808F000F71F842C852C95
:10190800A92C0030F8000030F9000030FA008030CF
:10191800FB007408F8027508031C750F942C952CAD
:10192800F9027608031C760F9A2C9B2CFA0277088A
:10193800031C770FA02CA12CFB027B08F7007A0868
:10194800F6007908F5007808F4008030F306803056
:10195800F70677087302031DBB2C76087202031D75
:10196800BB2C75087102031DBB2C74087002031888
:10197800BE2CBF2CC12C0310C22C031408000A165D
:101988008A119E270A128A15EF30831203138600E4
:101998000130D9000030DA005F2D073083120313BD
:1019A800A2005830A1005930A000A00BD92CA10BDF
:1019B800D92CA20BD92C831203130618E42CE52C7E
:1019C800FF2C0D3083120313A100FB30A000A00BE5
:1019D800EB2CA10BEB2CB93083120313A0002008C9
:1019E800F0003130F1000030F200AA300A128A11FA
:1019F80040200A128A15831203138618042D052D18
:101A08001F2D0D3083120313A100FB30A000A00B83
:101A18000B2DA10B0B2DB93083120313A000200846
:101A2800F0003230F1000030F200AA300A128A11B8
:101A380040200A128A15831203130619242D252D16
:101A48003F2D0D3083120313A100FB30A000A00B23
:101A58002B2DA10B2B2DB93083120313A0002008C6
:101A6800F0003330F1000030F200AA300A128A1177
:101A780040200A128A15831203138619442D452D16
:101A88005F2D0D3083120313A100FB30A000A00BC3
:101A98004B2DA10B4B2DB93083120313A000200846
:101AA800F0003430F1000030F200AA300A128A1136
:101AB80040200A128A158312031359085A04031D79
:101AC800662D672DD12C0800730880398312031303
:101AD800A0002008F8007308A0002007A100210832
:101AE800FA00F21F782D792D7A2D7A147A080319C5
:101AF8007E2D7F2D8F2D7A0A031D832D842D8C2D0D
:101B08000030F3000030F2000030F1000030F00047
:101B1800F217F301972D0030F3000030F200003087
:101B2800F1000030F00077088039A0002008F900A3
:101B3800790878060319A12DA22DA32D7817770807
:101B4800A0002007A1002108F900F61FAC2DAD2D3B
:101B5800AE2D791479080319B22DB32DC32D790A46
:101B6800031DB72DB82DC02D0030F7000030F6004A
:101B78000030F5000030F400F617F701CB2D0030E7
:101B8800F7000030F6000030F5000030F4007A0865
:101B980079020318D02DD12D152E781FD42DD52DCF
:101BA800D92D8030A0002008F8067A08A000200867
:101BB800FB007908A0002008FA007B08A000200894
:101BC800F9007008A0002008FB007408A000200895
:101BD800F0007B08A0002008F4007108A00020088D
:101BE800FB007508A0002008F1007B08A000200871
:101BF800F5007208A0002008FB007608A000200865
:101C0800F2007B08A0002008F6007308A000200856
:101C1800FB007708A0002008F3007B08A00020083C
:101C2800F700FB017908A000A1012108A3007A08A8
:101C38002002A200031CA3032308803AFF0080307F
:101C48007F02031D292E1A302202031C2C2E2D2E52
:101C58006E2E7308720471047004031D342E362E20
:101C68000130372E003083120313A0002008FB0038
:101C78000030F3000030F2000030F1000030F000D6
:101C88007908A0002008FA00742E7B1C4C2E4D2EDB
:101C9800582E7B0883120313A0000310200C013870
:101CA800A1002108FB005A2E0310FB0C701C5D2EAE
:101CB8005E2E5F2EFB17013083120313A000730DF5
:101CC800F30CF20CF10CF00CA00B632E0130A00009
:101CD8002008FA0779087A02031C732E742E492EFD
:101CE800781B772E782EC72E7A08031D7C2E7D2E22
:101CF800862E0030F3000030F2000030F100003092
:101D0800F000FF2F7408F007750803110318013E4F
:101D180003198F2EF107760803110318013E0319E2
:101D2800962EF207770803110318013E03199D2E1A
:101D3800F307731CA02EA12E7F2F7B1CA42EA52E8B
:101D4800B02E7B0883120313A0000310200C013867
:101D5800A1002108FB00B22E0310FB0C701CB52E4D
:101D6800B62EB72EFB17013083120313A000730D94
:101D7800F30CF20CF10CF00CA00BBB2E0130A00000
:101D88002008FA077F2F7308803AFF007708803A07
:101D98007F02031DD92E76087202031DD92E7508FD
:101DA8007102031DD92E740870020318DC2EDD2E73
:101DB800372FFF3083120313A000FF30A100FF303C
:101DC800A200FF30A3007408A4007508A5007608D7
:101DD800A6007708A7007008A4027108031C710FF9
:101DE800F62EF72EA5027208031C720FFC2EFD2E8C
:101DF800A6027308031C730F022F032FA7022408DF
:101E0800A00725080318250F0A2F0B2FA10726085E
:101E18000318260F102F112FA20727080318270AC7
:101E2800A3072308F3002208F2002108F100200884
:101E3800F0008030A0002008F806FB09FB0A7B08A8
:101E4800031D272F282F452F0130F00700300318D6
:101E58000130F107003003180130F2070030031891
:101E68000130F307452F7408F0027508031C750F3D
:101E7800F1027608031C760FF2027708031C770F2D
:101E8800F3027308720471047004031D4C2F4D2F64
:101E98007B2F7B08031D512F522F7B2F0030F3001F
:101EA8000030F2000030F1000030F000FF2F013068
:101EB80083120313A0000310F00DF10DF20DF30DC2
:101EC800A00B5F2FFB1F692F6A2F6B2F70147B1CD1
:101ED8006E2F6F2F722F0314FB0D742F0310FB0D41
:101EE8007A080319782F792F7B2F0130FA02F21F15
:101EF8007E2F7F2F5B2FF901FB1F832F842F922FBB
:101F08007B087F390319892F8A2F8D2FF901F90A48
:101F1800922F701C902F912F922F8A2F79080319D6
:101F2800962F972FCD2F0130F0070030031801307E
:101F3800F107003003180130F207003003180130B0
:101F4800F307731CA82FA92FCD2F70088312031332
:101F5800A0007108A1007208A2007308A300013054
:101F6800A400230DA30CA20CA10CA00CA40BB52F4C
:101F78002308F3002208F2002108F1002008F000ED
:101F88007A0A0319C82FC92FCD2F0130A0002008C5
:101F9800FA077A0A0319D12FD22FD72F7A08031DEF
:101FA800D62FD72FE52F0030F3000030F200003095
:101FB800F1000030F0007A08031DE32FE42FE52F2D
:101FC800F8017A1CE82FE92FEB2FF217F12F7F3059
:101FD80083120313A0002008F2057A088312031362
:101FE800A0000310200CA1002108F300F81FFD2F0A
:081FF800FE2FFF2FF317080074
:102D260064008001840A0406031900340406942E04
:102D36000730831603139F0083120313851483162B
:102D46000313850188010800FF30831603138500ED
:102D56008130831203139F008030831603139F0074
:102D66000800831203138512051285110A168A11AB
:102D760025270A168A118312031385150800CC34F9
:102D860000340134003401340034013400340A3490
:102D9600003430343034303430340034C0308312B0
:102DA600031388008512051285110A168A11252734
:102DB6000A168A118312031385150800013083123F
:102DC600031388008512051285110A168A11252714
:102DD6000A168A118312031385150800023083121E
:102DE600031388008512051285110A168A112527F4
:102DF6000A168A118312031385150800F200720859
:102E06008312031388008516051285110A168A1186
:102E160025270A168A1183120313851508007E08D2
:102E26008A007F0882000A168A1112270A168A115A
:102E36008000840A04087D0603190034FF0A03197A
:102E4600FE0A162FF001F1010130F0070318F10A0E
:102E56000030F1077108803AFF0093307F02031DAE
:102E6600362F88307002031C392F3A2F272F08007F
:102E76007008F2007108F300462F0130F2070318BC
:102E8600F30A0030F307720884008317731C831358
:102E96000008031D4F2F502F402F70087202F000BC
:102EA6007108031C710A7302F10008000A168A11E0
:102EB600D1260A168A11F301F40120300A168A1166
:102EC60001270A168A110130F3070318F40A0030A5
:102ED600F4077408803AFF0080307F02031D752FC7
:102EE60006307302031C782F792F602F080080307C
:102EF60083120313AB062F08F3002E08F2002D08E9
:102F0600F1002C08F0002B08F7002A08F600290823
:102F1600F5002808F4000A128A1568250A168A118F
:102F2600730883120313AB007208AA007108A90084
:102F36007008A80008000A168A11E1260A168A11E6
:102F46000A168A11F1260A168A11B930F3000030E2
:102F5600F4000A128A1109200A168A110A168A1121
:102F6600D1260A168A11AA30F3000030F4000A129C
:102F76008A1109200A168A114D30FC001930FB000F
:102F86004F30FA00FA0BC52FFB0BC52FFC0BC52FD4
:102F9600CC2F08000A168A119B260A168A110130C0
:102FA6008312031388000A168A11B4260A168A1198
:102FB60038308312031388000A168A11B4260A16BB
:102FC6008A110E308312031388000A168A11B4265A
:102FD6000A168A1106308312031388000A168A110C
:102FE600B4260A168A1180308312031388000A1643
:0A2FF6008A11B4260A168A11080099
:00000001FF
