:100000000A128A11D92FF6000D280130F200720869
:10001000F6070130F2007208F007700884008313BD
:100020000008F200760884000008F30072087302EA
:10003000F4007408F5007508031D1F2820282728E0
:10004000760884000008031D26282728052875083F
:10005000F000F101F01BF10308000A168A11FE24DA
:100060000A128A1120300A168A111E250A128A11D4
:10007000F701F8014B287708A03E8400831300089D
:100080000A168A111E250A128A110130F707031871
:10009000F80A0030F807A0300A168A1158250A120B
:1000A0008A117008FF3EF50071080318013EFF3EFB
:1000B000F60078087602031D5F287708750203189A
:1000C000622863283B2820300A168A111E250A124E
:1000D0008A1108008312031323088039F900790874
:1000E000A8002308F9007907FA007A08AE00A21FD9
:1000F0007A287B287C282E142E0803198028812832
:1001000090282E0A031D852886288E280030A300FB
:100110000030A2000030A1000030A000A2179828F3
:100120000030A3000030A2000030A1000030A00089
:1001300027088039F9007908A8062708F900790707
:10014000FA007A08AD00A61FA628A728A8282D1413
:100150002D080319AC28AD28BC282D0A031DB12891
:10016000B228BA280030A7000030A6000030A50051
:100170000030A400A617C4280030A7000030A60055
:100180000030A5000030A4002D080319C828C92894
:10019000CE282E08031DCD28CE28D7280030A30056
:1001A0000030A2000030A1000030A000CA2B2008BF
:1001B000F9007908F00026080A168A11B3250A12F8
:1001C0008A11710883120313B4007008B300330856
:1001D000F900FA01FB01FC017C08AC007B08AB00D4
:1001E0007A08AA007908A9003408F900FA01FB018D
:1001F000FC017C08B2007B08B1007A08B0007908E5
:10020000AF002108F9007908F00025080A168A11C4
:10021000B3250A128A11710883120313B4007008FF
:10022000B3003308F900FA01FB01FC017908A907C2
:100230007A0803110318013E03191F29AA077B0836
:1002400003110318013E03192629AB077C0803118B
:100250000318013E03192D29AC073408F900FA01EF
:10026000FB01FC017908AF077A0803110318013E6E
:1002700003193B29B0077B0803110318013E03193A
:100280004229B1077C0803110318013E03194929CB
:10029000B2072208F9007908F00024080A168A112A
:1002A000B3250A128A11710883120313B40070086F
:1002B000B3003308F900FA01FB01FC017908A90732
:1002C0007A0803110318013E03196729AA077B085E
:1002D00003110318013E03196E29AB077C080311B3
:1002E0000318013E03197529AC073408F900FA0117
:1002F000FB01FC017908AF077A0803110318013EDE
:1003000003198329B0077B0803110318013E031961
:100310008A29B1077C0803110318013E03199129AA
:10032000B2070830F9000310A90DAA0DAB0DAC0DF2
:10033000F90B93292108F9007908F00024080A161E
:100340008A11B3250A128A11710883120313B400AB
:100350007008B3003308F9003408FA00FB01FC010F
:100360007908A9077A0803110318013E0319B9296E
:10037000AA077B0803110318013E0319C029AB0724
:100380007C0803110318013E0319C729AC07200894
:10039000F9007908F00025080A168A11B3250A1217
:1003A0008A11710883120313B4007008B300330874
:1003B000F9003408FA00FB01FC017908A9077A0862
:1003C00003110318013E0319E629AA077B0803114C
:1003D0000318013E0319ED29AB077C08031103182C
:1003E000013E0319F429AC070830F9000310A90DE8
:1003F000AA0DAB0DAC0DF90BF6292008F900790810
:10040000F00024080A168A11B3250A128A1171080D
:1004100083120313B4007008B3003308F9003408E2
:10042000FA00FB01FC017908A9077A0803110318F7
:10043000013E03191C2AAA077B0803110318013E79
:100440000319232AAB077C0803110318013E031983
:100450002A2AAC072108F9007908F00026080A16B4
:100460008A11B3250A128A11710883120313B4008A
:100470007008B3003308F9003408FA00FB01FC01EE
:100480007908AF077A0803110318013E0319492AB6
:10049000B0077B0803110318013E0319502AB10766
:1004A0007C0803110318013E0319572AB2072208DA
:1004B000F9007908F00025080A168A11B3250A12F6
:1004C0008A11710883120313B4007008B300330853
:1004D000F9003408FA00FB01FC017908AF077A083B
:1004E00003110318013E0319762AB0077B08031194
:1004F0000318013E03197D2AB1077C080311031874
:10050000013E0319842AB2072208F9007908F00095
:1005100026080A168A11B3250A128A117108831255
:100520000313B4007008B3003308F9003408FA006C
:10053000FB01FC0108300310F90DFA0DFB0DFC0D59
:10054000FF3E031D9B2A7908AF077A0803110318A1
:10055000013E0319AC2AB0077B0803110318013EC2
:100560000319B32AB1077C0803110318013E0319CC
:10057000BA2AB2072908F9002A08FA002B08FB005A
:100580002C08FC0018300310FC0CFB0CFA0CF90CC6
:10059000FF3E031DC32A7908AF077A080311031829
:1005A000013E0319D42AB0077B0803110318013E4A
:1005B0000319DB2AB1077C0803110318013E031954
:1005C000E22AB2070830F9000310A90DAA0DAB0DFD
:1005D000AC0DF90BE42A2E082D07F900FA01FA0DEB
:1005E0007908823EB3007A080318013EFF3EB4004A
:1005F000162B0130F9000310AF0DB00DB10DB20D87
:10060000F90BFB2AAC1F052B062B072B2F140130EF
:10061000F9000310A90DAA0DAB0DAC0DF90B092BB8
:10062000FF30B3070318B40AFF30B407B11F192B0A
:100630001A2BF92AAD01AC1F1E2B1F2B3B2BFF30B1
:100640002905F900FF302A05FA00FF302B05FB00D1
:100650007F302C05FC007C087B047A0479040319A4
:10066000322B332B362BAD01AD0A3B2B2F1C392BF4
:100670003A2B3B2B332B2D0803193F2B402B712B8F
:100680000130AF07003003180130B0070030031805
:100690000130B107003003180130B207321C512B72
:1006A000522B712B2F08F9003008FA003108FB009B
:1006B0003208FC000130FD007C0DFC0CFB0CFA0C38
:1006C000F90CFD0B5C2B7C08B2007B08B1007A08AA
:1006D000B0007908AF000130B3070318B40A003046
:1006E000B4073408803AFF0080307F02031D7A2B64
:1006F000FF303302031C7D2B7E2B892B7F3083122E
:100700000313B2008030B1000030B0000030AF0001
:10071000BE2B831203133408803AFF0080307F021F
:10072000031D942B013033020318972B982BA42B15
:10073000003083120313B2000030B1000030B0006B
:100740000030AF00A801BE2B831203133308F90059
:100750007908AE00FF30AF05FF30B0057F30B1053E
:100760000030B2052E1CB52BB62BB72BB1172E08B7
:10077000F9000310790CFA007A08B2002808F90091
:100780007908B2043208A3003108A2003008A100A1
:100790002F08A00008000A168A11EE240A128A11F6
:1007A00073037404031DD52BD62B882C0A168A11CB
:1007B000FE240A128A113E300A168A111E250A12D8
:1007C0008A1153300A168A111E250A128A116530C1
:1007D0000A168A111E250A128A116E300A168A110B
:1007E0001E250A128A1168300A168A111E250A125D
:1007F0008A1161300A168A111E250A128A112030C8
:100800000A168A111E250A128A1143300A168A1105
:100810001E250A128A116F300A168A111E250A1225
:100820008A116E300A168A111E250A128A11663044
:100830000A168A111E250A128A1169300A168A11AF
:100840001E250A128A1169300A168A111E250A12FB
:100850008A1167300A168A111E250A128A110A1691
:100860008A11DE240A128A1120300A168A111E25E6
:100870000A128A1153300A168A111E250A128A1189
:1008800065300A168A111E250A128A116E300A1660
:100890008A111E250A128A1168300A168A111E252D
:1008A0000A128A1161300A168A111E250A128A114B
:1008B00020300A168A111E250A128A1155300A168E
:1008C0008A111E250A128A1173300A168A111E25F2
:1008D0000A128A1175300A168A111E250A128A1107
:1008E00061300A168A111E250A128A1172300A1600
:1008F0008A111E250A128A1169300A168A111E25CC
:100900000A128A116F300A168A111E250A128A11DC
:10091000023073067404031D8E2C8F2C3B2D0A1697
:100920008A11FE240A128A113E300A168A111E25E7
:100930000A128A1153300A168A111E250A128A11C8
:1009400065300A168A111E250A128A116E300A169F
:100950008A111E250A128A1168300A168A111E256C
:100960000A128A1161300A168A111E250A128A118A
:1009700020300A168A111E250A128A1155300A16CD
:100980008A111E250A128A1173300A168A111E2531
:100990000A128A1175300A168A111E250A128A1146
:1009A00061300A168A111E250A128A1172300A163F
:1009B0008A111E250A128A1169300A168A111E250B
:1009C0000A128A116F300A168A111E250A128A111C
:1009D0000A168A11DE240A128A1120300A168A1198
:1009E0001E250A128A1153300A168A111E250A1270
:1009F0008A1165300A168A111E250A128A116E3074
:100A00000A168A111E250A128A1168300A168A11DE
:100A10001E250A128A1161300A168A111E250A1231
:100A20008A1120300A168A111E250A128A114330B3
:100A30000A168A111E250A128A116F300A168A11A7
:100A40001E250A128A1161300A168A111E250A1201
:100A50008A1163300A168A111E250A128A11613022
:100A60000A168A111E250A128A116F300A168A1177
:100A70001E250A128A11033073067404031D412DCA
:100A8000422DF42D0A168A11FE240A128A113E30D4
:100A90000A168A111E250A128A1153300A168A1163
:100AA0001E250A128A1165300A168A111E250A129D
:100AB0008A116E300A168A111E250A128A116830B0
:100AC0000A168A111E250A128A1161300A168A1125
:100AD0001E250A128A1120300A168A111E250A12B2
:100AE0008A1143300A168A111E250A128A116F30A4
:100AF0000A168A111E250A128A1161300A168A11F5
:100B00001E250A128A1163300A168A111E250A123E
:100B10008A1161300A168A111E250A128A116F3055
:100B20000A168A111E250A128A110A168A11DE2453
:100B30000A128A1120300A168A111E250A128A11F9
:100B400043300A168A111E250A128A116F300A16BE
:100B50008A111E250A128A116E300A168A111E2564
:100B60000A128A1166300A168A111E250A128A1183
:100B700069300A168A111E250A128A1167300A1670
:100B80008A111E250A128A1120300A168A111E2582
:100B90000A128A1144300A168A111E250A128A1175
:100BA00069300A168A111E250A128A1173300A1634
:100BB0008A111E250A128A1170300A168A111E2502
:100BC0000A128A1161300A168A111E250A128A1128
:100BD00072300A168A111E250A128A116F300A16FF
:100BE0008A111E250A128A11043073067404031D2B
:100BF000FA2DFB2DB92E0A168A11FE240A128A112B
:100C00003E300A168A111E250A128A1143300A162E
:100C10008A111E250A128A116F300A168A111E25A2
:100C20000A128A116E300A168A111E250A128A11BA
:100C300066300A168A111E250A128A1169300A16B0
:100C40008A111E250A128A1167300A168A111E257A
:100C50000A128A1120300A168A111E250A128A11D8
:100C600044300A168A111E250A128A1169300A16A2
:100C70008A111E250A128A1173300A168A111E253E
:100C80000A128A1170300A168A111E250A128A1158
:100C900061300A168A111E250A128A1172300A164C
:100CA0008A111E250A128A116F300A168A111E2512
:100CB0000A128A110A168A11DE240A128A112030B9
:100CC0000A168A111E250A128A1144300A168A1140
:100CD0001E250A128A1165300A168A111E250A126B
:100CE0008A1173300A168A111E250A128A11613080
:100CF0000A168A111E250A128A1174300A168A11E0
:100D00001E250A128A1169300A168A111E250A1236
:100D10008A1176300A168A111E250A128A1161304C
:100D20000A168A111E250A128A1172300A168A11B1
:100D30001E250A128A1120300A168A111E250A124F
:100D40008A115A300A168A111E250A128A116F302A
:100D50000A168A111E250A128A116E300A168A1185
:100D60001E250A128A1161300A168A111E250A12DE
:100D70008A11053073067404031DBF2EC02E782F10
:100D80000A168A11FE240A128A113E300A168A11A6
:100D90001E250A128A1144300A168A111E250A12CB
:100DA0008A1165300A168A111E250A128A117330BB
:100DB0000A168A111E250A128A1161300A168A1132
:100DC0001E250A128A1174300A168A111E250A126B
:100DD0008A1169300A168A111E250A128A11763084
:100DE0000A168A111E250A128A1161300A168A1102
:100DF0001E250A128A1172300A168A111E250A123D
:100E00008A1120300A168A111E250A128A115A30B8
:100E10000A168A111E250A128A116F300A168A11C3
:100E20001E250A128A116E300A168A111E250A1210
:100E30008A1161300A168A111E250A128A110A16B1
:100E40008A11DE240A128A1120300A168A111E2500
:100E50000A128A1152300A168A111E250A128A11A4
:100E600065300A168A111E250A128A1161300A1687
:100E70008A111E250A128A1174300A168A111E253B
:100E80000A128A1169300A168A111E250A128A115D
:100E900076300A168A111E250A128A1161300A1646
:100EA0008A111E250A128A1172300A168A111E250D
:100EB0000A128A1120300A168A111E250A128A1176
:100EC0005A300A168A111E250A128A116F300A1624
:100ED0008A111E250A128A116E300A168A111E25E1
:100EE0000A128A1161300A168A111E250A128A1105
:100EF000063073067404031D7E2F7F2FD82F0A1629
:100F00008A11FE240A128A113E300A168A111E2501
:100F10000A128A1152300A168A111E250A128A11E3
:100F200065300A168A111E250A128A1161300A16C6
:100F30008A111E250A128A1174300A168A111E257A
:100F40000A128A1169300A168A111E250A128A119C
:100F500076300A168A111E250A128A1161300A1685
:100F60008A111E250A128A1172300A168A111E254C
:100F70000A128A1120300A168A111E250A128A11B5
:100F80007A300A168A111E250A128A116F300A1643
:100F90008A111E250A128A116E300A168A111E2520
:100FA0000A128A1161300A168A111E250A128A1144
:100FB00008008313AF30FD001430FE00CF30FF0077
:100FC000A03084000A168A1133250A128A116E3065
:100FD000FD001530FE000E30FF005E3084000A1662
:100FE0008A1133250A128A114A3084005E300A16AB
:100FF0008A11AD240A128A1183010A168A116C2EF5
:101004000A168A11B5240A128A15013083120313B1
:1010140088000A168A11C1240A128A1538308312EC
:10102400031388000A168A11C1240A128A150E3085
:101034008312031388000A168A11C1240A128A151E
:1010440006308312031388000A168A11C1240A1277
:101054008A1580308312031388000A168A11C1246A
:101064000A128A150800083083120313C3000030E3
:10107400C400622AFF3083120313C3070318C40A8F
:10108400FF30C4074408803AFF0080307F02031D0C
:101094004D2801304302031C50285128A8280A3047
:1010A40083120313E2000030E3006C280A128A154D
:1010B40003250A128A15023083120313C0008630F6
:1010C400BF009830BE00BE0B6528BF0B6528C00B5F
:1010D400652800000A3083120313620663040319AF
:1010E400742875285828A8280330BE003E08D80064
:1010F400CF280530BE003E08D800CF280730BE00F8
:101104003E08D800CF280930BE003E08D800CF28BA
:101114000B30BE003E08D800CF280D30BE003E087C
:10112400D800CF280F30BE003E08D800CF28113099
:10113400BE003E08D800CF281330BE003E08D800B9
:10114400CF280130BE003E08D800CF2883120313F5
:101154006308003A0319AF28CF286208003A03193C
:10116400A328013A03197628033A03197B28013A84
:1011740003198028073A03198528013A03198A2894
:10118400033A03198F28013A031994280F3A0319D3
:101194009928013A03199E28CF285808BE003E0812
:1011A400F4005930BF003F08F00059300A168A1184
:1011B40071250A128A150A168A1104260A128A153A
:1011C400593083120313BE003E08F00069300A123E
:1011D4008A1103200A128A1570087104031DF3286A
:1011E400F428772983120313DE01DF01FF30C300E3
:1011F400FF30C4000A168A11EE240A128A150A1650
:101204008A11FE240A128A1520300A168A111E2514
:101214000A128A1553300A168A111E250A128A15D3
:1012240065300A168A111E250A128A156E300A16AE
:101234008A111E250A128A1568300A168A111E257B
:101244000A128A1561300A168A111E250A128A1595
:1012540020300A168A111E250A128A1563300A16CE
:101264008A111E250A128A156F300A168A111E2544
:101274000A128A1572300A168A111E250A128A1554
:1012840072300A168A111E250A128A1565300A164A
:101294008A111E250A128A1574300A168A111E250F
:1012A4000A128A1561300A168A111E250A128A1535
:1012B400333083120313C000BB30BF00DF30BE00E5
:1012C400BE0B6229BF0B6229C00B62293F30831217
:1012D4000313B8003330B7003330B6003330B500F1
:1012E4000A168A11E2260A128A150430831203139D
:1012F40043064404031D7F298029532A5930BE0024
:101304003E08F00069300A128A1103200A128A1575
:101314007008710403198F299029532A0A168A1117
:10132400EE240A128A150A168A11FE240A128A1554
:10133400013083120313DE000030DF0020300A1670
:101344008A111E250A128A1553300A168A111E257F
:101354000A128A1565300A168A111E250A128A1580
:101364006E300A168A111E250A128A1568300A166A
:101374008A111E250A128A1561300A168A111E2541
:101384000A128A1520300A168A111E250A128A1595
:1013940065300A168A111E250A128A1572300A1639
:1013A4008A111E250A128A1572300A168A111E2500
:1013B4000A128A1561300A168A111E250A128A1524
:1013C40064300A168A111E250A128A1561300A161B
:1013D4008A111E250A128A151A3083120313C000BB
:1013E4005E30BF006D30BE00BE0BF629BF0BF62980
:1013F400C00BF629FD293F3083120313B8000030D7
:10140400B7000030B6000030B5000A168A11E22693
:101414000A128A15103083120313C0003930BF003A
:101424000D30BE00BE0B142ABF0B142AC00B142AA5
:101434003F3083120313B8000030B7000030B60009
:101444000030B5000A168A11E2260A128A158312A0
:101454000313C101C201392A4108593E8400831390
:1014640080010130C1070318C20A0030C207593095
:101474000A168A1158250A128A157008FF3E83122B
:101484000313BE0071080318013EFF3EBF0042086B
:101494003F02031D4F2A41083E020318522A532AD1
:1014A4002E2A831203134408803AFF0080307F02FF
:1014B400031D5E2A013043020318612A622A3C2874
:1014C400831203135E085F04031D692A6A2A532AE0
:1014D40008007308803983120313A0002008F80061
:1014E4007308A0002007A1002108FA00F21F7B2A3C
:1014F4007C2A7D2A7A147A080319812A822A922A5C
:101504007A0A031D862A872A8F2A0030F3000030C6
:10151400F2000030F1000030F000F217F3019A2AD3
:101524000030F3000030F2000030F1000030F00031
:1015340077088039A0002008F90079087806031993
:10154400A42AA52AA62A78177708A0002007A100B4
:101554002108F900F61FAF2AB02AB12A79147908B4
:101564000319B52AB62AC62A790A031DBA2ABB2A40
:10157400C32A0030F7000030F6000030F5000030D8
:10158400F400F617F701CE2A0030F7000030F60019
:101594000030F5000030F4007A0879020318D32AE9
:1015A400D42A182B781FD72AD82ADC2A8030A00006
:1015B4002008F8067A08A0002008FB007908A0009B
:1015C4002008FA007B08A0002008F9007008A00099
:1015D4002008FB007408A0002008F0007B08A0008D
:1015E4002008F4007108A0002008FB007508A00082
:1015F4002008F1007B08A0002008F5007208A00074
:101604002008FB007608A0002008F2007B08A00058
:101614002008F6007308A0002008FB007708A0004B
:101624002008F3007B08A0002008F700FB017908DC
:10163400A000A1012108A3007A082002A200031C33
:10164400A3032308803AFF0080307F02031D2C2B64
:101654001A302202031C2F2B302B712B73087204B7
:1016640071047004031D372B392B01303A2B0030E1
:1016740083120313A0002008FB000030F3000030A5
:10168400F2000030F1000030F0007908A0002008DA
:10169400FA00772B7B1C4F2B502B5B2B7B08831280
:1016A4000313A0000310200C0138A1002108FB0043
:1016B4005D2B0310FB0C701C602B612B622BFB1742
:1016C400013083120313A000730DF30CF20CF10C20
:1016D400F00CA00B662B0130A0002008FA07790853
:1016E4007A02031C762B772B4C2B781B7A2B7B2BC3
:1016F400CA2B7A08031D7F2B802B892B0030F30023
:101704000030F2000030F1000030F000022D7408C7
:10171400F007750803110318013E0319922BF10712
:10172400760803110318013E0319992BF207770871
:1017340003110318013E0319A02BF307731CA32BF9
:10174400A42B822C7B1CA72BA82BB32B7B088312E6
:101754000313A0000310200C0138A1002108FB0092
:10176400B52B0310FB0C701CB82BB92BBA2BFB1731
:10177400013083120313A000730DF30CF20CF10C6F
:10178400F00CA00BBE2B0130A0002008FA07822C1D
:101794007308803AFF007708803A7F02031DDC2B30
:1017A40076087202031DDC2B75087102031DDC2B05
:1017B400740870020318DF2BE02B3A2CFF308312DD
:1017C4000313A000FF30A100FF30A200FF30A300EC
:1017D4007408A4007508A5007608A6007708A70079
:1017E4007008A4027108031C710FF92BFA2BA502CF
:1017F4007208031C720FFF2B002CA6027308031C33
:10180400730F052C062CA7022408A007250803182B
:10181400250F0D2C0E2CA10726080318260F132CB8
:10182400142CA20727080318270AA3072308F30088
:101834002208F2002108F1002008F0008030A00006
:101844002008F806FB09FB0A7B08031D2A2C2B2C15
:10185400482C0130F007003003180130F107003044
:1018640003180130F207003003180130F307482C45
:101874007408F0027508031C750FF1027608031C46
:10188400760FF2027708031C770FF30273087204D1
:1018940071047004031D4F2C502C7E2C7B08031DF7
:1018A400542C552C7E2C0030F3000030F200003014
:1018B400F1000030F000022D013083120313A00068
:1018C4000310F00DF10DF20DF30DA00B622CFB1FB4
:1018D4006C2C6D2C6E2C70147B1C712C722C752C42
:1018E4000314FB0D772C0310FB0D7A0803197B2CD2
:1018F4007C2C7E2C0130FA02F21F812C822C5E2C6F
:10190400F901FB1F862C872C952C7B087F39031942
:101914008C2C8D2C902CF901F90A952C701C932C8D
:10192400942C952C8D2C79080319992C9A2CD02C55
:101934000130F007003003180130F10700300318BC
:101944000130F207003003180130F307731CAB2C8D
:10195400AC2CD02C700883120313A0007108A100D2
:101964007208A2007308A3000130A400230DA30C85
:10197400A20CA10CA00CA40BB82C2308F300220881
:10198400F2002108F1002008F0007A0A0319CB2C98
:10199400CC2CD02C0130A0002008FA077A0A0319B5
:1019A400D42CD52CDA2C7A08031DD92CDA2CE82C6B
:1019B4000030F3000030F2000030F1000030F0009D
:1019C4007A08031DE62CE72CE82CF8017A1CEB2C92
:1019D400EC2CEE2CF217F42C7F3083120313A000AE
:1019E4002008F2057A0883120313A0000310200CC8
:1019F400A1002108F300F81F002D012D022DF3177B
:101A040008000130831203138900EF3086000618A2
:101A14000C2D0D2D3A2D063083120313BD00133007
:101A2400BC00AD30BB00BB0B152DBC0B152DBD0B85
:101A3400152D3D3083120313B800CC30B700CC30E1
:101A4400B600CD30B5000A168A11E2260A128A15AC
:101A540030300A168A111E250A128A1583120313BE
:101A64005E035F04031D372D382D3A2DE201E30197
:101A740086183D2D3E2D6D2D063083120313BD00B7
:101A84001330BC00AD30BB00BB0B462DBC0B462D48
:101A9400BD0B462D3D3083120313B800CC30B70084
:101AA400CC30B600CD30B5000A168A11E2260A12EF
:101AB4008A1531300A168A111E250A128A158312D4
:101AC40003135E035F04031D682D692D6D2D013022
:101AD400E2000030E3000619702D712DA02D0630B0
:101AE40083120313BD001330BC00AD30BB00BB0B2D
:101AF400792DBC0B792DBD0B792D3D308312031349
:101B0400B800CC30B700CC30B600CD30B5000A16E2
:101B14008A11E2260A128A1532300A168A111E2503
:101B24000A128A15831203135E035F04031D9B2D9F
:101B34009C2DA02D0230E2000030E3008619A32D75
:101B4400A42DD32D063083120313BD001330BC0023
:101B5400AD30BB00BB0BAC2DBC0BAC2DBD0BAC2D09
:101B64003D3083120313B800CC30B700CC30B6003C
:101B7400CD30B5000A168A11E2260A128A153330CE
:101B84000A168A111E250A128A15831203135E038C
:101B94005F04031DCE2DCF2DD32D0330E200003082
:101BA400E300DF3086000618D82DD92D082E063024
:101BB40083120313BD001330BC00AD30BB00BB0B5C
:101BC400E12DBC0BE12DBD0BE12D3D308312031340
:101BD400B800CC30B700CC30B600CD30B5000A1612
:101BE4008A11E2260A128A1534300A168A111E2531
:101BF4000A128A15831203135E035F04031D032E66
:101C0400042E082E0430E2000030E30086180B2E68
:101C14000C2E3B2E063083120313BD001330BC0080
:101C2400AD30BB00BB0B142EBC0B142EBD0B142EFD
:101C34003D3083120313B800CC30B700CC30B6006B
:101C4400CD30B5000A168A11E2260A128A153530FB
:101C54000A168A111E250A128A15831203135E03BB
:101C64005F04031D362E372E3B2E0530E200003074
:101C7400E30006193E2E3F2E6E2E06308312031308
:101C8400BD001330BC00AD30BB00BB0B472EBC0BFA
:101C9400472EBD0B472E3D3083120313B800CC30C2
:101CA400B700CC30B600CD30B5000A168A11E22652
:101CB4000A128A1536300A168A111E250A128A1546
:101CC400831203135E035F04031D692E6A2E6E2EB6
:101CD4000630E2000030E3008619712E722EA12E28
:101CE400063083120313BD001330BC00AD30BB00BB
:101CF400BB0B7A2EBC0B7A2EBD0B7A2E3D30831291
:101D04000313B800CC30B700CC30B600CD30B500EA
:101D14000A168A11E2260A128A1537300A168A111F
:101D24001E250A128A15831203135E035F04031D22
:101D34009C2E9D2EA12E0730E2000030E300BF3020
:101D440086000618A62EA72ED62E0630831203135D
:101D5400BD001330BC00AD30BB00BB0BAF2EBC0BC1
:101D6400AF2EBD0BAF2E3D3083120313B800CC3021
:101D7400B700CC30B600CD30B5000A168A11E22681
:101D84000A128A1538300A168A111E250A128A1573
:101D9400831203135E035F04031DD12ED22ED62EAD
:101DA4000830E2000030E3008618D92EDA2E092F1D
:101DB400063083120313BD001330BC00AD30BB00EA
:101DC400BB0BE22EBC0BE22EBD0BE22E3D30831288
:101DD4000313B800CC30B700CC30B600CD30B5001A
:101DE4000A168A11E2260A128A1539300A168A114D
:101DF4001E250A128A15831203135E035F04031D52
:101E0400042F052F092F0930E2000030E3000619E2
:101E14000C2F0D2F302F063083120313BD00133007
:101E2400BC00AD30BB00BB0B152FBC0B152FBD0B7D
:101E3400152F3D3083120313B800CC30B700CC30DB
:101E4400B600CD30B5000A168A11E2260A128A15A8
:101E540041300A168A111E250A128A1583120313A9
:101E64008619352F362F592F063083120313BD00E0
:101E74001330BC00AD30BB00BB0B3E2FBC0B3E2F60
:101E8400BD0B3E2F3D3083120313B800CC30B70096
:101E9400CC30B600CD30B5000A168A11E2260A12FB
:101EA4008A1542300A168A111E250A128A157F30B5
:101EB4008312031386000618602F612F842F0630C7
:101EC40083120313BD001330BC00AD30BB00BB0B49
:101ED400692FBC0B692FBD0B692F3D30831203138F
:101EE400B800CC30B700CC30B600CD30B5000A16FF
:101EF4008A11E2260A128A1543300A168A111E250F
:101F04000A128A15831203138618892F8A2FAD2F7C
:101F1400063083120313BD001330BC00AD30BB0088
:101F2400BB0B922FBC0B922FBD0B922F3D30831213
:101F34000313B800CC30B700CC30B600CD30B500B8
:101F44000A168A11E2260A128A1544300A168A11E0
:101F54001E250A128A15831203130619B22FB32FF2
:101F6400D62F063083120313BD001330BC00AD30EE
:101F7400BB00BB0BBB2FBC0BBB2FBD0BBB2F3D3022
:101F840083120313B800CC30B700CC30B600CD3088
:101F9400B5000A168A11E2260A128A1545300A1675
:101FA4008A111E250A128A15831203138619DB2F40
:101FB400DC2FFF2F063083120313BD001330BC0047
:101FC400AD30BB00BB0BE42FBC0BE42FBD0BE42FE7
:101FD4003D3083120313B800CC30B700CC30B600C8
:101FE400CD30B5000A168A11E2260A128A15463047
:101FF4000A168A111E250A128A15080010308A0052
:102004000408840A82070034303400343134003444
:10201400323400343334003434340034353400344E
:10202400363400343734003438340034393400342E
:10295A0064008001840A0406031900340406AE2CBC
:10296A000730831603139F008312031385148316FB
:10297A0003138501880108008312031385120512C7
:10298A0085110A168A1142250A168A11831203131F
:10299A0085150800443469346734693474346534FD
:1029AA00203461342034733465346E3468346134CD
:1029BA000034C03083120313880085120512851172
:1029CA000A168A1142250A168A11831203138515DB
:1029DA00080001308312031388008512051285113D
:1029EA000A168A1142250A168A11831203138515BB
:1029FA00080002308312031388008512051285111C
:102A0A000A168A1142250A168A118312031385159A
:102A1A00080001340034013400340A3400345F34CD
:102A2A005F345F345F340034313432343134323419
:102A3A000034F20072088312031388008516051207
:102A4A0085110A168A1142250A168A11831203135E
:102A5A00851508007E088A007F0882000A168A11F6
:102A6A002F250A168A118000840A04087D06031994
:102A7A000034FF0A0319FE0A332DF001F101013077
:102A8A00F0070318F10A0030F1077108803AFF00D5
:102A9A0093307F02031D532D88307002031C562D7C
:102AAA00572D442D0800F4007408F2007208F30050
:102ABA00622D0130F2007208F30773088400831351
:102ACA000008031D692D6A2D5E2D74087302F0003B
:102ADA00F101F01BF1030800F3007308F10071081B
:102AEA00F2007F2D0130F1007108F2070130F10088
:102AFA007108F0077008840083130008F100720857
:102B0A008400710880000008031D8C2D8D2D772DFF
:102B1A0073080800803083120313AB062F08F300F2
:102B2A002E08F2002D08F1002C08F0002B08F700FF
:102B3A002A08F6002908F5002808F4000A128A155E
:102B4A006B220A168A11730883120313AB007208E8
:102B5A00AA007108A9007008A8000800F800F4018A
:102B6A00F5017008F200F3017208F6007308F70025
:102B7A00781CC02DC12DC72D7608F4070318F50A55
:102B8A007708F50701300310F60DF70DFF3E031D18
:102B9A00C82D0310F80C7808031DD42DD52DBD2D92
:102BAA007508F1007408F00008000A168A11DE247C
:102BBA000A168A1120300A168A111E250A168A1147
:102BCA0020300A168A111E250A168A1120300A1682
:102BDA008A111E250A168A1120300A168A111E2504
:102BEA000A168A1120300A168A111E250A168A1117
:102BFA0020300A168A111E250A168A110800F600C4
:102C0A007608F5007508F7000E2E0130F5007508F4
:102C1A00F7077708840083130008031D152E162E64
:102C2A000A2E1F2E0130F5007508F7070130F5004E
:102C3A007508F407740884000A168A1100200A1617
:102C4A008A11F50077088400750880000008031DC2
:102C5A002F2E302E172E08000A168A11DE240A1685
:102C6A008A110A168A11DA250A168A11F701F80159
:102C7A004E2E7708643E8400831300080A168A11D0
:102C8A001E250A168A110130F7070318F80A0030C0
:102C9A00F80764300A168A1158250A168A1170082C
:102CAA00FF3EF50071080318013EFF3EF600780862
:102CBA007602031D622E770875020318652E662EAA
:102CCA003E2E0A168A11DA250A168A110800831678
:102CDA000313890188010F30860001308312031320
:102CEA0089000A128A1502200A168A110A168A11FE
:102CFA00EE240A168A118312031360086104031969
:102D0A00872E882E9C2E0A128A112D200A168A11C5
:102D1A000A168A1131260A168A1183120313E00150
:102D2A00E1019C2E0A128A1535200A168A1183128D
:102D3A0003135E085F04031DA32EA42E972E5E08BC
:102D4A005F04031DA92EAA2E802EC801C901831271
:102D5A0003134908D5004808D4005508F40054085C
:102D6A00F3000A128A11CB230A168A114030831201
:102D7A000313C7006A30C6009730C500C50BC32EBF
:102D8A00C60BC32EC70BC32E013083120313C80709
:102D9A000318C90A0030C9074908803AFF00803081
:102DAA007F02031DDA2E0A304802031CDD2EDE2EB6
:102DBA00AC2E802E0A128A11002844308312031383
:102DCA00A3007A30A2000030A1000030A000380829
:102DDA00A7003708A6003608A5003508A4000A127D
:102DEA008A116A200A168A11831203132308B8006B
:102DFA002208B7002108B6002008B5004130831226
:102E0A000313BA00ED30B900B90B092FBA0B092F19
:102E1A000E2F3E2F831203138901073083120313E7
:102E2A00BA007C30B900B90B182FBA0B182F000062
:102E3A003F3083120313AB008030AA000030A90090
:102E4A000030A8003808AF003708AE003608AD00D9
:102E5A003508AC000A168A118F250A168A118312C0
:102E6A0003132B08B8002A08B7002908B600280857
:102E7A00B5000030F3000030F2000030F1000030FD
:102E8A00F000831203133808F7003708F6003608F3
:102E9A00F5003508F4000A168A115E270A168A1107
:102EAA00031C582F592F0F2F0F3083120313890039
:102EBA00080000307005F80000307105F900803014
:102ECA007205FA007F307305FB007B087A047904E7
:102EDA007804031D712F722F7A2F0030F30000300F
:102EEA00F2000030F1000030F00000307405F80004
:102EFA0000307505F90080307605FA007F307705D5
:102F0A00FB007B087A0479047804031D8D2F8E2F29
:102F1A00962F0030F7000030F6000030F500003040
:102F2A00F400F31F992F9A2FBE2F0030F8000030BB
:102F3A00F9000030FA008030FB007008F8027108CE
:102F4A00031C710FA92FAA2FF9027208031C720F12
:102F5A00AF2FB02FFA027308031C730FB52FB62FC9
:102F6A00FB027B08F3007A08F2007908F10078087E
:102F7A00F000F71FC12FC22FE62F0030F8000030F3
:102F8A00F9000030FA008030FB007408F802750876
:102F9A00031C750FD12FD22FF9027608031C760F66
:102FAA00D72FD82FFA027708031C770FDD2FDE2FD1
:102FBA00FB027B08F7007A08F6007908F500780822
:102FCA00F4008030F3068030F70677087302031D99
:102FDA00F82F76087202031DF82F75087102031D77
:102FEA00F82F740870020318FB2FFC2FFE2F031012
:062FFA00FF2F0314080084
:00000001FF
