:100000000A128A11BC2F3E3444346534733461348F
:100010007434693476346134723420345A346F3431
:100020006E34613400344434653473346134743470
:10003000693476346134723420345A346F346E3417
:10004000613400343E34533465346E346834613482
:1000500020344434693473347034613472346F340E
:1000600000343E34533465346E34683461342034A3
:100070005534733475346134723469346F340034F8
:10008000443083120313A3007A30A2000030A10091
:100090000030A0003808A7003708A6003608A500E1
:1000A0003508A4000A128A115B240A128A118312ED
:1000B00003132308B8002208B7002108B60020085F
:1000C000B500413083120313BA00ED30B900B90B0B
:1000D0006728BA0B67286C289C28831203138901B0
:1000E000073083120313BA007C30B900B90B7628AD
:1000F000BA0B762800003F3083120313AB00803028
:10010000AA000030A9000030A8003808AF00370866
:10011000AE003608AD003508AC000A128A15B820CA
:100120000A128A11831203132B08B8002A08B70099
:100130002908B6002808B5000030F3000030F200AE
:100140000030F1000030F000831203133808F7008C
:100150003708F6003608F5003508F4000A128A114F
:10016000BC200A128A11031CB628B7286D280F304C
:10017000831203138900080000307005F800003076
:100180007105F90080307205FA007F307305FB00BD
:100190007B087A0479047804031DCF28D028D82856
:1001A0000030F3000030F2000030F1000030F000C9
:1001B00000307405F80000307505F90080307605D0
:1001C000FA007F307705FB007B087A047904780415
:1001D000031DEB28EC28F4280030F7000030F6006F
:1001E0000030F5000030F400F31FF728F8281C2930
:1001F0000030F8000030F9000030FA008030FB00D9
:100200007008F8027108031C710F07290829F90208
:100210007208031C720F0D290E29FA027308031CC1
:10022000730F13291429FB027B08F3007A08F200EC
:100230007908F1007808F000F71F1F2920294429C8
:100240000030F8000030F9000030FA008030FB0088
:100250007408F8027508031C750F2F293029F9025C
:100260007608031C760F35293629FA027708031C15
:10027000770F3B293C29FB027B08F7007A08F60040
:100280007908F5007808F4008030F3068030F7062E
:1002900077087302031D562976087202031D56293A
:1002A00075087102031D5629740870020318592934
:1002B0005A295C2903105D290314080001308312B8
:1002C00003138900EF3086000618672968299529ED
:1002D000063083120313BD001330BC00AD30BB00E9
:1002E000BB0B7029BC0B7029BD0B70293D308312EC
:1002F0000313B800CC30B700CC30B600CD30B50019
:100300000A128A1140200A128A1130300A128A1504
:1003100026200A128A11831203134F08500403196E
:10032000922993299529D301D401861898299929CE
:10033000C829063083120313BD001330BC00AD3052
:10034000BB00BB0BA129BC0BA129BD0BA1293D30D2
:1003500083120313B800CC30B700CC30B600CD30D8
:10036000B5000A128A1140200A128A1131300A128D
:100370008A1526200A128A11831203134F0850048B
:100380000319C329C429C8290130D3000030D4007F
:100390000619CB29CC29FB29063083120313BD0093
:1003A0001330BC00AD30BB00BB0BD429BC0BD4292F
:1003B000BD0BD4293D3083120313B800CC30B700F5
:1003C000CC30B600CD30B5000A128A1140200A1296
:1003D0008A1132300A128A1526200A128A118312D3
:1003E00003134F0850040319F629F729FB2902309B
:1003F000D3000030D4008619FE29FF292E2A0630AA
:1004000083120313BD001330BC00AD30BB00BB0B27
:10041000072ABC0B072ABD0B072A3D3083120313A2
:10042000B800CC30B700CC30B600CD30B5000A12E1
:100430008A1140200A128A1133300A128A152620A6
:100440000A128A11831203134F0850040319292A30
:100450002A2A2E2A0330D3000030D400DF30860051
:100460000618332A342A632A063083120313BD0088
:100470001330BC00AD30BB00BB0B3C2ABC0B3C2A8C
:10048000BD0B3C2A3D3083120313B800CC30B700BB
:10049000CC30B600CD30B5000A128A1140200A12C5
:1004A0008A1134300A128A1526200A128A11831200
:1004B00003134F08500403195E2A5F2A632A04308D
:1004C000D3000030D4008618662A672A962A0630A0
:1004D00083120313BD001330BC00AD30BB00BB0B57
:1004E0006F2ABC0B6F2ABD0B6F2A3D30831203139A
:1004F000B800CC30B700CC30B600CD30B5000A1211
:100500008A1140200A128A1135300A128A152620D3
:100510000A128A11831203134F0850040319912AF7
:10052000922A962A0530D3000030D4000619992A61
:100530009A2AC92A063083120313BD001330BC0067
:10054000AD30BB00BB0BA22ABC0BA22ABD0BA22A5A
:100550003D3083120313B800CC30B700CC30B60066
:10056000CD30B5000A128A1140200A128A113630A5
:100570000A128A1526200A128A11831203134F08C1
:1005800050040319C42AC52AC92A0630D3000030F2
:10059000D4008619CC2ACD2AFC2A063083120313F4
:1005A000BD001330BC00AD30BB00BB0BD52ABC0B6B
:1005B000D52ABD0BD52A3D3083120313B800CC30A9
:1005C000B700CC30B600CD30B5000A128A114020F9
:1005D0000A128A1137300A128A1526200A128A1145
:1005E000831203134F0850040319F72AF82AFC2A30
:1005F0000730D3000030D400BF3086000618012B2E
:10060000022B312B063083120313BD001330BC00C4
:10061000AD30BB00BB0B0A2BBC0B0A2BBD0B0A2B4E
:100620003D3083120313B800CC30B700CC30B60095
:10063000CD30B5000A128A1140200A128A113830D2
:100640000A128A1526200A128A11831203134F08F0
:10065000500403192C2B2D2B312B0830D3000030E4
:10066000D4008618342B352B642B063083120313E9
:10067000BD001330BC00AD30BB00BB0B3D2BBC0B31
:100680003D2BBD0B3D2B3D3083120313B800CC3006
:10069000B700CC30B600CD30B5000A128A11402028
:1006A0000A128A1139300A128A1526200A128A1172
:1006B000831203134F08500403195F2B602B642B24
:1006C0000930D3000030D4000619672B682B8B2B20
:1006D000063083120313BD001330BC00AD30BB00E5
:1006E000BB0B702BBC0B702BBD0B702B3D308312E2
:1006F0000313B800CC30B700CC30B600CD30B50015
:100700000A128A1140200A128A1141300A128A15EF
:1007100026200A128A11831203138619902B912B1B
:10072000B42B063083120313BD001330BC00AD3070
:10073000BB00BB0B992BBC0B992BBD0B992B3D30F0
:1007400083120313B800CC30B700CC30B600CD30E4
:10075000B5000A128A1140200A128A1142300A1288
:100760008A1526200A128A117F308312031386000D
:100770000618BB2BBC2BDF2B063083120313BD00E6
:100780001330BC00AD30BB00BB0BC42BBC0BC42B67
:10079000BD0BC42B3D3083120313B800CC30B7001F
:1007A000CC30B600CD30B5000A128A1140200A12B2
:1007B0008A1143300A128A1526200A128A118312DE
:1007C00003138618E42BE52B082C06308312031341
:1007D000BD001330BC00AD30BB00BB0BED2BBC0B20
:1007E000ED2BBD0BED2B3D3083120313B800CC3045
:1007F000B700CC30B600CD30B5000A128A114020C7
:100800000A128A1144300A128A1526200A128A1105
:100810008312031306190D2C0E2C312C0630831273
:100820000313BD001330BC00AD30BB00BB0B162C56
:10083000BC0B162CBD0B162C3D3083120313B800D5
:10084000CC30B700CC30B600CD30B5000A128A11DA
:1008500040200A128A1145300A128A1526200A12EF
:100860008A11831203138619362C372C5A2C063022
:1008700083120313BD001330BC00AD30BB00BB0BB3
:100880003F2CBC0B3F2CBD0B3F2C3D308312031380
:10089000B800CC30B700CC30B600CD30B5000A126D
:1008A0008A1140200A128A1146300A128A1526201F
:1008B0000A128A1108008312031323088039F900F1
:1008C0007908A8002308F9007907FA007A08AE0031
:1008D000A21F6B2C6C2C6D2C2E142E080319712C5E
:1008E000722C812C2E0A031D762C772C7F2C003045
:1008F000A3000030A2000030A1000030A000A21729
:10090000892C0030A3000030A2000030A10000308C
:10091000A00027088039F9007908A8062708F900FF
:100920007907FA007A08AD00A61F972C982C992C0D
:100930002D142D0803199D2C9E2CAD2C2D0A031D62
:10094000A22CA32CAB2C0030A7000030A600003056
:10095000A5000030A400A617B52C0030A700003079
:10096000A6000030A5000030A4002D080319B92C02
:10097000BA2CBF2C2E08031DBE2CBF2CC82C003057
:10098000A3000030A2000030A1000030A000BB2F67
:100990002008F9007908F00026080A128A15DC20E0
:1009A0000A128A11710883120313B4007008B3008D
:1009B0003308F900FA01FB01FC017C08AC007B085C
:1009C000AB007A08AA007908A9003408F900FA01F6
:1009D000FB01FC017C08B2007B08B1007A08B00082
:1009E0007908AF002108F9007908F00025080A12FB
:1009F0008A15DC200A128A11710883120313B400CD
:100A00007008B3003308F900FA01FB01FC01790812
:100A1000A9077A0803110318013E0319102DAA072C
:100A20007B0803110318013E0319172DAB077C083F
:100A300003110318013E03191E2DAC073408F900F9
:100A4000FA01FB01FC017908AF077A0803110318CA
:100A5000013E03192C2DB0077B0803110318013E3A
:100A60000319332DB1077C0803110318013E031944
:100A70003A2DB2072208F9007908F00024080A127A
:100A80008A15DC200A128A11710883120313B4003C
:100A90007008B3003308F900FA01FB01FC01790882
:100AA000A9077A0803110318013E0319582DAA0754
:100AB0007B0803110318013E03195F2DAB077C0867
:100AC00003110318013E0319662DAC073408F90021
:100AD000FA01FB01FC017908AF077A08031103183A
:100AE000013E0319742DB0077B0803110318013E62
:100AF00003197B2DB1077C0803110318013E03196C
:100B0000822DB2070830F9000310A90DAA0DAB0D14
:100B1000AC0DF90B842D2108F9007908F0002408A8
:100B20000A128A15DC200A128A1171088312031333
:100B3000B4007008B3003308F9003408FA00FB0170
:100B4000FC017908A9077A0803110318013E03196B
:100B5000AA2DAA077B0803110318013E0319B12D22
:100B6000AB077C0803110318013E0319B82DAC072D
:100B70002008F9007908F00025080A128A15DC20FF
:100B80000A128A11710883120313B4007008B300AB
:100B90003308F9003408FA00FB01FC017908A907C1
:100BA0007A0803110318013E0319D72DAA077B0801
:100BB00003110318013E0319DE2DAB077C08031156
:100BC0000318013E0319E52DAC070830F9000310A6
:100BD000A90DAA0DAB0DAC0DF90BE72D2008F900FE
:100BE0007908F00024080A128A15DC200A128A11FA
:100BF000710883120313B4007008B3003308F900BE
:100C00003408FA00FB01FC017908A9077A080311EE
:100C10000318013E03190D2EAA077B0803110318C0
:100C2000013E0319142EAB077C0803110318013E83
:100C300003191B2EAC072108F9007908F0002608DB
:100C40000A128A15DC200A128A1171088312031312
:100C5000B4007008B3003308F9003408FA00FB014F
:100C6000FC017908AF077A0803110318013E031944
:100C70003A2EB0077B0803110318013E0319412ED9
:100C8000B1077C0803110318013E0319482EB2076F
:100C90002208F9007908F00025080A128A15DC20DC
:100CA0000A128A11710883120313B4007008B3008A
:100CB0003308F9003408FA00FB01FC017908AF079A
:100CC0007A0803110318013E0319672EB0077B0849
:100CD00003110318013E03196E2EB1077C0803119E
:100CE0000318013E0319752EB2072208F90079088E
:100CF000F00026080A128A15DC200A128A117108EF
:100D000083120313B4007008B3003308F9003408E9
:100D1000FA00FB01FC0108300310F90DFA0DFB0D80
:100D2000FC0DFF3E031D8C2E7908AF077A080311D6
:100D30000318013E03199D2EB0077B080311031809
:100D4000013E0319A42EB1077C0803110318013ECC
:100D50000319AB2EB2072908F9002A08FA002B085C
:100D6000FB002C08FC0018300310FC0CFB0CFA0CE8
:100D7000F90CFF3E031DB42E7908AF077A08031162
:100D80000318013E0319C52EB0077B080311031891
:100D9000013E0319CC2EB1077C0803110318013E54
:100DA0000319D32EB2070830F9000310A90DAA0DBC
:100DB000AB0DAC0DF90BD52E2E082D07F900FA015D
:100DC000FA0D7908823EB3007A080318013EFF3E0F
:100DD000B400072F0130F9000310AF0DB00DB10DB5
:100DE000B20DF90BEC2EAC1FF62EF72EF82E2F14A9
:100DF0000130F9000310A90DAA0DAB0DAC0DF90BD4
:100E0000FA2EFF30B3070318B40AFF30B407B11F3E
:100E10000A2F0B2FEA2EAD01AC1F0F2F102F2C2FF6
:100E2000FF302905F900FF302A05FA00FF302B05B5
:100E3000FB007F302C05FC007C087B047A047904DD
:100E40000319232F242F272FAD01AD0A2C2F2F1C80
:100E50002A2F2B2F2C2F242F2D080319302F312F21
:100E6000622F0130AF07003003180130B0070030A7
:100E700003180130B107003003180130B207321CEB
:100E8000422F432F622F2F08F9003008FA00310853
:100E9000FB003208FC000130FD007C0DFC0CFB0C5B
:100EA000FA0CF90CFD0B4D2F7C08B2007B08B10049
:100EB0007A08B0007908AF000130B3070318B40A0C
:100EC0000030B4073408803AFF0080307F02031DF1
:100ED0006B2FFF303302031C6E2F6F2F7A2F7F3062
:100EE00083120313B2008030B1000030B000003034
:100EF000AF00AF2F831203133408803AFF00803015
:100F00007F02031D852F013033020318882F892F9C
:100F1000952F003083120313B2000030B10000306F
:100F2000B0000030AF00A801AF2F831203133308C5
:100F3000F9007908AE00FF30AF05FF30B0057F3013
:100F4000B1050030B2052E1CA62FA72FA82FB11770
:100F50002E08F9000310790CFA007A08B20028086C
:100F6000F9007908B2043208A3003108A200300861
:100F7000A1002F08A00008008317E430FD000A300C
:100F8000FE002530FF00903084000A128A153B20B5
:100F90000A128A114D30FD000030FE000330FF00C0
:100FA000103084000A128A153B200A128A1183131A
:100FB000EE30FD000930FE00D730FF00A030840085
:100FC0000A128A153B200A128A116630FD00083089
:100FD000FE007930FF00483084000A128A153B2059
:100FE0000A128A11E601E701E801E901EA01EB01D1
:100FF000EC01ED01EE01EF0183010A128A15D42AFA
:10100C00C0308312031388008512051285110A1251
:10101C008A154A200A128A158312031385150800B3
:10102C0002308312031388008512051285110A12EF
:10103C008A154A200A128A15831203138515080093
:10104C00F2007208831203138800851605128511AD
:10105C000A128A154A200A128A158312031385155F
:10106C0008007E088A007F0882000A128A15372041
:10107C000A128A158000840A04087D0603190034BC
:10108C00FF0A0319FE0A3B28F001F1010130F007B9
:10109C000318F10A0030F1077108803AFF00933011
:1010AC007F02031D5B2888307002031C5E285F28BA
:1010BC004C280800F4007408F2007208F3006A2847
:1010CC000130F2007208F3077308840083130008E0
:1010DC00031D71287228662874087302F000F10150
:1010EC00F01BF10308003534353435343534003415
:1010FC000134003401340034013400340A34003437
:10110C00CC3400345F345F345F345F3400343034BB
:10111C0030343034303400343134323431343234CD
:10112C0000340A128A1506200A128A15F301F401FA
:10113C0020300A128A1526200A128A150130F3076C
:10114C000318F40A0030F4077408803AFF0080306A
:10115C007F02031DB32806307302031CB628B72880
:10116C009E280800803083120313AB062F08F3006F
:10117C002E08F2002D08F1002C08F0002B08F700C7
:10118C002A08F6002908F5002808F4000A128A1526
:10119C0068250A128A15730883120313AB007208B0
:1011AC00AA007108A9007008A8000800F800F40152
:1011BC00F5017008F200F3017208F6007308F700ED
:1011CC00781CE928EA28F0287608F4070318F50AB1
:1011DC007708F50701300310F60DF70DFF3E031DE0
:1011EC00F1280310F80C7808031DFD28FE28E628CA
:1011FC007508F1007408F0000800F600C530F20024
:10120C007208831203139F057608F2000230031054
:10121C00F20DFF3E031D0D290310720DF300730830
:10122C009F040D30F300FB30F200F20B1B29F30B83
:10123C001B292029831203131F151F19262927295F
:10124C0023291E08F500831603131E08F4007508E5
:10125C00F1007408F00008000A168A11C9270A1256
:10126C008A1501308312031388000A168A11E227AB
:10127C000A128A1538308312031388000A168A1151
:10128C00E2270A128A150E308312031388000A16FD
:10129C008A11E2270A128A1506308312031388007A
:1012AC000A168A11E2270A128A1580308312031358
:1012BC0088000A168A11E2270A128A150800F8011A
:1012CC00F901852978087307F6007408F5000318EE
:1012DC00F50AF81F7229F5037508F70076088400E3
:1012EC008317771C831300080A128A1526200A120A
:1012FC008A150130F8070318F90A0030F907780845
:10130C007307F6007408F5000318F50AF81F8F2907
:10131C00F5037508F700760884008317771C831390
:10132C000008031D9A299B29682908000A128A15AE
:10133C0006200A128A150A128A1597200A128A1593
:10134C00F701F801B9297708573E84008313000888
:10135C000A128A1526200A128A150130F70703187B
:10136C00F80A0030F80757300A128A1560200A1262
:10137C008A157008FF3EF50071080318013EFF3E08
:10138C00F60078087602031DCD297708750203183C
:10139C00D029D129A9290A128A1597200A128A154F
:1013AC000800303430343034303400344434693450
:1013BC0067346934743465342034613420347334C4
:1013CC0065346E34683461340034533465346E34AF
:1013DC0068346134203443346F34613463346134A1
:1013EC006F340034533465346E34683461342034D3
:1013FC0043346F346E346634693467340034533498
:10140C0065346E346834613420346534723472342B
:10141C0061346434613400343E34523465346134A4
:10142C007434693476346134723400345234653433
:10143C006134743469347634613472340034203459
:10144C00203420344E346F34763461342034733489
:10145C0065346E34683461340034533465346E341E
:10146C0068346134203444346934733470346134F6
:10147C0072346F3400343E34533465346E34683413
:10148C006134203443346F346134633461346F34E9
:10149C000034533465346E3468346134203455343C
:1014AC00733475346134723469346F3400343E34BF
:1014BC00533465346E3468346134203443346F34BF
:1014CC006E346634693467340034533465346E34A6
:1014DC0068346134203463346F347234723465345C
:1014EC007434613400340A128A1532210A128A15B6
:1014FC000A168A11F0270A128A159030F30001306F
:10150C00F4000A128A1565210A128A150A128A1524
:10151C009C210A128A154D3083120313C200193014
:10152C00C1004F30C000C00B992AC10B992AC20BC5
:10153C00992A831203133E033F04031DA62AA72AEC
:10154C00D32AC301C401AF2A0A128A115E210A12DE
:10155C008A150A3083120313530654040319B72A4D
:10156C00B82AAA2A6808C0004308613E84004008D3
:10157C00831380000130C3070318C40A0030C4076A
:10158C004408803AFF0080307F02031DCF2A0530CB
:10159C004302031CD22AD32AAF2A08008316031352
:1015AC00890188010F3086000130831203138900F2
:1015BC000A168A11D5270A128A1583120313CF0132
:1015CC00D001422B02300A128A1503210A128A1505
:1015DC00710883120313EF007008EE006F08BC0053
:1015EC006E08BB000A128A154E230A128A150330A4
:1015FC0083120313C7008A30C6005530C500C50BD3
:10160C00052BC60B052BC70B052B023083120313BE
:10161C00E6000030E700660867040319162B172B49
:10162C00422B0A168A11F0270A128A15272B6708F3
:10163C00BF006608BE000A128A1579220A128A15A2
:10164C00422B831203136708003A03192E2B422BEB
:10165C006608013A0319422B033A03191D2B013A70
:10166C000319422B073A0319422B013A0319422B57
:10167C00033A0319422B422B831203134D084E04D9
:10168C00031D492B4A2BE82AE32A0A128A11002847
:10169C000030831203133C02CD3003193B020318B4
:1016AC00582B592BAB2B0A128A1532210A128A1588
:1016BC000A168A11F0270A128A150A128A151620A0
:1016CC000A128A15C830F3000130F4000A128A1588
:1016DC0065210A128A150A128A1506200A128A1521
:1016EC00BA30F3000130F4000A128A1565210A128F
:1016FC008A15BF308312031386000619862B872B9D
:10170C00672D063083120313BF001330BE00AD30BB
:10171C00BD00BD0B8F2BBE0B8F2BBF0B8F2B3D300A
:10172C0083120313B800CC30B700CC30B600CD30E8
:10173C00B5000A128A1140200A128A150130831250
:10174C000313E6000030E700672D01303C029930AE
:10175C0003193B020318B32BB42B042C0A128A1561
:10176C0032210A128A150A168A11F0270A128A15D2
:10177C000A128A1516200A128A15C130F30000309D
:10178C00F4000A128A1565210A128A150A128A15A2
:10179C0006200A128A153E30F3000130F4000A12BA
:1017AC008A1565210A128A15831203130619DF2B79
:1017BC00E02B672D063083120313BF001330BE00DD
:1017CC00AD30BD00BD0BE82BBE0BE82BBF0BE82BDF
:1017DC003D3083120313B800CC30B700CC30B600C8
:1017EC00CD30B5000A128A1140200A128A15023037
:1017FC0083120313E6000030E700672D02303C0231
:10180C00653003193B0203180C2C0D2C5D2C0A12AD
:10181C008A1532210A128A150A168A11F0270A1221
:10182C008A150A128A1516200A128A15AC30F30092
:10183C000130F4000A128A1565210A128A150A125F
:10184C008A1506200A128A159E30F3000130F40026
:10185C000A128A1565210A128A15831203130619B6
:10186C00382C392C672D063083120313BF0013302C
:10187C00BE00AD30BD00BD0B412CBE0B412CBF0BCF
:10188C00412C3D3083120313B800CC30B700CC3060
:10189C00B600CD30B5000A128A1140200A128A1502
:1018AC00033083120313E6000030E700672D03308A
:1018BC003C02313003193B020318652C662CB62C04
:1018CC000A128A1532210A128A150A168A11F02771
:1018DC000A128A150A128A1516200A128A15B430B1
:1018EC00F3000030F4000A128A1565210A128A15D9
:1018FC000A128A1506200A128A152F30F3000130BD
:10190C00F4000A128A1565210A128A158312031330
:10191C000619912C922C672D063083120313BF00ED
:10192C001330BE00AD30BD00BD0B9A2CBE0B9A2CF3
:10193C00BF0B9A2C3D3083120313B800CC30B70088
:10194C00CC30B600CD30B5000A128A1140200A12F4
:10195C008A15043083120313E6000030E700672D6C
:10196C0003303C02FD3003193B020318BE2CBF2C84
:10197C000F2D0A128A1532210A128A150A168A119B
:10198C00F0270A128A150A128A1516200A128A15CD
:10199C001030F3000130F4000A128A1565210A1286
:1019AC008A150A128A1506200A128A15E530F300E8
:1019BC000030F4000A128A1565210A128A15831266
:1019CC0003130619EA2CEB2C672D06308312031334
:1019DC00BF001330BE00AD30BD00BD0BF32CBE0BF1
:1019EC00F32CBF0BF32C3D3083120313B800CC3017
:1019FC00B700CC30B600CD30B5000A128A114020A9
:101A0C000A128A15053083120313E6000030E70032
:101A1C00672D04303C02C93003193B020318172D03
:101A2C00182D672D0A128A1532210A128A150A16E8
:101A3C008A11F0270A128A150A128A1516200A1220
:101A4C008A152030F3000130F4000A128A15652142
:101A5C000A128A150A128A1506200A128A15DB3018
:101A6C00F3000030F4000A128A1565210A128A1557
:101A7C00831203130619432D442D672D0630831250
:101A8C000313BF001330BE00AD30BD00BD0B4C2D99
:101A9C00BE0B4C2DBF0B4C2D3D3083120313B800E5
:101AAC00CC30B700CC30B600CD30B5000A128A115C
:101ABC0040200A128A15063083120313E600003008
:101ACC00E70008007308803983120313A000200874
:101ADC00F8007308A0002007A1002108FA00F21FEB
:101AEC00782D792D7A2D7A147A0803197E2D7F2D75
:101AFC008F2D7A0A031D832D842D8C2D0030F3003D
:101B0C000030F2000030F1000030F000F217F30169
:101B1C00972D0030F3000030F2000030F10000305F
:101B2C00F00077088039A0002008F90079087806C1
:101B3C000319A12DA22DA32D78177708A00020073B
:101B4C00A1002108F900F61FAC2DAD2DAE2D791496
:101B5C0079080319B22DB32DC32D790A031DB72DA6
:101B6C00B82DC02D0030F7000030F6000030F50025
:101B7C000030F400F617F701CB2D0030F7000030E1
:101B8C00F6000030F5000030F4007A0879020318F2
:101B9C00D02DD12D152E781FD42DD52DD92D8030AB
:101BAC00A0002008F8067A08A0002008FB0079089D
:101BBC00A0002008FA007B08A0002008F90070089B
:101BCC00A0002008FB007408A0002008F0007B088F
:101BDC00A0002008F4007108A0002008FB00750884
:101BEC00A0002008F1007B08A0002008F500720876
:101BFC00A0002008FB007608A0002008F2007B085B
:101C0C00A0002008F6007308A0002008FB0077084D
:101C1C00A0002008F3007B08A0002008F700FB01BF
:101C2C007908A000A1012108A3007A082002A200D3
:101C3C00031CA3032308803AFF0080307F02031D9E
:101C4C00292E1A302202031C2C2E2D2E6E2E7308D8
:101C5C00720471047004031D342E362E0130372E9D
:101C6C00003083120313A0002008FB000030F300A7
:101C7C000030F2000030F1000030F0007908A000D4
:101C8C002008FA00742E7B1C4C2E4D2E582E7B08EF
:101C9C0083120313A0000310200C0138A1002108AB
:101CAC00FB005A2E0310FB0C701C5D2E5E2E5F2E5B
:101CBC00FB17013083120313A000730DF30CF20C0D
:101CCC00F10CF00CA00B632E0130A0002008FA07D9
:101CDC0079087A02031C732E742E492E781B772EEA
:101CEC00782EC72E7A08031D7C2E7D2E862E003072
:101CFC00F3000030F2000030F1000030F000FF2F54
:101D0C007408F007750803110318013E03198F2E90
:101D1C00F107760803110318013E0319962EF207FA
:101D2C00770803110318013E03199D2EF307731C4A
:101D3C00A02EA12E7F2F7B1CA42EA52EB02E7B08AF
:101D4C0083120313A0000310200C0138A1002108FA
:101D5C00FB00B22E0310FB0C701CB52EB62EB72E4A
:101D6C00FB17013083120313A000730DF30CF20C5C
:101D7C00F10CF00CA00BBB2E0130A0002008FA07D0
:101D8C007F2F7308803AFF007708803A7F02031D8B
:101D9C00D92E76087202031DD92E75087102031D07
:101DAC00D92E740870020318DC2EDD2E372FFF306D
:101DBC0083120313A000FF30A100FF30A200FF30FC
:101DCC00A3007408A4007508A5007608A60077087F
:101DDC00A7007008A4027108031C710FF62EF72ED1
:101DEC00A5027208031C720FFC2EFD2EA6027308AE
:101DFC00031C730F022F032FA7022408A00725082A
:101E0C000318250F0A2F0B2FA10726080318260FDE
:101E1C00102F112FA20727080318270AA30723083E
:101E2C00F3002208F2002108F1002008F0008030B5
:101E3C00A0002008F806FB09FB0A7B08031D272FCE
:101E4C00282F452F0130F007003003180130F1071F
:101E5C00003003180130F207003003180130F3078B
:101E6C00452F7408F0027508031C750FF1027608F3
:101E7C00031C760FF2027708031C770FF30273082A
:101E8C00720471047004031D4C2F4D2F7B2F7B08A3
:101E9C00031D512F522F7B2F0030F3000030F20026
:101EAC000030F1000030F000FF2F013083120313DB
:101EBC00A0000310F00DF10DF20DF30DA00B5F2F30
:101ECC00FB1F692F6A2F6B2F70147B1C6E2F6F2FCB
:101EDC00722F0314FB0D742F0310FB0D7A080319DA
:101EEC00782F792F7B2F0130FA02F21F7E2F7F2F54
:101EFC005B2FF901FB1F832F842F922F7B087F39D7
:101F0C000319892F8A2F8D2FF901F90A922F701C32
:101F1C00902F912F922F8A2F79080319962F972F94
:101F2C00CD2F0130F007003003180130F1070030DD
:101F3C0003180130F207003003180130F307731C4B
:101F4C00A82FA92FCD2F700883120313A00071089E
:101F5C00A1007208A2007308A3000130A400230D95
:101F6C00A30CA20CA10CA00CA40BB52F2308F300FE
:101F7C002208F2002108F1002008F0007A0A031967
:101F8C00C82FC92FCD2F0130A0002008FA077A0ADC
:101F9C000319D12FD22FD72F7A08031DD62FD72F65
:101FAC00E52F0030F3000030F2000030F10000307B
:101FBC00F0007A08031DE32FE42FE52FF8017A1CBB
:101FCC00E82FE92FEB2FF217F12F7F308312031339
:101FDC00A0002008F2057A0883120313A000031056
:101FEC00200CA1002108F300F81FFD2FFE2FFF2F5E
:041FFC00F3170800CF
:102F92000730831603139F008312031385148316CD
:102FA2000313850188010800FF308316031385008F
:102FB2008130831203139F008030831603139F0016
:102FC2000800831203138512051285110A128A154D
:102FD2004A200A168A11831203138515080001304C
:102FE2008312031388008512051285110A128A15AD
:0E2FF2004A200A168A1183120313851508005F
:00000001FF
