:060000000A128A11D92F3B
:10000C000A128A1535210A128A1120300A128A1511
:10001C0065210A128A11F701F80124287708A03EFD
:10002C008400831300080A128A1565210A128A11AA
:10003C000130F7070318F80A0030F807A0300A124D
:10004C008A159F210A128A117008FF3EF50071086B
:10005C000318013EFF3EF60078087602031D38288F
:10006C007708750203183B283C28142820300A1204
:10007C008A1565210A128A11080044308312031371
:10008C00A3007A30A2000030A1000030A000380894
:10009C00A7003708A6003608A5003508A4000A12E8
:1000AC008A1178240A128A11831203132308B800C8
:1000BC002208B7002108B6002008B5004130831291
:1000CC000313BA00ED30B900B90B6A28BA0B6A28D1
:1000DC006F289F288312031389010730831203139F
:1000EC00BA007C30B900B90B7928BA0B792800001A
:1000FC003F3083120313AB008030AA000030A900FC
:10010C000030A8003808AF003708AE003608AD0044
:10011C003508AC000A128A15D6210A128A118312EC
:10012C0003132B08B8002A08B7002908B6002808C2
:10013C00B5000030F3000030F2000030F100003068
:10014C00F000831203133808F7003708F60036085E
:10015C00F5003508F4000A128A11BF200A128A1120
:10016C00031CB928BA2870280F3083120313890096
:10017C00080000307005F80000307105F90080307F
:10018C007205FA007F307305FB007B087A04790452
:10019C007804031DD228D328DB280030F30000306C
:1001AC00F2000030F1000030F00000307405F8006F
:1001BC0000307505F90080307605FA007F30770540
:1001CC00FB007B087A0479047804031DEE28EF28E1
:1001DC00F7280030F7000030F6000030F500003052
:1001EC00F400F31FFA28FB281F290030F800003018
:1001FC00F9000030FA008030FB007008F80271083A
:10020C00031C710F0A290B29F9027208031C720FC7
:10021C0010291129FA027308031C730F16291729C8
:10022C00FB027B08F3007A08F2007908F1007808E9
:10023C00F000F71F2229232947290030F80000304D
:10024C00F9000030FA008030FB007408F8027508E1
:10025C00031C750F32293329F9027608031C760F1B
:10026C0038293929FA027708031C770F3E293F29D0
:10027C00FB027B08F7007A08F6007908F50078088D
:10028C00F4008030F3068030F70677087302031D04
:10029C00592976087202031D592975087102031D2C
:1002AC0059297408700203185C295D295F29031011
:1002BC006029031408000130831203138900EF3006
:1002CC00860006186A296B29B0290630831203139D
:1002DC00BD001330BC00AD30BB00BB0B7329BC0B95
:1002EC007329BD0B73293D3083120313B800CC3036
:1002FC00B700CC30B600CD30B5000A128A114320BD
:10030C000A128A1130300A128A1565210A128A11D2
:10031C008312031357035804031D95299629982912
:10032C00DB01DC0130300A128A1565210A128A11B0
:10033C0030300A128A1565210A128A1130300A12DD
:10034C008A1565210A128A1130300A128A15652124
:10035C000A128A11831203138618B529B629E529C6
:10036C00063083120313BD001330BC00AD30BB004C
:10037C00BB0BBE29BC0BBE29BD0BBE293D30831265
:10038C000313B800CC30B700CC30B600CD30B5007C
:10039C000A128A1143200A128A1131300A128A1564
:1003AC0065210A128A118312031357035804031D83
:1003BC00E029E129E5290130DB000030DC000619D9
:1003CC00E829E929182A063083120313BD001330DB
:1003DC00BC00AD30BB00BB0BF129BC0BF129BD0B34
:1003EC00F1293D3083120313B800CC30B700CC3068
:1003FC00B600CD30B5000A128A1143200A128A11B8
:10040C0032300A128A1565210A128A1183120313DB
:10041C0057035804031D132A142A182A0230DB0030
:10042C000030DC0086191B2A1C2A4B2A063083124A
:10043C000313BD001330BC00AD30BB00BB0B242A32
:10044C00BC0B242ABD0B242A3D3083120313B800A5
:10045C00CC30B700CC30B600CD30B5000A128A11C2
:10046C0043200A128A1133300A128A1565210A12A6
:10047C008A118312031357035804031D462A472A73
:10048C004B2A0330DB000030DC00DF30860006181E
:10049C00502A512A802A063083120313BD001330D0
:1004AC00BC00AD30BB00BB0B592ABC0B592ABD0B91
:1004BC00592A3D3083120313B800CC30B700CC302E
:1004CC00B600CD30B5000A128A1143200A128A11E7
:1004DC0034300A128A1565210A128A118312031309
:1004EC0057035804031D7B2A7C2A802A0430DB0026
:1004FC000030DC008618832A842AB32A0630831243
:10050C000313BD001330BC00AD30BB00BB0B8C2AF9
:10051C00BC0B8C2ABD0B8C2A3D3083120313B80004
:10052C00CC30B700CC30B600CD30B5000A128A11F1
:10053C0043200A128A1135300A128A1565210A12D3
:10054C008A118312031357035804031DAE2AAF2AD2
:10055C00B32A0530DB000030DC000619B62AB72AB6
:10056C00E62A063083120313BD001330BC00AD30F5
:10057C00BB00BB0BBF2ABC0BBF2ABD0BBF2A3D3037
:10058C0083120313B800CC30B700CC30B600CD309A
:10059C00B5000A128A1143200A128A1136300A1247
:1005AC008A1565210A128A11831203135703580402
:1005BC00031DE12AE22AE62A0630DB000030DC00CB
:1005CC008619E92AEA2A192B063083120313BD0077
:1005DC001330BC00AD30BB00BB0BF22ABC0BF22AB3
:1005EC00BD0BF22A3D3083120313B800CC30B70098
:1005FC00CC30B600CD30B5000A128A1143200A1255
:10060C008A1137300A128A1565210A128A1183124F
:10061C00031357035804031D142B152B192B0730E8
:10062C00DB000030DC00BF30860006181E2B1F2BB1
:10063C004E2B063083120313BD001330BC00AD30BB
:10064C00BB00BB0B272BBC0B272BBD0B272B3D302B
:10065C0083120313B800CC30B700CC30B600CD30C9
:10066C00B5000A128A1143200A128A1138300A1274
:10067C008A1565210A128A11831203135703580431
:10068C00031D492B4A2B4E2B0830DB000030DC00BD
:10069C008618512B522B812B063083120313BD006D
:1006AC001330BC00AD30BB00BB0B5A2BBC0B5A2B10
:1006BC00BD0B5A2B3D3083120313B800CC30B7005E
:1006CC00CC30B600CD30B5000A128A1143200A1284
:1006DC008A1139300A128A1565210A128A1183127D
:1006EC00031357035804031D7C2B7D2B812B0930DE
:1006FC00DB000030DC000619842B852BA82B063080
:10070C0083120313BD001330BC00AD30BB00BB0B18
:10071C008D2BBC0B8D2BBD0B8D2B3D3083120313FE
:10072C00B800CC30B700CC30B600CD30B5000A12D2
:10073C008A1143200A128A1141300A128A15652146
:10074C000A128A11831203138619AD2BAE2BD12BEF
:10075C00063083120313BD001330BC00AD30BB0058
:10076C00BB0BB62BBC0BB62BBD0BB62B3D30831283
:10077C000313B800CC30B700CC30B600CD30B50088
:10078C000A128A1143200A128A1142300A128A155F
:10079C0065210A128A117F30831203138600061812
:1007AC00D82BD92BFC2B063083120313BD0013302E
:1007BC00BC00AD30BB00BB0BE12BBC0BE12BBD0B6C
:1007CC00E12B3D3083120313B800CC30B700CC3092
:1007DC00B600CD30B5000A128A1143200A128A11D4
:1007EC0043300A128A1565210A128A1183120313E7
:1007FC008618012C022C252C063083120313BD0005
:10080C001330BC00AD30BB00BB0B0A2CBC0B0A2C4C
:10081C00BD0B0A2C3D3083120313B800CC30B7004B
:10082C00CC30B600CD30B5000A128A1143200A1222
:10083C008A1144300A128A1565210A128A11831210
:10084C00031306192A2C2B2C4E2C0630831203135F
:10085C00BD001330BC00AD30BB00BB0B332CBC0B4C
:10086C00332CBD0B332C3D3083120313B800CC302A
:10087C00B700CC30B600CD30B5000A128A11432037
:10088C000A128A1145300A128A1565210A128A1138
:10089C00831203138619532C542C772C0630831295
:1008AC000313BD001330BC00AD30BB00BB0B5C2C84
:1008BC00BC0B5C2CBD0B5C2C3D3083120313B800BD
:1008CC00CC30B700CC30B600CD30B5000A128A114E
:1008DC0043200A128A1146300A128A1565210A121F
:1008EC008A1108008312031323088039F900790850
:1008FC00A8002308F9007907FA007A08AE00A21FB5
:10090C00882C892C8A2C2E142E0803198E2C8F2CB3
:10091C009E2C2E0A031D932C942C9C2C0030A3008F
:10092C000030A2000030A1000030A000A217A62CBD
:10093C000030A3000030A2000030A1000030A00065
:10094C0027088039F9007908A8062708F9007907E3
:10095C00FA007A08AD00A61FB42CB52CB62C2D14B9
:10096C002D080319BA2CBB2CCA2C2D0A031DBF2C25
:10097C00C02CC82C0030A7000030A6000030A50009
:10098C000030A400A617D22C0030A7000030A6001F
:10099C000030A5000030A4002D080319D62CD72C4C
:1009AC00DC2C2E08031DDB2CDC2CE52C0030A300EA
:1009BC000030A2000030A1000030A000D82F200889
:1009CC00F9007908F00026080A128A15FA210A1291
:1009DC008A11710883120313B4007008B300330832
:1009EC00F900FA01FB01FC017C08AC007B08AB00B0
:1009FC007A08AA007908A9003408F900FA01FB0169
:100A0C00FC017C08B2007B08B1007A08B0007908C0
:100A1C00AF002108F9007908F00025080A128A15A0
:100A2C00FA210A128A11710883120313B400700898
:100A3C00B3003308F900FA01FB01FC017908A9079E
:100A4C007A0803110318013E03192D2DAA077B0800
:100A5C0003110318013E0319342DAB077C08031155
:100A6C000318013E03193B2DAC073408F900FA01B9
:100A7C00FB01FC017908AF077A0803110318013E4A
:100A8C000319492DB0077B0803110318013E031904
:100A9C00502DB1077C0803110318013E0319572D83
:100AAC00B2072208F9007908F00024080A128A1506
:100ABC00FA210A128A11710883120313B400700808
:100ACC00B3003308F900FA01FB01FC017908A9070E
:100ADC007A0803110318013E0319752DAA077B0828
:100AEC0003110318013E03197C2DAB077C0803117D
:100AFC000318013E0319832DAC073408F900FA01E1
:100B0C00FB01FC017908AF077A0803110318013EB9
:100B1C000319912DB0077B0803110318013E03192B
:100B2C00982DB1077C0803110318013E03199F2D62
:100B3C00B2070830F9000310A90DAA0DAB0DAC0DCE
:100B4C00F90BA12D2108F9007908F00024080A12EC
:100B5C008A15FA210A128A11710883120313B40040
:100B6C007008B3003308F9003408FA00FB01FC01EB
:100B7C007908A9077A0803110318013E0319C72D38
:100B8C00AA077B0803110318013E0319CE2DAB07EE
:100B9C007C0803110318013E0319D52DAC0720085E
:100BAC00F9007908F00025080A128A15FA210A12B0
:100BBC008A11710883120313B4007008B300330850
:100BCC00F9003408FA00FB01FC017908A9077A083E
:100BDC0003110318013E0319F42DAA077B08031116
:100BEC000318013E0319FB2DAB077C0803110318F6
:100BFC00013E0319022EAC070830F9000310A90DB1
:100C0C00AA0DAB0DAC0DF90B042E2008F9007908D8
:100C1C00F00024080A128A15FA210A128A117108A6
:100C2C0083120313B4007008B3003308F9003408BE
:100C3C00FA00FB01FC017908A9077A0803110318D3
:100C4C00013E03192A2EAA077B0803110318013E43
:100C5C000319312EAB077C0803110318013E03194D
:100C6C00382EAC072108F9007908F00026080A1282
:100C7C008A15FA210A128A11710883120313B4001F
:100C8C007008B3003308F9003408FA00FB01FC01CA
:100C9C007908AF077A0803110318013E0319572E80
:100CAC00B0077B0803110318013E03195E2EB10730
:100CBC007C0803110318013E0319652EB2072208A4
:100CCC00F9007908F00025080A128A15FA210A128F
:100CDC008A11710883120313B4007008B30033082F
:100CEC00F9003408FA00FB01FC017908AF077A0817
:100CFC0003110318013E0319842EB0077B0803115E
:100D0C000318013E03198B2EB1077C08031103183D
:100D1C00013E0319922EB2072208F9007908F0005F
:100D2C0026080A128A15FA210A128A1171088312EE
:100D3C000313B4007008B3003308F9003408FA0048
:100D4C00FB01FC0108300310F90DFA0DFB0DFC0D35
:100D5C00FF3E031DA92E7908AF077A08031103186B
:100D6C00013E0319BA2EB0077B0803110318013E8C
:100D7C000319C12EB1077C0803110318013E031996
:100D8C00C82EB2072908F9002A08FA002B08FB0024
:100D9C002C08FC0018300310FC0CFB0CFA0CF90CA2
:100DAC00FF3E031DD12E7908AF077A0803110318F3
:100DBC00013E0319E22EB0077B0803110318013E14
:100DCC000319E92EB1077C0803110318013E03191E
:100DDC00F02EB2070830F9000310A90DAA0DAB0DC7
:100DEC00AC0DF90BF22E2E082D07F900FA01FA0DB5
:100DFC007908823EB3007A080318013EFF3EB40026
:100E0C00242F0130F9000310AF0DB00DB10DB20D50
:100E1C00F90B092FAC1F132F142F152F2F14013082
:100E2C00F9000310A90DAA0DAB0DAC0DF90B172F82
:100E3C00FF30B3070318B40AFF30B407B11F272FD4
:100E4C00282F072FAD01AC1F2C2F2D2F492FFF3032
:100E5C002905F900FF302A05FA00FF302B05FB00AD
:100E6C007F302C05FC007C087B047A047904031980
:100E7C00402F412F442FAD01AD0A492F2F1C472F76
:100E8C00482F492F412F2D0803194D2F4E2F7F2FFF
:100E9C000130AF07003003180130B00700300318E1
:100EAC000130B107003003180130B207321C5F2F3C
:100EBC00602F7F2F2F08F9003008FA003108FB0053
:100ECC003208FC000130FD007C0DFC0CFB0CFA0C14
:100EDC00F90CFD0B6A2F7C08B2007B08B1007A0874
:100EEC00B0007908AF000130B3070318B40A003022
:100EFC00B4073408803AFF0080307F02031D882F2E
:100F0C00FF303302031C8B2F8C2F972F7F308312D3
:100F1C000313B2008030B1000030B0000030AF00DD
:100F2C00CC2F831203133408803AFF0080307F02E9
:100F3C00031DA22F013033020318A52FA62FB22FA9
:100F4C00003083120313B2000030B1000030B00047
:100F5C000030AF00A801CC2F831203133308F90023
:100F6C007908AE00FF30AF05FF30B0057F30B1051A
:100F7C000030B2052E1CC32FC42FC52FB1172E085D
:100F8C00F9000310790CFA007A08B2002808F9006D
:100F9C007908B2043208A3003108A2003008A1007D
:100FAC002F08A00008008313AF30FD000930FE00AD
:100FBC001630FF00A03084000A128A157A210A121A
:100FCC008A116730FD000930FE005530FF005730A4
:100FDC0084000A128A157A210A128A11453084007B
:100FEC0057300A128A15F4200A128A1183010A1248
:100FFC008A15102B08308A000408840A82070034F2
:10100C00303400343134003432340034333400346E
:10101C00343400343534003436340034373400344E
:08102C0038340034393400347B
:1011E80064008001840A0406031900340406F52803
:1011F8000730831603139F00831203138514831685
:101208000313850188010800831203138512051250
:1012180085110A128A1589210A128A158312031365
:101228008515080044346934673469347434653486
:10123800203461342034733465346E346834613456
:101248000034C030831203138800851205128511FB
:101258000A128A1589210A128A1583120313851521
:1012680008000230831203138800851205128511C5
:101278000A128A1589210A128A1583120313851501
:1012880008000130831203138800851205128511A6
:101298000A128A1589210A128A15831203138515E1
:1012A800080001340034013400340A3400345F3457
:1012B8005F345F345F3400343134323431343234A3
:1012C8000034F20072088312031388008516051291
:1012D80085110A128A1589210A128A1583120313A5
:1012E800851508007E088A007F0882000A128A1580
:1012F80076210A128A158000840A04087D060319DB
:101308000034FF0A0319FE0A7A29F001F1010130BD
:10131800F0070318F10A0030F1077108803AFF005E
:1013280093307F02031D9A2988307002031C9D297F
:101338009E298B290800F4007408F2007208F30053
:10134800A9290130F2007208F30773088400831397
:101358000008031DB029B129A52974087302F000FB
:10136800F101F01BF1030800F3007308F1007108A4
:10137800F200C6290130F1007108F2070130F100CE
:101388007108F0077008840083130008F1007208E0
:101398008400710880000008031DD329D429BE29C0
:1013A80073080800803083120313AB062F08F3007C
:1013B8002E08F2002D08F1002C08F0002B08F70089
:1013C8002A08F6002908F5002808F4000A128A15E8
:1013D80068250A128A15730883120313AB00720872
:1013E800AA007108A9007008A8000800F800F40114
:1013F800F5017008F200F3017208F6007308F700AF
:10140800781C072A082A0E2A7608F4070318F50A12
:101418007708F50701300310F60DF70DFF3E031DA1
:101428000F2A0310F80C7808031D1B2A1C2A042A0B
:101438007508F1007408F00008000A128A152521C1
:101448000A128A1520300A128A1565210A128A158D
:1014580020300A128A1565210A128A1520300A12CC
:101468008A1565210A128A1520300A128A15652103
:101478000A128A1520300A128A1565210A128A155D
:1014880020300A128A1565210A128A150800F6000A
:10149800552A0130F2007208F6070130F20072088E
:1014A800F0077008840083130008F20076088400AF
:1014B8000008F30072087302F4007408F500750858
:1014C800031D672A682A6F2A760884000008031D0E
:1014D8006E2A6F2A4D2A7508F000F101F01BF103FE
:1014E8000800F6007608F5007508F7007F2A013035
:1014F800F5007508F7077708840083130008031DB3
:10150800862A872A7B2A902A0130F5007508F70772
:101518000130F5007508F407740884000A128A156A
:1015280000200A128A15F5007708840075088000E3
:101538000008031DA02AA12A882A08000A128A1571
:10154800FC200A128A1501308312031388000A123C
:101558008A1508210A128A15383083120313880065
:101568000A128A1508210A128A150E3083120313EB
:1015780088000A128A1508210A128A150630831271
:10158800031388000A128A1508210A128A15803066
:101598008312031388000A128A1508210A128A1571
:1015A80008000A128A1525210A128A150A128A15B4
:1015B80021220A128A15F701F801F22A77085D3EFE
:1015C8008400831300080A128A1565210A128A15F5
:1015D8000130F7070318F80A0030F8075D300A12DF
:1015E8008A159F210A128A157008FF3EF5007108B6
:1015F8000318013EFF3EF60078087602031D062B0D
:10160800770875020318092B0A2BE22A0A128A1591
:1016180021220A128A1508008316031389018801FA
:101628000F30860001308312031389000A128A15CD
:10163800A2220A128A150A128A1545210A128A1547
:101648008312031359085A0403192B2B2C2B402BF4
:101658000A128A1106200A128A150A128A15D52238
:101668000A128A1583120313D901DA01402B0A12D0
:101678008A156B230A128A15831203135708580414
:10168800031D472B482B3B2B612B59085A04031980
:101698004E2B4F2B612B0130D9000030DA000A1293
:1016A8008A1106200A128A150A128A15D5220A12E8
:1016B8008A1583120313D901DA015708580403194C
:1016C800662B672B492B242B0A128A110028083015
:1016D80083120313C1000030C2005F2DFF30831254
:1016E8000313C1070318C20AFF30C2070A30DB0020
:1016F8000030DC00932B0A128A1161210A128A1524
:10170800023083120313C0008630BF009830BE0039
:10171800BE0B8C2BBF0B8C2BC00B8C2B00000A3004
:10172800831203135B065C0403199B2B9C2B7F2BF2
:10173800CF2B0330BE003E08D100F42B0530BE008D
:101748003E08D100F42B0730BE003E08D100F42B30
:101758000930BE003E08D100F42B0B30BE003E0815
:10176800D100F42B0D30BE003E08D100F42B0F3011
:10177800BE003E08D100F42B1130BE003E08D10057
:10178800F42B1330BE003E08D100F42B0130BE000C
:101798003E08D100F42B5C08003A0319D42BF42B33
:1017A8005B08003A0319CA2B013A03199D2B033A27
:1017B8000319A22B013A0319A72B073A0319AC2BDB
:1017C800013A0319B12B033A0319B62B013A03194D
:1017D800BB2B0F3A0319C02B013A0319C52BF42B65
:1017E8005108BE003E08F4005230BF003F08F00028
:1017F80052300A128A15B8210A128A150A128A1555
:1018080075220A128A150430831203134106420412
:10181800031D0F2C102CCE2C5230BE003E08F000B9
:1018280062300A128A154B220A128A15700871044E
:1018380003191F2C202CCE2C0A128A1545210A12B6
:101848008A150A128A1535210A128A1520300A12B9
:101858008A1565210A128A1553300A128A156521DC
:101868000A128A1565300A128A1565210A128A1524
:101878006E300A128A1565210A128A1568300A1212
:101888008A1565210A128A1561300A128A1565219E
:101898000A128A1520300A128A1565210A128A1539
:1018A80065300A128A1565210A128A1572300A12E1
:1018B8008A1565210A128A1572300A128A1565215D
:1018C8000A128A1561300A128A1565210A128A15C8
:1018D80064300A128A1565210A128A1561300A12C3
:1018E8008A1565210A128A15403083120313C00035
:1018F8006A30BF009730BE00BE0B802CBF0B802C17
:10190800C00B802C3F3083120313B8000030B7009F
:101918000030B6000030B5000A128A1143200A12BE
:101928008A153F3083120313B8000030B700003027
:10193800B6000030B5000A128A1143200A128A152F
:1019480083120313C301C401B42C4308523E84001C
:10195800831380010130C3070318C40A0030C40789
:1019680052300A128A159F210A128A157008FF3E02
:1019780083120313BE0071080318013EFF3EBF0027
:1019880044083F02031DCA2C43083E020318CD2C0D
:10199800CE2CA92C523083120313BE003E08F0004F
:1019A80062300A128A154B220A128A1570087104CD
:1019B800031DDF2CE02C502D83120313D701D8010F
:1019C8000A128A1545210A128A150A128A15352122
:1019D8000A128A1520300A128A1565210A128A15F8
:1019E80053300A128A1565210A128A1565300A12BF
:1019F8008A1565210A128A156E300A128A15652120
:101A08000A128A1568300A128A1565210A128A157F
:101A180061300A128A1565210A128A1520300A12C5
:101A28008A1565210A128A1563300A128A156521FA
:101A38000A128A156F300A128A1565210A128A1548
:101A480072300A128A1565210A128A1572300A1232
:101A58008A1565210A128A1565300A128A156521C8
:101A68000A128A1574300A128A1565210A128A1513
:101A780061300A128A1565210A128A1540308312CC
:101A88000313C0006A30BF009730BE00BE0B4A2D5A
:101A9800BF0B4A2DC00B4A2D831203134208803A0C
:101AA800FF0080307F02031D5B2D013041020318C7
:101AB8005E2D5F2D722B8312031357085804031DE4
:101AC800662D672D502D0800730880398312031383
:101AD800A0002008F8007308A0002007A100210832
:101AE800FA00F21F782D792D7A2D7A147A080319C5
:101AF8007E2D7F2D8F2D7A0A031D832D842D8C2D0D
:101B08000030F3000030F2000030F1000030F00047
:101B1800F217F301972D0030F3000030F200003087
:101B2800F1000030F00077088039A0002008F900A3
:101B3800790878060319A12DA22DA32D7817770807
:101B4800A0002007A1002108F900F61FAC2DAD2D3B
:101B5800AE2D791479080319B22DB32DC32D790A46
:101B6800031DB72DB82DC02D0030F7000030F6004A
:101B78000030F5000030F400F617F701CB2D0030E7
:101B8800F7000030F6000030F5000030F4007A0865
:101B980079020318D02DD12D152E781FD42DD52DCF
:101BA800D92D8030A0002008F8067A08A000200867
:101BB800FB007908A0002008FA007B08A000200894
:101BC800F9007008A0002008FB007408A000200895
:101BD800F0007B08A0002008F4007108A00020088D
:101BE800FB007508A0002008F1007B08A000200871
:101BF800F5007208A0002008FB007608A000200865
:101C0800F2007B08A0002008F6007308A000200856
:101C1800FB007708A0002008F3007B08A00020083C
:101C2800F700FB017908A000A1012108A3007A08A8
:101C38002002A200031CA3032308803AFF0080307F
:101C48007F02031D292E1A302202031C2C2E2D2E52
:101C58006E2E7308720471047004031D342E362E20
:101C68000130372E003083120313A0002008FB0038
:101C78000030F3000030F2000030F1000030F000D6
:101C88007908A0002008FA00742E7B1C4C2E4D2EDB
:101C9800582E7B0883120313A0000310200C013870
:101CA800A1002108FB005A2E0310FB0C701C5D2EAE
:101CB8005E2E5F2EFB17013083120313A000730DF5
:101CC800F30CF20CF10CF00CA00B632E0130A00009
:101CD8002008FA0779087A02031C732E742E492EFD
:101CE800781B772E782EC72E7A08031D7C2E7D2E22
:101CF800862E0030F3000030F2000030F100003092
:101D0800F000FF2F7408F007750803110318013E4F
:101D180003198F2EF107760803110318013E0319E2
:101D2800962EF207770803110318013E03199D2E1A
:101D3800F307731CA02EA12E7F2F7B1CA42EA52E8B
:101D4800B02E7B0883120313A0000310200C013867
:101D5800A1002108FB00B22E0310FB0C701CB52E4D
:101D6800B62EB72EFB17013083120313A000730D94
:101D7800F30CF20CF10CF00CA00BBB2E0130A00000
:101D88002008FA077F2F7308803AFF007708803A07
:101D98007F02031DD92E76087202031DD92E7508FD
:101DA8007102031DD92E740870020318DC2EDD2E73
:101DB800372FFF3083120313A000FF30A100FF303C
:101DC800A200FF30A3007408A4007508A5007608D7
:101DD800A6007708A7007008A4027108031C710FF9
:101DE800F62EF72EA5027208031C720FFC2EFD2E8C
:101DF800A6027308031C730F022F032FA7022408DF
:101E0800A00725080318250F0A2F0B2FA10726085E
:101E18000318260F102F112FA20727080318270AC7
:101E2800A3072308F3002208F2002108F100200884
:101E3800F0008030A0002008F806FB09FB0A7B08A8
:101E4800031D272F282F452F0130F00700300318D6
:101E58000130F107003003180130F2070030031891
:101E68000130F307452F7408F0027508031C750F3D
:101E7800F1027608031C760FF2027708031C770F2D
:101E8800F3027308720471047004031D4C2F4D2F64
:101E98007B2F7B08031D512F522F7B2F0030F3001F
:101EA8000030F2000030F1000030F000FF2F013068
:101EB80083120313A0000310F00DF10DF20DF30DC2
:101EC800A00B5F2FFB1F692F6A2F6B2F70147B1CD1
:101ED8006E2F6F2F722F0314FB0D742F0310FB0D41
:101EE8007A080319782F792F7B2F0130FA02F21F15
:101EF8007E2F7F2F5B2FF901FB1F832F842F922FBB
:101F08007B087F390319892F8A2F8D2FF901F90A48
:101F1800922F701C902F912F922F8A2F79080319D6
:101F2800962F972FCD2F0130F0070030031801307E
:101F3800F107003003180130F207003003180130B0
:101F4800F307731CA82FA92FCD2F70088312031332
:101F5800A0007108A1007208A2007308A300013054
:101F6800A400230DA30CA20CA10CA00CA40BB52F4C
:101F78002308F3002208F2002108F1002008F000ED
:101F88007A0A0319C82FC92FCD2F0130A0002008C5
:101F9800FA077A0A0319D12FD22FD72F7A08031DEF
:101FA800D62FD72FE52F0030F3000030F200003095
:101FB800F1000030F0007A08031DE32FE42FE52F2D
:101FC800F8017A1CE82FE92FEB2FF217F12F7F3059
:101FD80083120313A0002008F2057A088312031362
:101FE800A0000310200CA1002108F300F81FFD2F0A
:081FF800FE2FFF2FF317080074
:00000001FF
