:100000000A128A11BE2FF001F1010130F007031826
:10001000F10A0030F1077108803AFF0093307F0247
:10002000031D142888307002031C1728182805287F
:1000300008000A168A118A220A128A1101308312D4
:100040000313DB000030DC00F728EF3086000618D1
:100050002A282B285328073083120313A200583074
:10006000A1005930A000A00B3328A10B3328A20B0C
:1000700033280D3083120313A100FB30A000A00B26
:100080003F28A10B3F28AF3083120313A0002008A4
:10009000F0003130F1000030F200A0300A128A1571
:1000A00037200A128A1183120313861858285928F8
:1000B0008128073083120313A2005830A100593061
:1000C000A000A00B6128A10B6128A20B61280D30B4
:1000D00083120313A100FB30A000A00B6D28A10B1D
:1000E0006D28AF3083120313A0002008F0003230D7
:1000F000F1000030F200A0300A128A1537200A12EF
:100100008A1183120313061986288728AF2807301F
:1001100083120313A2005830A1005930A000A00B95
:100120008F28A10B8F28A20B8F280D308312031369
:10013000A100FB30A000A00B9B28A10B9B28AF3097
:1001400083120313A0002008F0003330F1000030C8
:10015000F200A0300A128A1537200A128A1183127F
:1001600003138619B428B528DD280730831203133A
:10017000A2005830A1005930A000A00BBD28A10B4F
:10018000BD28A20BBD280D3083120313A100FB3044
:10019000A000A00BC928A10BC928AF3083120313FC
:1001A000A0002008F0003430F1000030F200A03050
:1001B0000A128A1537200A128A117F30831203131C
:1001C00086008619E428E528F728073083120313F0
:1001D000A2005830A1005930A000A00BED28A10BBF
:1001E000ED28A20BED2883120313DB01DC015B0871
:1001F0005C04031DFC28FD2825280800013083121B
:1002000003138900EF3086000618072908293D29C5
:10021000063083120313BD001330BC00AD30BB00A9
:10022000BB0B1029BC0B1029BD0B10293D308312CC
:100230000313B800CC30B700CC30B600CD30B500D9
:100240000A168A1163260A128A1130300A168A1198
:10025000B2210A128A11831203136308640403197A
:10026000322933293529E701E801550856040319D5
:100270003A293B293D29E701E8018618402941290F
:100280007A29063083120313BD001330BC00AD3051
:10029000BB00BB0B4929BC0B4929BD0B49293D308B
:1002A00083120313B800CC30B700CC30B600CD3089
:1002B000B5000A168A1163260A128A1131300A160D
:1002C0008A11B2210A128A1183120313630864048B
:1002D00003196B296C2970290130E7000030E80010
:1002E000550856040319752976297A290130E70043
:1002F0000030E80006197D297E29B72906308312CF
:100300000313BD001330BC00AD30BB00BB0B86290E
:10031000BC0B8629BD0B86293D3083120313B80020
:10032000CC30B700CC30B600CD30B5000A168A11FB
:1003300063260A128A1132300A168A11B2210A1271
:100340008A1183120313630864040319A829A929D5
:10035000AD290230E7000030E800550856040319C3
:10036000B229B329B7290230E7000030E800861926
:10037000BA29BB29F429063083120313BD001330B8
:10038000BC00AD30BB00BB0BC329BC0BC329BD0BEC
:10039000C3293D3083120313B800CC30B700CC30F2
:1003A000B600CD30B5000A168A1163260A128A11EA
:1003B00033300A168A11B2210A128A1183120313EA
:1003C000630864040319E529E629EA290330E700F4
:1003D0000030E800550856040319EF29F029F429E4
:1003E0000330E7000030E800DF3086000618F92906
:1003F000FA29332A063083120313BD001330BC00E0
:10040000AD30BB00BB0B022ABC0B022ABD0B022A7B
:100410003D3083120313B800CC30B700CC30B600A7
:10042000CD30B5000A168A1163260A128A113430BB
:100430000A168A11B2210A128A1183120313630861
:1004400064040319242A252A292A0430E7000030ED
:10045000E8005508560403192E2A2F2A332A04309F
:10046000E7000030E8008618362A372A702A06305E
:1004700083120313BD001330BC00AD30BB00BB0BB7
:100480003F2ABC0B3F2ABD0B3F2A3D30831203138A
:10049000B800CC30B700CC30B600CD30B5000A166D
:1004A0008A1163260A128A1135300A168A11B2217E
:1004B0000A128A1183120313630864040319612A60
:1004C000622A662A0530E7000030E8005508560425
:1004D00003196B2A6C2A702A0530E7000030E80007
:1004E0000619732A742AAD2A063083120313BD003D
:1004F0001330BC00AD30BB00BB0B7C2ABC0B7C2A8C
:10050000BD0B7C2A3D3083120313B800CC30B700FA
:10051000CC30B600CD30B5000A168A1163260A1217
:100520008A1136300A168A11B2210A128A118312F0
:1005300003136308640403199E2A9F2AA32A063022
:10054000E7000030E800550856040319A82AA92A34
:10055000AD2A0630E7000030E8008619B02AB12A3B
:10056000EA2A063083120313BD001330BC00AD30FD
:10057000BB00BB0BB92ABC0BB92ABD0BB92A3D3055
:1005800083120313B800CC30B700CC30B600CD30A6
:10059000B5000A168A1163260A128A1137300A1624
:1005A0008A11B2210A128A118312031363086404A8
:1005B0000319DB2ADC2AE02A0730E7000030E800D4
:1005C000550856040319E52AE62AEA2A0730E70007
:1005D0000030E800BF3086000618EF2AF02A292BE9
:1005E000063083120313BD001330BC00AD30BB00D6
:1005F000BB0BF82ABC0BF82ABD0BF82A3D3083123E
:100600000313B800CC30B700CC30B600CD30B50005
:100610000A168A1163260A128A1138300A168A11BC
:10062000B2210A128A1183120313630864040319A6
:100630001A2B1B2B1F2B0830E7000030E800550851
:1006400056040319242B252B292B0830E7000030F2
:10065000E80086182C2B2D2B662B063083120313F3
:10066000BD001330BC00AD30BB00BB0B352BBC0B49
:10067000352BBD0B352B3D3083120313B800CC3026
:10068000B700CC30B600CD30B5000A168A1163260B
:100690000A128A1139300A168A11B2210A128A11F5
:1006A00083120313630864040319572B582B5C2B24
:1006B0000930E7000030E800550856040319612BA3
:1006C000622B662B0930E7000030E8000619692B21
:1006D0006A2B8D2B063083120313BD001330BC0030
:1006E000AD30BB00BB0B722BBC0B722BBD0B722B46
:1006F0003D3083120313B800CC30B700CC30B600C5
:10070000CD30B5000A168A1163260A128A114130CB
:100710000A168A11B2210A128A118312031386194A
:10072000922B932BB62B063083120313BD0013308C
:10073000BC00AD30BB00BB0B9B2BBC0B9B2BBD0B84
:100740009B2B3D3083120313B800CC30B700CC3064
:10075000B600CD30B5000A168A1163260A128A1136
:1007600042300A168A11B2210A128A117F3083128E
:10077000031386000618BD2BBE2BE12B0630831217
:100780000313BD001330BC00AD30BB00BB0BC62B48
:10079000BC0BC62BBD0BC62B3D3083120313B80018
:1007A000CC30B700CC30B600CD30B5000A168A1177
:1007B00063260A128A1143300A168A11B2210A12DC
:1007C0008A11831203138618E62BE72B0A2C0630B6
:1007D00083120313BD001330BC00AD30BB00BB0B54
:1007E000EF2BBC0BEF2BBD0BEF2B3D308312031314
:1007F000B800CC30B700CC30B600CD30B5000A160A
:100800008A1163260A128A1144300A168A11B2210B
:100810000A128A118312031306190F2C102C332C81
:10082000063083120313BD001330BC00AD30BB0093
:10083000BB0B182CBC0B182CBD0B182C3D30831295
:100840000313B800CC30B700CC30B600CD30B500C3
:100850000A168A1163260A128A1145300A168A116D
:10086000B2210A128A11831203138619382C392CEB
:100870005C2C063083120313BD001330BC00AD3076
:10088000BB00BB0B412CBC0B412CBD0B412C3D30A4
:1008900083120313B800CC30B700CC30B600CD3093
:1008A000B5000A168A1163260A128A1146300A1602
:1008B0008A11B2210A128A11080083120313230835
:1008C0008039F9007908A8002308F9007907FA00AF
:1008D0007A08AE00A21F6D2C6E2C6F2C2E142E08E1
:1008E0000319732C742C832C2E0A031D782C792C5D
:1008F000812C0030A3000030A2000030A1000030A5
:10090000A000A2178B2C0030A3000030A200003002
:10091000A1000030A00027088039F9007908A80656
:100920002708F9007907FA007A08AD00A61F992C6C
:100930009A2C9B2C2D142D0803199F2CA02CAF2C26
:100940002D0A031DA42CA52CAD2C0030A7000030CF
:10095000A6000030A5000030A400A617B72C003078
:10096000A7000030A6000030A5000030A4002D082C
:100970000319BB2CBC2CC12C2E08031DC02CC12C70
:10098000CA2C0030A3000030A2000030A1000030CB
:10099000A000BD2F2008F9007908F00026080A16EB
:1009A0008A1139220A128A11710883120313B400C2
:1009B0007008B3003308F900FA01FB01FC017C0860
:1009C000AC007B08AB007A08AA007908A9003408BB
:1009D000F900FA01FB01FC017C08B2007B08B100C0
:1009E0007A08B0007908AF002108F9007908F00012
:1009F00025080A168A1139220A128A1171088312EF
:100A00000313B4007008B3003308F900FA01FB01C6
:100A1000FC017908A9077A0803110318013E03199C
:100A2000122DAA077B0803110318013E0319192D83
:100A3000AB077C0803110318013E0319202DAC07F6
:100A40003408F900FA01FB01FC017908AF077A08C4
:100A500003110318013E03192E2DB0077B08031163
:100A60000318013E0319352DB1077C080311031843
:100A7000013E03193C2DB2072208F9007908F00065
:100A800024080A168A1139220A128A11710883125F
:100A90000313B4007008B3003308F900FA01FB0136
:100AA000FC017908A9077A0803110318013E03190C
:100AB0005A2DAA077B0803110318013E0319612D63
:100AC000AB077C0803110318013E0319682DAC071E
:100AD0003408F900FA01FB01FC017908AF077A0834
:100AE00003110318013E0319762DB0077B0803118B
:100AF0000318013E03197D2DB1077C08031103186B
:100B0000013E0319842DB2070830F9000310A90D26
:100B1000AA0DAB0DAC0DF90B862D2108F900790853
:100B2000F00024080A168A1139220A128A11710863
:100B300083120313B4007008B3003308F9003408BB
:100B4000FA00FB01FC017908A9077A0803110318D0
:100B5000013E0319AC2DAA077B0803110318013EBF
:100B60000319B32DAB077C0803110318013E0319C9
:100B7000BA2DAC072008F9007908F00025080A16FC
:100B80008A1139220A128A11710883120313B400E0
:100B90007008B3003308F9003408FA00FB01FC01C7
:100BA0007908A9077A0803110318013E0319D92D02
:100BB000AA077B0803110318013E0319E02DAB07B8
:100BC0007C0803110318013E0319E72DAC07083018
:100BD000F9000310A90DAA0DAB0DAC0DF90BE92D11
:100BE0002008F9007908F00024080A168A11392231
:100BF0000A128A11710883120313B4007008B3003B
:100C00003308F9003408FA00FB01FC017908A90750
:100C10007A0803110318013E03190F2EAA077B0857
:100C200003110318013E0319162EAB077C080311AC
:100C30000318013E03191D2EAC072108F90079089D
:100C4000F00026080A168A1139220A128A11710840
:100C500083120313B4007008B3003308F90034089A
:100C6000FA00FB01FC017908AF077A0803110318A9
:100C7000013E03193C2EB0077B0803110318013E07
:100C80000319432EB1077C0803110318013E031911
:100C90004A2EB2072208F9007908F00025080A1642
:100CA0008A1139220A128A11710883120313B400BF
:100CB0007008B3003308F9003408FA00FB01FC01A6
:100CC0007908AF077A0803110318013E0319692E4A
:100CD000B0077B0803110318013E0319702EB107FA
:100CE0007C0803110318013E0319772EB20722086E
:100CF000F9007908F00026080A168A1139220A122A
:100D00008A11710883120313B4007008B30033080A
:100D1000F9003408FA00FB01FC0108300310F90D5A
:100D2000FA0DFB0DFC0DFF3E031D8E2E7908AF075B
:100D30007A0803110318013E03199F2EB0077B08A0
:100D400003110318013E0319A62EB1077C080311F5
:100D50000318013E0319AD2EB2072908F9002A082D
:100D6000FA002B08FB002C08FC0018300310FC0CC8
:100D7000FB0CFA0CF90CFF3E031DB62E7908AF07E9
:100D80007A0803110318013E0319C72EB0077B0828
:100D900003110318013E0319CE2EB1077C0803117D
:100DA0000318013E0319D52EB2070830F9000310CD
:100DB000A90DAA0DAB0DAC0DF90BD72E2E082D07E2
:100DC000F900FA01FA0D7908823EB3007A08031897
:100DD000013EFF3EB400092F0130F9000310AF0DB2
:100DE000B00DB10DB20DF90BEE2EAC1FF82EF92E91
:100DF000FA2E2F140130F9000310A90DAA0DAB0D26
:100E0000AC0DF90BFC2EFF30B3070318B40AFF300A
:100E1000B407B11F0C2F0D2FEC2EAD01AC1F112FFD
:100E2000122F2E2FFF302905F900FF302A05FA0076
:100E3000FF302B05FB007F302C05FC007C087B0479
:100E40007A0479040319252F262F292FAD01AD0A25
:100E50002E2F2F1C2C2F2D2F2E2F262F2D08031930
:100E6000322F332F642F0130AF07003003180130C9
:100E7000B007003003180130B1070030031801300B
:100E8000B207321C442F452F642F2F08F900300879
:100E9000FA003108FB003208FC000130FD007C0D37
:100EA000FC0CFB0CFA0CF90CFD0B4F2F7C08B2006C
:100EB0007B08B1007A08B0007908AF000130B307B1
:100EC0000318B40A0030B4073408803AFF008030B9
:100ED0007F02031D6D2FFF303302031C702F712F13
:100EE0007C2F7F3083120313B2008030B1000030BA
:100EF000B0000030AF00B12F831203133408803AE2
:100F0000FF0080307F02031D872F0130330203185A
:100F10008A2F8B2F972F003083120313B2000030DB
:100F2000B1000030B0000030AF00A801B12F831233
:100F300003133308F9007908AE00FF30AF05FF3026
:100F4000B0057F30B1050030B2052E1CA82FA92FA7
:100F5000AA2FB1172E08F9000310790CFA007A08AD
:100F6000B2002808F9007908B2043208A300310859
:100F7000A2003008A1002F08A00008008317EF305E
:100F8000FD001530FE001330FF00903084000A167B
:100F90008A11C7210A128A115F30FD001430FE0049
:100FA0001930FF00103084000A168A11C7210A1276
:100FB0008A118313EE30FD001330FE00CB30FF00AA
:100FC000A03084000A168A11C7210A128A116E30D5
:100FD000FD001130FE007330FF005F3084000A1600
:100FE0008A11C7210A128A114F3084005F300A1615
:100FF0008A1144210A128A1183010A128A15F528DE
:10100000F801F901202878087307F6007408F50044
:101010000318F50AF81F0D28F5037508F700760880
:1010200084008317771C831300080A168A11B221E3
:101030000A128A150130F8070318F90A0030F90777
:1010400078087307F6007408F5000318F50AF81F0E
:101050002A28F5037508F700760884008317771CA3
:1010600083130008031D3528362803280800FA00DA
:10107000831203135D085E0403193F2840288A2861
:10108000F601F7017E2876087A07F30073088400DA
:1010900031300006031D4D284E2878287608700749
:1010A000F300730884000008F400F5017208750667
:1010B000031D5C2871087406031D5F2860287828CA
:1010C0003030F30076087A07F4007408840073085F
:1010D00080000D30F400FB30F300F30B6D28F40BAF
:1010E0006D2872280130F1070318F20A0030F20768
:1010F0000130F6070318F70A0030F70776087A0779
:10110000F3007308840083130008031D88288928CE
:101110004328F428F801F901E92878087A07F30050
:101120007308840030300006031D97289828B428DF
:1011300078087007F300730884000008F400F501D4
:1011400072087506031DA62871087406031DA928D8
:10115000AA28B4283130F30078087A07F40074081C
:10116000840073088000DA2878087A07F30073088F
:10117000840031300006031DBE28BF28DA28780815
:101180007007F300730884000008F400F50172088A
:101190007506031DCD2871087406031DD028D128BB
:1011A000DA283030F30078087A07F40074088400F5
:1011B000730880000D30F400FB30F300F30BDE28E1
:1011C000F40BDE28E3280130F8070318F90A003091
:1011D000F90778087A07F30073088400831300087E
:1011E000031DF328F4288D280800831603138901B2
:1011F00088010F30860001308312031389000A161C
:101200008A111A230A128A150A168A1192210A12C1
:101210008A150A168A1158210A128A1514290A12E7
:101220008A15D9210A128A158312031363086404EC
:10123000031D1B291C290F296F290A168A111A233D
:101240000A128A150A168A1192210A128A150A169A
:101250008A11A2210A128A15BE30F3000030F40070
:101260000A128A1500200A128A15333083120313DA
:10127000CE00BB30CD00DF30CC00CC0B3D29CD0BF8
:101280003D29CE0B3D290A168A118A220A128A1597
:101290007F3083120313860006184F2950296F29C7
:1012A000033083120313CE008A30CD005530CC00BA
:1012B000CC0B5829CD0B5829CE0B58298312031378
:1012C000DD01DE013D30B800CC30B700CC30B600D7
:1012D000CD30B5000A168A1163260A128A158312C8
:1012E00003135D085E04031D762977291D29CD2986
:1012F00002300A168A11B9220A128A15710883125D
:101300000313D2007008D1005208BC005108BB0082
:101310000A128A152A230A128A150230831203132D
:10132000CE004530CD00A930CC00CC0B9529CD0B9B
:101330009529CE0B952983120313530854040319DE
:10134000A229A329CD29B4295408C8005308C700ED
:101350000A168A11B8240A128A15CD290A128A118E
:1013600019200A128A15CD295408003A0319B929FF
:10137000CD295308013A0319A429033A0319A429D2
:10138000013A0319A429073A0319AE29013A0319AE
:10139000CD29033A0319CD29CD29831203136108FE
:1013A0006204031DD429D529782914290A128A1127
:1013B00000280A168A111A230A128A15823083120B
:1013C0000313BF00DD30BE00BE0BE429BF0BE429D0
:1013D0000A168A1192210A128A1582308312031387
:1013E000BF00DD30BE00BE0BF329BF0BF3290A1688
:1013F0008A118B230A128A150A168A114D230A12A2
:101400008A15212BC101C2010A3083120313E700A0
:101410000030E800102A0A128A11FE200A128A15EA
:101420000A3083120313670668040319182A192A5D
:101430000B2A6808F1006708F0000A168A11EA25ED
:101440000A128A1583120313BE004108693E840004
:101450003E0883138000033041064204031D312AF5
:10146000322A7D2A6930BE003E08F000E9300A16B3
:101470008A1160220A128A15700871040319412A20
:10148000422A7D2A693083120313BE003E08F00011
:10149000E4300A168A1160220A128A157008710453
:1014A0000319532A542A7D2A013083120313E300BF
:1014B0000030E400E101E2010A168A1192210A12C9
:1014C0008A150A168A11A2210A128A15E230F3003F
:1014D0000130F4000A128A1500200A128A153330EE
:1014E00083120313C000BB30BF00DF30BE00BE0B51
:1014F000772ABF0B772AC00B772A69308312031330
:10150000BE003E08F000E9300A168A1160220A1275
:101510008A1570087104031D8E2A8F2ABD2A831232
:101520000313E301E4010130E1000030E2000A307E
:10153000C1000030C2000A168A1192210A128A15CF
:101540000A168A11A2210A128A15BA30F300013054
:10155000F4000A128A1500200A128A153330831209
:101560000313C000BB30BF00DF30BE00BE0BB62A85
:10157000BF0BB62AC00BB62A0C2B6930831203139B
:10158000BE003E08F000E4300A168A1160220A12FA
:101590008A1570087104031DCE2ACF2A0C2B8312E2
:1015A0000313E301E4010A30C1000030C20001303E
:1015B000DD000030DE000A168A1192210A128A1517
:1015C0000A168A11A2210A128A15BA30F3000130D4
:1015D000F4000A128A1500200A128A153330831289
:1015E0000313C000BB30BF00DF30BE00BE0BF62AC5
:1015F000BF0BF62AC00BF62AAF3083120313BE00CE
:101600003E08F0003130F1000030F200A0300A1244
:101610008A1537200A128A15013083120313C10775
:101620000318C20A0030C2074208803AFF00803027
:101630007F02031D1D2B08304102031C202B212B90
:10164000042A8312031363086404031D282B292B27
:10165000022A0800BF3083120313860000303C02C8
:10166000CD3003193B020318362B372B8D2B0A166E
:101670008A111A230A128A150A168A1192210A124D
:101680008A150A168A11A2210A128A153E300A16F4
:101690008A11B2210A128A15D530F3000130F40004
:1016A0000A128A1500200A128A150A168A11822146
:1016B0000A128A15AC30F3000130F4000A128A15C0
:1016C00000200A128A15831203130619682B692B4E
:1016D000672D033083120313BF008A30BE005530DC
:1016E000BD00BD0B712BBE0B712BBF0B712B3D30A1
:1016F00083120313B800CC30B700CC30B600CD3025
:10170000B5000A168A1163260A128A15013083125F
:101710000313D3000030D400672D01303C02993010
:1017200003193B020318952B962BEC2B0A168A11F2
:101730001A230A128A150A168A1192210A128A1588
:101740000A168A11A2210A128A15D530F300013037
:10175000F4000A128A1500200A128A150A168A1144
:1017600082210A128A153E300A168A11B2210A1203
:101770008A15AC30F3000130F4000A128A150020FB
:101780000A128A15831203130619C72BC82B672D5B
:10179000033083120313BF008A30BE005530BD00F2
:1017A000BD0BD02BBE0BD02BBF0BD02B3D308312EB
:1017B0000313B800CC30B700CC30B600CD30B50044
:1017C0000A168A1163260A128A150230831203133D
:1017D000D3000030D400672D02303C02653003197D
:1017E0003B020318F42BF52B4B2C0A168A111A23F3
:1017F0000A128A150A168A1192210A128A150A16E5
:101800008A11A2210A128A153E300A168A11B221C3
:101810000A128A15C830F3000130F4000A128A1542
:1018200000200A128A150A168A1182210A128A15C4
:101830009E30F3000130F4000A128A1500200A12CB
:101840008A15831203130619262C272C672D0330C3
:1018500083120313BF008A30BE005530BD00BD0B9C
:101860002F2CBE0B2F2CBF0B2F2C3D3083120313BC
:10187000B800CC30B700CC30B600CD30B5000A1679
:101880008A1163260A128A15033083120313D300C8
:101890000030D400672D03303C02313003193B0285
:1018A0000318532C542CAA2C0A168A111A230A1234
:1018B0008A150A168A1192210A128A150A168A11A5
:1018C000A2210A128A15C830F3000130F4000A126E
:1018D0008A1500200A128A150A168A1182210A1214
:1018E0008A153E300A168A11B2210A128A159E30D4
:1018F000F3000130F4000A128A1500200A128A153A
:10190000831203130619852C862C672D033083124E
:101910000313BF008A30BE005530BD00BD0B8E2CB6
:10192000BE0B8E2CBF0B8E2C3D3083120313B800E0
:10193000CC30B700CC30B600CD30B5000A168A11D5
:1019400063260A128A15043083120313D300003071
:10195000D400672D03303C02FD3003193B0203180D
:10196000B22CB32C092D0A168A111A230A128A15D1
:101970000A168A1192210A128A150A168A11A221C0
:101980000A128A153E300A168A11B2210A128A15E5
:101990005030F3000130F4000A128A1500200A12B8
:1019A0008A150A168A1182210A128A15D130F3008B
:1019B0000030F4000A128A1500200A128A158312D8
:1019C00003130619E42CE52C672D0330831203134F
:1019D000BF008A30BE005530BD00BD0BED2CBE0BE4
:1019E000ED2CBF0BED2C3D3083120313B800CC302F
:1019F000B700CC30B600CD30B5000A168A11632688
:101A00000A128A15053083120313D3000030D40064
:101A1000672D04303C02C93003193B020318112D15
:101A2000122D672D0A168A111A230A128A150A1610
:101A30008A1192210A128A150A168A11A2210A1203
:101A40008A155030F3000130F4000A128A15002084
:101A50000A128A150A168A1182210A128A153E3044
:101A60000A168A11B2210A128A15D130F300003009
:101A7000F4000A128A1500200A128A158312031331
:101A80000619432D442D672D033083120313BF0025
:101A90008A30BE005530BD00BD0B4C2DBE0B4C2D09
:101AA000BF0B4C2D3D3083120313B800CC30B70070
:101AB000CC30B600CD30B5000A168A1163260A1262
:101AC0008A15063083120313D3000030D4000800B7
:101AD0007308803983120313A0002008F8007308EC
:101AE000A0002007A1002108FA00F21F782D792D0F
:101AF0007A2D7A147A0803197E2D7F2D8F2D7A0A7C
:101B0000031D832D842D8C2D0030F3000030F20056
:101B10000030F1000030F000F217F301972D003093
:101B2000F3000030F2000030F1000030F0007708E0
:101B30008039A0002008F900790878060319A12D42
:101B4000A22DA32D78177708A0002007A100210857
:101B5000F900F61FAC2DAD2DAE2D791479080319BF
:101B6000B22DB32DC32D790A031DB72DB82DC02D6D
:101B70000030F7000030F6000030F5000030F400CF
:101B8000F617F701CB2D0030F7000030F6000030DB
:101B9000F5000030F4007A0879020318D02DD12D19
:101BA000152E781FD42DD52DD92D8030A0002008DA
:101BB000F8067A08A0002008FB007908A000200899
:101BC000FA007B08A0002008F9007008A000200897
:101BD000FB007408A0002008F0007B08A00020088B
:101BE000F4007108A0002008FB007508A000200880
:101BF000F1007B08A0002008F5007208A000200872
:101C0000FB007608A0002008F2007B08A000200856
:101C1000F6007308A0002008FB007708A000200849
:101C2000F3007B08A0002008F700FB017908A00062
:101C3000A1012108A3007A082002A200031CA3032B
:101C40002308803AFF0080307F02031D292E1A30BE
:101C50002202031C2C2E2D2E6E2E7308720471048A
:101C60007004031D342E362E0130372E00308312BF
:101C70000313A0002008FB000030F3000030F20046
:101C80000030F1000030F0007908A0002008FA00D0
:101C9000742E7B1C4C2E4D2E582E7B088312031362
:101CA000A0000310200C0138A1002108FB005A2ECF
:101CB0000310FB0C701C5D2E5E2E5F2EFB17013097
:101CC00083120313A000730DF30CF20CF10CF00C53
:101CD000A00B632E0130A0002008FA0779087A02D1
:101CE000031C732E742E492E781B772E782EC72E48
:101CF0007A08031D7C2E7D2E862E0030F3000030E6
:101D0000F2000030F1000030F000FF2F7408F007FF
:101D1000750803110318013E03198F2EF107760889
:101D200003110318013E0319962EF20777080311D9
:101D30000318013E03199D2EF307731CA02EA12E3C
:101D40007F2F7B1CA42EA52EB02E7B08831203139D
:101D5000A0000310200C0138A1002108FB00B22EC6
:101D60000310FB0C701CB52EB62EB72EFB170130DE
:101D700083120313A000730DF30CF20CF10CF00CA2
:101D8000A00BBB2E0130A0002008FA077F2F73089C
:101D9000803AFF007708803A7F02031DD92E76082B
:101DA0007202031DD92E75087102031DD92E740805
:101DB00070020318DC2EDD2E372FFF308312031341
:101DC000A000FF30A100FF30A200FF30A300740884
:101DD000A4007508A5007608A6007708A70070087B
:101DE000A4027108031C710FF62EF72EA5027208CB
:101DF000031C720FFC2EFD2EA6027308031C730F2A
:101E0000022F032FA7022408A00725080318250F77
:101E10000A2F0B2FA10726080318260F102F112FAA
:101E2000A20727080318270AA3072308F30022089C
:101E3000F2002108F1002008F0008030A000200806
:101E4000F806FB09FB0A7B08031D272F282F452FC7
:101E50000130F007003003180130F107003003189B
:101E60000130F207003003180130F307452F7408E2
:101E7000F0027508031C750FF1027608031C760F3B
:101E8000F2027708031C770FF302730872047104DF
:101E90007004031D4C2F4D2F7B2F7B08031D512FEA
:101EA000522F7B2F0030F3000030F2000030F100A1
:101EB0000030F000FF2F013083120313A000031045
:101EC000F00DF10DF20DF30DA00B5F2FFB1F692F2D
:101ED0006A2F6B2F70147B1C6E2F6F2F722F0314C1
:101EE000FB0D742F0310FB0D7A080319782F792F3F
:101EF0007B2F0130FA02F21F7E2F7F2F5B2FF9011B
:101F0000FB1F832F842F922F7B087F390319892F82
:101F10008A2F8D2FF901F90A922F701C902F912F83
:101F2000922F8A2F79080319962F972FCD2F0130E2
:101F3000F007003003180130F107003003180130BA
:101F4000F207003003180130F307731CA82FA92FE4
:101F5000CD2F700883120313A0007108A10072082E
:101F6000A2007308A3000130A400230DA30CA20C4F
:101F7000A10CA00CA40BB52F2308F3002208F2003B
:101F80002108F1002008F0007A0A0319C82FC92F90
:101F9000CD2F0130A0002008FA077A0A0319D12FAB
:101FA000D22FD72F7A08031DD62FD72FE52F003039
:101FB000F3000030F2000030F1000030F0007A0849
:101FC000031DE32FE42FE52FF8017A1CE82FE92FFA
:101FD000EB2FF217F12F7F3083120313A00020089C
:101FE000F2057A0883120313A0000310200CA1004D
:101FF0002108F300F81FFD2FFE2FFF2FF317080015
:1022880064008001840A0406031900340406452901
:102298000730831603139F008312031385148316D4
:1022A8000313850188010800FF3083160313850096
:1022B8008130831203139F008030831603139F001D
:1022C8000800831203138512051285110A128A1158
:1022D80003200A168A118312031385150800CC34CB
:1022E80000340134003401340034013400340A3439
:1022F800003430343034303430340034C030831259
:10230800031388008512051285110A128A11032009
:102318000A168A11831203138515080001308312E7
:10232800031388008512051285110A128A110320E9
:102338000A168A11831203138515080002308312C6
:10234800031388008512051285110A128A110320C9
:102358000A168A118312031385150800F200720801
:102368008312031388008516051285110A128A1133
:1023780003200A168A1183120313851508007E08A4
:102388008A007F0882000A168A11C3210A168A1158
:102398008000840A04087D0603190034FF0A031923
:1023A800FE0AC7297008F2007108F300E12901301C
:1023B800F2070318F30A0030F30772088400831742
:1023C800731C83130008031DEA29EB29DB29700815
:1023D8007202F0007108031C710A7302F100080010
:1023E8000A168A1182210A168A11F301F401203093
:1023F8000A168A11B2210A168A110130F307031846
:10240800F40A0030F4077408803AFF0080307F0235
:10241800031D102A06307302031C132A142AFB29F1
:102428000800803083120313AB062F08F3002E0830
:10243800F2002D08F1002C08F0002B08F7002A08FC
:10244800F6002908F5002808F4000A128A156825FC
:102458000A168A11730883120313AB007208AA00C4
:102468007108A9007008A8000800F800F401F50137
:102478007008F200F3017208F6007308F700781C80
:10248800462A472A4D2A7608F4070318F50A7708DA
:10249800F50701300310F60DF70DFF3E031D4E2A18
:1024A8000310F80C7808031D5A2A5B2A432A75087A
:1024B800F1007408F0000800F6006A2A0130F20002
:1024C8007208F6070130F2007208F00770088400FD
:1024D80083130008F200760884000008F3007208ED
:1024E8007302F4007408F5007508031D7C2A7D2A20
:1024F800842A760884000008031D832A842A622A15
:102508007508F000F101F01BF10308000A168A11A2
:1025180092210A168A110A168A11A2210A168A110C
:10252800AF30F3000030F4000A128A1500200A16B2
:102538008A110A168A1182210A168A11A030F3001C
:102548000030F4000A128A1500200A168A114D304C
:10255800FC001930FB004F30FA00FA0BB12AFB0BD4
:10256800B12AFC0BB12AB82A0800F600C530F200DF
:102578007208831203139F057608F20002300310D5
:10258800F20DFF3E031DC32A0310720DF3007308FA
:102598009F040D30F300FB30F200F20BD12AF30B4D
:1025A800D12AD62A831203131F151F19DC2ADD2A04
:1025B800D92A1E08F500831603131E08F4007508AF
:1025C800F1007408F0000800FA000A168A11922136
:1025D8000A168A110A168A11A2210A168A112130AE
:1025E800F3000130F4000A128A1500200A168A1135
:1025F8000A168A1182210A168A117A08F300003015
:10260800F4000A128A1500200A168A1120300A16C8
:102618008A11B2210A168A11C830F3000030F4007A
:102628000A128A1500200A168A1108000A168A1149
:102638004C210A168A1101308312031388000A16E6
:102648008A1165210A168A1138308312031388000B
:102658000A168A1165210A168A110E30831203138D
:1026680088000A168A1165210A168A110630831213
:10267800031388000A168A1165210A168A11803008
:102688008312031388000A168A1165210A168A1113
:1026980008000A168A1182210A168A110A168A1156
:1026A800F4210A168A11F701F8016A2B7708DA3E35
:1026B8008400831300080A168A11B2210A168A11A7
:1026C8000130F7070318F80A0030F807DA30F0008D
:1026D8000030F1000A168A11D6210A168A117008EC
:1026E800FF3EF50071080318013EFF3EF60078082A
:1026F8007602031D812B770875020318842B852B1E
:102708005A2B0A168A11F4210A168A1108000A1689
:102718008A11A2210A168A1120300A168A11B221BA
:102728000A168A11F601F701A92B7608413E8400A2
:10273800831700080A168A11B2210A168A11013075
:10274800F6070318F70A0030F7074130F0000130A8
:10275800F1000A168A11D6210A168A117008FF3E5E
:10276800F40071080318013EFF3EF5007708750272
:10277800031DC02B760874020318C32BC42B992B96
:1027880020300A168A11B2210A168A11080020344C
:102798002034203420342034203420343134203480
:1027A80031342034313420343134003420345A3434
:1027B8006F346E3461343A34203431342034323456
:1027C800203433342034343400345334613469349D
:1027D800203452346134743461346F3400344434F6
:1027E800693467346934743465343A3420340034D5
:1027F80052346534613474346934763461347234F3
:1028080000345F345F345F345F3400343034303444
:1028180030343034003435343534353435340034DC
:1028280031343234313432340034533465346E3414
:1028380068346134203441347434753461346C3410
:1028480069347A3461346434613400344F346B341D
:102858003A34463420346F34753420344E34653479
:102868006734613472343A3445340034533465344F
:102878006E34683461342034633461346E346334C4
:1028880065346C34613464346134003444346934FC
:1028980067346934743465342034613420347334D3
:1028A80065346E34683461340034443465347334C8
:1028B80061347434693476346134723420345A346F
:1028C8006F346E346134003483120313C000C101C5
:1028D800C2010A3083120313E7000030E800792CA4
:1028E8000A128A11FE200A168A110A30831203136B
:1028F800670668040319812C822C742C6808F1007F
:102908006708F0000A168A11EA250A168A11831246
:102918000313BE0041084007BF003F0884003E087B
:10292800831380000130C1070318C20A0030C207B0
:102938004208803AFF0080307F02031DA52C043036
:102948004102031CA82CA92C6D2C831203134008E8
:102958000A168A1172250A168A117C088312031333
:10296800DA007B08D90008000A168A111A230A1609
:102978008A110A168A1192210A168A110A168A11D0
:10298800A2210A168A119030F3000130F4000A12CD
:102998008A1500200A168A110A168A114D230A166A
:1029A8008A11E53083120313CB004930CA00F43092
:1029B800C900C90BDD2CCA0BDD2CCB0BDD2C0000AC
:1029C800013083120313D5000030D60047034804B2
:1029D800031DEF2CF02CF72CDF300A168A11DF26A6
:1029E8000A168A11122D023047064804031DFD2CD1
:1029F800FE2C052DE9300A168A11DF260A168A11DF
:102A0800122D033047064804031D0B2D0C2D122DE3
:102A1800E4300A168A11DF260A168A1108002034C3
:102A2800203420344E346F34763461342034733497
:102A380065346E34683461340034533465346E342C
:102A48006834613420344434693473347034613404
:102A580072346F340034533465346E3468346134FE
:102A680020345534733475346134723469346F34B6
:102A78000034533465346E3468346134203463343C
:102A88006F347234723465347434613400345334BE
:102A980065346E3468346134203443346F346134BF
:102AA800633461346F340034533465346E346834BD
:102AB8006134203443346F346E3466346934673497
:102AC8000034533465346E346834613420346534EA
:102AD8007234723461346434613400348312031301
:102AE800A30023080A168A11E8220A168A1103305D
:102AF80083120313A4000030A500CB2D7F3086007D
:102B08000D3083120313A100FB30A000A00B8A2D07
:102B1800A10B8A2D831203130619932D942DAD2D25
:102B2800063083120313A2001330A100AD30A000B9
:102B3800A00B9C2DA10B9C2DA20B9C2D8312031383
:102B4800A401A50145300A168A11B2210A168A1174
:102B5800CB2D8619B02DB12DCB2D06308312031342
:102B6800A2001330A100AD30A000A00BB92DA10B1D
:102B7800B92DA20BB92D013083120313A400003024
:102B8800A50046300A168A11B2210A168A110330A6
:102B980083120313240625040319D32DD42D822D63
:102BA800273083120313A2000D30A1002530A000A6
:102BB800A00BDC2DA10BDC2DA20BDC2DE32D831249
:102BC80003132508FC002408FB000800312E3130CF
:102BD80083120313D7000030D800562E32308312E8
:102BE8000313D7000030D800562E33308312031356
:102BF800D7000030D800562E343083120313D70084
:102C08000030D800562E353083120313D700003019
:102C1800D800562E363083120313D7000030D80060
:102C2800562E373083120313D7000030D800562EA3
:102C3800383083120313D7000030D800562E3930AD
:102C480083120313D7000030D800562E3030831279
:102C58000313D7000030D800562E7108003A031924
:102C6800362E562E7008003A03192A2E013A0319F7
:102C7800EB2D033A0319F22D013A0319F92D073AFE
:102C88000319002E013A0319072E033A03190E2ED1
:102C9800013A0319152E0F3A03191C2E013A03198C
:102CA800232E562E0D30F300FB30F200F20B5A2E75
:102CB800F30B5A2E5F2E8312031357080800443073
:102CC80083120313A3007A30A2000030A100003061
:102CD800A0003808A7003708A6003608A500350860
:102CE800A4000A128A115D240A168A11831203139A
:102CF8002308B8002208B7002108B6002008B5004C
:102D0800413083120313BA00ED30B900B90B8A2E93
:102D1800BA0B8A2E8F2EBF2E831203138901073018
:102D280083120313BA007C30B900B90B992EBA0B81
:102D3800992E00003F3083120313AB008030AA00A5
:102D48000030A9000030A8003808AF003708AE00EE
:102D58003608AD003508AC000A168A1115220A1685
:102D68008A11831203132B08B8002A08B700290810
:102D7800B6002808B5000030F3000030F20000303B
:102D8800F1000030F000831203133808F700370809
:102D9800F6003608F5003508F4000A168A115E2791
:102DA8000A168A11031CD92EDA2E902E0F308312A0
:102DB80003138900080083120313C60046080A1685
:102DC8008A1168240A168A110A168A1192210A168B
:102DD8008A118312031359085A040319F42EF52E85
:102DE8000F2F1030F3000130F4000A128A1500206A
:102DF8000A168A110A168A1182210A168A11831262
:102E080003134608F3000030F4000A128A15002064
:102E18000A168A114F2F3130F3000130F4000A12DC
:102E28008A1500200A168A111A3083120313C50066
:102E38005E30C4006D30C300C30B202FC40B202F9D
:102E4800C50B202F272F9030F3000130F4000A1211
:102E58008A1500200A168A110A168A114D230A16A5
:102E68008A118312031346080A168A1168240A165F
:102E78008A118312031359085A040319442F452F42
:102E8800462FF52E3130F3000130F4000A128A156E
:102E980000200A168A11333083120313C500BB3091
:102EA800C400DF30C300C30B572FC40B572FC50B0B
:102EB800572F080000307005F80000307105F90040
:102EC80080307205FA007F307305FB007B087A04B6
:102ED80079047804031D712F722F7A2F0030F300C4
:102EE8000030F2000030F1000030F00000307405CE
:102EF800F80000307505F90080307605FA007F305B
:102F08007705FB007B087A0479047804031D8D2F6C
:102F18008E2F962F0030F7000030F6000030F500B5
:102F28000030F400F31F992F9A2FBE2F0030F800BD
:102F38000030F9000030FA008030FB007008F80219
:102F48007108031C710FA92FAA2FF9027208031C1C
:102F5800720FAF2FB02FFA027308031C730FB52F2F
:102F6800B62FFB027B08F3007A08F2007908F1001B
:102F78007808F000F71FC12FC22FE62F0030F800A5
:102F88000030F9000030FA008030FB007408F802C5
:102F98007508031C750FD12FD22FF9027608031C70
:102FA800760FD72FD82FFA027708031C770FDD2F5B
:102FB800DE2FFB027B08F7007A08F6007908F50097
:102FC8007808F4008030F3068030F706770873023B
:102FD800031DF82F76087202031DF82F7508710279
:102FE800031DF82F740870020318FB2FFC2FFE2F07
:082FF8000310FF2F0314080071
:00000001FF
