:100000000A128A11C02FF2007208831203138800AB
:100010008516051285110A128A153A220A128A11CA
:10002000831203138515080000307005F8000030B6
:100030007105F90080307205FA007F307305FB000E
:100040007B087A0479047804031D2728282830289F
:100050000030F3000030F2000030F1000030F0001A
:1000600000307405F80000307505F9008030760521
:10007000FA007F307705FB007B087A047904780466
:10008000031D432844284C280030F7000030F600B8
:100090000030F5000030F400F31F4F28502874287A
:1000A0000030F8000030F9000030FA008030FB002A
:1000B0007008F8027108031C710F5F286028F902AC
:1000C0007208031C720F65286628FA027308031C65
:1000D000730F6B286C28FB027B08F3007A08F20090
:1000E0007908F1007808F000F71F772878289C2815
:1000F0000030F8000030F9000030FA008030FB00DA
:100100007408F8027508031C750F87288828F902FF
:100110007608031C760F8D288E28FA027708031CB8
:10012000770F93289428FB027B08F7007A08F600E3
:100130007908F5007808F4008030F3068030F7067F
:1001400077087302031DAE2876087202031DAE28DD
:1001500075087102031DAE28740870020318B128D7
:10016000B228B4280310B52803140800831203131F
:10017000C301C401C101C201C72841085F3E840018
:1001800080010130C1070318C20A0030C2074108CC
:100190005F3E840083130008031DCF28D028BD28AC
:1001A0008D290A3083120313D8000030D9000A12B7
:1001B0008A1517220A128A114E300A128A11032058
:1001C0000A128A113A300A128A1103200A128A117D
:1001D000831203134308303E0A128A1103200A12C5
:1001E0008A11F7280A128A119E210A128A110A30EE
:1001F00083120313580659040319FF280029F22813
:1002000033293130E8000030E90058293230E80065
:100210000030E90058293330E8000030E90058295F
:100220003430E8000030E90058293530E80000306B
:10023000E90058293630E8000030E9005829373005
:10024000E8000030E90058293830E8000030E900C3
:1002500058293930E8000030E90058293030E800EA
:100260000030E90058295908003A0319382958295B
:100270005808003A03192E29013A03190129033AB3
:1002800003190629013A03190B29073A0319102902
:10029000013A03191529033A03191A29013A0319D6
:1002A0001F290F3A03192429013A0319292958292A
:1002B0006808F4006908F5005F30BE003E08F000F1
:1002C0005F300A128A1569220A128A110A128A15E7
:1002D0003D230A128A118312031343085F3E8400F0
:1002E000831300080A128A1103200A128A114D3062
:1002F00083120313C0001930BF004F30BE00BE0B85
:100300007F29BF0B7F29C00B7F2901308312031384
:10031000C3070318C40A0030C40783120313440838
:10032000803AFF0080307F02031D98290830430285
:10033000031C9B299C29D1288D2908000130831298
:1003400003138900EF3086000618A729A829CF29B2
:10035000063083120313BD001330BC00AD30BB0068
:10036000BB0BB029BC0BB029BD0BB0293D308312AB
:100370000313B800CC30B700CC30B600CD30B50098
:100380000A128A15EC240A128A1130300A128A11D4
:1003900003200A128A1183120313D801D901861887
:1003A000D229D329FC29063083120313BD00133050
:1003B000BC00AD30BB00BB0BDB29BC0BDB29BD0B8C
:1003C000DB293D3083120313B800CC30B700CC30AA
:1003D000B600CD30B5000A128A15EC240A128A1133
:1003E00031300A128A1103200A128A110130831255
:1003F0000313D8000030D9000619FF29002A292A42
:10040000063083120313BD001330BC00AD30BB00B7
:10041000BB0B082ABC0B082ABD0B082A3D308312EF
:100420000313B800CC30B700CC30B600CD30B500E7
:100430000A128A15EC240A128A1132300A128A1121
:1004400003200A128A11023083120313D8000030ED
:10045000D90086192C2A2D2A562A06308312031316
:10046000BD001330BC00AD30BB00BB0B352ABC0B4C
:10047000352ABD0B352A3D3083120313B800CC302A
:10048000B700CC30B600CD30B5000A128A15EC2486
:100490000A128A1133300A128A1103200A128A11B1
:1004A000033083120313D8000030D900DF308600F8
:1004B00006185B2A5C2A852A063083120313BD00C6
:1004C0001330BC00AD30BB00BB0B642ABC0B642AEC
:1004D000BD0B642A3D3083120313B800CC30B70043
:1004E000CC30B600CD30B5000A128A15EC240A12C1
:1004F0008A1134300A128A1103200A128A11043038
:1005000083120313D8000030D9008618882A892A5C
:10051000B22A063083120313BD001330BC00AD3085
:10052000BB00BB0B912ABC0B912ABD0B912A3D301D
:1005300083120313B800CC30B700CC30B600CD30F6
:10054000B5000A128A15EC240A128A1135300A12F3
:100550008A1103200A128A11053083120313D8006E
:100560000030D9000619B52AB62ADF2A06308312D0
:100570000313BD001330BC00AD30BB00BB0BBE2A63
:10058000BC0BBE2ABD0BBE2A3D3083120313B8003C
:10059000CC30B700CC30B600CD30B5000A128A1589
:1005A000EC240A128A1136300A128A1103200A1228
:1005B0008A11063083120313D8000030D90086193F
:1005C000E22AE32A0C2B063083120313BD001330FA
:1005D000BC00AD30BB00BB0BEB2ABC0BEB2ABD0B48
:1005E000EB2A3D3083120313B800CC30B700CC3077
:1005F000B600CD30B5000A128A15EC240A128A1111
:1006000037300A128A1103200A128A110730831226
:100610000313D8000030D900BF3086000618112B14
:10062000122B3B2B063083120313BD001330BC008A
:10063000AD30BB00BB0B1A2BBC0B1A2BBD0B1A2BFE
:100640003D3083120313B800CC30B700CC30B60075
:10065000CD30B5000A128A15EC240A128A113830FE
:100660000A128A1103200A128A1108308312031316
:10067000D8000030D90086183E2B3F2B682B06305F
:1006800083120313BD001330BC00AD30BB00BB0BA5
:10069000472BBC0B472BBD0B472B3D30831203135D
:1006A000B800CC30B700CC30B600CD30B5000A125F
:1006B0008A15EC240A128A1139300A128A11032091
:1006C0000A128A11093083120313D8000030D900AE
:1006D00006196B2B6C2B8F2B063083120313BD0076
:1006E0001330BC00AD30BB00BB0B742BBC0B742BA8
:1006F000BD0B742B3D3083120313B800CC30B70010
:10070000CC30B600CD30B5000A128A15EC240A129E
:100710008A1141300A128A1103200A128A118312A7
:1007200003138619942B952BB82B063083120313D1
:10073000BD001330BC00AD30BB00BB0B9D2BBC0B10
:100740009D2BBD0B9D2B3D3083120313B800CC3085
:10075000B700CC30B600CD30B5000A128A15EC24B3
:100760000A128A1142300A128A1103200A128A11CF
:100770007F308312031386000618BF2BC02BE32B98
:10078000063083120313BD001330BC00AD30BB0034
:10079000BB0BC82BBC0BC82BBD0BC82B3D30831229
:1007A0000313B800CC30B700CC30B600CD30B50064
:1007B0000A128A15EC240A128A1143300A128A118D
:1007C00003200A128A11831203138618E82BE92BDF
:1007D0000C2C063083120313BD001330BC00AD3067
:1007E000BB00BB0BF12BBC0BF12BBD0BF12B3D3038
:1007F00083120313B800CC30B700CC30B600CD3034
:10080000B5000A128A15EC240A128A1144300A1221
:100810008A1103200A128A11831203130619112C5C
:10082000122C352C063083120313BD001330BC008C
:10083000AD30BB00BB0B1A2CBC0B1A2CBD0B1A2CF9
:100840003D3083120313B800CC30B700CC30B60073
:10085000CD30B5000A128A15EC240A128A114530EF
:100860000A128A1103200A128A11831203138619AD
:100870003A2C3B2C5E2C063083120313BD00133040
:10088000BC00AD30BB00BB0B432CBC0B432CBD0BE1
:10089000432C3D3083120313B800CC30B700CC306A
:1008A000B600CD30B5000A128A15EC240A128A115E
:1008B00046300A128A1103200A128A110800831294
:1008C000031323088039F9007908A8002308F900E8
:1008D0007907FA007A08AE00A21F6F2C702C712CD9
:1008E0002E142E080319752C762C852C2E0A031D28
:1008F0007A2C7B2C832C0030A3000030A200003027
:10090000A1000030A000A2178D2C0030A300003001
:10091000A2000030A1000030A00027088039F900B3
:100920007908A8062708F9007907FA007A08AD00C7
:10093000A61F9B2C9C2C9D2C2D142D080319A12C3B
:10094000A22CB12C2D0A031DA62CA72CAF2C0030F5
:10095000A7000030A6000030A5000030A400A617B4
:10096000B92C0030A7000030A6000030A5000030F0
:10097000A4002D080319BD2CBE2CC32C2E08031D6A
:10098000C22CC32CCC2C0030A3000030A2000030BD
:10099000A1000030A000BF2F2008F9007908F00066
:1009A00026080A128A15EB220A128A11710883128C
:1009B0000313B4007008B3003308F900FA01FB0117
:1009C000FC017C08AC007B08AB007A08AA0079081F
:1009D000A9003408F900FA01FB01FC017C08B2000F
:1009E0007B08B1007A08B0007908AF002108F9004F
:1009F0007908F00025080A128A15EB220A128A11DA
:100A0000710883120313B4007008B3003308F900AF
:100A1000FA01FB01FC017908A9077A080311031800
:100A2000013E0319142DAA077B0803110318013E88
:100A300003191B2DAB077C0803110318013E031992
:100A4000222DAC073408F900FA01FB01FC017908FA
:100A5000AF077A0803110318013E0319302DB007C0
:100A60007B0803110318013E0319372DB1077C08D9
:100A700003110318013E03193E2DB2072208F900A5
:100A80007908F00024080A128A15EB220A128A114A
:100A9000710883120313B4007008B3003308F9001F
:100AA000FA01FB01FC017908A9077A080311031870
:100AB000013E03195C2DAA077B0803110318013EB0
:100AC0000319632DAB077C0803110318013E0319BA
:100AD0006A2DAC073408F900FA01FB01FC01790822
:100AE000AF077A0803110318013E0319782DB007E8
:100AF0007B0803110318013E03197F2DB1077C0801
:100B000003110318013E0319862DB2070830F900BE
:100B10000310A90DAA0DAB0DAC0DF90B882D210802
:100B2000F9007908F00024080A128A15EB220A124B
:100B30008A11710883120313B4007008B3003308DC
:100B4000F9003408FA00FB01FC017908A9077A08CA
:100B500003110318013E0319AE2DAA077B080311E8
:100B60000318013E0319B52DAB077C0803110318C8
:100B7000013E0319BC2DAC072008F9007908F000EC
:100B800025080A128A15EB220A128A1171088312AB
:100B90000313B4007008B3003308F9003408FA00F6
:100BA000FB01FC017908A9077A0803110318013E2B
:100BB0000319DB2DAA077B0803110318013E031953
:100BC000E22DAB077C0803110318013E0319E92D40
:100BD000AC070830F9000310A90DAA0DAB0DAC0D40
:100BE000F90BEB2D2008F9007908F00024080A120F
:100BF0008A15EB220A128A11710883120313B400BA
:100C00007008B3003308F9003408FA00FB01FC0156
:100C10007908A9077A0803110318013E0319112E58
:100C2000AA077B0803110318013E0319182EAB070E
:100C30007C0803110318013E03191F2EAC0721087D
:100C4000F9007908F00026080A128A15EB220A1228
:100C50008A11710883120313B4007008B3003308BB
:100C6000F9003408FA00FB01FC017908AF077A08A3
:100C700003110318013E03193E2EB0077B08031130
:100C80000318013E0319452EB1077C080311031810
:100C9000013E03194C2EB2072208F9007908F00032
:100CA00025080A128A15EB220A128A11710883128A
:100CB0000313B4007008B3003308F9003408FA00D5
:100CC000FB01FC017908AF077A0803110318013E04
:100CD00003196B2EB0077B0803110318013E03199B
:100CE000722EB1077C0803110318013E0319792EF7
:100CF000B2072208F9007908F00026080A128A15BE
:100D0000EB220A128A11710883120313B4007008CF
:100D1000B3003308F9003408FA00FB01FC01083085
:100D20000310F90DFA0DFB0DFC0DFF3E031D902E77
:100D30007908AF077A0803110318013E0319A12EA1
:100D4000B0077B0803110318013E0319A82EB10751
:100D50007C0803110318013E0319AF2EB2072908BE
:100D6000F9002A08FA002B08FB002C08FC001830B8
:100D70000310FC0CFB0CFA0CF90CFF3E031DB82E03
:100D80007908AF077A0803110318013E0319C92E29
:100D9000B0077B0803110318013E0319D02EB107D9
:100DA0007C0803110318013E0319D72EB20708303F
:100DB000F9000310A90DAA0DAB0DAC0DF90BD92E3E
:100DC0002E082D07F900FA01FA0D7908823EB300CA
:100DD0007A080318013EFF3EB4000B2F0130F900E2
:100DE0000310AF0DB00DB10DB20DF90BF02EAC1F0D
:100DF000FA2EFB2EFC2E2F140130F9000310A90D42
:100E0000AA0DAB0DAC0DF90BFE2EFF30B307031886
:100E1000B40AFF30B407B11F0E2F0F2FEE2EAD0115
:100E2000AC1F132F142F302FFF302905F900FF308E
:100E30002A05FA00FF302B05FB007F302C05FC0053
:100E40007C087B047A0479040319272F282F2B2F81
:100E5000AD01AD0A302F2F1C2E2F2F2F302F282F12
:100E60002D080319342F352F662F0130AF070030BE
:100E700003180130B007003003180130B10700300B
:100E800003180130B207321C462F472F662F2F0858
:100E9000F9003008FA003108FB003208FC0001308C
:100EA000FD007C0DFC0CFB0CFA0CF90CFD0B512F1A
:100EB0007C08B2007B08B1007A08B0007908AF0066
:100EC0000130B3070318B40A0030B4073408803A7D
:100ED000FF0080307F02031D6F2FFF303302031CA1
:100EE000722F732F7E2F7F3083120313B200803056
:100EF000B1000030B0000030AF00B32F83120313F5
:100F00003408803AFF0080307F02031D892F0130B2
:100F1000330203188C2F8D2F992F00308312031367
:100F2000B2000030B1000030B0000030AF00A801C6
:100F3000B32F831203133308F9007908AE00FF3092
:100F4000AF05FF30B0057F30B1050030B2052E1C73
:100F5000AA2FAB2FAC2FB1172E08F9000310790C74
:100F6000FA007A08B2002808F9007908B2043208B9
:100F7000A3003108A2003008A1002F08A00008003B
:100F80008317E730FD000C30FE009530FF009030F5
:100F900084000A128A152B220A128A113B30FD00A6
:100FA0000B30FE001230FF00103084000A128A1548
:100FB0002B220A128A118313EA30FD000C30FE0046
:100FC0004B30FF00A03084000A128A152B220A122F
:100FD0008A116430FD000A30FE008730FF00453082
:100FE00084000A128A152B220A128A11E401E501F3
:100FF000E601E701E801E90183010A128A159F2B46
:1013BA000730831603139F008312031385148316C1
:1013CA00031385018801080083120313851205128D
:1013DA0085110A128A153A220A128A1583120313F0
:1013EA0085150800C0308312031388008512051280
:1013FA0085110A128A153A220A128A1583120313D0
:10140A00851508000230831203138800851205121D
:10141A0085110A128A153A220A128A1583120313AF
:10142A0085150800013083120313880085120512FE
:10143A0085110A128A153A220A128A15831203138F
:10144A00851508007E088A007F0882000A128A151C
:10145A0027220A128A158000840A04087D060319C5
:10146A000034FF0A0319FE0A2B2AF001F1010130A8
:10147A00F0070318F10A0030F1077108803AFF00FB
:10148A0093307F02031D4B2A88307002031C4E2AB8
:10149A004F2A3C2A0800F4007408F2007208F3008C
:1014AA005A2A0130F2007208F30773088400831382
:1014BA000008031D612A622A562A74087302F00082
:1014CA00F101F01BF1030800F3007308F100710841
:1014DA00F200772A0130F1007108F2070130F100B9
:1014EA007108F0077008840083130008F10072087D
:1014FA008400710880000008031D842A852A6F2A47
:10150A007308080030343034303430340034353421
:10151A0035343534353400343134323431343234BC
:10152A00003401340034013400340A3400345F34A6
:10153A005F345F345F340034303430343034303424
:10154A0000340A128A15F7210A128A15F301F401E6
:10155A0020300A128A1103200A128A150130F30771
:10156A000318F40A0030F4077408803AFF00803048
:10157A007F02031DC22A06307302031CC52AC62A2B
:10158A00AD2A0800803083120313AB062F08F3003C
:10159A002E08F2002D08F1002C08F0002B08F700A5
:1015AA002A08F6002908F5002808F4000A128A1504
:1015BA0068250A128A15730883120313AB0072088E
:1015CA00AA007108A9007008A8000800F800F40130
:1015DA00F5017008F200F3017208F6007308F700CB
:1015EA00781CF82AF92AFF2A7608F4070318F50A5C
:1015FA007708F50701300310F60DF70DFF3E031DBE
:10160A00002B0310F80C7808031D0C2B0D2BF52A60
:10161A007508F1007408F0000800533465346E341C
:10162A0068346134203463346F347234723465340C
:10163A00743461340034533465346E34683461343C
:10164A002034653472347234613464346134003461
:10165A003E344434653473346134743469347634D2
:10166A006134723420345A346F346E346134003445
:10167A00F7007708F6007608F800472B0130F600E5
:10168A007608F8077808840083130008031D4E2B98
:10169A004F2B432B5A2B0130F6007608F8070130FE
:1016AA00F4070318F50A0030F50774088400831755
:1016BA00751C83130008F6007808840076088313E3
:1016CA0080000008031D6A2B6B2B502B08000A129E
:1016DA008A15DD210A128A15013083120313880044
:1016EA000A128A15E9210A128A153830831203135D
:1016FA0088000A128A15E9210A128A150E30831205
:10170A00031388000A128A15E9210A128A1506307B
:10171A008312031388000A128A15E9210A128A150C
:10172A0080308312031388000A128A15E9210A12EB
:10173A008A15080083160313890188010F30860071
:10174A0001308312031389000A128A156C230A12C4
:10175A008A150A128A1517220A128A15C22B0A1228
:10176A008A150E240A128A150A128A15D3230A1216
:10177A008A1583120313D601D7018312031356085D
:10178A005704031DC92BCA2BB42B0A128A11B6207F
:10179A000A128A15CA2B0A128A1100280A128A15F5
:1017AA00F7210A128A150A128A15A6220A128A151E
:1017BA00F701F801F02B77085A3E840083130008DA
:1017CA000A128A1103200A128A150130F707031830
:1017DA00F80A0030F8075A300A128A1550220A12FB
:1017EA008A157008FF3EF50071080318013EFF3E96
:1017FA00F60078087602031D042C77087502031890
:10180A00072C082CE02B0A128A15A6220A128A151E
:10181A0008000A128A1507220A128A1520300A12AB
:10182A008A1103200A128A15F701F8012C2C77086D
:10183A00A03E8400831300080A128A1103200A12A8
:10184A008A150130F7070318F80A0030F807A030A4
:10185A000A128A1550220A128A157008FF3EF500EC
:10186A0071080318013EFF3EF60078087602031D50
:10187A00402C770875020318432C442C1C2C20306A
:10188A000A128A1103200A128A150800443469349C
:10189A0067346934743465342034613420347334E1
:1018AA0065346E346834613400343E3453346534FC
:1018BA006E3468346134203443346F346E346634A1
:1018CA00693467340034533465346E3468346134AF
:1018DA00203443346F346134633461346F340034F8
:1018EA00533465346E3468346134203443346F348D
:1018FA006E3466346934673400343E3452346534A5
:10190A006134743469347634613472340034523454
:10191A006534613474346934763461347234003431
:10192A0044346534733461347434693476346134DC
:10193A00723420345A346F346E34613400343E3495
:10194A00533465346E346834613420344434693431
:10195A0073347034613472346F3400343E34533427
:10196A0065346E34683461342034553473347534D4
:10197A006134723469346F340034533465346E34EC
:10198A0068346134203444346934733470346134D3
:10199A0072346F3400343E34533465346E346834F0
:1019AA006134203443346F346134633461346F34C6
:1019BA000034533465346E34683461342034553419
:1019CA00733475346134723469346F34003444309A
:1019DA0083120313A3007A30A2000030A100003062
:1019EA00A0003808A7003708A6003608A500350861
:1019FA00A4000A128A115F240A128A158312031399
:101A0A002308B8002208B7002108B6002008B5004C
:101A1A00413083120313BA00ED30B900B90B132D0C
:101A2A00BA0B132D182D482D831203138901073081
:101A3A0083120313BA007C30B900B90B222DBA0BFA
:101A4A00222D00003F3083120313AB008030AA001E
:101A5A000030A9000030A8003808AF003708AE00EF
:101A6A003608AD003508AC000A128A15C7220A12D8
:101A7A008A15831203132B08B8002A08B70029080D
:101A8A00B6002808B5000030F3000030F20000303C
:101A9A00F1000030F000831203133808F70037080A
:101AAA00F6003608F5003508F4000A128A111420E7
:101ABA000A128A15031C622D632D192D0F30831209
:101ACA000313890008007308803983120313A000E6
:101ADA002008F8007308A0002007A1002108FA00D6
:101AEA00F21F782D792D7A2D7A147A0803197E2D12
:101AFA007F2D8F2D7A0A031D832D842D8C2D003086
:101B0A00F3000030F2000030F1000030F000F2176C
:101B1A00F301972D0030F3000030F2000030F1009D
:101B2A000030F00077088039A0002008F900790811
:101B3A0078060319A12DA22DA32D78177708A000E6
:101B4A002007A1002108F900F61FAC2DAD2DAE2DFE
:101B5A00791479080319B22DB32DC32D790A031DFF
:101B6A00B72DB82DC02D0030F7000030F600003038
:101B7A00F5000030F400F617F701CB2D0030F7001E
:101B8A000030F6000030F5000030F4007A087902DF
:101B9A000318D02DD12D152E781FD42DD52DD92D42
:101BAA008030A0002008F8067A08A0002008FB0070
:101BBA007908A0002008FA007B08A0002008F90094
:101BCA007008A0002008FB007408A0002008F0009C
:101BDA007B08A0002008F4007108A0002008FB0080
:101BEA007508A0002008F1007B08A0002008F50075
:101BFA007208A0002008FB007608A0002008F20066
:101C0A007B08A0002008F6007308A0002008FB004B
:101C1A007708A0002008F3007B08A0002008F7003E
:101C2A00FB017908A000A1012108A3007A0820027B
:101C3A00A200031CA3032308803AFF0080307F021E
:101C4A00031D292E1A302202031C2C2E2D2E6E2E35
:101C5A007308720471047004031D342E362E013089
:101C6A00372E003083120313A0002008FB00003037
:101C7A00F3000030F2000030F1000030F000790883
:101C8A00A0002008FA00742E7B1C4C2E4D2E582ED4
:101C9A007B0883120313A0000310200C0138A10053
:101CAA002108FB005A2E0310FB0C701C5D2E5E2EC1
:101CBA005F2EFB17013083120313A000730DF30C80
:101CCA00F20CF10CF00CA00B632E0130A0002008DE
:101CDA00FA0779087A02031C732E742E492E781B90
:101CEA00772E782EC72E7A08031D7C2E7D2E862EFF
:101CFA000030F3000030F2000030F1000030F00054
:101D0A00FF2F7408F007750803110318013E031921
:101D1A008F2EF107760803110318013E0319962E38
:101D2A00F207770803110318013E03199D2EF307E2
:101D3A00731CA02EA12E7F2F7B1CA42EA52EB02EA5
:101D4A007B0883120313A0000310200C0138A100A2
:101D5A002108FB00B22E0310FB0C701CB52EB62E08
:101D6A00B72EFB17013083120313A000730DF30C77
:101D7A00F20CF10CF00CA00BBB2E0130A0002008D5
:101D8A00FA077F2F7308803AFF007708803A7F02AC
:101D9A00031DD92E76087202031DD92E7508710209
:101DAA00031DD92E740870020318DC2EDD2E372F7E
:101DBA00FF3083120313A000FF30A100FF30A200FE
:101DCA00FF30A3007408A4007508A5007608A600D1
:101DDA007708A7007008A4027108031C710FF62E79
:101DEA00F72EA5027208031C720FFC2EFD2EA60206
:101DFA007308031C730F022F032FA7022408A007DE
:101E0A0025080318250F0A2F0B2FA10726080318E8
:101E1A00260F102F112FA20727080318270AA30736
:101E2A002308F3002208F2002108F1002008F0003C
:101E3A008030A0002008F806FB09FB0A7B08031D76
:101E4A00272F282F452F0130F007003003180130C3
:101E5A00F107003003180130F2070030031801308F
:101E6A00F307452F7408F0027508031C750FF10279
:101E7A007608031C760FF2027708031C770FF30229
:101E8A007308720471047004031D4C2F4D2F7B2FAD
:101E9A007B08031D512F522F7B2F0030F300003097
:101EAA00F2000030F1000030F000FF2F0130831201
:101EBA000313A0000310F00DF10DF20DF30DA00BAA
:101ECA005F2FFB1F692F6A2F6B2F70147B1C6E2FDD
:101EDA006F2F722F0314FB0D742F0310FB0D7A085A
:101EEA000319782F792F7B2F0130FA02F21F7E2FE8
:101EFA007F2F5B2FF901FB1F832F842F922F7B08E3
:101F0A007F390319892F8A2F8D2FF901F90A922F08
:101F1A00701C902F912F922F8A2F79080319962FD0
:101F2A00972FCD2F0130F007003003180130F10749
:101F3A00003003180130F207003003180130F307AC
:101F4A00731CA82FA92FCD2F700883120313A0008A
:101F5A007108A1007208A2007308A3000130A4004E
:101F6A00230DA30CA20CA10CA00CA40BB52F2308C3
:101F7A00F3002208F2002108F1002008F0007A0A92
:101F8A000319C82FC92FCD2F0130A0002008FA0746
:101F9A007A0A0319D12FD22FD72F7A08031DD62FE9
:101FAA00D72FE52F0030F3000030F2000030F100A7
:101FBA000030F0007A08031DE32FE42FE52FF80123
:101FCA007A1CE82FE92FEB2FF217F12F7F308312BB
:101FDA000313A0002008F2057A0883120313A00055
:101FEA000310200CA1002108F300F81FFD2FFE2F7B
:061FFA00FF2FF3170800A1
:00000001FF
