:060000000A128A11EC2F28
:100892000730831603139F008312031385148316F4
:1008A20003138501880108004130F100EE30F000A9
:1008B200F00B592CF10B592C000083120313890100
:1008C2000800831203138512051285110A128A1178
:1008D200D8240A128A1183120313851508000130E5
:1008E2008312031388008512051285110A128A11D8
:1008F200D8240A128A118312031385150800C03006
:100902008312031388008512051285110A128A11B7
:10091200D8240A128A1183120313851508000230A3
:100922008312031388008512051285110A128A1197
:10093200D8240A128A118312031385150800F200C3
:1009420072088312031388008516051285110A1294
:100952008A11D8240A128A118312031385150800FA
:100962007E088A007F0882000A128A11B1240A12C4
:100972008A118000840A04087D0603190034FF0AE4
:100982000319FE0AB52C443469346734693474346B
:100992006534203461342034733465346E34683401
:1009A200613400345F345F345F345F340034F0010B
:1009B200F1010130F0070318F10A0030F107710864
:1009C200803AFF0093307F02031DE92C88307002C9
:1009D200031CEC2CED2CDA2C0800F4007408F20055
:1009E2007208F300F82C0130F2007208F307730862
:1009F200840083130008031DFF2C002DF42C7408BF
:100A02007302F000F101F01BF10308000A128A11CF
:100A120080240A128A1120300A128A11A0240A1292
:100A22008A1120300A128A11A0240A128A11203057
:100A32000A128A11A0240A128A1120300A128A117B
:100A4200A0240A128A1120300A128A11A0240A1242
:100A52008A1120300A128A11A0240A128A1108006F
:100A62000A128A1190240A128A11F701F801492DFB
:100A72007708203E8400831300080A128A11A024FA
:100A82000A128A110130F7070318F80A0030F80732
:100A920020300A128A11EE240A128A117008FF3ECF
:100AA200F50071080318013EFF3EF6007808760251
:100AB200031D5D2D770875020318602D612D392DF8
:100AC200080083160313890188010F308600013064
:100AD2008312031389000A128A1193250A128A11BA
:100AE2000A128A1170240A128A1179087A04031DE3
:100AF2007B2D7C2D8A2D0A128A1131250A128A1128
:100B02000A128A11C6250A128A110130F900003030
:100B1200FA000A128A1101260A128A11762D0A1285
:100B22008A1100280A128A1149240A128A110130F4
:100B32008312031388000A128A1162240A128A118C
:100B420038308312031388000A128A1162240A12AF
:100B52008A110E308312031388000A128A1162244A
:100B62000A128A1106308312031388000A128A11AC
:100B720062240A128A1180308312031388000A1237
:100B82008A1162240A128A1108000A128A11802428
:100B92000A128A110A128A1107250A128A11F7010A
:100BA200F801E32D77082F3E8400831300080A1210
:100BB2008A11A0240A128A110130F7070318F80AD1
:100BC2000030F8072F300A128A11EE240A128A1115
:100BD2007008FF3EF50071080318013EFF3EF60063
:100BE20078087602031DF72D770875020318FA2D8F
:100BF200FB2DD32D0A128A1107250A128A11080029
:100C02000130831203138900EF30860006180A2E82
:100C12000B2E232E0630F5001330F400AD30F30016
:100C2200F30B112EF40B112EF50B112E182E0A12A6
:100C32008A1155240A128A1130300A128A11A0240C
:100C42000A128A11831203138618282E292E412E86
:100C52000630F5001330F400AD30F300F30B2F2E05
:100C6200F40B2F2EF50B2F2E362E0A128A11552435
:100C72000A128A1131300A128A11A0240A128A1128
:100C8200831203130619462E472E5F2E0630F500F7
:100C92001330F400AD30F300F30B4D2EF40B4D2E58
:100CA200F50B4D2E542E0A128A1155240A128A115E
:100CB20032300A128A11A0240A128A1183120313F3
:100CC2008619642E652E7D2E0630F5001330F40051
:100CD200AD30F300F30B6B2EF40B6B2EF50B6B2E7A
:100CE200722E0A128A1155240A128A1133300A12FC
:100CF2008A11A0240A128A11DF308312031386009C
:100D02000618842E852E9D2E0630F5001330F40031
:100D1200AD30F300F30B8B2EF40B8B2EF50B8B2ED9
:100D2200922E0A128A1155240A128A1134300A129A
:100D32008A11A0240A128A11831203138618A22E82
:100D4200A32EBB2E0630F5001330F400AD30F300B5
:100D5200F30BA92EF40BA92EF50BA92EB02E0A1215
:100D62008A1155240A128A1135300A128A11A024D6
:100D72000A128A11831203130619C02EC12ED92E0C
:100D82000630F5001330F400AD30F300F30BC72E3C
:100D9200F40BC72EF50BC72ECE2E0A128A1155243C
:100DA2000A128A1136300A128A11A0240A128A11F2
:100DB200831203138619DE2EDF2EF72E0630F5007E
:100DC2001330F400AD30F300F30BE52EF40BE52EF7
:100DD200F50BE52EEC2E0A128A1155240A128A11FD
:100DE20037300A128A11A0240A128A11BF308312E4
:100DF200031386000618FE2EFF2E172F0630F5006D
:100E02001330F400AD30F300F30B052FF40B052F74
:100E1200F50B052F0C2F0A128A1155240A128A117A
:100E220038300A128A11A0240A128A11831203137B
:100E320086181C2F1D2F352F0630F5001330F400B5
:100E4200AD30F300F30B232FF40B232FF50B232FDD
:100E52002A2F0A128A1155240A128A1139300A12CB
:100E62008A11A0240A128A118312031306193A2F37
:100E72003B2F532F0630F5001330F400AD30F30052
:100E8200F30B412FF40B412FF50B412F482F0A1280
:100E92008A1155240A128A1141300A128A11A02499
:100EA2000A128A11831203138619582F592F712F90
:100EB2000630F5001330F400AD30F300F30B5F2F72
:100EC200F40B5F2FF50B5F2F662F0A128A11552440
:100ED2000A128A1142300A128A11A0240A128A11B5
:100EE2007F308312031386000618782F792F912FF3
:100EF2000630F5001330F400AD30F300F30B7F2F12
:100F0200F40B7F2FF50B7F2F862F0A128A1155249F
:100F12000A128A1143300A128A11A0240A128A1173
:100F2200831203138618962F972FAF2F0630F500E2
:100F32001330F400AD30F300F30B9D2FF40B9D2F13
:100F4200F50B9D2FA42F0A128A1155240A128A1119
:100F520044300A128A11A0240A128A11831203133E
:100F62000619B42FB52FCD2F0630F5001330F4003B
:100F7200AD30F300F30BBB2FF40BBB2FF50BBB2FE4
:100F8200C22F0A128A1155240A128A1145300A12F6
:100F92008A11A0240A128A11831203138619D22FEE
:100FA200D32FEB2F0630F5001330F400AD30F300F1
:100FB200F30BD92FF40BD92FF50BD92FE02F0A12EF
:100FC2008A1155240A128A1146300A128A11A02463
:100FD2000A128A11080083133430FD000430FE0027
:100FE200C430FF00203084000A128A11B5240A128C
:0E0FF2008A11F901FA0183010A128A11622D97
:00000001FF
